:020000040800F2
:10000000000002201D24000885160008871600083D
:10001000891600088B1600088D16000800000000E5
:100020000000000000000000000000008F16000823
:1000300091160008000000009316000895160008AD
:100040006D2400086D2400086D2400086D2400084C
:100050006D2400086D2400086D2400086D2400083C
:100060006D2400086D2400086D2400086D2400082C
:100070006D2400086D2400086D2400086D2400081C
:100080006D2400086D2400086D2400086D2400080C
:100090006D2400086D2400086D2400086D240008FC
:1000A0006D2400086D2400086D2400086D240008EC
:1000B0006D2400086D2400086D2400086D240008DC
:1000C0006D2400086D2400086D2400086D240008CC
:1000D0006D2400086D2400086D2400086D240008BC
:1000E0006D2400086D2400086D2400086D240008AC
:1000F0006D2400086D2400086D2400086D2400089C
:100100006D2400086D2400086D2400086D2400088B
:100110006D2400086D2400086D2400086D2400087B
:100120006D2400086D2400086D2400086D2400086B
:100130006D2400086D2400086D2400086D2400085B
:100140006D2400086D2400086D2400086D2400084B
:100150006D2400086D2400086D2400086D2400083B
:100160006D2400086D2400086D2400086D2400082B
:100170006D2400086D2400086D24000800000000B4
:080180006D2400086D24000845
:1001900010B5054C237833B9044B13B10448AFF3C1
:1001A00000800123237010BDE00700200000000044
:1001B0005C69000808B5034B1BB103490348AFF362
:1001C000008008BD00000000E40700205C69000812
:1001D000034613F8012B002AFBD1181A0138704787
:1001E00001F0FF01102A2BDB10F0070F08D010F8E8
:1001F000013B013A8B422DD010F0070F42B3F6D1EC
:10020000F0B441EA012141EA014122F007047FF004
:1002100000070023F0E80256083C85EA010586EA5B
:10022000010685FA47F5A3FA87F586FA47F6A5FA97
:1002300087F68EB9EED1F0BC01F0FF0102F00702A3
:1002400032B110F8013B013A83EA010313B1F8D14E
:100250000020704701387047002D06BF354603382F
:10026000073815F0010F07D1013015F4807F02BF68
:10027000013015F4C03F0130F0BC0138704700BFB9
:1002800081F0004102E000BF83F0004330B54FEA47
:1002900041044FEA430594EA050F08BF90EA020FB4
:1002A0001FBF54EA000C55EA020C7FEA645C7FEA47
:1002B000655C00F0E2804FEA5454D4EB5555B8BF6A
:1002C0006D420CDD2C4480EA020281EA030382EADB
:1002D000000083EA010180EA020281EA0303362D6D
:1002E00088BF30BD11F0004F4FEA01314FF4801C40
:1002F0004CEA113102D0404261EB410113F0004F52
:100300004FEA03334CEA133302D0524263EB430308
:1003100094EA050F00F0A780A4F10104D5F1200EA6
:100320000DDB02FA0EFC22FA05F2801841F1000101
:1003300003FA0EF2801843FA05F359410EE0A5F1D5
:1003400020050EF1200E012A03FA0EFC28BF4CF006
:10035000020C43FA05F3C01851EBE37101F00045BC
:1003600007D54FF0000EDCF1000C7EEB00006EEBC9
:100370000101B1F5801F1BD3B1F5001F0CD3490853
:100380005FEA30004FEA3C0C04F101044FEA4452AA
:1003900012F5800F80F09A80BCF1004F08BF5FEA31
:1003A000500C50F1000041EB045141EA050130BD11
:1003B0005FEA4C0C404141EB0101013C28BFB1F523
:1003C000801FE9D291F0000F04BF01460020B1FA6E
:1003D00081F308BF2033A3F10B03B3F120020CDA41
:1003E0000C3208DD02F1140CC2F10C0201FA0CF01F
:1003F00021FA02F10CE002F11402D8BFC2F1200C84
:1004000001FA02F120FA0CFCDCBF41EA0C01904039
:10041000E41AA2BF01EB0451294330BD6FEA040482
:100420001F3C1CDA0C340EDC04F11404C4F120026D
:1004300020FA04F001FA02F340EA030021FA04F37F
:1004400045EA030130BDC4F10C04C4F1200220FAD6
:1004500002F001FA04F340EA0300294630BD21FA14
:1004600004F0294630BD94F0000F83F4801306BFDA
:1004700081F480110134013D4EE77FEA645C18BFCE
:100480007FEA655C29D094EA050F08BF90EA020F65
:1004900005D054EA000C04BF1946104630BD91EA5D
:1004A000030F1EBF0021002030BD5FEA545C05D160
:1004B0004000494128BF41F0004130BD14F580049F
:1004C0003CBF01F5801130BD01F0004545F0FE4113
:1004D00041F470014FF0000030BD7FEA645C1ABF48
:1004E000194610467FEA655C1CBF0B46024650EA7F
:1004F000013406BF52EA033591EA030F41F40021AB
:1005000030BD00BF90F0000F04BF0021704730B530
:100510004FF4806404F132044FF000054FF0000105
:1005200050E700BF90F0000F04BF0021704730B5C6
:100530004FF4806404F1320410F0004548BF40429B
:100540004FF000013EE700BF42004FEAE2014FEAF0
:1005500031014FEA02701FBF12F07F4393F07F4FCB
:1005600081F06051704732F07F4208BF704793F0CE
:100570007F4F04BF41F40021704730B54FF46074E1
:1005800001F0004521F000411CE700BF50EA0102E4
:1005900008BF704730B54FF000050AE050EA01028D
:1005A00008BF704730B511F0004502D5404261EBFD
:1005B00041014FF4806404F132045FEA915C3FF43E
:1005C000D8AE4FF003025FEADC0C18BF03325FEADB
:1005D000DC0C18BF033202EBDC02C2F1200300FA8C
:1005E00003FC20FA02F001FA03FE40EA0E0021FAB1
:1005F00002F11444BDE600BF70B54FF0FF0C4CF49F
:10060000E06C1CEA11541DBF1CEA135594EA0C0F50
:1006100095EA0C0F00F0DEF82C4481EA030621EA8B
:100620004C5123EA4C5350EA013518BF52EA0335C6
:1006300041F4801143F4801338D0A0FB02CE4FF078
:100640000005E1FB02E506F00042E0FB03E54FF0A8
:100650000006E1FB03569CF0000F18BF4EF0010EA0
:10066000A4F1FF04B6F5007F64F5407404D25FEA9C
:100670004E0E6D4146EB060642EAC62141EA55514F
:100680004FEAC52040EA5E504FEACE2EB4F1FD0C91
:1006900088BFBCF5E06F1ED8BEF1004F08BF5FEA0F
:1006A000500E50F1000041EB045170BD06F00046C1
:1006B00046EA010140EA020081EA0301B4EB5C046E
:1006C000C2BFD4EB0C0541EA045170BD41F4801166
:1006D0004FF0000E013C00F3AB8014F1360FDEBF8B
:1006E000002001F0004170BDC4F10004203C35DA67
:1006F0000C341BDC04F11404C4F1200500FA05F3EA
:1007000020FA04F001FA05F240EA020001F000428A
:1007100021F0004110EBD37021FA04F642EB060100
:100720005EEA430E08BF20EAD37070BDC4F10C042A
:10073000C4F1200500FA04F320FA05F001FA04F2EE
:1007400040EA020001F0004110EBD37041F10001DA
:100750005EEA430E08BF20EAD37070BDC4F12005E5
:1007600000FA05F24EEA020E20FA04F301FA05F24D
:1007700043EA020321FA04F001F0004121FA04F2F5
:1007800020EA020000EBD3705EEA430E08BF20EAC5
:10079000D37070BD94F0000F0FD101F000464000FF
:1007A00041EB010111F4801F08BF013CF7D041EA81
:1007B000060195F0000F18BF704703F00046520085
:1007C00043EB030313F4801F08BF013DF7D043EA56
:1007D0000603704794EA0C0F0CEA135518BF95EA0C
:1007E0000C0F0CD050EA410618BF52EA4306D1D193
:1007F00081EA030101F000414FF0000070BD50EAB2
:10080000410606BF1046194652EA430619D094EA3B
:100810000C0F02D150EA013613D195EA0C0F05D125
:1008200052EA03361CBF104619460AD181EA030179
:1008300001F0004141F0FE4141F470014FF0000031
:1008400070BD41F0FE4141F4780170BD70B54FF0CC
:10085000FF0C4CF4E06C1CEA11541DBF1CEA13554C
:1008600094EA0C0F95EA0C0F00F0A7F8A4EB05042E
:1008700081EA030E52EA03354FEA013100F0888025
:100880004FEA03334FF0805545EA131343EA1263EE
:100890004FEA022245EA111545EA10654FEA0026A3
:1008A0000EF000419D4208BF964244F1FD0404F55C
:1008B000407402D25B084FEA3202B61A65EB0305B8
:1008C0005B084FEA32024FF480104FF4002CB6EB75
:1008D000020E75EB030E22BFB61A754640EA0C00F5
:1008E0005B084FEA3202B6EB020E75EB030E22BF35
:1008F000B61A754640EA5C005B084FEA3202B6EB76
:10090000020E75EB030E22BFB61A754640EA9C0034
:100910005B084FEA3202B6EB020E75EB030E22BF04
:10092000B61A754640EADC0055EA060E18D04FEAC2
:10093000051545EA16754FEA06164FEAC30343EA62
:1009400052734FEAC2025FEA1C1CC0D111F4801F2F
:100950000BD141EA00014FF000004FF0004CB6E728
:1009600011F4801F04BF01430020B4F1FD0C88BFC7
:10097000BCF5E06F3FF6AFAEB5EB030C04BFB6EBD2
:10098000020C5FEA500C50F1000041EB045170BDC5
:100990000EF0004E4EEA113114EB5C04C2BFD4EBF2
:1009A0000C0541EA045170BD41F480114FF0000E76
:1009B000013C90E645EA060E8DE60CEA135594EAF2
:1009C0000C0F08BF95EA0C0F3FF43BAF94EA0C0FF5
:1009D0000AD150EA01347FF434AF95EA0C0F7FF46A
:1009E00025AF104619462CE795EA0C0F06D152EABE
:1009F00003353FF4FDAE1046194622E750EA4106A2
:100A000018BF52EA43067FF4C5AE50EA41047FF4B2
:100A10000DAF52EA43057FF4EBAE12E74FF0FF3C17
:100A200006E000BF4FF0010C02E000BF4FF0010CE8
:100A30004DF804CD4FEA410C7FEA6C5C4FEA430C61
:100A400018BF7FEA6C5C1BD001B050EA410C0CBFB0
:100A500052EA430C91EA030F02BF90EA020F002012
:100A6000704710F1000F91EA030F58BF994208BF79
:100A700090422CBFD8176FEAE37040F00100704736
:100A80004FEA410C7FEA6C5C02D150EA013C07D18D
:100A90004FEA430C7FEA6C5CD6D152EA033CD3D0D8
:100AA0005DF8040B704700BF8446104662468C46D2
:100AB0001946634600E000BF01B5FFF7B7FF002805
:100AC00048BF10F1000F01BD4DF808EDFFF7F4FF2E
:100AD0000CBF012000205DF808FB00BF4DF808EDB9
:100AE000FFF7EAFF34BF012000205DF808FB00BFDC
:100AF0004DF808EDFFF7E0FF94BF012000205DF8FE
:100B000008FB00BF4DF808EDFFF7CEFF94BF0120B2
:100B100000205DF808FB00BF4DF808EDFFF7C4FFAB
:100B200034BF012000205DF808FB00BF4FEA410CF4
:100B30007FEA6C5C02D150EA013C0AD14FEA430CD7
:100B40007FEA6C5C02D152EA033C02D14FF0000014
:100B500070474FF0010070474FEA410212F5001252
:100B600015D211D56FF47873B3EB625212D94FEAF4
:100B7000C12343F0004343EA505311F0004F23FADE
:100B800002F018BF404270474FF00000704750EA33
:100B9000013005D111F0004008BF6FF000407047F0
:100BA0004FF00000704700BF53B94AB9002908BF91
:100BB00000281CBF4FF0FF314FF0FF3000F06EB93E
:100BC000ADF1080C6DE904CE00F006F8DDF804E0A4
:100BD000DDE9022304B070472DE9F047089D044683
:100BE0008C46002B40F083808A42174647D9B2FAE0
:100BF00082F242B1C2F1200024FA00F09140974005
:100C000040EA010C94404FEA1748230CBCFBF8F66D
:100C10001FFA87FE08FB16C143EA014306FB0EF1EB
:100C2000994209D9FB1806F1FF3080F019819942E9
:100C300040F21681023E3B445B1AA4B2B3FBF8F0CB
:100C400008FB103344EA034400FB0EFEA64509D915
:100C50003C1900F1FF3380F00581A64540F2028186
:100C600002383C4440EA0640A4EB0E0400261DB1C5
:100C7000D4400023C5E900433146BDE8F08702B9FE
:100C8000FFDEB2FA82F2002A50D1CB1B4FEA174E98
:100C90001FFA87F80126B3FBFEFC210C0EFB1C3368
:100CA00041EA034108FB0CF38B4207D979180CF198
:100CB000FF3002D28B4200F2E9808446C91AA3B207
:100CC000B1FBFEF00EFB101143EA014408FB00F8F3
:100CD000A04507D93C1900F1FF3302D2A04500F22C
:100CE000D9801846A4EB080440EA0C40BFE78B42C9
:100CF00009D9002D00F0B1800026C5E90001304679
:100D00003146BDE8F087B3FA83F6002E4AD18B4214
:100D100002D3824200F2B880841A61EB0301012001
:100D20008C46002DA8D0C5E9004CA5E7C2F12003F0
:100D300020FA03F6974001FA02F04FEA174ED94025
:100D40003043030CB1FBFEF61FFA87F80EFB1611B9
:100D500043EA014306FB08F1994204FA02F409D977
:100D6000FB1806F1FF3C80F08D80994240F28A80AA
:100D7000023E3B445B1A81B2B3FBFEF00EFB103324
:100D800041EA034100FB08F38B4207D9791800F1CF
:100D9000FF3C73D28B4271D902383944CB1A40EAF6
:100DA000064678E7C6F1200C03FA06F422FA0CF3A3
:100DB0001C4320FA0CF701FA06F34FEA144E21FA0D
:100DC0000CF11F433B0CB1FBFEF91FFA84F80EFB3C
:100DD000191143EA014109FB08FA8A4502FA06F2B1
:100DE00000FA06F308D9611809F1FF3048D28A45A4
:100DF00046D9A9F102092144A1EB0A01BFB2B1FB16
:100E0000FEF00EFB101147EA014700FB08F8B84559
:100E100007D9E71900F1FF312ED2B8452CD9023895
:100E2000274440EA0940A7EB0807A0FB02894F4589
:100E3000C64649461AD317D05DB1B3EB0E0267EB35
:100E4000010707FA0CFCF2404CEA0202F740C5E940
:100E5000002700263146BDE8F0872E4628460BE7DE
:100E60000646E9E61846FDE64345E5D2B8EB020E34
:100E700069EB04010138DFE70846D2E760468DE7F9
:100E80008146B9E7664675E730464AE7ACF1020CA1
:100E9000394413E702383C4424E700BF704700BFE1
:100EA00000487047A86E000800B583B00023019386
:100EB000042300930123034A04F056FA03B05DF8BB
:100EC00004FB00BFF8040020F0B583B006460D46D1
:100ED00004F020FB002867D0002301932A4601215B
:100EE00001A804F0D9F9074688B9002301932A46DE
:100EF000012101A804F004FA044600283DD13C4039
:100F0000E4B2304604F018FC204003B0F0BD274A9C
:100F1000136843F080431360019B9360D360244ABD
:100F2000116841F08041116003F140019160D1608E
:100F3000204A116841F08041116003F18001916005
:100F4000D1601D4A116841F08041116003F5906144
:100F50009160D160194A116841F08041116003F538
:100F600098619160D160164A116841F0804111602A
:100F700003F5A0639360D360B7E7124B00229A6039
:100F8000DA60019B10498B60CB6010498B60CB60AD
:100F900003F140000E498860C8600E498B60CB6049
:100FA0000D4B9A60DA60AAE70020AEE7A8030020A4
:100FB0003403002048040020D4030020E80400206B
:100FC00074040020F40500207C0300207C05002030
:100FD0001C040020C8050020BC04002008B504F053
:100FE0003FFC08BD10B582B08DF8070099B1012211
:100FF0002021124800F064FF002208210F4800F071
:101000005FFF4FF0FF3301220DF107010C4801F0A3
:1010100024F930B1FEE700222021084800F050FFFB
:10102000EAE7064C01220821204600F049FF012290
:101030002021204600F044FF02B010BD000C024009
:101040008C08002010B5044661F04F000021C0B2AA
:10105000FFF7C8FFC4F30310002140F01000FFF7B2
:10106000C1FF002104F00F00FFF7BCFF10BD38B531
:10107000002500E00135072D0CDC29460020FFF794
:10108000E1FF00247F2CF5DC01210020FFF7AAFFFF
:101090000134F7E738BD0000F8B506460F46A2F167
:1010A0002005EDB2FFF7CEFF002407E004EB0513A7
:1010B00001210C4AD05CFFF795FF0134072CF5DDC8
:1010C000791C3046FFF7BEFF002408E004EB05134F
:1010D00008330121034AD05CFFF784FF0134072C59
:1010E000F4DDF8BDDC6E000870B504460E4615460A
:1010F00005E031462046FFF7CFFF083401352A7856
:1011000062B104F10803802BF3D902360024F0E722
:10111000202231462046FFF7BFFF2C4604F1080588
:10112000802DF5D970BD000010B5424C0022802101
:10113000204600F0C5FEC82000F080FF012280217B
:10114000204600F0BDFE0021AE20FFF74BFF00213E
:10115000D520FFF747FF00218020FFF743FF002144
:101160004020FFF73FFF00218120FFF73BFF0021D8
:10117000CF20FFF737FF0021A120FFF733FF002129
:10118000C820FFF72FFF0021A620FFF72BFF00212B
:10119000A820FFF727FF00213F20FFF723FF0021B2
:1011A000D320FFF71FFF00210846FFF71BFF002198
:1011B000D520FFF717FF00218020FFF713FF002144
:1011C000D920FFF70FFF0021F120FFF70BFF0021CF
:1011D000DA20FFF707FF00211220FFF703FF0021AD
:1011E000DB20FFF7FFFE00214020FFF7FBFE002180
:1011F0002020FFF7F7FE00210220FFF7F3FE002179
:101200008D20FFF7EFFE00211420FFF7EBFE0021F9
:10121000A420FFF7E7FE0021A620FFF7E3FE002150
:10122000AF20FFF7DFFE0021AF20FFF7DBFEFFF767
:101230001EFF10BD000C024072B6FEE700B595B06F
:101240003022002108A801F045F9002303930493FC
:1012500005930693079301931E4A116C41F0805148
:101260001164126C02F080520192019A02931A4AA0
:10127000116841F480411160126802F480420292C8
:10128000029A0222089201210B9110210C910E92D8
:101290000F93082310933223119312920423139374
:1012A00008A800F027FA88B90F23039302230493B8
:1012B000002305934FF4805206920793012103A85F
:1012C00000F064FC20B915B05DF804FBFFF7B4FF33
:1012D000FFF7B2FF00380240007000402DE9F041F6
:1012E000D2B00DF11F0424F01F0400F07BFEFFF7C5
:1012F000A5FF00F0CFF800F02FF900F055F9FFF747
:1013000013FF4AAD594B0FCB85E80F002A46002149
:101310000846FFF7E9FE4FF00008CDF82481544E4F
:1013200043AF35460FCD0FC795E8030087E80300AC
:101330003DAF0FCE0FC795E8030087E803004D4B84
:1013400031930125ADF8C850ADF8CA50ADF8CC5076
:1013500040F204533493FFF7A3FD3590CDF8D880C5
:10136000454B3793ADF8E050ADF8E250ADF8E4509E
:1013700080233A933B94CDF8F080ADF8105104F1FE
:10138000A0034793ADF8F85004F180034193414620
:1013900049A8FFF789FD10F0FF0F0AD0374B4AAC80
:1013A0000FCB07C423704AAA02214046FFF79CFED8
:1013B000FEE731A94998FFF787FD4FF07E53C4F847
:1013C000A0303DAA43A94998FFF708FE012800D0A4
:1013D000FEE7D4F88000FFF7B7F802460B4628492D
:1013E0004AA801F0E9FC4AAA02210020FFF77CFE8E
:1013F0004FF08043C4F8A0303DAA43A94998FFF7B5
:10140000EDFD012800D0FEE7D4F88000FFF79CF83E
:1014100002460B461B494AA801F0CEFC4AAA042109
:101420000020FFF761FE184BC4F8A0303DAA43A985
:101430004998FFF7D3FD012800D0FEE7D4F88000DB
:10144000FFF782F802460B4610494AA801F0B4FCA7
:101450004AAA06210020FFF747FE80210C4800F031
:1014600035FD4FF47A7000F0E9FDF6E7CC74000822
:10147000806900084004044040040400DC74000853
:10148000EC740008F874000800004040047500087F
:1014900000000240F0B58BB0002405940694079438
:1014A000089409940094294B1A6B42F004021A63C1
:1014B0001A6B02F004020092009A01941A6B42F037
:1014C00080021A631A6B02F080020192019A029460
:1014D0001A6B42F001021A631A6B02F001020292C7
:1014E000029A03941A6B42F008021A631A6B02F014
:1014F00008020392039A04941A6B42F002021A63E0
:101500001B6B03F002030493049B114F22468021BE
:10151000384600F0D5FC0F4D2246A821284600F0A1
:10152000CFFC80230593012606960794089405A90D
:10153000384600F0DBFBA823059306960794089431
:1015400005A9284600F0D2FB0BB0F0BD00380240E0
:1015500000000240000C024008B50548054B03603E
:1015600000F0B8F800B908BDFFF766FEFBE700BF62
:1015700084080020003002400268094B9A4200D0E3
:10158000704782B000230193064B1A6B42F48052DD
:101590001A631B6B03F480530193019B02B07047E5
:1015A000003002400038024008B50D480D4B036082
:1015B0004FF48273436000238360C360036143611F
:1015C0004FF400728261C3610362436283620A2343
:1015D000C36200F0E3FD00B908BDFFF72DFEFBE795
:1015E0008C08002000300140F0B589B0002303933F
:1015F000049305930693079302681F4B9A4201D008
:1016000009B0F0BD0024009403F584335A6C42F411
:1016100080525A645A6C02F480520092009A0194EB
:101620001A6B42F001021A631A6B02F00102019276
:10163000019A02941A6B42F002021A631B6B03F0C8
:1016400002030293029B60230393022704970594ED
:10165000032606960525079503A9084800F046FBD2
:1016600020230393049705940696079503A904483D
:1016700000F03CFBC4E700BF003001400000024026
:1016800000040240FEE7FEE7FEE7FEE7FEE77047E4
:101690007047704708B500F0BFFC08BD82B000215C
:1016A00000910B4B5A6C42F480425A645A6C02F41B
:1016B00080420092009A01911A6C42F080521A64A2
:1016C0001B6C03F080530193019B02B0704700BF75
:1016D0000038024058B110B5044643791BB10123CC
:1016E0006371002010BD0371FFF746FFF7E701208B
:1016F00070470000002800F0DF8170B582B004461A
:10170000036813F0010F3BD0A64B9B6803F00C035A
:10171000042B2CD0A34B9B6803F00C03082B21D087
:101720006368B3F5803F4FD0B3F5A02F52D09D4BE7
:101730001A6822F480321A601A6822F480221A6031
:101740006368002B50D000F073FC0546954B1B6876
:1017500013F4003F14D100F06BFC401B6428F5D952
:101760000320B0E18F4B5B6813F4800FD8D08D4B12
:101770001B6813F4003F03D06368002B00F09E81C8
:10178000236813F0020F54D0864B9B6813F00C0FA4
:101790003ED0844B9B6803F00C03082B33D0E368E6
:1017A000002B67D0804B01221A6000F041FC0546F7
:1017B0007C4B1B6813F0020F53D100F039FC401B27
:1017C0000228F5D903207EE1764A136843F480337A
:1017D0001360B5E7734B1A6842F480221A601A68E6
:1017E00042F480321A60ABE700F022FC05466D4BF4
:1017F0001B6813F4003FC3D000F01AFC401B6428A0
:10180000F5D903205FE1674B5B6813F4800FC6D105
:10181000644B1B6813F0020F03D0E368012B40F008
:101820004F81604A136823F0F803216943EAC1033A
:101830001360236813F0080F40D0636963B35B4BF8
:1018400001221A6000F0F4FB0546564B5B6F13F063
:10185000020F33D100F0ECFB401B0228F5D9032026
:1018600031E1504A136823F0F803216943EAC103C8
:101870001360DEE74C4B00221A6000F0D9FB0546EE
:10188000484B1B6813F0020FD3D000F0D1FB401B74
:101890000228F5D9032016E1444B00221A6000F01B
:1018A000C7FB05463F4B5B6F13F0020F06D000F0FD
:1018B000BFFB401B0228F5D9032004E1236813F085
:1018C000040F78D0374B1B6C13F0805F0DD10023D1
:1018D0000193344B1A6C42F080521A641B6C03F073
:1018E00080530193019B012500E00025304B1B68CC
:1018F00013F4807F21D0A368012B32D0052B36D082
:10190000284B1A6F22F001021A671A6F22F00402A4
:101910001A67A368002B34D000F08AFB0646214BDF
:101920001B6F13F0020F45D100F082FB801B41F2C8
:1019300088339842F3D90320C5E01D4A136843F465
:101940008073136000F074FB0646194B1B6813F498
:10195000807FD0D100F06CFB801B0228F5D90320DA
:10196000B1E0104A136F43F001031367D1E70D4B49
:101970001A6F42F004021A671A6F42F001021A67E6
:10198000C7E700F055FB0646064B1B6F13F0020F2E
:1019900010D000F04DFB801B41F288339842F3D900
:1019A000032090E00038024000004742800E47428A
:1019B00000700040EDB9A369002B00F08380494A14
:1019C000926802F00C02082A51D0022B17D0464B25
:1019D00000221A6000F02CFB0446424B1B6813F0F7
:1019E000007F42D000F024FB001B0228F5D9032021
:1019F00069E03C4A136C23F080531364DBE73A4BF5
:101A000000221A6000F014FB0546364B1B6813F0E9
:101A1000007F06D000F00CFB401B0228F5D9032004
:101A200051E0E369226A1343626A43EA8213A26ABD
:101A30005208013A43EA0243E26A43EA0263294A4E
:101A40005360294B01221A6000F0F2FA0446254B3C
:101A50001B6813F0007F06D100F0EAFA001B022891
:101A6000F5D903202FE000202DE000202BE0012BF2
:101A70002BD01C4B5B6803F48001E269914226D1B4
:101A800003F03F02216A8A4223D1616A47F6C0729D
:101A90001A40B2EB811F1ED103F44031A26A5208F2
:101AA000013AB1EB024F18D103F07063E26AB3EB75
:101AB000026F14D1002006E001207047012002E0EF
:101AC000012000E0002002B070BD0120FBE70120F2
:101AD000F9E70120F7E70120F5E70120F3E701200E
:101AE000F1E700BF0038024060004742F8B5244BE0
:101AF0009B6803F00C03042B3DD0082B3DD1204BF9
:101B00005A6802F03F025B6813F4800F12D01C4B3E
:101B10005968C1F3881100231A48A1FB0001FFF79F
:101B200043F8174B5B68C3F3014301335B00B0FB21
:101B3000F3F023E0124B5B68C3F388135C010025CC
:101B4000E41A65F10005AE0146EA9466A701381B68
:101B500066EB0501CC0044EA5074C500E81844F176
:101B600000018B0243EA9053840220461946002369
:101B7000FFF71AF8D5E7034800E00348F8BD00BFB7
:101B80000038024040787D010024F400002800F075
:101B90009B8070B50D4604464F4B1B6803F007034E
:101BA0008B4208D2CBB24C4A1370136803F0070380
:101BB0008B4240F08B80236813F0020F17D013F094
:101BC000040F04D0454A936843F4E05393602368BC
:101BD00013F0080F04D0414A936843F460439360C4
:101BE0003E4A936823F0F003A1680B439360236897
:101BF00013F0010F32D06368012B21D09A1E012A05
:101C000025D9364A126812F0020F61D033498A682A
:101C100022F0030213438B6000F00AFA06462F4BB2
:101C20009B6803F00C036268B3EB820F16D000F0E0
:101C3000FFF9801B41F288339842F0D9032042E03B
:101C4000264A126812F4003FE0D101203BE0234A0B
:101C5000126812F0007FD9D1012034E01E4B1B68BE
:101C600003F00703AB4207D9EAB21B4B1A701B689B
:101C700003F00703AB422DD1236813F0040F06D005
:101C8000164A936823F4E053E1680B43936023689A
:101C900013F0080F07D0114A936823F460432169B9
:101CA00043EAC1039360FFF721FF0C4B9B68C3F32A
:101CB00003130B4AD35CD8400A4B18600A4B1868D0
:101CC00000F06AF9002070BD012070470120FAE79A
:101CD0000120F8E70120F6E7003C0240003802400E
:101CE000107500080C0600200806002000230F2BAA
:101CF00000F2DD80F0B482B05DE086685F0003240E
:101D0000BC4026EA0406CC68BC4034438460466884
:101D100026EA02064C68C4F300129A40324342603D
:101D200057E0DC08083450F8247003F007029600EE
:101D30000F22B24027EA02070A69B2403A4340F84C
:101D400024205AE0072200E00022B2403A43023445
:101D5000574E46F82420574A1468EA4324EA0506F9
:101D60004F6817F4803F01D045EA0406514C2660C5
:101D7000646802EA04064F6817F4003F01D045EAA0
:101D800004064C4C6660A46802EA04064F6817F427
:101D9000801F01D045EA0406464CA660E468224054
:101DA0004E6816F4001F01D045EA0402414CE2607F
:101DB00001330F2B78D801229A400C6804EA0205FF
:101DC00032EA0404F4D14C6804F00304013C012C11
:101DD00093D94A6802F00302032A09D0C4685E005E
:101DE0000322B24024EA02048A68B2402243C2605D
:101DF0004A6802F00302022A93D004685E000322BC
:101E0000B24024EA02044A6802F00302B2402243CC
:101E100002604A6812F0805FCAD000220192264A0E
:101E2000546C44F480445464526C02F48042019235
:101E3000019A9C08A61C1E4A52F8267003F0030261
:101E400096000F22B24027EA02071C4A90423FF454
:101E50007BAF02F5806290421AD002F58062904218
:101E600018D002F58062904216D002F5806290424E
:101E700014D002F58062904212D002F58062904246
:101E800010D002F5806290423FF45CAF08225CE71C
:101E900001225AE7022258E7032256E7042254E7B8
:101EA000052252E7062250E702B0F0BC70477047A7
:101EB00000380140003C0140003802400000024070
:101EC0000AB181617047090481617047436901EA81
:101ED000030221EA030141EA0241816170470000E7
:101EE000074AD36823F4E0631B041B0C000200F4D0
:101EF000E060034343F0BF6343F40033D3607047B3
:101F000000ED00E030B4174BDB68C3F30223C3F1EC
:101F10000704042C28BF04241D1D062D18D9033BDB
:101F20004FF0FF3505FA04F421EA0401994005FA5F
:101F300003F322EA0303194300280BDB0901C9B2AA
:101F400000F1604000F5614080F8001330BC70473C
:101F50000023E5E700F00F000901C9B2024B195454
:101F6000F4E700BF00ED00E014ED00E00138B0F14F
:101F7000807F0AD2064B5860064AF02182F823106F
:101F80000020986007221A6070470120704700BF48
:101F900010E000E000ED00E010B504460E4B1878AC
:101FA0004FF47A73B3FBF0F30C4A1068B0FBF3F014
:101FB000FFF7DCFF68B90F2C01D901200AE00022ED
:101FC00021464FF0FF30FFF79DFF054B1C600020BE
:101FD00000E0012010BD00BF040600200C06002018
:101FE0000806002008B50B4B1A6842F400721A600C
:101FF0001A6842F480621A601A6842F480721A60A9
:102000000320FFF76DFF0020FFF7C6FFFFF746FB39
:10201000002008BD003C0240034A1168034B1B78B6
:102020000B441360704700BFE40800200406002042
:10203000014B1868704700BFE408002038B504461B
:10204000FFF7F6FF0546B4F1FF3F02D0044B1B78C3
:102050001C44FFF7EDFF401BA042FAD338BD00BF80
:10206000040600202DE9F04782B005468846174651
:102070001E46FFF7DDFF0A9B1B1A03EB0609FFF75D
:10208000D7FF82462A4B1B68C3F3CB3309FB03F30C
:1020900001932B689C6838EA04030CBF01240024D8
:1020A000BC4240D0B6F1FF3FF3D0FFF7C1FFA0EB39
:1020B0000A0048450AD2B9F1000F07D0019A02B1CF
:1020C0004A46019B013B01939146E2E72A68536827
:1020D00023F0E00353606B68B3F5827F0BD0AB6AEB
:1020E000B3F5005F14D0012385F85130002385F843
:1020F0005030032018E0AB68B3F5004F02D0B3F5C1
:10210000806FECD12A68136823F040031360E6E780
:102110002A68136823F4005313602A68136843F491
:1021200000531360DFE7002002B0BDE8F08700BF76
:102130000C06002030B585B00446164B1868164BC7
:10214000A3FB0030400D4FF47A7505FB00F00390BF
:102150006368B3F5827F0BD0039BBBB1039B013B4C
:10216000039323689B6813F0800FF5D100200EE0E5
:1021700000920B46002280212046FFF773FF30B10A
:10218000636D43F020036365032000E0002005B089
:1021900030BD00BF0C060020819F5E1600285AD07B
:1021A00010B50446436A33B94368B3F5827F05D05E
:1021B0000023C36102E00023036143610023A362A3
:1021C00094F85130002B40D0022384F8513022681B
:1021D000136823F040031360636803F48273A268FA
:1021E00002F404421343E26802F4006213432269DA
:1021F00002F002021343626902F001021343A26972
:1022000002F400721343E26902F038021343226AB7
:1022100002F080021343A26A02F4005221681343C1
:102220000B60638B03F00403626A02F01002216802
:1022300013434B602268D36923F40063D361002009
:102240006065012384F8513010BD84F85030204679
:10225000FFF7CAF9B8E7012070472DE9F04383B0D2
:102260001D4690F85030012B00F0CC800446884683
:102270009146012380F85030FFF7DAFE074694F8C4
:102280005160F6B2012E40F0AA80B8F1000F00F0C4
:10229000A780B9F1000F00F0A380032384F8513028
:1022A00000236365C4F83080A4F83490A4F8369015
:1022B000A363A387E38763642364A368B3F5004F34
:1022C0001ED023681A6812F0400F03D11A6842F03A
:1022D00040021A60E368B3F5006F1CD0636813B165
:1022E000B9F1010F52D1226B236812781A73236B54
:1022F00001332363E38E9BB2013B9BB2E38645E04F
:102300002268136823F0400313602268136843F4C3
:1023100080431360D5E7636813B1B9F1010F16D19B
:10232000226B23681288DA60236B02332363E38E07
:102330009BB2013B9BB2E38609E0FFF779FEC01B2D
:10234000A84202D3B5F1FF3F54D1002D54D0E38E03
:102350009BB2002B2ED023689A6812F0020FECD0AB
:10236000226B1288DA60236B02332363E38E9BB205
:10237000013B9BB2E386EAE7FFF75AFEC01BA84287
:1023800002D3B5F1FF3F39D1002D39D0E38E9BB296
:1023900083B123689A6812F0020FEDD0226B127895
:1023A0001A73236B01332363E28E92B2013A92B225
:1023B000E286EBE73A4629462046FFF7BBFE08B126
:1023C00020236365A36833B901932368DA68019217
:1023D0009B680193019B636D13B9002600E0022600
:1023E000012384F85130002384F85030304603B084
:1023F000BDE8F0830326F3E70326F1E70326EFE7C2
:102400000326EDE70226F1E7034AD2F8883043F4C9
:102410007003C2F88830704700ED00E0DFF834D078
:102420000D480E490E4A002302E0D458C45004332C
:10243000C4188C42F9D30B4A0B4C002301E0136003
:102440000432A242FBD3FFF7DFFF00F011F8FEF7E2
:1024500045FF70470000022000000020E007002038
:102460004C790008E0070020F8080020FEE7000093
:1024700070B50D4D0D4C641BA4100026A64209D169
:102480000B4D0C4C04F06AFA641BA4100026A64203
:1024900005D170BD55F8043B98470136EEE755F875
:1024A000043B98470136F2E7447900084479000874
:1024B00044790008487900080A44914200F1FF334A
:1024C00000D1704710B511F8014B03F8014F91424C
:1024D000F9D110BD02440346934200D1704703F87E
:1024E000011BF9E72DE9FF4755EC104B002D0E4677
:1024F00019462B46BBBF05F100431D4600232D2383
:102500000B700D9BDDF830A0914623F02008BCBF76
:1025100022461446B8F1460F05D0B8F1450F00D158
:102520000136022100E0032103AB019302AB0093CB
:1025300045EC104B5346324600F0EAFCB8F1470F29
:10254000074602D119F0010F22D0B8F1460F07EB70
:10255000060910D13B78302B0AD1002200232046F7
:102560002946FEF7B1FA18B9C6F10106CAF80060AB
:10257000DAF8003099440022002320462946FEF76D
:10258000A3FA08B1CDF80C903022039B4B4507D33A
:10259000039B0E9ADB1B3846136004B0BDE8F0873E
:1025A000591C03911A70F0E7F7B503460029B8BF2C
:1025B000494203F8022BB4BF2D222B220929427075
:1025C0002ADD0DF10704A4460A27A6460A4691FB18
:1025D000F7F607FB16153035632A04F1FF340EF8C1
:1025E000015C3146F1DC3031AEF1020504F8011C2A
:1025F000441C294661450AD30DF10902A2EB0E02E3
:10260000654588BF00221344181A03B0F0BD11F8C5
:10261000012B04F8012FEDE7302330318370C170B6
:10262000031DF1E72DE9F04F2DED028B8DB00C4627
:10263000DDF8608016461F46054601F055FAD0F8D1
:1026400000A05046FDF7C4FD00230A9323680593BC
:10265000D8F8003094F818B0073323F0070303F1DB
:102660000802C8F80020D3E90023C4E91223D4E902
:10267000128929F000430793CDF8188008EE100A5C
:102680009F4BDDE906014FF0FF32FEF74FFA88BBA2
:10269000DDE906019A4B4FF0FF32FEF729FA48BBFD
:1026A0000022002340464946FEF718FA10B12D23B8
:1026B00084F84330934B9448BBF1470F94BF98463E
:1026C000804603232361059B23F0040222604FF020
:1026D0000009009733460BAA2146284600F0D8F996
:1026E000013040F090804FF0FF300DB0BDEC028B18
:1026F000BDE8F08F42464B4640464946FEF716FA83
:1027000040B14B46002BBCBF2D2384F843307F489B
:102710007F4BD1E763680BF0DF0206925A1C3FD172
:1027200006236360059B616843F480620023039382
:102730000AABCDE901B309AB49EC108B00932260E1
:102740000DF123032846FFF7CDFE069B0999472B81
:10275000804608D1C81C02DB6368994241DDABF1B9
:10276000020B5FFA8BFBBBF1650F20D801395A468B
:1027700004F150000991FFF717FF0A9A1318012A74
:102780008146236102DC2268D20701D5013323612F
:102790009DF82330002B9CD02D2384F8433098E7FC
:1027A000069A472ABED1002BBCD10123B9E7BBF161
:1027B000660F18D1002963680BDD216113B9226807
:1027C000D00702D501330B442361A1654FF0000906
:1027D000DEE713B92268D20701D50233F4E70123FB
:1027E000F2E74FF0670B0A9B994205DB23682161F2
:1027F000D807EAD54B1CE7E70029D4BFC1F1020294
:1028000001221344E0E723685A0507D423694246AE
:1028100031462846B84701302CD164E7BBF1650F3B
:1028200040F2E080D4E9120100220023FEF74CF9C7
:10283000002834D0374A012331462846B8470130B2
:102840003FF451AFDDE909239A4202DB2368D80740
:1028500010D518EE103A524631462846B847013096
:102860003FF441AF4FF0000804F11A090A9B013B05
:10287000434509DC23689B0700F10581E0680B9B59
:102880009842B8BF184630E701234A4631462846E9
:10289000B84701303FF427AF08F10108E6E7099B8C
:1028A000002B39DC1B4A012331462846B84701304A
:1028B0003FF419AFDDE90923134302D12368D90797
:1028C000D8D518EE103A524631462846B84701305E
:1028D0003FF409AF4FF0000904F11A0A099B5B426B
:1028E0004B4501DC0A9B92E70123524631462846BC
:1028F000B84701303FF4F7AE09F10109EEE700BF38
:10290000FFFFEF7F24750008287500083075000868
:102910002C750008347500080A9AA36D9A42A8BF66
:102920001A46002A914637DC4FF0000B29EAE97974
:1029300004F11A02A36D0593A3EB09035B4533DC95
:10294000DDE909239A423BDB2368DA0738D40A9A87
:10295000059B0999D31AA2EB01099945A8BF99468D
:10296000B9F1000F35DC4FF0000829EAE97904F1EC
:102970001A0ADDE909239B1AA3EB090343457FF7F4
:1029800079AF0123524631462846B84701303FF41B
:10299000AAAE08F10108ECE7134631464246284644
:1029A000B8470130C0D19EE6012331462846059242
:1029B000B84701303FF497AE059A0BF1010BB9E728
:1029C00018EE103A524631462846B8470130BED17B
:1029D00089E6059A4B46424431462846B8470130BD
:1029E000C1D180E60A9A012A01DCDB0738D5012330
:1029F000424631462846B84701303FF474AE18EEDF
:102A0000103A524631462846B84701303FF46BAE83
:102A1000D4E9120100220023FEF756F8D8B90A9B28
:102A200008F10102013B31462846B84701300ED17A
:102A300059E60123524631462846B84701303FF453
:102A400052AE08F101080A9B013B4345F1DC4B46BD
:102A500004F15002DCE64FF0000804F11A0AF2E734
:102A600001234246DFE701234A4631462846B8475C
:102A700001303FF438AE08F10108E3680B995B1AA6
:102A80004345F0DCFAE64FF0000804F11909F4E7D9
:102A90002DE9F047164699468A680B69DDF82080D3
:102AA0009342B8BF1346336091F8432007460C4663
:102AB0000AB1013333602368990642BF3368023399
:102AC0003360256815F0060506D104F1190AE3689C
:102AD00032689B1AAB4226DC94F84320131E22680E
:102AE00018BF012392062BD404F14302494638460D
:102AF000C04701301ED02368E568326803F0060342
:102B0000042B08BFAD1AA36822690CBF25EAE5753E
:102B100000259342C4BF9B1AED1800261A34B54213
:102B20001AD1002008E00123524649463846C047E2
:102B3000013003D14FF0FF30BDE8F0870135C6E723
:102B4000E1185A1C302081F84300224494F84510C3
:102B500082F843100233C7E701232246494638462C
:102B6000C0470130E6D00136D9E700002DE9FF4724
:102B70000C469146277E0C99782F80469A4604F1A0
:102B8000430207D8622F0AD8002F00F0D880582FB0
:102B900000F0A38004F1420684F842703AE0A7F105
:102BA0006303152BF6D801A050F823F0052C00087C
:102BB000192C0008952B0008952B0008952B000870
:102BC000952B0008192C0008952B0008952B000860
:102BD000952B0008952B0008252D0008492C00088E
:102BE000072D0008952B0008952B0008472D00089D
:102BF000952B0008492C0008952B0008952B000800
:102C00000F2D00080B681A1D1B680A6004F14206AC
:102C100084F842300123A3E0256808682E0600F1FD
:102C200004030AD505680B60002D03DA2D236D42DD
:102C300084F843305E480A2319E015F0400F056818
:102C40000B6018BF2DB2EFE70B682568181D0860F0
:102C5000280601D51D6802E06906FBD51D88544889
:102C60006F2F0CBF08230A23002184F843106668E5
:102C7000A660002EA2BF216821F0040121600DB9D9
:102C8000002E4DD01646B5FBF3F103FB1157C75D7F
:102C900006F8017D2F46BB420D46F4D9082B0BD117
:102CA0002368DF0708D5236961689942DEBF3023B6
:102CB00006F8013C06F1FF36921B2261CDF800A018
:102CC0004B4603AA21464046FFF7E2FE01304CD1B5
:102CD0004FF0FF3004B0BDE8F087354884F8457008
:102CE00023680E681F0656F8045B0E6014D5D907DA
:102CF00044BF43F0200323601DB9236823F0200361
:102D000023601023B0E7236843F020032360782377
:102D1000284884F84530E3E75E0648BFADB2E6E7F1
:102D20001646BBE70B68266860691D1D0D603506F9
:102D30001B6801D5186002E07106FBD518800023DE
:102D400023611646BAE70B681A1D0A601E6862689E
:102D500000213046FDF744FA08B1801B60606368CB
:102D60002361002384F84330A8E7236932464946AB
:102D70004046D0470130ABD023689B0713D4E068AE
:102D8000039B9842B8BF1846A4E701233246494640
:102D90004046D04701309BD00135E36803995B1A68
:102DA000AB42F2DCEBE7002504F11906F5E700BFC2
:102DB00036750008477500080EB400B59CB01DAB11
:102DC000029006906FF0004109480791049109496B
:102DD00053F8042B05910068019302A901F024FB2C
:102DE000029B00221A701CB05DF804EB03B0704720
:102DF000100600200802FFFF2DE9F74F03690C6958
:102E0000A3420746C0F28180013C01F1140800F1A1
:102E1000140505EB8403019358F8243055F8242059
:102E200001339A424FEA840B08EB8409B2FBF3F6B4
:102E300031D34FF0000E4046AC46F24650F8042B1A
:102E400093B206FB03E34FEA134E9BB2AAEB0303D4
:102E5000120CDCF800A006FB02E213FA8AF34FEA38
:102E6000124E1FFA82FADCF80020CAEB124202EB83
:102E700023429BB243EA024381454CF8043B4FEAAC
:102E8000224ADBD255F80B302BB9019B043B9D4203
:102E90001A462ED33C61384601F0B0F8002824DBF6
:102EA000013628464FF0000C58F8042BD0F800E00B
:102EB00093B2ACEB0303120C13FA8EF3C2EB1E4277
:102EC00002EB23429BB243EA0243C14540F8043B74
:102ED0004FEA224CE8D255F8242005EB840322B9AE
:102EE000043B9D421A460AD33C61304603B0BDE81C
:102EF000F08F1268043B002ACCD1013CC7E712686E
:102F0000043B002AF0D1013CEBE70020EEE7000093
:102F10002DE9F04F2DED028B57EC106B95B0456A03
:102F2000DDF880800591CDE90267044609920F9390
:102F300075B9102000F0DCFD0246606220B9B24B8A
:102F4000EA21B24801F080FBC0E901550560C56087
:102F5000636A196851B15A684A60012393408B60D3
:102F6000204600F00DFE636A00221A603B1EB9BFC6
:102F700023F0004303930023C8F80030DDF80C90E1
:102F8000A34BBCBF0122C8F8002033EA09031BD1C0
:102F90000F9A42F20F731360C9F31303334300F027
:102FA0007A85219B63B99B4B24E09B4B00930833AC
:102FB000219A1360009815B0BDEC028BBDE8F08F2C
:102FC000944B00930333F3E79DED027B002251EC19
:102FD000170B00238DED0A7BFDF776FD804658B177
:102FE0000F9A01231360219B002B00F051858B4821
:102FF0001860431E0093DDE79DED0A0B12AA13A98A
:10300000204601F09FF8C9F30A558346002D7CD075
:103010000B9BCDF84080C3F31303DDE90A6743F04F
:103020007F5747F44017A5F2FF357D4B002230460D
:103030003946FDF729F96EA3D3E90023FDF7DCFA41
:103040006DA3D3E90023FDF721F9064628460F4674
:10305000FDF768FA6AA3D3E90023FDF7CDFA02462B
:103060000B4630463946FDF711F906460F46FDF787
:1030700073FD00228246002330463946FDF72EFDBF
:1030800048B15046FDF74EFA32463B46FDF71CFD6F
:1030900008B90AF1FF3ABAF1160F54D8614B03EBA5
:1030A000CA03D3E90023DDE90A01FDF717FD002873
:1030B0004BD00AF1FF3A00230E93129B5D1B6B1E4F
:1030C000049343BF0023C5F1010804934FF00008A7
:1030D000BAF1000F3BDB049BCDF834A053440493BA
:1030E00000230693059B092B69D8052BC4BF043B1D
:1030F0000593059BA3F10203CCBF00250125032BFB
:1031000069D8DFE803F02C4E4C5ADDE912531D4418
:1031100005F23243202BC1BFC3F1400305F2124038
:1031200009FA03F326FA00F0DABFC3F1200306FA26
:1031300003F01843FDF7E6F901230646A1F1F877FD
:10314000013D109371E70123B6E70E90B5E7CAF190
:10315000000306930023A8EB0A080D93C2E700239F
:103160000893099B002B39DC4FF00109CDF804903E
:103170004B46CDF82490606A00224260042202F19E
:1031800014069E4241682FD9204600F0B9FC0090F9
:1031900000284BD1244B02464FF4D571D1E60123D0
:1031A000DEE700230893099B0AEB030909F10103F9
:1031B000012B0193B8BF0123DDE70123F2E70125CD
:1031C0000023059308954FF0FF390022CDF80490B5
:1031D00012230992CFE701230893F4E7DDF8249046
:1031E000CDF804904B46C6E7013141605200C6E776
:1031F00061436F63A787D23FB3C8608B288AC63FFD
:10320000FB799F501344D33F657500087C75000817
:103210000000F07F617500085875000835750008DA
:103220000000F83FB0760008F8750008636A009A5D
:103230001A60019B0E2B00F2AD80002D00F0AA80D9
:10324000BAF1000F36DDC34A0AF00F0302EBC303E5
:1032500093ED007B1AF4807F4FEA2A17B0EE478A7D
:10326000F0EE678A16D0BC4BDDE90A01D3E90823EA
:10327000FDF7ECFACDE9020107F00F070325B64E82
:1032800057B9DDE9020153EC182BFDF7DFFACDE960
:10329000020129E00225F2E7F90708D551EC180BE5
:1032A000D6E90023FDF7A8F941EC180B01357F1092
:1032B0000836E5E700F0A680CAF10006A54BA64F48
:1032C00006F00F0203EBC203D3E90023DDE90A0194
:1032D000FDF792F9CDE90201361100230225002EF7
:1032E00040F08580002BD2D10E9B002B00F08C800B
:1032F000DDE90267994B002230463946FDF7EEFBC7
:10330000002800F08180019B002B7DD0B9F1000FD7
:103310003CDD0AF1FF3307930022914B30463946DA
:10332000FDF76AF9CDE902010135CDF83090DDE90C
:1033300002672846FDF7F6F832463B46FDF75CF992
:10334000884B0022FCF7A2FFA1F15073CDE90201E6
:1033500003930C9B002B5CD1834B002230463946F3
:10336000FCF792FFDDE9022306460F46FDF7D4FB8A
:10337000002840F09682DDE90221304601F1004349
:103380003946FDF7ABFB002840F08882DDE90A23CF
:10339000CDE90223139B002BC0F25881BAF10E0F26
:1033A00000F354816B4B03EBCA03D3E90089099BFB
:1033B000002B80F2E380019B002B00F3DF8040F0C4
:1033C0006D82694B002240464946FDF715F9DDE95B
:1033D0000223FDF797FB019E3746002840F0438209
:1033E000009D312305F8013B0AF1010A3FE2F20793
:1033F00005D5D7E90023FDF7FFF801350123761045
:1034000008376CE702256FE7019BCDF81CA00C93F1
:103410008DE700990C980C9A4E4B9DED027B014470
:1034200002910899B0EE478AF0EE678A03EBC20377
:1034300053E90223002945D04C490020FDF706FA44
:1034400053EC182BFCF720FF009D41EC180B39467C
:103450003046FDF781FB0C90FDF764F802460B4601
:1034600030463946FCF710FF0C9B303305F8013B22
:1034700053EC182B06460F46FDF730FB002865D1AC
:1034800032463B4635490020FCF7FEFE53EC182B34
:10349000FDF724FB002840F0B980029B9D423FF4D9
:1034A00075AF2F4B51EC180B0022FDF7A5F82C4BF4
:1034B00041EC180B002230463946FDF79DF80646D0
:1034C0000F46C4E751EC170BFDF796F8029B009DE1
:1034D0000C9341EC180B39463046FDF73DFB11903B
:1034E000FDF720F802460B4630463946FCF7CCFE85
:1034F000119B303305F8013B029B9D4206460F4667
:103500004FF0000234D1194B51EC180BFCF7BEFE02
:1035100002460B4630463946FDF7FEFA002875D1C3
:1035200053EC182B11490020FCF7AEFE02460B4667
:1035300030463946FDF7D2FA00283FF427AF0C9DFC
:103540006B1E0C9315F8013C302BF8D0DDF81CA055
:103550004AE000BFB0760008887600080000F03F1F
:103560000000244000001C40000014400000E03F28
:10357000AF4BFDF741F806460F46ACE7DDE90267C1
:10358000009D42464B4630463946FDF75FF9FDF750
:10359000E3FA0290FCF7C6FF42464B46FDF72CF8D3
:1035A00002460B4630463946FCF76EFE029E019FEE
:1035B000303605F8016B009EAE1BB74202460B4643
:1035C00037D1FCF763FE42464B4606460F46FDF7F1
:1035D000A3FAC8B942464B4630463946FDF774FA5D
:1035E00010B1029BD9070FD42046594600F0C8FA03
:1035F00000232B700F9B0AF101001860219B002B08
:103600003FF4D8AC1D60D5E4CDF81CA02B461D4678
:1036100013F8012D392A08D1009A9A42F7D1079A56
:1036200000990132079230220A701A7801321A701A
:103630008CE77F4B0022FCF7DFFF002200230646C9
:103640000F46FDF741FA00289BD0CDE7089A002AE3
:1036500000F0C480059A012A00F3A880109A002A7D
:1036600000F0A08003F23343069E4546049A0121F0
:103670001A4420469844049200F03EFB0746002D71
:103680000BDD049B002B08DDAB42049AA8BF2B4640
:10369000A8EB0308ED1AD31A0493069BFBB1089B11
:1036A000002B00F09F80002E11DD39463246204667
:1036B00000F0DEFB5A4601460746204600F032FB8A
:1036C00059460790204600F05BFA079B9B46069BF5
:1036D0009A1B04D05946204600F0CAFB83460121BC
:1036E000204600F009FB0D9B002B06467CDD1A46A8
:1036F0000146204600F0BCFB059B012B064676DD0B
:1037000000230693336906EB8303186900F0A4FADB
:10371000C0F12000049B184410F01F0000F08680C8
:10372000C0F12003042B7FDDC0F11C00049B034487
:10373000804405440493B8F1000F05DD5946424624
:10374000204600F0EFFB8346049B002B05DD31464D
:103750001A46204600F0E6FB06460E9B002B69D079
:103760003146584600F04AFC002863DA00235946E7
:103770000A22204600F026FA089B0AF1FF3A834607
:10378000002B00F08F81394600230A22204600F0EA
:1037900019FAB9F1000F074600F38E80059B022B42
:1037A00050DC89E0129BC3F136035DE7019B5E1E8E
:1037B000069BB342BFBF069B0696F21A0D9BB6BF8F
:1037C0009B189E1B0D93019BB8BF0026002BB5BF15
:1037D000A8EB0305019B0023454647E7069E089F8B
:1037E00045464CE7069A75E7059B012B18DC029BC2
:1037F000B3B9039BC3F31303A3B9039B23F00043A3
:103800001B0D1B052BB1049B0133049308F1010828
:10381000012306930D9B002B7FF474AF012079E701
:103820000023F6E7029BF4E785D018461C307DE7BD
:1038300000002440019B002B38DC059B022B35DD6A
:10384000DDF80490B9F1000F0DD131464B46052249
:10385000204600F0B7F901460646584600F0CEFB78
:1038600000283FF7BDAD099B009D6FEA030A4FF0AA
:1038700000083146204600F083F9002F3FF4B4AE33
:10388000B8F1000F05D0B84503D04146204600F0FE
:1038900077F93946204600F073F9A5E60026374649
:1038A000E1E70C9EDDF81CA0374699E5089BDDF8A2
:1038B0000490002B00F0FD80002D05DD39462A46DE
:1038C000204600F02FFB0746069B002B5CD0796852
:1038D000204600F015F9054628B9804B024640F213
:1038E000EA21FFF72EBB3A690232920007F10C0180
:1038F0000C30FEF7E1FD01222946204600F012FBC4
:10390000009B01330193009B4B440793029B03F000
:103910000103B84606930746019B3146013B5846D2
:103920000293FFF769FA0346303304904146584644
:10393000089300F063FB3A4681463146204600F08A
:1039400079FBC268089B054602BB0146584600F059
:1039500055FB089B024629462046CDE9083200F077
:103960000FF9059B099A019D43EA0201069B0B434F
:10397000089B0DD1392B29D0B9F1000F01DD049B33
:103980003133029A137074E73846B9E70122E2E74F
:10399000B9F1000F06DB059941EA0909069959EAD0
:1039A000010120D1002AECDD594601222046019375
:1039B00000F0B8FA3146834600F020FB0028019B56
:1039C00002DCDED1DA07DCD5392BD8D1029A3923D3
:1039D00013702B461D46013B15F8012C392A50D097
:1039E00001321A7045E7002A03DD392BEED001338E
:1039F000C7E7019A079902F8013C8A422AD0594642
:103A000000230A22204600F0DDF8B84583464FF037
:103A100000034FF00A024146204607D100F0D2F8D9
:103A200080460746019B0133019375E700F0CAF811
:103A30003946804600230A22204600F0C3F8074694
:103A4000F0E7B9F1000F009ACCBF4D4601251544AF
:103A50004FF00008594601222046019300F062FA17
:103A60003146834600F0CAFA0028B2DC02D1019B3D
:103A7000DB07AED42B461D4613F8012D302AFAD0B1
:103A8000F7E6009A9A42A5D10AF1010A312379E7B3
:103A9000134BFFF7AFBA219B002B7FF486AA114B83
:103AA000FFF7A8BAB9F1000F03DC059B022B3FF723
:103AB000C9AE009D31465846FFF79EF900F130032C
:103AC00005F8013B009AAA1A9145BADD5946002330
:103AD0000A22204600F076F88346EBE7F8750008E6
:103AE00034750008587500080048704764070020C6
:103AF000024B0146186800F0E1BB00BF1006002031
:103B000070B5466A04460D4676B91020FFF7F0FFFF
:103B10000246606220B9184B1848662100F094FDF7
:103B2000C0E901660660C660666AF36883B1636ACD
:103B3000DB6853F82500B8B9012101FA05F6721DBA
:103B40009200204600F05AFB60B1C0E901560EE039
:103B500021220421204600F051FB636AF060DB68FB
:103B6000002BE4D1002070BD026843F8252000231B
:103B7000C0E90333F7E700BF657500080976000860
:103B800070B5466A05460C4676B91020FFF7B0FFBF
:103B90000246686220B9094B09488A2100F054FDA9
:103BA000C0E901660660C6603CB16B6A6268DB68AA
:103BB00053F82210216043F8224070BD657500085B
:103BC000097600082DE9F0410E69074698460C4633
:103BD00001F1140000230568A9B202FB01814FEA3C
:103BE000114C2D0C02FB05C589B2013301EB0541D7
:103BF0009E4240F8041B4FEA1548ECDCB8F1000F78
:103C000022D0A368B34219DC616838460131FFF75E
:103C100077FF054628B902460D4B0E48B52100F046
:103C200013FD2269023204F10C0192000C30FEF700
:103C300043FC21463846FFF7A3FF2C4604EB8603DE
:103C40000136C3F8148026612046BDE8F08100BF2C
:103C5000F875000809760008030C1B04D3B90004AA
:103C6000102310F07F4F04BF0002083310F0704F94
:103C700004BF0001043310F0404F04BF8000023342
:103C8000002805DB10F0804F03F1010308BF20235B
:103C9000184670470023E4E7036813F00702014663
:103CA0000BD0DA0724D4980749BF5B089B08012092
:103CB0000B605CBF0B600220704798B2B0B91B0C60
:103CC000102013F0FF0F04BF1B0A08301A0704BFAF
:103CD0001B0904309A0704BF9B080230DA0703D49B
:103CE0005B0800F1010005D00B6070471046E8E763
:103CF000002070472020704710B50C460121FFF7C7
:103D0000FFFE024628B9054B05484FF4A07100F0AC
:103D10009BFC01234461036110BD00BFF8750008DE
:103D2000097600082DE9F04F14460A6923699A4282
:103D3000B8BF0B460D46BCBF25461C46D5F810A0A3
:103D4000D4F81090AB6869680AEB0907BB4285B0EC
:103D5000B8BF0131FFF7D4FE30B90246424B4348A9
:103D600040F25D1100F070FC00F1140606EB8708CC
:103D70003346002243451ED305F1140C04F114030D
:103D80000CEB8A0C03EB89020292ACEB0502153AAC
:103D900022F00302043205F115018C4538BF0422DC
:103DA0000192029A03939A4208D8002F55DC0761CA
:103DB00005B0BDE8F08F43F8042BDBE7B3F800A0B3
:103DC000BAF1000F20D005F1140EB14600225EF8C2
:103DD000044BD9F800B0A1B21FFA8BFB0AFB01B16A
:103DE0001144D9F80020240C120C0AFB042404EB23
:103DF000114489B241EA0441F44549F8041B4FEAF1
:103E00001442E4D801997250039AB2F80290043334
:103E1000B9F1000F1FD0346805F11401B6464FF018
:103E2000000A0A88BEF802B009FB02B29244A4B2AA
:103E300044EA0A444EF8044B51F8044BBEF8002003
:103E4000240C09FB042404EB1A448C454FEA144A61
:103E5000E7D8019AB4500436A3E758F8043D002B84
:103E6000A5D1013FA1E700BFF87500080976000859
:103E70002DE9F843154612F0030206460F4607D017
:103E8000254C013A002354F82220FFF79BFE0746F9
:103E9000AD103DD0746A7CB91020FFF729FE0246B0
:103EA000706228B91D4B1E484FF4D77100F0CCFB4F
:103EB000C0E901440460C460D6F82480D8F8084002
:103EC0004CB940F271213046FFF716FF0023C8F8C5
:103ED0000800044603604FF00009EB070AD5394695
:103EE00022463046FFF71EFF394680463046FFF730
:103EF00047FE47466D100BD0206838B92246214650
:103F00003046FFF70FFF2060C0F800900446E4E75A
:103F10003846BDE8F88300BF78770008657500086B
:103F2000097600082DE9F0470C464968236903EB40
:103F30006218A368074691464FEA621A08F1010623
:103F4000B3420BDB3846FFF7DBFD054648B90246B6
:103F5000284B294840F2D91100F076FB01315B0073
:103F6000EEE7002300F1140100F11002184653455A
:103F700033DB20692AEAEA7A04F1140319F01F09F5
:103F800001EB8A0103EB800C2BD0C9F1200E8A468D
:103F90000022186800FA09F002434AF8042B53F88B
:103FA000042B9C4522FA0EF2F3D8ACEB0403153B2C
:103FB00023F00303043304F11500844538BF0423C0
:103FC000CA500AB108F10206013E38462E61214668
:103FD000FFF7D6FD2846BDE8F08742F8040F01330D
:103FE000C5E7043953F8042B41F8042F9C45F9D850
:103FF000EAE700BFF87500080976000830B50269E5
:104000000C69121B0ED100F11403143103EB840070
:1040100001EB840150F8045D51F8044DA54203D032
:1040200005D30122104630BD8342F3D3FAE74FF0A7
:10403000FF32F7E72DE9F84F0C46064611462046B9
:104040001746FFF7DBFF051E10D129463046FFF764
:1040500057FD30B9394B024640F23221384800F062
:10406000F3FA0123C0E90435BDE8F88FA4BF3B464D
:10407000274630467968A6BF1C4600250125FFF774
:104080003FFD20B92D4B02464FF41071E6E73E6923
:10409000C560256907F1140104F1140900F1140E3B
:1040A00007F1100201EB860C09EB8505F2460027AB
:1040B00059F8043B52F804BF1FFA83F817FA8BF73C
:1040C0001B0CA7EB0808C3EB1B4303EB28431FFAA9
:1040D00088F81F144D4548EA03434AF8043BE7D8E3
:1040E0002B1B153B23F0030304331534A54238BFC3
:1040F0000423194473449E460D4665450ED30CF1C6
:104100000302521A22F0030203398C4538BF002201
:104110001A4452F8043D7BB10661A5E755F8048BBB
:1041200017FA88F4221402EB1842A4B244EA0244BB
:104130004EF8044B1714E0E7013EEAE7F875000873
:10414000097600082DE9F7438946012157EC106BE9
:104150009046FFF7D5FC044630B90246254B264869
:1041600040F20A3100F070FAC7F30A55C7F313039F
:1041700035BB002E019328D068460096FFF78CFDD2
:10418000009900B3019AC0F1200302FA03F30B4334
:10419000C24063610192019BA361002B14BF022204
:1041A00001222261D5B1A5F233450544C9F800507A
:1041B000C0F13500C8F80000204603B0BDE8F08328
:1041C00043F48013D5E76161E5E701A8FFF764FDDB
:1041D000019B6361012222612030E3E704EB82034B
:1041E000A0F23240C9F800001869FFF735FDC0EBB6
:1041F0004210DFE7F87500080976000813B54A4356
:104200001146019200F05AF8044618B1019A0021B3
:10421000FEF760F9204602B010BD000037B5002956
:1042200048D051F8043C0190002BA1F10404B8BF20
:10423000E41800F065FA204A01981368154633B96E
:104240006360146003B0BDE8304000F05FBAA34281
:104250000BD921686218934204BF1A685B686360D7
:1042600004BF521822602C60ECE71A465B680BB161
:10427000A342FAD911685518A5420BD124682144EC
:104280005418A3421160DDD11C685B68536021445F
:104290001160D7E702D90C230360D3E725686119C1
:1042A0008B4204BF19685B68636004BF49192160D1
:1042B0005460C7E703B030BD78080020F8B5CD1CC6
:1042C00025F0030508350C2D38BF0C25002D0646BA
:1042D00001DBA94203D90C2333600020F8BD00F0B4
:1042E0000FFA21490A6814469CB9204F3B6823B94C
:1042F0002146304600F098F938602946304600F0F3
:1043000093F9431C23D10C233360304600F0FEF9AF
:10431000E3E723685B1B17D40B2B03D923601C44F2
:10432000256004E06368A2420CBF0B605360304616
:1043300000F0ECF904F10B00231D20F00700C21A75
:10434000CCD01B1AA350C9E722466468CCE7C41C32
:1043500024F00304A042E3D0211A304600F064F9AF
:104360000130DDD1CFE700BF780800207C080020B5
:104370002DE9F0478E689E4282460C4690461F46C5
:1043800038D88A8912F4906F32D025680969A5EB74
:104390000109656905EB450505EBD57501334B440E
:1043A0006D109D4238BF1D46530531D52946FFF794
:1043B00085FF064650B90C23CAF80030A38943F0A4
:1043C0004003A3814FF0FF30BDE8F08721694A46E2
:1043D000FEF772F8A38923F4906343F08003A3816E
:1043E000266165614E44A5EB09052660A5603E4641
:1043F000BE4200D93E4632462068414600F066F98A
:10440000A36822689B1B3244A36022600020DBE784
:104410002A4600F081F906460028E1D1216950467C
:10442000FFF7FCFEC7E700002DE9F04F98468B89A7
:104430001B069DB007460D4614460ED50B6963B9A1
:104440004021FFF73BFF2860286120B90C233B6027
:104450004FF0FF30D1E040236B610023099320230C
:104460008DF82930CDF80C803023DFF8A8818DF845
:104470002A304FF0010923469A4613F8012B0AB15E
:10448000252AF9D1BAEB040B0BD05B46224629460C
:104490003846FFF76DFF013000F0AA80099A5A44B0
:1044A00009929AF80030002B00F0A28000234FF010
:1044B000FF32CDE905230AF1010A049307938DF831
:1044C00053301A935446052214F8011B5148FBF748
:1044D00087FE049AD8B9D00644BF20238DF8533004
:1044E000110744BF2B238DF853309AF800302A2B44
:1044F00015D0079A544600204FF00A0C214611F8B7
:10450000013B303B092B4ED9B0B1079214E0A0EB30
:10451000080309FA03F313430493A246D2E7039B6B
:10452000191D1B680391002BBBBF5B4242F00202C6
:1045300007930793B8BF049223782E2B0CD163788E
:104540002A2B35D1039B1A1D1B680392002BB8BF81
:104550004FF0FF3302340593DFF8C8A0217803221F
:104560005046FBF73DFE40B14023A0EB0A0003FAA2
:1045700000F0049B03430134049314F8011B264804
:104580008DF828100622FBF72BFE002838D0234B8D
:104590001BBB039B073323F0070308330393099BDB
:1045A0003344099367E70CFB02320C460120A5E770
:1045B00000230134059319464FF00A0C204610F8E9
:1045C000012B303A092A03D9002BC5D00591C3E746
:1045D0000CFB012104460123F0E703AB00932A46BC
:1045E0000F4B04A93846FEF71DF8421C0646D6D1EB
:1045F000AB895B063FF52CAF09981DB0BDE8F08F85
:1046000003AB00932A46064B04A93846FEF7AEFAE0
:10461000EBE700BF847700088E77000825260008A6
:10462000714300088A77000838B5064D0023044618
:1046300008462B6000F014FE431C02D12B6803B126
:10464000236038BDE80800201FB514461A46094B00
:104650001B680546D8684CB1074B0091CDE9013481
:1046600006492B4600F00EF800F0A4FA044B1C4655
:10467000F3E700BF1006002095770008A277000836
:10468000D07700080EB403B5014603AB054853F8D4
:10469000042B0068019300F08FF802B05DF804EB82
:1046A00003B070471006002082B001B901A942B1E1
:1046B0004BB113780B601278101E18BF012002B0A6
:1046C00070471046FBE76FF00100F8E7884210B52D
:1046D00001EB020402D98442234607D8431EA142BB
:1046E00008D011F8012B03F8012FF8E70244014626
:1046F0008A4200D110BD13F8014D02F8014DF7E7D1
:10470000014800F017BC00BFF0080020014800F08D
:1047100012BC00BFF0080020F8B5074614460E464C
:1047200021B9BDE8F8401146FFF7C8BD22B9FFF72F
:1047300075FD25462846F8BD00F062FCA0420FD268
:1047400021463846FFF7BAFD05460028F2D031462B
:104750002246FDF7B1FE31463846FFF75FFDE9E737
:104760003546E7E79368013B002B10B4936008DA05
:104770009469A34201DB0A2903D15DF8044B00F0E0
:104780004BB91368581C1060197008465DF8044B4B
:104790007047F8B506460F461446D518AC4201D10D
:1047A000002007E014F8011B3A463046FFF7DAFF15
:1047B000431CF3D1F8BD00002DE9F04F0D469DB02C
:1047C00014469846064618B183690BB900F014FBED
:1047D000894B9D421BD175686B6ED90705D4AB8997
:1047E0009A0502D4A86D00F0A5FBAB891B0701D583
:1047F0002B69EBB92946304600F06EF9C0B16B6EFB
:10480000DC070ED54FF0FF301DB0BDE8F08F7B4BBD
:104810009D4201D1B568DFE7794B9D4208BFF5683D
:10482000DAE7AB899805EDD4A86D00F084FBE9E7E1
:104830000023099320238DF82930CDF80C803023F4
:10484000DFF8C0818DF82A304FF0010923469A46DF
:1048500013F8012B0AB1252AF9D1BAEB040B0BD0BE
:104860005B46224629463046FFF793FF013000F0B1
:10487000AA80099A5A4409929AF80030002B00F055
:10488000A28000234FF0FF32CDE905230AF1010A8F
:10489000049307938DF853301A935446052214F865
:1048A000011B5848FBF79CFC049AD8B9D10644BFB9
:1048B00020238DF85330130744BF2B238DF853303A
:1048C0009AF800302A2B15D0079A544600204FF052
:1048D0000A0C214611F8013B303B092B4ED9B0B1EF
:1048E000079214E0A0EB080309FA03F313430493BF
:1048F000A246D2E7039B191D1B680391002BBBBF87
:104900005B4242F0020207930793B8BF04922378F8
:104910002E2B0CD163782A2B35D1039B1A1D1B68D3
:104920000392002BB8BF4FF0FF3302340593DFF83A
:10493000E4A0217803225046FBF752FC40B140230B
:10494000A0EB0A0003FA00F0049B03430134049334
:1049500014F8011B2C488DF828100622FBF740FCA8
:1049600000283FD0294B1BBB039B073323F00703D1
:1049700008330393099B3B44099367E70CFB02321E
:104980000C460120A5E700230134059319464FF09A
:104990000A0C204610F8012B303A092A03D9002BC3
:1049A000C5D00591C3E70CFB012104460123F0E7C4
:1049B00003AB00932A46164B04A93046FDF732FE9E
:1049C0000746781CD6D16B6ED90705D4AB899A05FA
:1049D00002D4A86D00F0AFFAAB895B063FF512AFC9
:1049E000099811E703AB00932A46094B04A9304606
:1049F000FEF7BCF8E4E700BFFC7800081C7900086B
:104A0000DC780008847700088E77000825260008E7
:104A1000934700088A770008F8B50E461446054605
:104A200018B183690BB900F0E7F9214B9C422BD1F7
:104A30006C68A369A360A3891A072FD523696BB398
:104A400023692068C01A6369F6B28342374604DCE2
:104A50002146284600F03CF930BBA368013BA36027
:104A600023685A1C22601E7063690130834204D09F
:104A7000A389DB0706D50A2E04D12146284600F07B
:104A800027F988B93846F8BD0A4B9C4201D1AC6879
:104A9000CFE7094B9C4208BFEC68CAE7214628468D
:104AA00000F01AF80028CBD04FF0FF37EAE700BF3C
:104AB000FC7800081C790008DC78000849B1FF2A5E
:104AC00085BF8A2303600A704FF0FF3098BF012032
:104AD0007047084670470000324B70B51D680646A7
:104AE0000C4625B1AB6913B9284600F085F92E4B69
:104AF0009C420FD16C68A389B4F90C2019072CD4FF
:104B0000DD0611D40923336042F04003A3814FF046
:104B1000FF303EE0254B9C4201D1AC68EBE7244BD3
:104B20009C4208BFEC68E6E7580712D5616B41B1BB
:104B300004F14403994202D03046FFF76FFB002393
:104B40006363A38923F02403A381002363602369A3
:104B50002360A38943F00803A38123694BB9A38988
:104B600003F42073B3F5007F03D02146304600F0F4
:104B700007FAA089B4F90C2010F001030AD0002331
:104B8000A36063695B42A361236943B910F08000AD
:104B9000BAD170BD810758BF6369A360F4E70020F4
:104BA000F7E700BF10060020FC7800081C79000819
:104BB000DC78000808B5062000F052FA012000F069
:104BC00065FB00008A892DE9F041054610070C4677
:104BD00058D44B68002B05DC0B6C002B02DC00204A
:104BE000BDE8F081E66A002EF9D0002312F480526D
:104BF0002F682B6032D0606DA3895A0705D5636892
:104C0000C01A636B0BB1236CC01A00230246E66A1C
:104C1000216A2846B047431CA38906D129681D296B
:104C20002CD82A4ACA40D60728D500226260D90467
:104C30002269226004D5421C01D12B6803B960654A
:104C4000616B2F600029CAD004F14403994202D05D
:104C50002846FFF7E3FA00206063C1E7216A0123D9
:104C60002846B047411CC7D12B68002BC4D01D2B50
:104C700001D0162B01D12F60B1E7A38943F0400387
:104C8000A381ADE70F69002FA9D093070E6808BF75
:104C90004B690F6018BF0023A6EB07088B60B8F1C3
:104CA000000F9CDD216AA66A43463A462846B04773
:104CB000002806DCA38943F04003A3814FF0FF30B6
:104CC0008EE70744A8EB0008E9E700BF0100402099
:104CD00038B50B6905460C4613B90025284638BD82
:104CE00018B183690BB900F087F8144B9C421BD1B3
:104CF0006C68B4F90C30002BEFD0626ED00704D48E
:104D0000990502D4A06D00F015F928462146FFF759
:104D100059FF636EDA070546E0D4A3899B05DDD40D
:104D2000A06D00F008F9D9E7054B9C4201D1AC68B1
:104D3000DFE7044B9C4208BFEC68DAE7FC78000828
:104D40001C790008DC780008002310B50446C0E98F
:104D50000033C0E90433836081814366C28183618B
:104D6000194608225C30FDF7B5FB054B6362054B25
:104D7000A362054BE362054B2462236310BD00BFB1
:104D800099500008BB500008F35000081751000864
:104D9000014900F0AFB800BFD14C000870B54A1E01
:104DA000682555430E4605F17401FFF787FA04465E
:104DB00040B10021C0E900160C30A06005F1680286
:104DC000FDF788FB204670BD014800F0B3B800BF76
:104DD000F4080020014800F0AEB800BFF40800203D
:104DE000014800F0A7B800BFEF080020014800F01C
:104DF000A2B800BFEF08002010B50446FFF7F0FF8F
:104E0000A3691BB1BDE81040FFF7F0BFC4E912333E
:104E10002365134B134A1B68A262A34204BF0123FC
:104E2000A361204600F020F86060204600F01CF8E6
:104E3000A060204600F018F80022E06004216068BD
:104E4000FFF782FFA06801220921FFF77DFFE068DC
:104E500002221221FFF778FF0123A361D2E700BFEE
:104E600020750008914D0008F8B50746FFF7ACFF24
:104E70001E4B1E68B36913B93046FFF7BDFF4836B5
:104E8000D6E90134013B03D533680BB33668F7E745
:104E9000B4F90C50D5B9164BE36004F158006566BF
:104EA00000F047F8FFF796FFC4E90155C4E904553F
:104EB0002560A5610822294604F15C00FDF70AFB84
:104EC000C4E90D55C4E912552046F8BD6834D9E748
:104ED00004213846FFF762FF044630600028D5D130
:104EE000FFF778FF0C233B60EEE700BF207500085A
:104EF0000100FFFF2DE9F8430646884600F148040B
:104F00000027D4E90195B9F1010905D52468002CE1
:104F1000F7D13846BDE8F883AB89012B07D9B5F93D
:104F20000E30013303D029463046C0470743683569
:104F3000E9E770477047704770B50E46B1F90E103B
:104F4000002996B014461D4607DA00232B60B3896A
:104F50001A0610D44FF480630EE06A4600F002F99E
:104F60000028F2DB019A02F47042A2F500535A4283
:104F70005A412A60EEE740230020236016B070BD3E
:104F80008B8973B59D0706460C4607D504F1470388
:104F9000236023610123636102B070BD01AB6A46E7
:104FA000FFF7CAFF009905463046FFF787F948B971
:104FB000B4F90C309A05EFD423F0030343F0020355
:104FC000A381E3E70D4BB362A389206043F0800324
:104FD000A381009B6361019B20615BB1B4F90E105A
:104FE000304600F0D1F828B1A38923F0030343F041
:104FF0000103A381A0890543A581CDE7914D000858
:1050000051F8043C181F002BBCBF0B58C018704748
:105010001F2938B504460D4604D9162303604FF006
:10502000FF3038BD426C12B152F821304BB92046E6
:1050300000F030F82A4601462046BDE8384000F02E
:1050400017B8012B0AD0591C03D116230360012085
:10505000E7E7002442F82540284698470020E0E78B
:10506000024B01461868FFF7D3BF00BF10060020AF
:1050700038B5074D00230446084611462B6000F062
:10508000D7F8431C02D12B6803B1236038BD00BFA1
:10509000E808002000F0BCB810B50C46B1F90E10BD
:1050A00000F094F80028ABBF636DA3891B1823F4AC
:1050B0008053ACBF6365A38110BD2DE9F0411F464D
:1050C0008B89DB0505460C46164605D5B1F90E1051
:1050D0000223002200F068F8A389B4F90E1023F42B
:1050E0008053A38132463B462846BDE8F04100F09C
:1050F00017B810B50C46B1F90E1000F055F8431C66
:10510000A38915BF606523F4805343F48053A381C2
:1051100018BFA38110BDB1F90E1000F013B8000044
:1051200038B5074D04460846114600222A601A4643
:1051300000F0A4F8431C02D12B6803B1236038BDF2
:10514000E808002038B5064D0023044608462B60C9
:1051500000F04EF8431C02D12B6803B1236038BD28
:10516000E808002038B5074D0023044608461146DC
:105170002B6000F045F8431C02D12B6803B123607B
:1051800038BD00BFE808002038B5064D00230446AE
:1051900008462B6000F044F8431C02D12B6803B191
:1051A000236038BDE808002038B5074D044608469E
:1051B000114600222A601A4600F042F8431C02D130
:1051C0002B6803B1236038BDE808002038B5074DCF
:1051D00004460846114600222A601A4600F038F8B4
:1051E000431C02D12B6803B1236038BDE8080020BE
:1051F000024B58221A604FF0FF307047E808002039
:10520000024B58221A604FF0FF307047E808002028
:10521000024B58221A604FF0FF307047E808002018
:10522000024B58221A600020704700BFE808002097
:10523000024B58221A604FF0FF307047E8080020F8
:10524000024B58221A604FF0FF307047E8080020E8
:10525000024B58221A604FF0FF307047E8080020D8
:10526000044A05491368002B08BF0B461844106018
:105270001846704780080020F8080020024B58228A
:105280001A604FF0FF307047E8080020FEE700BFCB
:1052900001207047704700BF32B1126922B110B1CE
:1052A00021B90846704770471046704770B4134BD9
:1052B00015689D4207D00260A1F10100B0FA80F0AC
:1052C000400970BC70475468AC4202F1040211D02E
:1052D000031F1646002003E056F8044FAC4209D0E5
:1052E0000130814243F8044FF6D152F82120034B9C
:1052F0009A4201D00020E4E70120E2E7DECAFAA1E9
:1053000032B1926A22B110B121B908467047704794
:105310001046704770B4134B15689D4207D0026069
:10532000A1F10100B0FA80F0400970BC70475468E8
:10533000AC4202F1040211D0031F1646002003E024
:1053400056F8044FAC4209D00130814243F8044F73
:10535000F6D152F82120034B9A4201D00020E4E715
:105360000120E2E7DECAFAA12DE9F04182B007464A
:1053700016461D469DF820409DF82480FFF788FFC3
:1053800078B15A4B1B6803F4E063B3F5806F0246B3
:105390000CD0574B182119601968182934D0FFF721
:1053A00079FF41F2330002B0BDE8F081514B012199
:1053B0001960142101E0013902D018680028FAD1DF
:1053C0004C4B1B68F3B91046FFF764FF4A4A136859
:1053D00023F001031360FFF75BFF444B1B6803F4EA
:1053E000E063B3F5806F15D0414B01221A601A6853
:1053F000002AFCD1414B424A1A601A68414B9A423A
:1054000016D0FEE71046CAE7012119601968002985
:10541000FCD1D8E7374B01221A601A68002AFCD168
:10542000394B374A1A601A68364B9A4200D0FEE769
:10543000FFF730FFAFB1354B33603E6000F08EFCBC
:1054400090B92D062404302200233B60102144EA49
:10545000082300202B4362F30700736461F31F20CD
:10546000A1E741F210009EE7234A136823F00103ED
:105470001360FFF70DFF1D4B1B6803F4E063B3F5EA
:10548000806F0DD01A4B01221A601A68002AFCD1D5
:105490001A4B1B4A1A601A681A4B9A420ED0FEE742
:1054A000144B01221A601A68002AFCD1164B144AC8
:1054B0001A601A68134B9A4200D0FEE72D062404A6
:1054C000FFF7E8FE45EA0403B3F1827F01D0012231
:1054D000BAE702A80E4B40F8043D01F021F910B1E3
:1054E00000210A46B3E70222AEE700BF002004E035
:1054F000084C025808300240002000E0004C0258DE
:10550000C2A507F4CDB5E8B5003002400001C0A146
:10551000038404842DE9F04700284DD07C4B0268B9
:105520009A42044648D17B4A136823F00103136072
:105530000D46FFF7ADFE784B1B6803F4E063B3F54F
:10554000806F0DD0754B01221A601A68002AFCD1B9
:10555000734B744A1A601A68734B9A420DD0FEE777
:10556000724B01221A601A68002AFCD1704B6D4AF6
:105570001A601A686C4B9A421DD1FFF78BFE002D02
:1055800076D06C4B2A68D5F810C09A4230D0AE6AFB
:10559000A94605F11801002E00F09580BCF1000F1E
:1055A00000F0A480B4F81E80B8F1010F6AD1002782
:1055B0008C46A78328E0FEE7564A136823F00103D0
:1055C0001360FFF765FE544B1B6803F4E063B3F50B
:1055D000806F67D0514B01221A601A68002AFCD1F3
:1055E0004F4B504A1A601A684F4B9A4267D0FEE7F9
:1055F000E18BEB88AF89B5F80E80AA88D5F80890C2
:105600008B423FD1A2839BB14FF0000EF24609EBD3
:105610000E060FCE256A75440FC596E8030085E88F
:105620000300E38B0AF1010A9A450EF1180EEED33E
:10563000E38C98452ED1A784B8F1000F12D0002733
:10564000BE460CEB07060FCEA56A3D440FC596E893
:10565000030085E80300E38C0EF1010E9E4507F17F
:105660001807EED30323E360204601F083F806E039
:1056700004F11000112210212C4600F071FB20468D
:10568000BDE8F08704F110001222162100F068FB3B
:105690000024F4E704F110001322162100F060FB4F
:1056A0000024ECE7214B01221A601A68002AFCD181
:1056B0001F4B1C4A1A601A681B4B9A4215D1FFF700
:1056C000E9FD0024DBE7288CEA8B6B6A02FB00F221
:1056D00003FB02F3002B3FF461AF04F1100013222F
:1056E0001021344600F03CFBC9E7FEE72889EA8830
:1056F000EB6802FB00F203FB02F3002B3FF452AF16
:1057000004F1100012221021644600F029FBB6E7D4
:105710000001C0A1002000E0002004E0084C025875
:10572000004C0258C2A507F4CDB5E8B508300240D8
:1057300000300240DECAFAA138B520B13F4B026802
:105740009A4204462DD03E4A136823F001031360A9
:10575000FFF79EFD3B4B1B6803F4E063B3F5806FDE
:105760000DD0394B01221A601A68002AFCD1374B40
:10577000374A1A601A68374B9A420DD0FEE7364B0B
:1057800001221A601A68002AFCD1344B304A1A6090
:105790001A68304B9A4203D1FFF77CFD002038BDD8
:1057A000FEE7274A136823F001031360FFF770FD3B
:1057B000244B1B6803F4E063B3F5806F0DD0224BDC
:1057C00001221A601A68002AFCD1204B204A1A6074
:1057D0001A68204B9A420ED0FEE71F4B01221A6036
:1057E0001A68002AFCD11D4B194A1A601A68194B15
:1057F0009A4200D0FEE7FFF74DFDE36813F0020583
:1058000011D0204600F0CAFFE36BA3B1656B95B1E0
:10581000226C2946002098472B69AB420BD01D46CD
:105820004BB1E36BF4E704F110001022112100F0FA
:1058300097FA284638BD012038BD00BF0001C0A13D
:10584000002000E0002004E0084C0258004C025800
:10585000C2A507F4CDB5E8B50830024000300240DB
:105860002DE9F04F85B00D460292044620B17B4BE6
:1058700002689A4218BF0024794A136823F0010392
:105880001360FFF705FD774B1B6803F4E063B3F586
:10589000806F0DD0744B01221A601A68002AFCD167
:1058A000724B734A1A601A68724B9A420ED0FEE726
:1058B000714B01221A601A68002AFCD16F4B6C4AA6
:1058C0001A601A686B4B9A4200D0FEE7FFF7E2FCC1
:1058D000002C00F08E80A78D002F40F03C82E36802
:1058E00003F003034FF0000B032BC4F814B040F097
:1058F0002B82002D00F0A880002F00F0A5803B88AF
:10590000002B00F0A180B5F804900194D84698458A
:1059100080F0B6807B68002B00F0B28053F82860DE
:10592000002E00F0AD80BB681B6803934FEA08149B
:1059300013EB040A00F08780B5F808E0B5F806B06C
:10594000B069D5F80CC041680BFB0EF30CFB03F3F8
:1059500099426ED3F368DA685A456AD19A687245FB
:1059600067D15B689C4564D1006800F0D5FFF268A0
:105970007369D268DB6803FB02F3984259D3B369B9
:10598000186800F071FF2B68434033F07E4346D126
:105990002B69002B3AD0B5F804B0BBF1000F2DD025
:1059A000F2687369D168DA6802FB01F2CAF808206C
:1059B000AB8802FB03F2CAF80C202969CAF804106C
:1059C0002B691344039A1351B0690368D94538BF52
:1059D000D9469A0008D4D0E902329B1A1944816052
:1059E000B369DAF80420DA603B8808F10108183559
:1059F0008DE7A346584605B0BDE8F08F019C2122F3
:105A000004F11000122100F0ABF9F3E7019C17221A
:105A100004F1100012219B4600F0A2F9EAE7019C74
:105A2000192204F11000122100F09AF94FF0000B36
:105A3000E0E7019C182204F11000122100F090F917
:105A40004FF0000BD6E7019C04F110001722122141
:105A500000F086F94FF0000BCCE700BF0001C0A1B9
:105A6000002000E0002004E0084C0258004C0258DE
:105A7000C2A507F4CDB5E8B50830024000300240B9
:105A8000019C029AA38D002A00F0A980012B40F20C
:105A90009B80D4F830A01AF10C0F00F09580BAF872
:105AA0000C30002B00F09080029D01944FF0000814
:105AB000984580F09280DAF81030002B00F08D804D
:105AC00053F82860002E00F08880DAF814301B6844
:105AD00002934FEA08141F1900F02D81B5F808E071
