:0200000280007C
:10000000008008204D0608008D0808008D080800B3
:100010008D0808008D0808008D0808000000000009
:100020000000000000000000000000008F08080031
:100030008D080800000000009308080097080800D9
:100040008D0808008D0808008D0808008D0808003C
:100050008D0808008D0808008D0808008D0808002C
:10006000A10108008D08080000000000AD0708008D
:10007000E50708001D0808005508080000000000FA
:1000800000000000B5010800C10108008D0808004B
:10009000CD0108008D0808008D0808008D080800B3
:1000A0008D080800000000008D0808008D08080079
:1000B0008D0808008D0808008D0808008D080800CC
:1000C0008D0808008D0808008D0808008D080800BC
:1000D0008D0808008D0808008D0808008D080800AC
:1000E0009D0708008D0808008D0808008D0808008D
:1000F0008D08080010B5054C237833B9044B13B1B3
:100100000448AFF300800123237010BD9C04072036
:10011000000000001C2A080008B5064B1BB1064869
:100120000649AFF300800648036813B1054B03B1DD
:10013000984708BD000000001C2A0800A004072002
:100140001C2A08000000000008B501210D2000F065
:100150007BFC642000F0E5FB00210D2000F074FC26
:10016000642000F0DEFB0448044900F0C5FCBDE853
:100170000840642000F0D5BBC8050720D81D080042
:1001800008B50D20012100F0DBFBBDE80840024866
:100190004FF4E13100F0BABDC805072070470000F8
:1001A000014800F0B7BD00BFC80507207047704781
:1001B00070470000014800F0ADBD00BF7406072085
:1001C000014800F0A7BD00BF9C060720014800F0D1
:1001D000A1BD00BFC40607202DE9F0413F4D00F04E
:1001E000F1F92B684FF47A72B3FBF2F35A1E3C4BD1
:1001F000F0215A603B4A002482F8231007229C60B9
:100200001A6001F0AFFCA84620460021013400F03E
:100210001BFC4F2CF8D1344C344E354F354B4FF03E
:10022000FF35C4F8A0504FF44072C6F8A0502046E5
:10023000C3F8A05001210023C7F8A05000F02AF90C
:100240000020012100F000FC204601214FF4406213
:10025000002300F01FF9204601214FF440520023F3
:1002600000F018F9384602213022002300F012F97C
:10027000304601214FF44062002300F00BF9204684
:1002800001210322002300F005F901214FF440422F
:100290000023304600F0FEF8252000F041F9D8F8A0
:1002A0000010154A0C23154800F00CFA01231348DE
:1002B00000214FF4401200F058FA00210A460F487E
:1002C00000F04CFA29460D4800F065FA0B4800F0A2
:1002D0005EFABDE8F04100F032BB00BF2C00072001
:1002E00010E000E000ED00E0000E0E4000100E40B7
:1002F00000140E4000120E40002D310100000C4091
:100300002DE9F743234D244C284600F017FC2046E6
:1003100000F014FCDFF8B490082213461F49009542
:1003200001941F4F1F4800F0A7FC1F4D484600F0E6
:1003300005FCDFF89C80384600F000FC1B4E284688
:1003400000F0FCFB1A4C404600F0F8FB304600F091
:10035000F5FB204600F0F2FB11221346CDF8009089
:10036000CDF804801349144800F006FD122213460C
:10037000009701961149124800F0FEFC14220095E6
:10038000019410491346104800F0F6FC03B0BDE894
:10039000F08300BFEC0507204005072000080E4051
:1003A000D4080720C80507205C090720EC060720B1
:1003B00074070720008009407406072000C0094028
:1003C0009C06072000400A40C40607204C0807206E
:1003D000B804072008B50C4800F0CEFB08B1FFF7C1
:1003E000DDFE0A4800F0C8FB08B1FFF7DFFE084851
:1003F00000F0C2FB08B1FFF7DAFE064800F0BCFBD4
:1004000008B1FFF7D5FE08BDC80507207406072010
:100410009C060720C40607200AB1416670470166A2
:100420007047426405290DD8DFE801F00D03090D7E
:100430000D0D036F016F0B4023EA020301E0036F10
:100440001343036742607047D30741644CBF416662
:10045000016612F00A0F14BF01624162930701D4D2
:10046000130701D5C0F8801041610160704710B5D5
:10047000029C41640CB1416600E001660BB101656C
:1004800000E041650AB1016300E041630161016080
:1004900010BD0000F7B51E464B1E05460F4614461C
:1004A000042B1FD8DFE803F003030C1212002246CE
:1004B0000E4B9847F2076C644CBF6C662C6603E0E9
:1004C000214632460A4B984701200CE006F0010312
:1004D00000937B1F5A4221465A41064CC6F38003C3
:1004E000A047F1E7002003B0F0BD00BF23040800DF
:1004F000490408006F04080003468068084004D0DF
:100500009B6919420CBF002001207047034B4FF438
:100510004412DA619A6E5206FCD5704700060E400E
:100520002C2819D81F280E4B4FF0010208D802FAC8
:1005300000F0996900EA010282420FD018610DE0D3
:10054000203802FA00F0D3F8081100EA01028242D2
:1005500004D0C3F8000101E001207047002070477B
:1005600000060E402C2817D81F280D4B4FF0010114
:1005700007D801FA00F09A69024082420ED15A610E
:100580000CE0203801FA00F0D3F808210240824242
:1005900004D1C3F8042101E0012070470020704716
:1005A00000060E40000200F47062024B42F00102AD
:1005B0009A63704700060E40014B20221A60704774
:1005C00000060E401A4A4FF480631360C2F80032EE
:1005D000184B1A6AD20102D5174A1A6205E0174A67
:1005E0001A629A6ED007FCD5F6E7996E114AC903D4
:1005F000FBD5116B21F0030141F0010111639A6EEB
:100600001207FCD50E490B4A91629A6E9007FCD5F1
:10061000084A112111639A6E1107FCD5054A12216F
:1006200011639A6E1207FCD5064A074B1A60704791
:10063000000A0E4000060E4009083701090837007D
:10064000013F0D2000BD01052C000720154B164A67
:1006500010B593421C4601D0002301E0134B07E084
:100660001349D0188842F9D2E158D1500433F7E742
:10067000104A934203D2002243F8042BF8E70E49B4
:100680000E4B21F0604201F1604122F07F02B1F592
:10069000801F9A6003D29A6842F000529A60084B19
:1006A0009847FEE71C2A0800000007209C0407204A
:1006B0009C040720900E07200000080000ED00E0D9
:1006C000A10D08002DE9F041224D90B06C46064680
:1006D0000F4690469C460FCD0FC40FCD0FC40FCDD3
:1006E0000FC495E80F0084E80F0001233360002158
:1006F0004FEA480240F202237160C6F82031C6F882
:100700000411C6F81411B7FBF2F102FB117202B921
:1007100001394B1C5B00B7FBF3F70F4B0022B7FB13
:10072000F3F70CFB07FC5DF82200604505D20132AF
:10073000102AF8D14FF0FF3009E07368090289B23E
:100740001204194302F470220A437260002010B0B0
:10075000BDE8F0811428080040420F004368D20130
:100760001943D3B219434160704710B54468090674
:1007700022431B0701F07064224303F040531A43E5
:10078000426010BD012303FA01F1416170474FF649
:10079000FF734361704781627047000008B5024BE8
:1007A0001B6803B1984708BDE409072038B50B4B17
:1007B000DC6CB4FA84F3DBB21F2B0DD8C3F11F033A
:1007C000DDB2074B53F8253003B19847012303FAF4
:1007D00005F524EA0504ECE738BD00BF000E0E4025
:1007E000E809072038B50B4BDC6CB4FA84F3DBB2B4
:1007F0001F2B0DD8C3F11F03DDB2074B53F8253073
:1008000003B19847012303FA05F524EA0504ECE750
:1008100038BD00BF00100E40680A072038B50B4BEA
:10082000DC6CB4FA84F3DBB21F2B0DD8C3F11F03C9
:10083000DDB2074B53F8253003B19847012303FA83
:1008400005F524EA0504ECE738BD00BF00120E40B0
:10085000E80A072038B50B4BDC6CB4FA84F3DBB242
:100860001F2B0DD8C3F11F03DDB2074B53F8253002
:1008700003B19847012303FA05F524EA0504ECE7E0
:1008800038BD00BF00140E40680B0720FEE700F0E3
:1008900010B800F00EB808B500F009F828B900F05B
:1008A0003DF9BDE8084000F079BF08BD7047002061
:1008B0007047FEE7044B1A680AB9044A1A601A68BE
:1008C0001044186010467047E80B0720900E072070
:1008D0004FF0FF3070474FF0FF3070474FF4005338
:1008E0004B600020704701207047002070470020B7
:1008F0007047000010B50023934207DA05484469A9
:10090000A407FBD5CC5C0133C461F5E722EAE270B1
:1009100010BD00BF00080E40FEE770474FF0FF30EB
:10092000704738B5044648B100F040FF0546FFF770
:10093000BDFF00F03BFF401BA042F8D338BD70471D
:100940002DE9F0413D4E1C2303FB00631A7B044656
:100950000F46002A70D03A4D2A5C02F00F02042A9A
:1009600003D13848597EFFF70DFF2A5D02F00F03CF
:10097000022B11DC82B1022B02D16FB9BDE8F081EC
:10098000012B03D1022F07D1BDE8F081032B03D146
:10099000012F03D1BDE8F081012F32D01FB1022F0A
:1009A00017D0BDE8F0814FF01C0808FB04F806EBF7
:1009B0000807B868FFF7B4FD002356F808000321C4
:1009C0007A68FFF767FD2B5D23F00F0343F0020306
:1009D00014E04FF01C0808FB04F806EB0807B868A1
:1009E000FFF79EFD012356F8080003217A68FFF700
:1009F00051FD2B5D23F00F0343F001032B55BDE8A0
:100A0000F0811C236343F75812091E440CBF0421D4
:100A10000521336938467268FFF73CFD2B5D23F0F2
:100A20000F0343F003032B55BB69013304D1B068B6
:100A3000BDE8F041FFF796BDBDE8F081E81D080074
:100A4000FC07072000000C40F7B5194E1C2303FBE0
:100A500000631B7B04460D4643B3164F3B5C03F01B
:100A60000F03052B02D10121FFF76AFF3B5D03F065
:100A70000F0343EA05133B551C235C4333193659D6
:100A80005C6830462146FFF737FD38B930462146CD
:100A90002A4603B0BDE8F040FFF7BEBC0123009337
:100AA000304621462A460023FFF7E1FC03B0F0BDA3
:100AB000E81D0800FC070720F8B505460E46174656
:100AC0000024BC4207D02B6828461B68315D98473C
:100AD00008B10134F5E72046F8BD38B505460C46A7
:100AE000084641B101F0B0F82B6802465B68284621
:100AF0002146984738BD38BD08B5FFF7EEFF08BD61
:100B0000014B1860704700BF30000720024B4FF0C8
:100B1000FF321A60704700BF30000720054A08B551
:100B20001368591C04D0013B13600BB9024B984762
:100B300008BD00BF300007200100072010B50021CC
:100B40008022044601F036F80023C4F880302046A5
:100B5000C4F8843010BDD0F88030D0F88420013340
:100B600003F07F03934204D0D0F880208154C0F872
:100B700080307047012070470369D3F88000D3F8B4
:100B80008430C01A00F07F0070470369D3F88010EA
:100B9000D3F8842091421DBFD3F88420985CC0B262
:100BA0004FF0FF3070470369D3F88010D3F88420EA
:100BB00091420AD0D3F88420985CD3F88420013283
:100BC00002F07F02C3F8842070474FF0FF30704777
:100BD0004369D3F88010D3F884209142F9D1826917
:100BE00053699B05FCD57047836970B55E6942699E
:100BF000B607D2F88450D2F8804001D5A54218D06B
:100C0000D2F880400C4B01342340002B03DA013B27
:100C100063F07F030133D2F884409C42FBD0D2F8CA
:100C2000804011554269C2F88030836902229A607F
:100C300000E0D961012070BD7F000080036910B51C
:100C4000D3F884200446C3F8802003685B69984782
:100C5000237F012259B203F01F0302FA03F349096B
:100C6000044A203142F82130206ABDE81040FFF7E5
:100C700079BC00BF00E100E030B5002545604FF4CD
:100C80007A758560044D81610560039D0277056179
:100C9000049D0362456130BD6028080070B50446BC
:100CA000006A0D461646FFF73BFCA36940F202229C
:100CB000C3F82021AC221A60124A5E60126801213A
:100CC000B2FBF5F52D094FF0FF321D62DA606122AB
:100CD0009A60227F50B202F01F0201FA02F20A4922
:100CE000400941F8202021690022C1F88420C1F880
:100CF00080206169C1F88420C1F8802050221A60E8
:100D000070BD00BF2C00072000E100E04FF400623E
:100D1000FFF7C4BF38B5836904465D69EA0704D5A7
:100D200099690069C9B2FFF716FFAB0716D5636969
:100D3000D3F88410D3F880209142A2690CD0D3F864
:100D40008410595CC9B2D161D3F88420013202F019
:100D50007F02C3F8842001E00223D36015F0600F06
:100D600004D0A3691A6842F480721A6038BD4FF447
:100D70000C62FFF793BF000073B5069D0446009513
:100D8000079D0E460195FFF777FF034B2046236032
:100D9000666202B070BD00BF902808007047000076
:100DA00008B500F019F8FFF717FAFFF7F7FF012071
:100DB000FFF7B7FD064800F05FF9FFF7E1F9FFF72D
:100DC000C3F9044B002BFAD0FFF704FBF7E700BF91
:100DD000FC0B0720D5030800014800F0EDBC00BF64
:100DE000501A0E40064BD3F83021D20703D45B686B
:100DF000D90703D4F6E70122C3F86021704700BF8A
:100E000000C00A4038B5094B1D6872B6BFF35F8F4A
:100E10001C4600F00F000023236000F061FE25B1A6
:100E200001232360BFF35F8F62B638BD68000720DF
:100E30002DE9F8431B4B89461B6815463BB31A4BFB
:100E4000D3F8008072B6BFF35F8F00F00F04002666
:100E500020461F461E6000F043FEA84238BF0546EC
:100E6000AE4206D0204600F003FE09F80600013627
:100E7000F6E71DB1204600F033FE78B1B8F1000F5F
:100E800009D001233B60BFF35F8F62B603E04FF0F0
:100E9000FF30BDE8F8832846BDE8F883204600F01F
:100EA00029FEEBE7080C07206800072007B50122A0
:100EB0000DF1070100F00F00FFF7BAFF01280CBF8A
:100EC0009DF807004FF0FF3003B05DF804FB000011
:100ED000114B2DE9F0411B6880460D461746B3B112
:100EE00014468CB1B8F1000F14BF4FF400764026C1
:100EF000A64228BF2646294608F00F003246A41B0A
:100F000000F060FD3544ECE73846BDE8F0814FF075
:100F1000FF30BDE8F08100BF080C07202DE9F0414B
:100F20000C4B0D4F15461B883A8888469A420BD2C7
:100F30002C46002644B108EB06012246002000F0B2
:100F400041FD0644241AF5E73B8828462B443B80A4
:100F5000BDE8F081040C0720EC0B0720F8B501294F
:100F600000AF06460C4628DDCB1D23F00703ADEB92
:100F7000030D00F069FE0130400003238DF80000EE
:100F80006D468DF80130701E0222A2420DDA10F873
:100F9000013F53B1511CC9B2A142AB5404D000234C
:100FA00002326B54D2B2F0E7224600202946FFF706
:100FB000B5FF003018BF012000E00020BD46F8BD9D
:100FC00038B50C46054600F0CDFC002029462246E7
:100FD00000F062FD00F0DAFC204638BD037910B560
:100FE00004461BB9BDE8104000F03ABB00F0C2FB5C
:100FF0002146BDE8104000F0ADBB13B5002302ACA4
:1010000004F8013D204600F017FB00F0B3FB214639
:1010100000F070FB9DF8070002B010BD13B500236F
:1010200002AC04F8013D204600F010FB00F0A2FBEA
:10103000214600F05FFB9DF8070002B010BD10B51F
:10104000044600F04DFD20B12046BDE8104000F000
:1010500065BD10BD10B50446054800F0B1FB00F0B9
:10106000B5FB10B9034B01221A60204610BD00BF2A
:10107000A5100800F80B072008B5054B186828B123
:1010800000F00CFC034B00221A60012008BD00BFD9
:10109000F80B0720080C07200148FFF7DBBF00BF53
:1010A000FC0B07202DE9F047AC4C88B063681F07A4
:1010B00017D52368002023F07F032360236842F2C2
:1010C000320143F08003236000F010FCA44B0422A3
:1010D0001A604FF48053A361A24B00221A600823C8
:1010E000A3609E4B5B685E0408D59F4B022018608E
:1010F000FFF788FE10B19D4800F050FA974B5A68F0
:10110000550744BF04229A605B68DC0440F1E28129
:1011100000F048FC002800F0DD81002001A9082231
:1011200000F0BAFC00F046FC9DF80450280602D5F9
:1011300000F010FC01E000F01DFC15F0600440F030
:10114000B4819DF8053073B99DF80440ACB1884B6B
:101150001B780020012B14BF0146012100F076FC12
:101160000020014697E1012B0DD19DF80630012B9F
:1011700001D1804BECE77E4B1C702046214600F0ED
:1011800065FC2046EDE7032B75D19DF80630012B59
:1011900005D1784A20462146137000F057FC9DF88F
:1011A000060028B9724B012201461A7000F04EFC6D
:1011B0009DF80630022B40F085819DF80430002B0D
:1011C00040F08081BDF80830190740F07B81634C06
:1011D0001B0A6269013B22F001026261226842F44B
:1011E00000622260032B00F26D81DFE803F03138EA
:1011F0003F02FFF7F7FD0023C4F81833C4F8283383
:1012000041F23013C4F80831D4F8083143F0020336
:10121000C4F80831514BD3F838215203FAD5DA69B2
:1012200042F00402DA61544B544A9A5C03F8012FED
:10123000534A9342F8D1494B1A6842F400421A606B
:101240000122C3F868214FF48042C3F82822FEE748
:10125000FFF7C8FD236843F400532360FEE7FFF760
:10126000C1FD236843F480432360FEE7FFF7BAFD26
:10127000444B6361FEE7052B06D100F06BFB9DF844
:10128000060000F05FFC1DE1062B40F0DC809DF8BD
:1012900007603D4D022EBDF80A903C4F2C8028D1AE
:1012A0003C80FFF7AAFE4FF00908824621464246DD
:1012B00003A800F07FFC01238DF81130C0238DF8C6
:1012C0001330FA238DF814302B8803A94344424687
:1012D0002046ADF80E308DF80C808DF80D608DF83D
:1012E00010A02C80A7F80090FFF718FEFFF785FEEE
:1012F000E8E0A7F8009000F03DFA01A900F00EFA2E
:10130000002803D0D4BF00200120DAE0012E10D144
:10131000BDF80A201E4B082A04BF01211960186875
:101320001C491D4B002808BF1946112A00F286806F
:1013300048E0032E48D19DF8063033B91749BDF86F
:101340000A200B7893423DD878E0022B01D1144853
:1013500033E0012B28D113482FE000BF00C00A4022
:10136000F0C10A40080C072068C10A40180E072087
:10137000EE0B0720F40B0720FFFF1820DB28EFDF20
:10138000340019207FF0077EEC0B0720040C0720A7
:10139000F00B07201B290800C4280800D6280800E5
:1013A000B82808000F290800032B40F08E8000F0B9
:1013B000E1F903A900F0C0F903A8BDF80A10FFF78E
:1013C000CDFD7EE0D2B238E0062E06D1BDF80A206F
:1013D000092A7DD8D2B241492FE0072E4FF00004F0
:1013E00073D1BDF80A902C803C80FFF717FE4FF0B8
:1013F000090882462146424603A800F0DBFB012390
:101400008DF81130C0238DF81330FA238DF8143085
:101410002B8803A9434442462046ADF80E308DF890
:101420000C808DF80D608DF810A02C80A7F800902E
:10143000FFF774FDFFF7F2FD44E002B90A780020DF
:10144000FFF76CFD3EE0072B3FD0082B04D1244B67
:1014500020461968C9B21EE0092B17D1EB0634D11A
:101460000021204850F821300BB10131F9E700F09C
:1014700053FA9DF806201A4B1A601B4B02221A6081
:101480004FF48042A3F5FC739A611BE00A2B05D14F
:10149000164B0020197800F0D9FA13E00B2B11D16C
:1014A0009DF80620114B1A600CE000F053FA104B27
:1014B00000211980BDF80A200E4B01A81A80FFF701
:1014C0008DFD10B100F056FA04E000F0FFFA01E0E3
:1014D0000249B3E708B0BDE8F08700BF2D29080036
:1014E000080C072034000720F8C10A40000C072030
:1014F000EC0B0720040C0720044BD3F80002D3F8B0
:101500000432C01AC0F30800704700BF0C0C07205B
:1015100040F2FF1070470000064BD3F80012D3F8DA
:10152000042291421ABFD3F80422985C4FF0FF3096
:10153000704700BF0C0C072013B5026802AB03F81C
:10154000011D546819460122A04702B010BD0000D9
:1015500038B50F4B0446D3F80012D3F80422914259
:1015600013D0D3F8042202209D5CD3F80422013268
:10157000C2F30802C3F80422FFF744FC18B1236841
:101580002046DB699847284638BD4FF0FF3038BD0C
:101590000C0C07200320FFF752BD0000F8B5184BD4
:1015A00053E8003F164E13B1BFF32F8FF8BD012350
:1015B00046E80033002BF2D1124BD3F800421F460D
:1015C0000134C4F30804D7F804320E4D9C4214D001
:1015D0000220FFF717FC20B90B4B4FF480421A6032
:1015E0000BE00220FFF762FCD5F80032C5F800429C
:1015F0000134E854C4F30804E5E700233360F8BD80
:10160000140E07200C0C072028C20A4010B5094B05
:101610000446DB7903F0FF0043B10320FFF758FCD9
:10162000002805DC01236360002010BD01236360F6
:1016300010BD00BF60000720037803490233037028
:1016400042220020FFF76ABCA22908000378034960
:101650000233037042220020FFF760BC60290800BB
:1016600008B502784378A12A08D1212B4FF0000059
:1016700029D117490722FFF751FC25E0212A25D15E
:10168000202B04D107211248FFF79AFC1CE0222BE3
:1016900010D182780E4BDA711A68B2F5966F13D1B9
:1016A000DB79DB0703D4FA20FFF72AFA0CE0FFF717
:1016B0002DFA09E0232B09D18378C27843EA02226C
:1016C000044B1A6000E008BD012008BD002008BDE1
:1016D000600007205C000720044B00225A604FF492
:1016E0007A729A60024A1A60704700BF180E07208B
:1016F0004029080070B544680E4600254CB12368A7
:1017000020465B6831469847002804DB0544E468BE
:10171000F4E7284670BD4FF0FF3070BD38B544681F
:101720000D463CB1236820469B682946984710B96E
:10173000E468F6E7204638BD38B544680D463CB14C
:10174000236820462946DB689847E4680544F6E7A5
:101750002C7038BD38B544680D463CB1236820462E
:101760001B682946984718B9E468F6E7204638BD53
:10177000012038BD074A136813F0010107D1064B59
:101780000220187004205870596001231360024829
:10179000704700BF340E07202C0E0720024B1A683A
:1017A00001321A60704700BF380E0720014B1868DD
:1017B000704700BF380E07204FF400434360704766
:1017C000014B1860704700BFE409072010B50023E3
:1017D0002A4A002442F82340294A42F82340013390
:1017E0000A2BF5D1274B28209847274B98472046AE
:1017F000264B9847264B9847264B4FF4807283F828
:1018000028435A60244B2046D3F8002822F08072E7
:10181000C3F80028D3F8002842F00072C3F800286B
:10182000D3F8002822F08072C3F80028D3F80028EB
:1018300022F48052C3F80028D3F8002842F48052E2
:10184000C3F80028D3F8002842F40042C3F8002867
:10185000D3F8002822F48042C3F800281A6822F442
:1018600080521A601A6822F440621A60D3F8002885
:1018700042F48042C3F8002810BD00BF640E072068
:101880003C0E0720210508000D050800A5050800ED
:10189000B905080000E100E000C00A40114B10B596
:1018A000196872B6BFF35F8F1A46002313600E4BA0
:1018B000D3F800081C4620F48040C3F80008D4F890
:1018C0000408094B4004FAD5186820F480701860A9
:1018D0000820986121B101231360BFF35F8F62B6C6
:1018E00010BD00BF6800072000C00A40094B00F08F
:1018F0000F0000F1400243F8221001228240D96912
:101900000A43DA6103F5987353F820305B0300D47F
:10191000FEE7704700C00A4030B501238B4214D265
:101920000A4A50F8045F03F1400442F824500124AD
:101930009C40D5692C43D461054A1A449200126830
:10194000520300D4FEE70133E8E730BD00C00A408F
:101950004CB00210024BD3F83031DB07FAD5704798
:1019600000C00A40024BD3F830319B07FAD57047CC
:1019700000C00A40034B0122C3F86021024B002241
:101980001A60704700C00A40640E0720034B022211
:10199000C3F86021024B00221A60704700C00A4061
:1019A0003C0E0720024BD3F8300100F004007047D2
:1019B00000C00A40024B0422C3F86021704700BFF8
:1019C00000C00A40F8B51546C20302F100520346B2
:1019D00002F5C012980000F1804000F52C24D4F8E4
:1019E0003041E407F6D5174C3BB926682E44402E0B
:1019F00006D92568C5F1400502E0002644F82360B9
:101A000054F8236016440022AA4203D08F5CB754D6
:101A10000132F9E754F823202A4444F8232033B94B
:101A2000084B1B68402B0BD1074B984708E000F58B
:101A30002C230122C3F860214FF48042C3F82022F6
:101A40002846F8BD640E072075190800074B53F8A7
:101A5000202002EBC03202F1005202F5C0121170D8
:101A600053F82020013243F820207047640E0720ED
:101A7000084A034652F8201001EBC03101F1005131
:101A800001F5C011087852F82310013142F82310F3
:101A9000704700BF3C0E072070B50B4CC30303F129
:101AA000005354F8205003F5C0131D440023934203
:101AB00003D0EE5CCE540133F9E754F820201344F0
:101AC00044F8203070BD00BF3C0E0720034B0122BC
:101AD000DA614FF40022C3F8F021704700C00A40D9
:101AE000034B4C3053F82000C0F30A50704700BF3E
:101AF00000C00A40830003F1804303F52C23022237
:101B0000C3F860214FF48042C3F82022024B002228
:101B100043F82020704700BF3C0E0720830003F1EC
:101B2000804303F52C230122C3F860214FF4804247
:101B3000C3F82022024B002243F82020704700BF48
:101B4000640E0720064B00F07F001A6822F07F0227
:101B500002431A601A6842F080021A60704700BFA0
:101B600000C00A4070B50F4E0F4D761BB61007D05F
:101B7000043D0024013455F8043F9847A642F9D1AA
:101B80000A4E0B4D00F032FF761BB61008D0043D14
:101B90000024013455F8043F9847A642F9D170BD9E
:101BA00070BD00BFF8290800F82908000C2A0800B9
:101BB000F8290800F0B4840743D0541E002A3ED010
:101BC000CDB2034603E0621E002C38D0144603F861
:101BD000015B9A07F7D1032C2AD9CDB245EA052536
:101BE0000F2C45EA054515D9A4F110073F0903F16B
:101BF000100606EB07161A46156055609560D5600D
:101C00001032B242F8D104F00F040137032C03EB79
:101C100007130DD91E462246043A032A46F8045BF0
:101C2000FAD8221F22F003020432134404F0030402
:101C30002CB1C9B21C4403F8011BA342FBD1F0BC78
:101C4000704714460346C6E720F0030110F0030076
:101C5000C0F1000051F8043B00F1040C4FEACC0C39
:101C60006FF000021CBF22FA0CF213434FF0010C7C
:101C70004CEA0C2C4CEA0C4CA3EB0C0222EA0302BB
:101C800012EACC1204BF51F8043B0430F4D013F034
:101C9000FF0F1FBF013013F47F4F013013F47F0F8C
:101CA00018BF0130704700BF024B0A460146186852
:101CB00000F02AB898040720024B13B1024800F044
:101CC00005B8704700000000D91C0800014600203C
:101CD0000246034600F02CB838B5094D094C641B88
:101CE000A41018BF05EB840505D0013C55F8043D50
:101CF0009847002CF9D1BDE8384000F087BE00BFFE
:101D0000182A08001C2A080038B5084C002305468C
:101D1000084611462360FEF700FE431C00D038BD84
:101D20002368002BFBD02B6038BD00BF8C0E072032
:101D3000F0B5274C85B026680746D6F84841002CF8
:101D400040D065681F2D1EDD224818B94FF0FF30C6
:101D500005B0F0BD4FF4C870039102920193AFF348
:101D6000008003990446029A019B0028EED0D6F821
:101D700048510020256060600546C6F84841C4F817
:101D80008801C4F88C013FB96B1C002002356360E8
:101D900044F8251005B0F0BD0126AE4004EB8500E7
:101DA000C0F88820D4F88821022F42EA0602C4F83D
:101DB0008821C0F80831E7D1D4F88C311E43C4F82B
:101DC0008C61E1E706F5A674C6F84841B9E700BFA3
:101DD000E82908000000000068656C6C6F20776FD0
:101DE000726C640A00000000000E0E40000100004A
:101DF0000B000000010000000000000004000000D3
:101E0000FFFFFFFF000E0E40000200000B0000006D
:101E1000010000000000000004000000FFFFFFFFC1
:101E200000100E40000000020C0000000200000044
:101E30000000000014000000FFFFFF0000120E4031
:101E4000000000100D000000020000000000000073
:101E500014000000FFFFFF0E00120E4000000004FF
:101E60000D0000000200000000000000140000004F
:101E7000FFFFFF0D00120E40000000020D000000E9
:101E8000020000000000000014000000FFFFFF0C33
:101E900000120E40000000010D00000002000000D2
:101EA000000000000C000000FFFF07FF00120E40C2
:101EB000000080000D000000020000000000000093
:101EC0000C000000FFFF06FF00120E400000400063
:101ED0000D00000002000000000000000C000000E7
:101EE000FFFF05FF00120E40000020000D00000063
:101EF00002000000000000000C000000FFFF04FFD3
:101F000000120E40000000200D0000000200000042
:101F10000000000014000000FFFFFF0F00140E403F
:101F2000800000000E000000020000000000000021
:101F300014000000FFFFFF1000140E40000100001D
:101F40000E0000000200000000000000140000006D
:101F5000FFFFFF1100100E40000000080C00000001
:101F6000020000000000000014000000FFFFFF015D
:101F700000140E40100000000E00000002000000DF
:101F80000000000004000000FFFFFFFF00140E40EF
:101F9000200000000E000000020000000000000011
:101FA00004000000FFFFFFFF000E0E4000200000B5
:101FB0000B00000001000000000000000400000011
:101FC000FFFFFFFF000E0E40001000000B0000009E
:101FD000010000000000000004000000FFFFFFFF00
:101FE000000E0E40000800000B0000000100000081
:101FF0000000000004000000FFFFFFFF000E0E4085
:10200000000400000B0000000100000000000000C0
:1020100004000000FFFFFFFF00100E400010000052
:102020000C0000000100000000000000040000009F
:10203000FFFFFFFF00100E40002000000C0000001A
:10204000010000000000000004000000FFFFFFFF8F
:1020500000100E40000000040C000000040000000E
:102060000000000004000000FFFFFFFF000E0E4014
:10207000004000000B000000040000000000000011
:1020800004000000FFFFFFFF000E0E400080000074
:102090000B0000000400000000000000040000002D
:1020A000FFFFFFFF00140E40010000000E000000C3
:1020B000040000000000000004000000FFFFFFFF1C
:1020C00000140E40020000000E000000040000009A
:1020D0000000000004000000FFFFFFFF00140E409E
:1020E000040000000E0000000400000000000000DA
:1020F00004000000FFFFFFFF00140E400800000076
:102100000E000000040000000000000004000000B9
:10211000FFFFFFFF00140E40400000000E00000013
:10212000040000000000000004000000FFFFFFFFAB
:1021300000140E40000200000E0000000400000029
:102140000000000004000000FFFFFFFF000E0E4033
:10215000800000000B0000000400000000000000F0
:1021600004000000FFFFFFFF00140E400004000009
:102170000E00000004000000000000000400000049
:10218000FFFFFFFF00120E40020000000D000000E4
:10219000040000000000000004000000FFFFFFFF3B
:1021A00000120E40040000000D00000004000000BA
:1021B0000000000004000000FFFFFFFF00120E40BF
:1021C000080000000D0000000400000000000000F6
:1021D00004000000FFFFFFFF00120E40100000008F
:1021E0000D000000040000000000000004000000DA
:1021F000FFFFFFFF00120E40200000000D00000056
:10220000040000000000000004000000FFFFFFFFCA
:1022100000120E40400000000D000000040000000D
:102220000000000004000000FFFFFFFF00120E404E
:10223000800000000D00000004000000000000000D
:1022400004000000FFFFFFFF00120E40000100002D
:102250000D00000004000000000000000400000069
:10226000FFFFFFFF00120E40000200000D00000003
:10227000040000000000000004000000FFFFFFFF5A
:10228000000E0E40000008000B00000004000000DB
:102290000000000004000000FFFFFFFF000E0E40E2
:1022A000000010000B00000004000000000000000F
:1022B00004000000FFFFFFFF00120E4000000800B6
:1022C0000D000000040000000000000004000000F9
:1022D000FFFFFFFF00120E40000004000D00000091
:1022E000040000000000000004000000FFFFFFFFEA
:1022F00000120E40000002000D000000040000006B
:102300000000000004000000FFFFFFFF00120E406D
:10231000000001000D0000000400000000000000AB
:1023200004000000FFFFFFFF00120E4000800000CD
:102330000D00000004000000000000000400000088
:10234000FFFFFFFF00120E40004000000D000000E4
:10235000040000000000000004000000FFFFFFFF79
:1023600000120E40002000000D00000004000000DC
:102370000000000004000000FFFFFFFF00120E40FD
:10238000001000000D00000004000000000000002C
:1023900004000000FFFFFFFF00100E4000002000BF
:1023A0000C00000004000000000000000400000019
:1023B000FFFFFFFF00100E40004000000C00000077
:1023C000040000000000000004000000FFFFFFFF09
:1023D000000E0E40000001000B0000000300000092
:1023E00000000000020000000007FFFF000E0E408A
:1023F000000000010B0000000300000000000000CE
:10240000020000000106FFFF000E0E4000008000E9
:102410000B000000030000000000000002000000AC
:102420000205FFFF000E0E40000040000B00000000
:102430000300000000000000020000000304FFFF92
:10244000000E0E40400000000B00000003000000E2
:1024500000000000020000000403FF05000E0E4013
:10246000100000000B00000003000000000000004E
:10247000020000000502FFFF000E0E4008000000F1
:102480000B0000000300000000000000020000003C
:102490000601FF03000E0E40040000000B000000C8
:1024A0000300000000000000020000000700FF021F
:1024B00000100E40000002000C00000003000000AD
:1024C0000000000002000000080AFFFF00100E409C
:1024D000000004000C0000000300000000000000E9
:1024E00002000000090BFFFF00100E400000080072
:1024F0000C000000030000000000000002000000CB
:102500000A0CFFFF00100E40000010000C0000003D
:102510000300000000000000020000000B0DFFFFA0
:1025200000100E40008000000C00000003000000BE
:1025300000000000020000000C10FFFF00100E4021
:10254000000001000C00000003000000000000007B
:10255000020000000D11FFFF000E0E4002000000FF
:102560000B0000000100000000000000040000005B
:102570000EFFFFFF000E0E40010000000B000000E8
:102580000100000000000000040000000FFFFFFF3A
:10259000000E0E40000002000B00000001000000D1
:1025A0000000000004000000FFFFFFFF000E0E40CF
:1025B000000004000B00000001000000000000000B
:1025C00004000000FFFFFFFF00120E40000000406B
:1025D0000D000000040000000000000004000000E6
:1025E000FFFFFFFF000E0E40000020000B00000068
:1025F000040000000000000004000000FFFFFFFFD7
:10260000000E0E40000000020B0000000100000060
:102610000000000004000000FFFFFFFF000E0E405E
:10262000000000040B00000001000000000000009A
:1026300004000000FFFFFFFF000E0E400000000836
:102640000B0000000100000000000000040000007A
:10265000FFFFFFFF000E0E40000000100B00000007
:10266000010000000000000004000000FFFFFFFF69
:1026700000100E40000080000C000000020000006E
:102680000000000004000000FFFFFFFF000E0E40EE
:10269000000006000B000000010000000000000028
:1026A00005000000FFFFFFFF00100E40003000009B
:1026B0000C00000001000000000000000500000008
:1026C000FFFFFFFF000E0E40000300000B000000A4
:1026D000010000000000000005000000FFFFFFFFF8
:1026E000000E0E40000C00000B0000000100000076
:1026F0000000000005000000FFFFFFFF000E0E407D
:10270000003000000B00000001000000000000008D
:1027100005000000FFFFFFFF00140E403000000026
:102720000E00000002000000000000000500000094
:10273000FFFFFFFF00100E40000C00000C00000027
:10274000010000000000000004000000FFFFFFFF88
:1027500000100E40000020000C00000002000000ED
:102760000000000004000000FFFFFFFF000E0E400D
:10277000000000200B00000001000000000000002D
:1027800004000000FFFFFFFF00100E40008000006B
:102790000C00000001000000000000000400000028
:1027A000FFFFFFFF00100E40004000000C00000083
:1027B000010000000000000004000000FFFFFFFF18
:1027C000000E0E40030000000B000000010000009E
:1027D0000000000005000000FFFFFFFF00100E409A
:1027E00000C000000C00000001000000000000001C
:1027F00005000000FFFFFFFF0000000000000000D8
:1028000000000000000000000000000000000000C8
:10281000FFFFFFFF000000000800000010000000A4
:1028200018000000400000005000000060000000A0
:102830007000000000020000400200008002000062
:10284000C0020000000300004003000080030000FD
:10285000C0030000000000000000000000000000B5
:10286000E90B0800B90A0800790B0800A70B08005B
:102870008B0B0800D10B08000D0D08003D0C080063
:10288000750B0800000000000000000000000000C0
:10289000E90B0800B90A0800790B0800A70B08002B
:1028A0008B0B0800D10B08006F0D08003D0C0800D1
:1028B000750B08000000000041726475696E6F209E
:1028C00044756500120100020000004041233E00F3
:1028D00000010102030104030904000000000000DC
:1028E000000000AAAAAAAAAAAAAAAAEEEEEEEEEEF2
:1028F000EEEEEEFEFFFFFFFFFFFFFFFFFFFFFF7F9C
:10290000BFDFEFF7FBFDFC7EBFDFEFF7FBFD7E4196
:10291000726475696E6F204C4C430012010002EF27
:1029200002014041233E000001010203010A0600AA
:102930000200000040010000000000000000000054
:10294000391508000D160800F91408005115080083
:102950001915080095150800111508009D150800A7
:10296000080B00020202010009040000010202003B
:1029700000052400100105240101010424020605BC
:10298000240600010705810310001009040100025C
:102990000A0000000705020240000007058302400C
:1029A0000000080B000202020100090400000102FD
:1029B0000200000524001001052401010104240285
:1029C0000605240600010705810310001009040113
:1029D00000020A000000070502020002000705834A
:1029E000020002004300000070000720F8B500BF9D
:1029F000F8BC08BC9E467047B91C080019010800C5
:102A00000103080099100800D9160800F8B500BFA6
:0C2A1000F8BC08BC9E467047F5000800AA
:102A1C0072B6064B9A68D107FBD5054A5A609A687C
:102A2C00D207FCD5034A044B1A60FEE7000A0E409D
:102A3C000C01005A050000A5001A0E4000093D00CB
:102A4C00FFFFFFFF32200000363900006630000027
:102A5C0066310000000000000000000000000000D3
:102A6C00000000000000000000000000FFFFFFFF5E
:102A7C0000E1000000000800010000000000000060
:102A8C00000000005C030720C40307202C0407206F
:102A9C00000000000000000000000000000000002A
:102AAC00000000000000000000000000000000001A
:102ABC0000000000E42908000000000000000000F5
:102ACC0000000000000000000000000000000000FA
:102ADC0000000000000000000000000000000000EA
:102AEC0000000000000000000000000000000000DA
:102AFC0000000000000000000000000000000000CA
:102B0C0000000000000000000000000000000000B9
:102B1C0000000000000000000000000000000000A9
:102B2C000000000000000000010000000000000098
:102B3C000E33CDAB34126DE6ECDE05000B0000005D
:102B4C000000000000000000000000000000000079
:102B5C000000000000000000000000000000000069
:102B6C000000000000000000000000000000000059
:102B7C000000000000000000000000000000000049
:0C2EAC0000000000000000007000072083
:040000038000064D26
:00000001FF
