:020000040800F2
:100000000000022009190008690700086B070008B2
:100010006D0700086F070008710700080000000066
:10002000000000000000000000000000730700084E
:10003000750700080000000077070008790700082E
:1000400059190008591900085919000859190008C8
:1000500059190008591900085919000859190008B8
:1000600059190008591900085919000859190008A8
:100070005919000859190008591900085919000898
:100080005919000859190008591900080000000002
:1000900000000000000000000000000059190008E6
:1000A0005919000881070008591900085919000852
:1000B0005919000859190008591900085919000858
:1000C0005919000859190008591900085919000848
:1000D00059190008591900085919000800000000B2
:1000E00059190008591900085919000800000000A2
:1000F0000000000000000000000000005919000886
:100100000000000059190008591900085919000881
:1001100000000000000000000000000000000000DF
:1001200059190008591900085919000859190008E7
:100130005919000800000000000000000000000045
:100140000000000000000000000000005919000835
:1001500059190008591900085919000859190008B7
:10016000591900085919000800000000000000009B
:10017000000000000000000000000000000000007F
:1001800000000000591900080000000000000000F5
:08019000591900085919000873
:1001980010B5054C237833B9044B13B10448AFF3B9
:1001A80000800123237010BD0C0000200000000017
:1001B800B419000808B5034B1BB103490348AFF352
:1001C800008008BD0000000010000020B4190008DD
:1001D80053B94AB9002908BF00281CBF4FF0FF31A6
:1001E8004FF0FF3000F06EB9ADF1080C6DE904CEA8
:1001F80000F006F8DDF804E0DDE9022304B07047FA
:100208002DE9F047089D04468C46002B40F083807A
:100218008A42174647D9B2FA82F242B1C2F12000A7
:1002280024FA00F09140974040EA010C94404FEACC
:100238001748230CBCFBF8F61FFA87FE08FB16C10B
:1002480043EA014306FB0EF1994209D9FB1806F16E
:10025800FF3080F01981994240F21681023E3B44FA
:100268005B1AA4B2B3FBF8F008FB103344EA03446A
:1002780000FB0EFEA64509D93C1900F1FF3380F0BA
:100288000581A64540F2028102383C4440EA064016
:10029800A4EB0E0400261DB1D4400023C5E9004399
:1002A8003146BDE8F08702B9FFDEB2FA82F2002AD1
:1002B80050D1CB1B4FEA174E1FFA87F80126B3FB24
:1002C800FEFC210C0EFB1C3341EA034108FB0CF336
:1002D8008B4207D979180CF1FF3002D28B4200F219
:1002E800E9808446C91AA3B2B1FBFEF00EFB1011D7
:1002F80043EA014408FB00F8A04507D93C1900F17E
:10030800FF3302D2A04500F2D9801846A4EB0804B6
:1003180040EA0C40BFE78B4209D9002D00F0B180BC
:100328000026C5E9000130463146BDE8F087B3FA3A
:1003380083F6002E4AD18B4202D3824200F2B88063
:10034800841A61EB030101208C46002DA8D0C5E971
:10035800004CA5E7C2F1200320FA03F6974001FA02
:1003680002F04FEA174ED9403043030CB1FBFEF6BA
:100378001FFA87F80EFB161143EA014306FB08F142
:10038800994204FA02F409D9FB1806F1FF3C80F0FF
:100398008D80994240F28A80023E3B445B1A81B2CA
:1003A800B3FBFEF00EFB103341EA034100FB08F3F8
:1003B8008B4207D9791800F1FF3C73D28B4271D96F
:1003C80002383944CB1A40EA064678E7C6F1200CD1
:1003D80003FA06F422FA0CF31C4320FA0CF701FA8C
:1003E80006F34FEA144E21FA0CF11F433B0CB1FB04
:1003F800FEF91FFA84F80EFB191143EA014109FBC3
:1004080008FA8A4502FA06F200FA06F308D96118D2
:1004180009F1FF3048D28A4546D9A9F10209214499
:10042800A1EB0A01BFB2B1FBFEF00EFB101147EAC7
:10043800014700FB08F8B84507D9E71900F1FF3173
:100448002ED2B8452CD90238274440EA0940A7EBF8
:100458000807A0FB02894F45C64649461AD317D05C
:100468005DB1B3EB0E0267EB010707FA0CFCF24033
:100478004CEA0202F740C5E9002700263146BDE8EC
:10048800F0872E4628460BE70646E9E61846FDE6BD
:100498004345E5D2B8EB020E69EB04010138DFE70A
:1004A8000846D2E760468DE78146B9E7664675E7B4
:1004B80030464AE7ACF1020C394413E702383C44B1
:1004C80024E700BF704700BF72B6FEE700B595B0DD
:1004D8003022002108A801F061FA00230393049355
:1004E8000593069307930193184A116C41F08051C4
:1004F8001164126C02F080520192019A0293144A1C
:10050800116841F440411160126802F440420292BD
:10051800029A0222089201220B9210220C920E9348
:1005280008A800F0B5FB68B90F23039300210491D4
:1005380005910691079103A800F0F6FD20B915B0C2
:100548005DF804FBFFF7C0FFFFF7BEFF003802406D
:100558000070004008B501F035F8FFF7B7FF00F06C
:1005680019F800F041F800F0A9F8074800F060F920
:100578004FF0FF3306220549054801F054F90A20D7
:1005880001F04CF8F4E700BF28000020CC1900085F
:100598007000002030B587B00024019402940394C1
:1005A8000494059400940E4B1A6B42F001021A63EE
:1005B8001B6B03F001030093009B0A4D01222021CD
:1005C800284600F05FFF2023019301230293039440
:1005D8000323049301A9284600F07CFE07B030BD30
:1005E800003802400000024000B587B000230293A3
:1005F800039304930593009301931648164A0260E7
:1006080040F28F624260836040F2F312C26003617D
:100618004361836100F058FA90B94FF48053029314
:1006280002A90C4800F088FA68B9002300930193E6
:100638006946084800F0EEFA40B907B05DF804FBD7
:10064800FFF742FFE9E7FFF73FFFEEE7FFF73CFF61
:10065800F3E700BF280000200000014002680E4BAD
:100668009A4200D0704700B583B00021019103F58C
:100678009C335A6C42F001025A645B6C03F001032C
:100688000193019B0A46192000F01EFF192000F073
:100698004FFF03B05DF804FB0000014008B5026895
:1006A800044B9A4200D008BD2021034800F0F0FE18
:1006B800F9E700BF000001400000024008B50A4801
:1006C8000A4B03604FF4E133436000238360C36047
:1006D80003610C2242618361C36101F075F800B9BE
:1006E80008BDFFF7F1FEFBE7700000200044004062
:1006F80000B589B0002303930493059306930793E9
:100708000268154B9A4202D009B05DF804FB00223A
:10071800019203F5FA33196C41F400311964196C2C
:1007280001F40031019101990292196B41F0010124
:1007380019631B6B03F001030293029B0C230393C1
:10074800022304930592032306930723079303A91F
:10075800024800F0BFFDD7E7004400400000024017
:10076800FEE7FEE7FEE7FEE7FEE7704770477047E3
:1007780008B500F041FF08BD08B5024800F098F838
:1007880008BD00BF2800002082B0002100910B4B5B
:100798005A6C42F480425A645A6C02F480420092C5
:1007A800009A01911A6C42F080521A641B6C03F093
:1007B80080530193019B02B0704700BF003802408C
:1007C800034AD2F8883043F47003C2F8883070477F
:1007D80000ED00E030B4036A056A25F00105056202
:1007E800846924F0F00444EA021423F00A030B435A
:1007F8008461036230BC704730B4056A25F0100587
:1008080005628469036A24F4704444EA023423F0DC
:10081800A00343EA01138461036230BC7047836814
:1008280023F070030B4343F0070383607047000015
:1008380090F83D30DBB2012B2FD1022380F83D30F8
:100848000268D36843F00103D3600368154A9342F2
:1008580018D0B3F1804F15D0A2F57C42934211D045
:1008680002F5806293420DD002F58062934209D06E
:1008780002F59A32934205D01A6842F001021A60D2
:10088800002070479A6802F00702062A07D01A6803
:1008980042F001021A6000207047012070470020D2
:1008A800704700BF000001407047704770477047AD
:1008B80010B5044603681A6912F0020F11D0DA68FD
:1008C80012F0020F0DD06FF002021A6101230377B4
:1008D80003689B6913F0030F70D0FFF7E6FF00234E
:1008E800237723681A6912F0040F12D0DA6812F01D
:1008F800040F0ED06FF004021A61022323772368D5
:100908009B6913F4407F5FD02046FFF7CEFF00239A
:10091800237723681A6912F0080F12D0DA6812F0E8
:10092800080F0ED06FF008021A610423237723689A
:10093800DB6913F0030F4ED02046FFF7B6FF002304
:10094800237723681A6912F0100F12D0DA6812F0B0
:10095800100F0ED06FF010021A6108232377236856
:10096800DB6913F4407F3DD02046FFF79EFF00234C
:10097800237723681A6912F0010F03D0DA6812F09E
:10098800010F36D123681A6912F0800F03D0DA6894
:1009980012F0800F34D123681A6912F0400F03D087
:1009A800DA6812F0400F32D123681A6912F0200F6A
:1009B80003D0DA6812F0200F30D110BDFFF774FFB2
:1009C8002046FFF773FF8AE72046FFF76DFF2046B2
:1009D800FFF76CFF9BE72046FFF766FF2046FFF70F
:1009E80065FFACE72046FFF75FFF2046FFF75EFF95
:1009F800BDE76FF001021A612046FFF74FFEC1E71D
:100A08006FF080021A61204600F041F9C3E76FF0E9
:100A180040021A612046FFF74AFFC5E76FF020023F
:100A28001A61204600F032F9C7E700000368254A3A
:100A380090420ED0B0F1804F0BD0A2F57C4290428C
:100A480007D002F58062904203D002F5806290429E
:100A580003D123F070034A6813431A4A90421AD00C
:100A6800B0F1804F17D0A2F57C42904213D002F526
:100A7800806290420FD002F5806290420BD002F55E
:100A88009A32904207D002F58062904203D002F574
:100A98008062904203D123F44073CA68134323F061
:100AA80080034A69134303608B68C3620B688362DF
:100AB800044B984202D00123436170470B690363DA
:100AC800F9E700BF0000014040B310B5044690F8B4
:100AD8003D30F3B1022384F83D30214651F8040B30
:100AE800FFF7A4FF012384F8463084F83E3084F8E9
:100AF8003F3084F8403084F8413084F8423084F83C
:100B0800433084F8443084F8453084F83D30002080
:100B180010BD80F83C30FFF7A1FDDBE701207047EE
:100B280010B4846824F47F4442EA03220A4322432F
:100B380082605DF8044B704790F83C30012B66D01A
:100B480010B50446012380F83C30022380F83D307C
:100B58000268936823F47F4323F0770393600B685C
:100B6800602B40D022D8402B47D00BD9502B0ED128
:100B7800CA6849680068FFF72DFE50212068FFF712
:100B88004EFE04E0202B0CD008D9302B09D00123CD
:100B980084F83D30002084F83C0010BD0BB1102BC8
:100BA800F5D119462068FFF73AFEF0E7702B0ED012
:100BB800B3F5005FEBD1CB684A6889680068FFF736
:100BC800AFFF2268936843F480439360DFE7CB6804
:100BD8004A6889680068FFF7A3FF2268936843F0B2
:100BE80077039360D3E7CA6849680068FFF704FE93
:100BF80060212068FFF713FEC9E7CA6849680068E2
:100C0800FFF7E8FD40212068FFF709FEBFE7022053
:100C18007047000090F83C30012B33D030B40123EA
:100C280080F83C30022380F83D3003685C689D689A
:100C380024F070040A6822435A600368124A9342F7
:100C480012D0B3F1804F0FD0A2F57C4293420BD063
:100C580002F58062934207D002F58062934203D086
:100C680002F59A32934204D125F080054A6815436B
:100C78009D60012380F83D30002380F83C30184601
:100C880030BC704702207047000001407047704731
:100C9800002800F0DF8170B582B00446036813F0C5
:100CA800010F3BD0A64B9B6803F00C03042B2CD000
:100CB800A34B9B6803F00C03082B21D06368B3F5A2
:100CC800803F4FD0B3F5A02F52D09D4B1A6822F425
:100CD80080321A601A6822F480221A606368002B36
:100CE80050D000F095FC0546954B1B6813F4003F67
:100CF80014D100F08DFC401B6428F5D90320B0E125
:100D08008F4B5B6813F4800FD8D08D4B1B6813F49E
:100D1800003F03D06368002B00F09E81236813F026
:100D2800020F54D0864B9B6813F00C0F3ED0844BB7
:100D38009B6803F00C03082B33D0E368002B67D0C3
:100D4800804B01221A6000F063FC05467C4B1B684F
:100D580013F0020F53D100F05BFC401B0228F5D9B9
:100D680003207EE1764A136843F480331360B5E7C5
:100D7800734B1A6842F480221A601A6842F480326F
:100D88001A60ABE700F044FC05466D4B1B6813F492
:100D9800003FC3D000F03CFC401B6428F5D9032079
:100DA8005FE1674B5B6813F4800FC6D1644B1B6827
:100DB80013F0020F03D0E368012B40F04F81604A23
:100DC800136823F0F803216943EAC1031360236819
:100DD80013F0080F40D0636963B35B4B01221A60BC
:100DE80000F016FC0546564B5B6F13F0020F33D12B
:100DF80000F00EFC401B0228F5D9032031E1504ACF
:100E0800136823F0F803216943EAC1031360DEE79E
:100E18004C4B00221A6000F0FBFB0546484B1B6850
:100E280013F0020FD3D000F0F3FB401B0228F5D9D2
:100E3800032016E1444B00221A6000F0E9FB054646
:100E48003F4B5B6F13F0020F06D000F0E1FB401B35
:100E58000228F5D9032004E1236813F0040F78D0A1
:100E6800374B1B6C13F0805F0DD100230193344B7B
:100E78001A6C42F080521A641B6C03F08053019381
:100E8800019B012500E00025304B1B6813F4807F8F
:100E980021D0A368012B32D0052B36D0284B1A6FEE
:100EA80022F001021A671A6F22F004021A67A36877
:100EB800002B34D000F0ACFB0646214B1B6F13F01F
:100EC800020F45D100F0A4FB801B41F28833984201
:100ED800F3D90320C5E01D4A136843F480731360F7
:100EE80000F096FB0646194B1B6813F4807FD0D19F
:100EF80000F08EFB801B0228F5D90320B1E0104AD0
:100F0800136F43F001031367D1E70D4B1A6F42F0DB
:100F180004021A671A6F42F001021A67C7E700F065
:100F280077FB0646064B1B6F13F0020F10D000F03C
:100F38006FFB801B41F288339842F3D9032090E07D
:100F48000038024000004742800E474200700040CF
:100F5800EDB9A369002B00F08380494A926802F03A
:100F68000C02082A51D0022B17D0464B00221A60D7
:100F780000F04EFB0446424B1B6813F0007F42D042
:100F880000F046FB001B0228F5D9032069E03C4A23
:100F9800136C23F080531364DBE73A4B00221A608A
:100FA80000F036FB0546364B1B6813F0007F06D071
:100FB80000F02EFB401B0228F5D9032051E0E3691D
:100FC800226A1343626A43EA8213A26A5208013A08
:100FD80043EA0243E26A43EA0263294A5360294B1F
:100FE80001221A6000F014FB0446254B1B6813F01D
:100FF800007F06D100F00CFB001B0228F5D9032066
:101008002FE000202DE000202BE0012B2BD01C4BE3
:101018005B6803F48001E269914226D103F03F0244
:10102800216A8A4223D1616A47F6C0721A40B2EB3C
:10103800811F1ED103F44031A26A5208013AB1EB74
:10104800024F18D103F07063E26AB3EB026F14D158
:10105800002006E001207047012002E0012000E0A6
:10106800002002B070BD0120FBE70120F9E7012054
:10107800F7E70120F5E70120F3E70120F1E700BFDA
:101088000038024060004742F8B5244B9B6803F0E3
:101098000C03042B3DD0082B3DD1204B5A6802F09D
:1010A8003F025B6813F4800F12D01C4B5968C1F3E0
:1010B800881100231A48A1FB0001FFF789F8174B94
:1010C8005B68C3F3014301335B00B0FBF3F023E03B
:1010D800124B5B68C3F388135C010025E41A65F1C1
:1010E8000005AE0146EA9466A701381B66EB0501C8
:1010F800CC0044EA5074C500E81844F100018B02A2
:1011080043EA90538402204619460023FFF760F80B
:10111800D5E7034800E00348F8BD00BF00380240A7
:1011280040787D010024F400002800F09B8070B511
:101138000D4604464F4B1B6803F007038B4208D249
:10114800CBB24C4A1370136803F007038B4240F08C
:101158008B80236813F0020F17D013F0040F04D00C
:10116800454A936843F4E0539360236813F0080FEB
:1011780004D0414A936843F4604393603E4A9368BD
:1011880023F0F003A1680B439360236813F0010F69
:1011980032D06368012B21D09A1E012A25D9364AFC
:1011A800126812F0020F61D033498A6822F00302F4
:1011B80013438B6000F02CFA06462F4B9B6803F014
:1011C8000C036268B3EB820F16D000F021FA801B83
:1011D80041F288339842F0D9032042E0264A126847
:1011E80012F4003FE0D101203BE0234A126812F0DC
:1011F800007FD9D1012034E01E4B1B6803F00703A0
:10120800AB4207D9EAB21B4B1A701B6803F00703FD
:10121800AB422DD1236813F0040F06D0164A936809
:1012280023F4E053E1680B439360236813F0080F3D
:1012380007D0114A936823F46043216943EAC10344
:101248009360FFF721FF0C4B9B68C3F303130B4A12
:10125800D35CD8400A4B18600A4B186800F08CF928
:10126800002070BD012070470120FAE70120F8E74F
:101278000120F6E7003C024000380240D41900087B
:101288000000002008000020014B1868704700BFCC
:101298000000002008B5FFF7F7FF044B9B68C3F375
:1012A8008223034AD35CD84008BD00BF00380240FF
:1012B800E419000808B5FFF7E7FF044B9B68C3F380
:1012C8004233034AD35CD84008BD00BF003802400F
:1012D800E419000800230F2B00F2CB80F0B482B091
:1012E8005DE086685F000324BC4026EA0406CC68FB
:1012F800BC4034438460466826EA02064C68C4F35E
:1013080000129A403243426057E0DC08083450F833
:10131800247003F0070296000F22B24027EA020762
:101328000A69B2403A4340F824205AE0042200E017
:101338000022B2403A4302344E4E46F824204E4A28
:101348001468EA4324EA05064F6817F4803F01D081
:1013580045EA0406484C2660646802EA04064F68B9
:1013680017F4003F01D045EA0406434C6660A468C0
:1013780002EA04064F6817F4801F01D045EA040604
:101388003D4CA660E46822404E6816F4001F01D068
:1013980045EA0402384CE26001330F2B66D801227B
:1013A8009A400C6804EA020532EA0404F4D14C6855
:1013B80004F00304013C012C93D94A6802F00302AB
:1013C800032A09D0C4685E000322B24024EA02045A
:1013D8008A68B2402243C2604A6802F00302022AC5
:1013E80093D004685E000322B24024EA02044A68EB
:1013F80002F00302B240224302604A6812F0805FA2
:10140800CAD0002201921D4A546C44F480445464AA
:10141800526C02F480420192019A9C08A61C154A5B
:1014280052F8267003F0030296000F22B24027EA12
:101438000207134A90423FF47BAF02F58062904264
:101448000ED002F5806290420CD002F58062904284
:101458000AD002F5806290423FF468AF072268E73D
:10146800012266E7022264E7032262E702B0F0BCC9
:101478007047704700380140003C01400038024086
:10148800000002400AB18161704709048161704718
:10149800436901EA030221EA030141EA0241816149
:1014A80070470000074AD36823F4E0631B041B0C51
:1014B800000200F4E060034343F0BF6343F40033E9
:1014C800D360704700ED00E030B4174BDB68C3F31E
:1014D8000223C3F10704042C28BF04241D1D062D74
:1014E80018D9033B4FF0FF3505FA04F421EA04014B
:1014F800994005FA03F322EA0303194300280BDB9A
:101508000901C9B200F1604000F5614080F800139C
:1015180030BC70470023E5E700F00F000901C9B2AD
:10152800024B1954F4E700BF00ED00E014ED00E0B1
:10153800002807DB00F01F02400901239340024AFC
:1015480042F82030704700BF00E100E00138B0F1F8
:10155800807F0AD2064B5860064AF02182F8231091
:101568000020986007221A6070470120704700BF6A
:1015780010E000E000ED00E010B504460E4B1878CE
:101588004FF47A73B3FBF0F30C4A1068B0FBF3F036
:10159800FFF7DCFF68B90F2C01D901200AE000220F
:1015A80021464FF0FF30FFF78FFF054B1C600020EE
:1015B80000E0012010BD00BF040000200000002052
:1015C8000800002008B50B4B1A6842F400721A6034
:1015D8001A6842F480621A601A6842F480721A60CB
:1015E8000320FFF75FFF0020FFF7C6FFFFF7CCF8E7
:1015F800002008BD003C0240034A1168034B1B78D9
:101608000B441360704700BFB400002004000020A2
:10161800014B1868704700BFB400002038B5044675
:10162800FFF7F6FF0546B4F1FF3F02D0044B1B78E5
:101638001C44FFF7EDFF401BA042FAD338BD00BFA2
:101648000400002070B504460268136923F440536F
:10165800C1680B43136183680269134342691343EA
:10166800C2691A430168CB6823F4164323F00C03BC
:101678001343CB600268536923F4407381690B43B9
:1016880053610368344A934206D002F5806293425C
:1016980002D0FFF7FFFD01E0FFF70CFEE369B3F5A9
:1016A800004F2AD00026051846EB06012D1846EBF8
:1016B8000101CB0043EA5573EA00154619466368F1
:1016C8009A009B0F281846EB0101FEF781FD234D78
:1016D800A5FB00325109642303FB11031B013233BC
:1016E800A5FB03235B0903F0F00202EB011203F0F0
:1016F8000F03216813448B6070BD0026051846EB64
:1017080006012D1846EB0101CB0043EA5573EA00A8
:101718001546194662683346921846EB03032818A3
:1017280046EB0101FEF754FD0C4DA5FB00325109B3
:10173800642303FB1103DB003233A5FB03235B099E
:101748005A0002F4F87202EB011203F00703216851
:1017580013448B60D0E700BF001001401F85EB5198
:101768002DE9F84305460F4616469946DDF82080D0
:101778002C68246837EA04030CBF01240024B4420F
:101788001FD1B8F1FF3FF3D0B8F1000F05D0FFF734
:101798003FFFA0EB09004045EAD92A68D36823F443
:1017A800D073D3602A68536923F00103536120235F
:1017B80085F83D3085F83E30002385F83C3003201D
:1017C80000E00020BDE8F88358B310B5044690F84F
:1017D8003D300BB3242384F83D302268D36823F4CA
:1017E8000053D3602046FFF72DFF2268136923F4C6
:1017F800904313612268536923F02A0353612268D6
:10180800D36843F40053D36000202064202384F875
:101818003D3084F83E3010BD80F83C30FEF768FF5C
:10182800D8E7012070472DE9F04182B01E4690F8B4
:101838003D30DBB2202B54D104460D46904600299A
:1018480053D0002A53D090F83C30012B51D00123BB
:1018580080F83C3000230364212380F83D30FFF7F3
:10186800D7FE0746A4F82480A4F82680A368B3F519
:10187800805F05D04FF00008002384F83C3012E068
:10188800236913B14FF00008F6E7A8460025F3E7EF
:1018980038F8023B2268C3F308035360E28C92B223
:1018A800013A92B2E284E38C9BB273B100963B4654
:1018B800002280212046FFF753FFE0B9002DE7D032
:1018C80015F8012B23685A60E8E700963B4600228A
:1018D80040212046FFF744FF78B9202384F83D30A3
:1018E80000E0022002B0BDE8F0810120FAE7012003
:1018F800F8E70220F6E70320F4E70320F2E7000008
:10190800DFF834D00D480E490E4A002302E0D458BF
:10191800C4500433C4188C42F9D30B4A0B4C00232F
:1019280001E013600432A242FBD3FEF749FF00F046
:1019380011F8FEF70FFE704700000220000000209B
:101948000C000020FC1900080C000020B800002042
:10195800FEE7000070B50D4D0D4C641BA410002669
:10196800A64209D10B4D0C4C00F020F8641BA410C2
:101978000026A64205D170BD55F8043B98470136AC
:10198800EEE755F8043B98470136F2E7F4190008EA
:10199800F4190008F4190008F8190008024403466D
:1019A800934200D1704703F8011BF9E7F8B500BF6F
:1019B800F8BC08BC9E467047F8B500BFF8BC08BC28
:0419C8009E46704780
:1019CC0068656C6C6F0A00000000000000000000ED
:1019DC0001020304060708090000000001020304C9
:0819EC001CE8FF7F0100000070
:0419F400BD01000829
:0419F8009901000849
:0C19FC000024F4000100000010000000B6
:0400000508001909CD
:00000001FF
