:020000040800F2
:1000000000000220A51C0008D1060008D306000845
:10001000D5060008D7060008D90600080000000031
:10002000000000000000000000000000DB060008E7
:10003000DD06000800000000DF060008E1060008F9
:10004000F51C0008F51C0008F51C0008F51C00084C
:10005000F51C0008F51C0008F51C0008F51C00083C
:10006000F51C0008F51C0008F51C0008F51C00082C
:10007000F51C0008F51C0008F51C0008F51C00081C
:10008000F51C0008E9060008F51C00080000000047
:10009000000000000000000000000000F51C000847
:1000A000F51C0008F51C0008F51C0008F51C0008EC
:1000B000F51C0008F51C0008F51C0008F51C0008DC
:1000C000F51C0008F51C0008F51C0008F51C0008CC
:1000D000F51C0008F51C0008F906000800000000E7
:1000E000F51C0008F51C0008F51C000800000000C5
:1000F000000000000000000000000000F51C0008E7
:1001000000000000F51C0008F51C0008F51C0008A4
:1001100000000000000000000000000000000000DF
:10012000F51C0008F51C0008F51C0008F51C00086B
:10013000F51C0008000000000000000000000000A6
:10014000000000000000000000000000F51C000896
:10015000F51C0008F51C0008F51C0008F51C00083B
:10016000F51C0008F51C000800000000000000005D
:10017000000000000000000000000000000000007F
:1001800000000000F51C0008000000000000000056
:08019000F51C0008F51C000835
:1001A00010B5054C237833B9044B13B10448AFF3B1
:1001B00000800123237010BD7000002000000000AB
:1001C000C825000808B5034B1BB103490348AFF32A
:1001D000008008BD0000000074000020C825000851
:1001E00001F0FF01102A2BDB10F0070F08D010F8E8
:1001F000013B013A8B422DD010F0070F42B3F6D1EC
:10020000F0B441EA012141EA014122F007047FF004
:1002100000070023F0E80256083C85EA010586EA5B
:10022000010685FA47F5A3FA87F586FA47F6A5FA97
:1002300087F68EB9EED1F0BC01F0FF0102F00702A3
:1002400032B110F8013B013A83EA010313B1F8D14E
:100250000020704701387047002D06BF354603382F
:10026000073815F0010F07D1013015F4807F02BF68
:10027000013015F4C03F0130F0BC0138704700BFB9
:1002800053B94AB9002908BF00281CBF4FF0FF31FD
:100290004FF0FF3000F06EB9ADF1080C6DE904CEFF
:1002A00000F006F8DDF804E0DDE9022304B0704751
:1002B0002DE9F047089D04468C46002B40F08380D2
:1002C0008A42174647D9B2FA82F242B1C2F12000FF
:1002D00024FA00F09140974040EA010C94404FEA24
:1002E0001748230CBCFBF8F61FFA87FE08FB16C163
:1002F00043EA014306FB0EF1994209D9FB1806F1C6
:10030000FF3080F01981994240F21681023E3B4451
:100310005B1AA4B2B3FBF8F008FB103344EA0344C1
:1003200000FB0EFEA64509D93C1900F1FF3380F011
:100330000581A64540F2028102383C4440EA06406D
:10034000A4EB0E0400261DB1D4400023C5E90043F0
:100350003146BDE8F08702B9FFDEB2FA82F2002A28
:1003600050D1CB1B4FEA174E1FFA87F80126B3FB7B
:10037000FEFC210C0EFB1C3341EA034108FB0CF38D
:100380008B4207D979180CF1FF3002D28B4200F270
:10039000E9808446C91AA3B2B1FBFEF00EFB10112E
:1003A00043EA014408FB00F8A04507D93C1900F1D5
:1003B000FF3302D2A04500F2D9801846A4EB08040E
:1003C00040EA0C40BFE78B4209D9002D00F0B18014
:1003D0000026C5E9000130463146BDE8F087B3FA92
:1003E00083F6002E4AD18B4202D3824200F2B880BB
:1003F000841A61EB030101208C46002DA8D0C5E9C9
:10040000004CA5E7C2F1200320FA03F6974001FA59
:1004100002F04FEA174ED9403043030CB1FBFEF611
:100420001FFA87F80EFB161143EA014306FB08F199
:10043000994204FA02F409D9FB1806F1FF3C80F056
:100440008D80994240F28A80023E3B445B1A81B221
:10045000B3FBFEF00EFB103341EA034100FB08F34F
:100460008B4207D9791800F1FF3C73D28B4271D9C6
:1004700002383944CB1A40EA064678E7C6F1200C28
:1004800003FA06F422FA0CF31C4320FA0CF701FAE3
:1004900006F34FEA144E21FA0CF11F433B0CB1FB5B
:1004A000FEF91FFA84F80EFB191143EA014109FB1A
:1004B00008FA8A4502FA06F200FA06F308D961182A
:1004C00009F1FF3048D28A4546D9A9F102092144F1
:1004D000A1EB0A01BFB2B1FBFEF00EFB101147EA1F
:1004E000014700FB08F8B84507D9E71900F1FF31CB
:1004F0002ED2B8452CD90238274440EA0940A7EB50
:100500000807A0FB02894F45C64649461AD317D0B3
:100510005DB1B3EB0E0267EB010707FA0CFCF2408A
:100520004CEA0202F740C5E9002700263146BDE843
:10053000F0872E4628460BE70646E9E61846FDE614
:100540004345E5D2B8EB020E69EB04010138DFE761
:100550000846D2E760468DE78146B9E7664675E70B
:1005600030464AE7ACF1020C394413E702383C4408
:1005700024E700BF704700BF82B000230193064B01
:100580001A6B42F001021A631B6B03F00103019323
:10059000019B02B0704700BF0038024000B583B035
:1005A00000210191094B1A6B42F400121A631B6B74
:1005B00003F400130193019B0A46112001F0AAFAEB
:1005C000112001F0DBFA03B05DF804FB00380240B3
:1005D00072B6FEE708B50A480A4B03604FF4E133F0
:1005E000436000238360C36003610C224261836126
:1005F000C36100F0E3F900B908BDFFF7E9FF00BFF0
:10060000F80000200044004000B595B030220021E1
:1006100008A801F095FB0023039304930593069328
:1006200007930193184A116C41F080511164126CC8
:1006300002F080520192019A0293144A116841F427
:1006400040411160126802F440420292029A022272
:10065000089201220B9210220C920E9308A800F02F
:10066000E7FB68B90F2303930021049105910691DC
:10067000079103A800F028FE20B915B05DF804FB2F
:10068000FFF7A6FFFFF7A4FF00380240007000400C
:1006900000B585B001F0BCFAFFF7B6FFFFF76CFFBD
:1006A000FFF77CFFFFF796FF01F0D8FA02460649F4
:1006B000684601F04DFB82B26946044800F0AEF98D
:1006C000052001F0D1FAEFE7E0250008F80000204E
:1006D000FEE7FEE7FEE7FEE7FEE77047704770477C
:1006E00008B501F0AFFA08BD08B5024801F012F9EB
:1006F00008BD00BF9800002008B5024800F094FA39
:1007000008BD00BFF800002082B0002100910B4B13
:100710005A6C42F480425A645A6C02F4804200924D
:10072000009A01911A6C42F080521A641B6C03F01B
:1007300080530193019B02B0704700BF0038024014
:1007400030B589B000230393049305930693079370
:100750000268264B9A4201D009B030BD04460025FC
:10076000019503F5FA331A6C42F400321A641A6CDC
:1007700002F400320192019A02951A6B42F00102D2
:100780001A631B6B03F001030293029B0C23039378
:10079000022304930595032306930723079303A9D4
:1007A000134800F067FE1348134B03604FF00063DB
:1007B000436040238360C5604FF4806303614561FB
:1007C0008561C5610562456200F0ACFF58B9094B0F
:1007D00063639C6300221146262001F09BF92620CA
:1007E00001F0CCF9B8E7FFF7F3FEF0E70044004072
:1007F0000000024098000020A06002400268D36818
:1008000023F0C003D360202380F83D307047026896
:10081000D36823F49073D3600268536923F0010313
:100820005361036B012B05D0202380F83E30002359
:10083000036370470268D36823F01003D360F3E7C3
:1008400090F83D30DBB2212B01D002207047836845
:10085000B3F5805F17D0036A5A1C02621A780368E6
:100860005A60C38C9BB2013B9BB2C3844BB90268F4
:10087000D36823F08003D3600268D36843F0400359
:10088000D360002070470369002BE4D1036A1B8802
:100890000268C3F308035360036A02330362E0E7AC
:1008A00070B504460268136923F44053C1680B43D2
:1008B000136183680269134342691343C2691A438F
:1008C0000168CB6823F4164323F00C031343CB6079
:1008D0000268536923F4407381690B4353610368D1
:1008E000344A934206D002F58062934202D000F06F
:1008F000A1FD01E000F0AEFDE369B3F5004F2AD0A1
:100900000026051846EB06012D1846EB0101CB0029
:1009100043EA5573EA001546194663689A009B0F2F
:10092000281846EB0101FFF7ABFC234DA5FB003275
:100930005109642303FB11031B013233A5FB03237D
:100940005B0903F0F00202EB011203F00F032168D0
:1009500013448B6070BD0026051846EB06012D1868
:1009600046EB0101CB0043EA5573EA0015461946F0
:1009700062683346921846EB0303281846EB0101E0
:10098000FFF77EFC0C4DA5FB00325109642303FBED
:100990001103DB003233A5FB03235B095A0002F489
:1009A000F87202EB011203F00703216813448B6015
:1009B000D0E700BF001001401F85EB5158B310B5C0
:1009C000044690F83D300BB3242384F83D30226870
:1009D000D36823F40053D3602046FFF761FF2268F9
:1009E000136923F4904313612268536923F02A03A7
:1009F00053612268D36843F40053D360002020641D
:100A0000202384F83D3084F83E3010BD80F83C301F
:100A1000FFF796FED8E701207047000038B590F840
:100A20003D30DBB2202B31D10446002930D0002AE2
:100A300030D090F83C30012B2ED0012380F83C3090
:100A400001628284C28400250564212380F83D3040
:100A5000436B1248D863636B11481864636B114889
:100A6000D864636B1D6520681346021D606B00F03F
:100A7000BFFE23686FF040021A6084F83C50226881
:100A8000536943F080035361284600E0022038BDDB
:100A90000120FCE70120FAE70220F8E7AB0A000892
:100AA000F70A0008050B0008704708B50346806B7D
:100AB0001B681B6813F4807F0CD10023C384026879
:100AC000536923F0800353610268D36843F0400305
:100AD000D36008BDFFF7E8FFFBE708B50168CA6807
:100AE00022F04002CA60202280F83D20FFF7DCFFA0
:100AF000002008BD704708B5806BFFF7FBFF08BDFD
:100B00007047704710B5846B23685A6994F83D307C
:100B1000DBB2212B10D023685A6902F0400294F80E
:100B20003E30DBB2222B11D0236C43F01003236440
:100B30002046FFF7E6FF10BD02F08002002AEAD04F
:100B40000023E3842046FFF759FEE4E7002AEBD0B8
:100B50000023E3852046FFF75AFEE5E708B5806BE2
:100B60000023C385C384FFF7CCFF08BD704790F80E
:100B70003E30DBB2222B53D110B504468368B3F567
:100B8000805F30D0A26AB3F5805F04D0002B37D1EC
:100B90002369002B34D123685B681370A36A013387
:100BA000A362E38D9BB2013B9BB2E385002B39D15D
:100BB0002268D36823F02003D3602268D36823F42B
:100BC0008073D3602268536923F0010353612023AB
:100BD00084F83E30236B012B18D02046FFF790FF9E
:100BE000002020631FE00269002ACBD1826A0368DB
:100BF0005B68C3F308031380836A02338362D0E720
:100C000023685B6803F07F031370C7E72268D3682B
:100C100023F01003D360A18D2046FFF7A7FFDFE785
:100C200002207047002010BD30B583B00446026832
:100C30001368D068516913F00F0505D113F0200F28
:100C400002D010F0200F19D12DB111F0010119D1EE
:100C500010F4907F16D1216B012975D013F0800F0D
:100C600003D010F0800F40F0D88013F0400F03D075
:100C700010F0400F40F0D58003B030BD2046FFF7A4
:100C800076FFF9E713F0010F06D010F4807F03D050
:100C9000226C42F00102226413F0040F04D019B157
:100CA000226C42F00202226413F0020F04D019B148
:100CB000226C42F00402226413F0080F07D010F0F7
:100CC000200F00D119B1226C42F008022264226C7C
:100CD000002AD1D013F0200F02D010F0200F21D124
:100CE00023685B6903F04003226C12F0080F00D107
:100CF00023B32046FFF78BFD23685A6912F0400F9B
:100D000018D05A6922F040025A61A36B73B1474A66
:100D10001A65A06B00F0EBFD0028ADD0A06B036D51
:100D20009847A9E72046FFF722FFD9E72046FFF7BB
:100D3000E8FEA1E72046FFF7E4FE9DE72046FFF727
:100D4000E0FE0023236497E713F0100F86D010F025
:100D5000100F83D00023019313680193536801930C
:100D6000019B536913F0400F33D0A16B0B685B6894
:100D70009BB2002B80D0A08D98427FF67DAFE3859B
:100D8000CB69B3F5807F08D1A18DE38D9BB2C91AE1
:100D900089B22046FFF7EAFE6EE7D36823F480733A
:100DA000D3602268536923F00103536122685369B9
:100DB00023F040035361202384F83E300023236353
:100DC0002268D36823F01003D360A06B00F045FDC8
:100DD000DAE7A18DE38D9BB2C91A89B2E38D9BB28C
:100DE000002B3FF449AF00293FF446AFD36823F40A
:100DF0009073D3602268536923F001035361202369
:100E000084F83E30002323632268D36823F0100364
:100E1000D3602046FFF7AAFE2EE72046FFF710FD1D
:100E20002AE72046FFF759FE26E700BF5D0B0008C2
:100E3000002800F0DF8170B582B00446036813F02B
:100E4000010F3BD0A64B9B6803F00C03042B2CD066
:100E5000A34B9B6803F00C03082B21D06368B3F508
:100E6000803F4FD0B3F5A02F52D09D4B1A6822F48B
:100E700080321A601A6822F480221A606368002B9C
:100E800050D000F0EBFE0546954B1B6813F4003F75
:100E900014D100F0E3FE401B6428F5D90320B0E133
:100EA0008F4B5B6813F4800FD8D08D4B1B6813F405
:100EB000003F03D06368002B00F09E81236813F08D
:100EC000020F54D0864B9B6813F00C0F3ED0844B1E
:100ED0009B6803F00C03082B33D0E368002B67D02A
:100EE000804B01221A6000F0B9FE05467C4B1B685E
:100EF00013F0020F53D100F0B1FE401B0228F5D9C8
:100F000003207EE1764A136843F480331360B5E72B
:100F1000734B1A6842F480221A601A6842F48032D5
:100F20001A60ABE700F09AFE05466D4B1B6813F4A0
:100F3000003FC3D000F092FE401B6428F5D9032087
:100F40005FE1674B5B6813F4800FC6D1644B1B688D
:100F500013F0020F03D0E368012B40F04F81604A89
:100F6000136823F0F803216943EAC103136023687F
:100F700013F0080F40D0636963B35B4B01221A6022
:100F800000F06CFE0546564B5B6F13F0020F33D139
:100F900000F064FE401B0228F5D9032031E1504ADD
:100FA000136823F0F803216943EAC1031360DEE705
:100FB0004C4B00221A6000F051FE0546484B1B685E
:100FC00013F0020FD3D000F049FE401B0228F5D9E0
:100FD000032016E1444B00221A6000F03FFE054654
:100FE0003F4B5B6F13F0020F06D000F037FE401B43
:100FF0000228F5D9032004E1236813F0040F78D008
:10100000374B1B6C13F0805F0DD100230193344BE1
:101010001A6C42F080521A641B6C03F080530193E7
:10102000019B012500E00025304B1B6813F4807FF5
:1010300021D0A368012B32D0052B36D0284B1A6F54
:1010400022F001021A671A6F22F004021A67A368DD
:10105000002B34D000F002FE0646214B1B6F13F02C
:10106000020F45D100F0FAFD801B41F2883398420F
:10107000F3D90320C5E01D4A136843F4807313605D
:1010800000F0ECFD0646194B1B6813F4807FD0D1AD
:1010900000F0E4FD801B0228F5D90320B1E0104ADE
:1010A000136F43F001031367D1E70D4B1A6F42F042
:1010B00004021A671A6F42F001021A67C7E700F0CC
:1010C000CDFD0646064B1B6F13F0020F10D000F04B
:1010D000C5FD801B41F288339842F3D9032090E08C
:1010E0000038024000004742800E47420070004036
:1010F000EDB9A369002B00F08380494A926802F0A1
:101100000C02082A51D0022B17D0464B00221A603D
:1011100000F0A4FD0446424B1B6813F0007F42D050
:1011200000F09CFD001B0228F5D9032069E03C4A31
:10113000136C23F080531364DBE73A4B00221A60F0
:1011400000F08CFD0546364B1B6813F0007F06D07F
:1011500000F084FD401B0228F5D9032051E0E3692B
:10116000226A1343626A43EA8213A26A5208013A6E
:1011700043EA0243E26A43EA0263294A5360294B85
:1011800001221A6000F06AFD0446254B1B6813F02B
:10119000007F06D100F062FD001B0228F5D9032074
:1011A0002FE000202DE000202BE0012B2BD01C4B4A
:1011B0005B6803F48001E269914226D103F03F02AB
:1011C000216A8A4223D1616A47F6C0721A40B2EBA3
:1011D000811F1ED103F44031A26A5208013AB1EBDB
:1011E000024F18D103F07063E26AB3EB026F14D1BF
:1011F000002006E001207047012002E0012000E00D
:10120000002002B070BD0120FBE70120F9E70120BA
:10121000F7E70120F5E70120F3E70120F1E700BF40
:101220000038024060004742F8B5244B9B6803F049
:101230000C03042B3DD0082B3DD1204B5A6802F003
:101240003F025B6813F4800F12D01C4B5968C1F346
:10125000881100231A48A1FB0001FFF711F8174B72
:101260005B68C3F3014301335B00B0FBF3F023E0A1
:10127000124B5B68C3F388135C010025E41A65F127
:101280000005AE0146EA9466A701381B66EB05012E
:10129000CC0044EA5074C500E81844F100018B0208
:1012A00043EA90538402204619460023FEF7E8FFE4
:1012B000D5E7034800E00348F8BD00BF003802400E
:1012C00040787D010024F400002800F09B8070B578
:1012D0000D4604464F4B1B6803F007038B4208D2B0
:1012E000CBB24C4A1370136803F007038B4240F0F3
:1012F0008B80236813F0020F17D013F0040F04D073
:10130000454A936843F4E0539360236813F0080F51
:1013100004D0414A936843F4604393603E4A936823
:1013200023F0F003A1680B439360236813F0010FCF
:1013300032D06368012B21D09A1E012A25D9364A62
:10134000126812F0020F61D033498A6822F003025A
:1013500013438B6000F082FC06462F4B9B6803F022
:101360000C036268B3EB820F16D000F077FC801B91
:1013700041F288339842F0D9032042E0264A1268AD
:1013800012F4003FE0D101203BE0234A126812F042
:10139000007FD9D1012034E01E4B1B6803F0070306
:1013A000AB4207D9EAB21B4B1A701B6803F0070364
:1013B000AB422DD1236813F0040F06D0164A936870
:1013C00023F4E053E1680B439360236813F0080FA4
:1013D00007D0114A936823F46043216943EAC103AB
:1013E0009360FFF721FF0C4B9B68C3F303130B4A79
:1013F000D35CD8400A4B18600A4B186800F0E2FB37
:10140000002070BD012070470120FAE70120F8E7B5
:101410000120F6E7003C024000380240F0250008B9
:101420000800002004000020014B1868704700BF2E
:101430000800002008B5FFF7F7FF044B9B68C3F3D3
:101440008223034AD35CD84008BD00BF0038024065
:101450000026000808B5FFF7E7FF044B9B68C3F3BD
:101460004233034AD35CD84008BD00BF0038024075
:101470000026000800230F2B00F2CB80F0B482B0CE
:101480005DE086685F000324BC4026EA0406CC6861
:10149000BC4034438460466826EA02064C68C4F3C4
:1014A00000129A403243426057E0DC08083450F89A
:1014B000247003F0070296000F22B24027EA0207C9
:1014C0000A69B2403A4340F824205AE0042200E07E
:1014D0000022B2403A4302344E4E46F824204E4A8F
:1014E0001468EA4324EA05064F6817F4803F01D0E8
:1014F00045EA0406484C2660646802EA04064F6820
:1015000017F4003F01D045EA0406434C6660A46826
:1015100002EA04064F6817F4801F01D045EA04066A
:101520003D4CA660E46822404E6816F4001F01D0CE
:1015300045EA0402384CE26001330F2B66D80122E1
:101540009A400C6804EA020532EA0404F4D14C68BB
:1015500004F00304013C012C93D94A6802F0030211
:10156000032A09D0C4685E000322B24024EA0204C0
:101570008A68B2402243C2604A6802F00302022A2B
:1015800093D004685E000322B24024EA02044A6851
:1015900002F00302B240224302604A6812F0805F08
:1015A000CAD0002201921D4A546C44F48044546411
:1015B000526C02F480420192019A9C08A61C154AC2
:1015C00052F8267003F0030296000F22B24027EA79
:1015D0000207134A90423FF47BAF02F580629042CB
:1015E0000ED002F5806290420CD002F580629042EB
:1015F0000AD002F5806290423FF468AF072268E7A4
:10160000012266E7022264E7032262E702B0F0BC2F
:101610007047704700380140003C014000380240EC
:101620000000024030B405682C6824F480242C604B
:10163000046863608368402B05D003689960036881
:10164000DA6030BC704703689A600368D960F8E7D5
:1016500010B40368D9B210390C4AA2FB0142120936
:101660000B4CA25CC2655F2909D923F47F7323F078
:10167000030304338365806D5DF8044B704723F4E6
:101680007F7323F003038365F5E700BFABAAAAAA23
:10169000E8250008836A826992B9012B0AD0022BDF
:1016A00002D00BB100207047C36A13F0807F28D1AD
:1016B00000207047C36AB3F1C07F24D00020704778
:1016C000B2F5005F09D0022B25D9032B25D1C36ABF
:1016D00013F0807F23D100207047032B03D8DFE86D
:1016E00003F01404140A00207047C36A13F0807FCB
:1016F0000DD100207047C36AB3F1C07F09D000202C
:101700007047012070470120704701207047012079
:10171000704701207047012070470020704701206A
:101720007047000070B5044600F098FA002C5BD0BA
:101730000546002384F83430022384F835302268CB
:10174000136823F00103136023681A6812F0010F75
:101750000AD000F083FA431B052BF5D920236365DB
:10176000032084F8350070BD1A6820481040616875
:10177000A2680A43E1680A4321690A4361690A438E
:10178000A1690A43E1690A43216A0A430243616A83
:1017900004291ED01A602668756925F00705636A5A
:1017A0001D43042B07D1A36A1D43E36A1BB12046E6
:1017B000FFF770FF90B975612046FFF749FFE26DB2
:1017C0003F239340836000206065012384F8353017
:1017D000C9E7E16A206B01430A43DBE74023636505
:1017E000012084F83500BEE70120BCE73F8010F0FF
:1017F00038B50446856D90F8340001282BD00120BF
:1018000084F8340094F83500C0B2012804D00023D5
:1018100084F83430022038BD022084F835000020DE
:1018200060652046FFF7FEFEE26D3F239340AB600C
:101830002268136843F016031360236C23B12268F7
:10184000136843F0080313602268136843F0010330
:1018500013600020DFE70220DDE770B50446866DE7
:1018600000F0FCF994F83530DBB2022B06D080236F
:101870006365002384F83430012070BD054622687A
:10188000136823F0160313602268536923F0800362
:101890005361236CE3B12268136823F008031360DB
:1018A0002268136823F00103136023681B6813F098
:1018B000010F11D000F0D2F9431B052BF5D92023DD
:1018C0006365002384F83430032084F83500D4E7BE
:1018D000A36C002BDFD1E3E7E26D3F239340B360BD
:1018E000002084F83400012384F83530C5E790F8EF
:1018F0003530DBB2022B03D08023436501207047D3
:10190000052380F835300268136823F00103136063
:1019100000207047F0B583B0044600230193724B5A
:101920001D68724BA3FB0535AD0A876D3E68C26D1D
:1019300008239340334210D003681A6812F0040F52
:101940000BD01A6822F004021A60C26D082393407B
:10195000BB60436D43F001034365E26D0123934097
:10196000334209D02268526912F0800F04D0BB6064
:10197000636D43F002036365E26D042393403342D9
:1019800009D02268126812F0020F04D0BB60636DA8
:1019900043F004036365E26D10239340334224D087
:1019A0002268126812F0080F1FD0BB6023681A6803
:1019B00012F4802F0DD01B6813F4002F04D1236C78
:1019C0009BB12046984710E0A36C73B1204698471E
:1019D0000BE01A6812F4807F03D11A6822F0080223
:1019E0001A60236C0BB120469847E26D2023934088
:1019F000334255D02268126812F0100F50D0BB60ED
:101A000094F83530DBB2052B0ED023681A6812F437
:101A1000802F33D01B6813F4002F2AD1636C002B66
:101A20003ED0204698473BE02268136823F0160317
:101A300013602268536923F080035361236CA3B1C0
:101A40002268136823F008031360E26D3F2393407C
:101A5000BB60002384F83430012384F83530236DD3
:101A6000002B3FD0204698473CE0A36C002BE7D1E9
:101A7000EBE7E36BA3B12046984711E01A6812F434
:101A8000807F09D11A6822F010021A60002384F8BE
:101A90003430012384F83530E36B0BB1204698478E
:101AA000636DFBB1636D13F0010F17D0052384F84C
:101AB00035302268136823F001031360019B013362
:101AC0000193AB4204D823681B6813F0010FF5D1D2
:101AD000002384F83430012384F83530E36C0BB1F3
:101AE0002046984703B0F0BD08000020B5814E1B8A
:101AF000074AD36823F4E0631B041B0C000200F4C4
:101B0000E060034343F0BF6343F40033D3607047A6
:101B100000ED00E030B4174BDB68C3F30223C3F1E0
:101B20000704042C28BF04241D1D062D18D9033BCF
:101B30004FF0FF3505FA04F421EA0401994005FA53
:101B400003F322EA0303194300280BDB0901C9B29E
:101B500000F1604000F5614080F8001330BC704730
:101B60000023E5E700F00F000901C9B2024B195448
:101B7000F4E700BF00ED00E014ED00E0002807DB13
:101B800000F01F02400901239340024A42F820302E
:101B9000704700BF00E100E00138B0F1807F0AD259
:101BA000064B5860064AF02182F823100020986006
:101BB00007221A6070470120704700BF10E000E064
:101BC00000ED00E010B504460E4B18784FF47A7320
:101BD000B3FBF0F30C4A1068B0FBF3F0FFF7DCFF47
:101BE00068B90F2C01D901200AE0002221464FF0EC
:101BF000FF30FFF78FFF054B1C60002000E0012045
:101C000010BD00BF000000200800002004000020DC
:101C100008B50B4B1A6842F400721A601A6842F455
:101C200080621A601A6842F480721A600320FFF71B
:101C30005FFF0020FFF7C6FFFEF766FD002008BD2E
:101C4000003C0240034A1168034B1B780B441360AD
:101C5000704700BF3C01002000000020014B1868C5
:101C6000704700BF3C01002038B50446FFF7F6FF7F
:101C70000546B4F1FF3F02D0044B1B781C44FFF72C
:101C8000EDFF401BA042FAD338BD00BF000000208A
:101C9000034AD2F8883043F47003C2F888307047A2
:101CA00000ED00E0DFF834D00D480E490E4A002365
:101CB00002E0D458C4500433C4188C42F9D30B4A00
:101CC0000B4C002301E013600432A242FBD3FFF768
:101CD000DFFF00F011F8FEF7DBFC70470000022088
:101CE00000000020700000204C260008700000203A
:101CF00050010020FEE7000070B50D4D0D4C641B37
:101D0000A4100026A64209D10B4D0C4C00F05CFC3F
:101D1000641BA4100026A64205D170BD55F8043BF3
:101D200098470136EEE755F8043B98470136F2E74D
:101D300044260008442600084426000848260008D7
:101D400002440346934200D1704703F8011BF9E7B0
:101D50000EB400B59CB01DAB029006906FF0004130
:101D6000094807910491094953F8042B059100682B
:101D7000019302A900F068F8029B00221A701CB0BF
:101D80005DF804EB03B070470C0000200802FFFF71
:101D90002DE9F0478E689E4282460C4690461F46CB
:101DA00038D88A8912F4906F32D025680969A5EB7A
:101DB0000109656905EB450505EBD57501334B4414
:101DC0006D109D4238BF1D46530531D5294600F0A0
:101DD00047FB064650B90C23CAF80030A38943F0EC
:101DE0004003A3814FF0FF30BDE8F08721694A46E8
:101DF00000F0BEFAA38923F4906343F08003A3812B
:101E0000266165614E44A5EB09052660A5603E4646
:101E1000BE4200D93E4632462068414600F0B6FA3E
:101E2000A36822689B1B3244A36022600020DBE78A
:101E30002A4600F06FFB06460028E1D12169504692
:101E400000F0BEFAC7E700002DE9F04F98468B89F5
:101E50001B069DB007460D4614460ED50B6963B9A7
:101E6000402100F0FDFA2860286120B90C233B6076
:101E70004FF0FF30D1E040236B6100230993202312
:101E80008DF82930CDF80C803023DFF8A8818DF84B
:101E90002A304FF0010923469A4613F8012B0AB164
:101EA000252AF9D1BAEB040B0BD05B462246294612
:101EB0003846FFF76DFF013000F0AA80099A5A44B6
:101EC00009929AF80030002B00F0A28000234FF016
:101ED000FF32CDE905230AF1010A049307938DF837
:101EE00053301A935446052214F8011B5148FEF74B
:101EF00077F9049AD8B9D00644BF20238DF853301F
:101F0000110744BF2B238DF853309AF800302A2B49
:101F100015D0079A544600204FF00A0C214611F8BC
:101F2000013B303B092B4ED9B0B1079214E0A0EB36
:101F3000080309FA03F313430493A246D2E7039B71
:101F4000191D1B680391002BBBBF5B4242F00202CC
:101F500007930793B8BF049223782E2B0CD1637894
:101F60002A2B35D1039B1A1D1B680392002BB8BF87
:101F70004FF0FF3302340593DFF8C8A02178032225
:101F80005046FEF72DF940B14023A0EB0A0003FABA
:101F900000F0049B03430134049314F8011B26480A
:101FA0008DF828100622FEF71BF9002838D0234BA5
:101FB0001BBB039B073323F0070308330393099BE1
:101FC0003344099367E70CFB02320C460120A5E776
:101FD00000230134059319464FF00A0C204610F8EF
:101FE000012B303A092A03D9002BC5D00591C3E74C
:101FF0000CFB012104460123F0E703AB00932A46C2
:102000000F4B04A93846AFF30080421C0646D6D1D8
:10201000AB895B063FF52CAF09981DB0BDE8F08F8A
:1020200003AB00932A46064B04A9384600F07AF821
:10203000EBE700BF08260008122600080000000099
:10204000911D00080E2600082DE9F0471646994616
:102050008A680B69DDF820809342B8BF134633606D
:1020600091F8432007460C460AB1013333602368D8
:10207000990642BF336802333360256815F00605C0
:1020800006D104F1190AE36832689B1AAB4226DCD8
:1020900094F84320131E226818BF012392062BD404
:1020A00004F1430249463846C04701301ED0236838
:1020B000E568326803F00603042B08BFAD1AA36875
:1020C00022690CBF25EAE57500259342C4BF9B1A1F
:1020D000ED1800261A34B5421AD1002008E0012379
:1020E000524649463846C047013003D14FF0FF30D1
:1020F000BDE8F0870135C6E7E1185A1C302081F8A9
:102100004300224494F8451082F843100233C7E795
:102110000123224649463846C0470130E6D0013601
:10212000D9E700002DE9FF470C469146277E0C9920
:10213000782F80469A4604F1430207D8622F0AD8C6
:10214000002F00F0D880582F00F0A38004F1420641
:1021500084F842703AE0A7F16303152BF6D801A08A
:1021600050F823F0BD210008D12100084D210008BE
:102170004D2100084D2100084D210008D121000803
:102180004D2100084D2100084D2100084D21000877
:10219000DD22000801220008BF2200084D210008AE
:1021A0004D210008FF2200084D21000801220008EF
:1021B0004D2100084D210008C72200080B681A1D98
:1021C0001B680A6004F1420684F842300123A3E050
:1021D000256808682E0600F104030AD505680B601F
:1021E000002D03DA2D236D4284F843305E480A2324
:1021F00019E015F0400F05680B6018BF2DB2EFE72E
:102200000B682568181D0860280601D51D6802E0C6
:102210006906FBD51D8854486F2F0CBF08230A237D
:10222000002184F843106668A660002EA2BF2168D2
:1022300021F0040121600DB9002E4DD01646B5FBEA
:10224000F3F103FB1157C75D06F8017D2F46BB4232
:102250000D46F4D9082B0BD12368DF0708D5236975
:1022600061689942DEBF302306F8013C06F1FF3673
:10227000921B2261CDF800A04B4603AA214640469E
:10228000FFF7E2FE01304CD14FF0FF3004B0BDE863
:10229000F087354884F8457023680E681F0656F8A5
:1022A000045B0E6014D5D90744BF43F020032360BC
:1022B0001DB9236823F0200323601023B0E72368AF
:1022C00043F0200323607823284884F84530E3E76F
:1022D0005E0648BFADB2E6E71646BBE70B68266868
:1022E00060691D1D0D6035061B6801D5186002E090
:1022F0007106FBD51880002323611646BAE70B68E8
:102300001A1D0A601E68626800213046FDF768FFEA
:1023100008B1801B606063682361002384F8433048
:10232000A8E72369324649464046D0470130ABD042
:1023300023689B0713D4E068039B9842B8BF1846F4
:10234000A4E70123324649464046D04701309BD09E
:102350000135E36803995B1AAB42F2DCEBE7002539
:1023600004F11906F5E700BF192600082A2600081F
:102370000A44914200F1FF3300D1704710B511F8C3
:10238000014B03F8014F9142F9D110BD884210B5BD
:1023900001EB020402D98442234607D8431EA1421E
:1023A00008D011F8012B03F8012FF8E70244014689
:1023B0008A4200D110BD13F8014D02F8014DF7E734
:1023C00037B5002948D051F8043C0190002BA1F109
:1023D0000404B8BFE41800F0D3F8204A0198136849
:1023E000154633B96360146003B0BDE8304000F0B7
:1023F000CDB8A3420BD921686218934204BF1A6872
:102400005B68636004BF521822602C60ECE71A46D8
:102410005B680BB1A342FAD911685518A5420BD1DC
:10242000246821445418A3421160DDD11C685B6804
:10243000536021441160D7E702D90C230360D3E72E
:10244000256861198B4204BF19685B68636004BF2B
:10245000491921605460C7E703B030BD8C000020EB
:10246000F8B5CD1C25F0030508350C2D38BF0C251B
:10247000002D064601DBA94203D90C23336000205E
:10248000F8BD00F07DF821490A6814469CB9204F38
:102490003B6823B92146304600F062F8386029468F
:1024A000304600F05DF8431C23D10C2333603046E6
:1024B00000F06CF8E3E723685B1B17D40B2B03D900
:1024C00023601C44256004E06368A2420CBF0B60DB
:1024D0005360304600F05AF804F10B00231D20F041
:1024E0000700C21ACCD01B1AA350C9E72246646861
:1024F000CCE7C41C24F00304A042E3D0211A3046E8
:1025000000F02EF80130DDD1CFE700BF8C000020B5
:1025100090000020F8B5074614460E4621B9BDE8E4
:10252000F8401146FFF79CBF22B9FFF749FF254647
:102530002846F8BD00F030F8A0420FD221463846B8
:10254000FFF78EFF05460028F2D031462246FFF7FE
:102550000FFF31463846FFF733FFE9E73546E7E737
:1025600038B5064D0023044608462B6000F01EF8DF
:10257000431C02D12B6803B1236038BD4001002009
:10258000014800F011B800BF48010020014800F0E8
:102590000CB800BF4801002051F8043C181F002B64
:1025A000BCBF0B58C018704770477047044A0549B4
:1025B0001368002B08BF0B4618441060184670477C
:1025C0009400002050010020F8B500BFF8BC08BC02
:1025D0009E467047F8B500BFF8BC08BC9E467047E1
:1025E000256C640A00000000000610160006101694
:1025F00000000000000000000102030406070809B3
:102600000000000001020304232D302B2000686C21
:102610004C00656667454647003031323334353605
:10262000373839414243444546003031323334353E
:0C2630003637383961626364656600006B
:08263C0074DCFF7F01000000C7
:04264400C5010008C4
:04264800A1010008E4
:10264C0001000000100000000024F4001000002025
:10265C00000000000000000000000000000000006E
:10266C00000000000000000000000000000000005E
:10267C00000000000000000000000000000000004E
:10268C00000000000000000000000000000000003E
:10269C00000000000000000000000000000000002E
:1026AC00000000000000000000000000000000001E
:0400000508001CA52E
:00000001FF
