:020000040800F2
:100000000000022071290008F7080008F90800081C
:10001000FB080008FD080008FF08000800000000B9
:1000200000000000000000000000000001090008BE
:10003000030900080000000005090008070900087E
:10004000C1290008C1290008C1290008C1290008E8
:10005000C1290008C1290008C1290008C1290008D8
:10006000C1290008C1290008C1290008C1290008C8
:10007000C1290008C1290008C1290008C1290008B8
:10008000C1290008C1290008C1290008000000009A
:10009000000000000000000000000000C12900086E
:1000A000C1290008C1290008C1290008C129000888
:1000B000C1290008C1290008C12900081109000848
:1000C00021090008C1290008C1290008C129000828
:1000D000C1290008C1290008C1290008000000004A
:1000E000C1290008C1290008C1290008000000003A
:1000F000000000000000000000000000C12900080E
:1001000000000000C1290008C1290008C129000819
:1001100000000000000000000000000000000000DF
:10012000C1290008C1290008C1290008C129000807
:10013000C1290008000000000000000000000000CD
:10014000000000000000000000000000C1290008BD
:10015000C1290008C1290008C1290008C1290008D7
:10016000C1290008C12900080000000000000000AB
:10017000000000000000000000000000000000007F
:1001800000000000C129000800000000000000007D
:08019000C1290008C129000883
:1001A00010B5054C237833B9044B13B10448AFF3B1
:1001B00000800123237010BD7000002000000000AB
:1001C000C03A000808B5034B1BB103490348AFF31D
:1001D000008008BD0000000074000020C03A000844
:1001E00001F0FF01102A2BDB10F0070F08D010F8E8
:1001F000013B013A8B422DD010F0070F42B3F6D1EC
:10020000F0B441EA012141EA014122F007047FF004
:1002100000070023F0E80256083C85EA010586EA5B
:10022000010685FA47F5A3FA87F586FA47F6A5FA97
:1002300087F68EB9EED1F0BC01F0FF0102F00702A3
:1002400032B110F8013B013A83EA010313B1F8D14E
:100250000020704701387047002D06BF354603382F
:10026000073815F0010F07D1013015F4807F02BF68
:10027000013015F4C03F0130F0BC0138704700BFB9
:1002800053B94AB9002908BF00281CBF4FF0FF31FD
:100290004FF0FF3000F06EB9ADF1080C6DE904CEFF
:1002A00000F006F8DDF804E0DDE9022304B0704751
:1002B0002DE9F047089D04468C46002B40F08380D2
:1002C0008A42174647D9B2FA82F242B1C2F12000FF
:1002D00024FA00F09140974040EA010C94404FEA24
:1002E0001748230CBCFBF8F61FFA87FE08FB16C163
:1002F00043EA014306FB0EF1994209D9FB1806F1C6
:10030000FF3080F01981994240F21681023E3B4451
:100310005B1AA4B2B3FBF8F008FB103344EA0344C1
:1003200000FB0EFEA64509D93C1900F1FF3380F011
:100330000581A64540F2028102383C4440EA06406D
:10034000A4EB0E0400261DB1D4400023C5E90043F0
:100350003146BDE8F08702B9FFDEB2FA82F2002A28
:1003600050D1CB1B4FEA174E1FFA87F80126B3FB7B
:10037000FEFC210C0EFB1C3341EA034108FB0CF38D
:100380008B4207D979180CF1FF3002D28B4200F270
:10039000E9808446C91AA3B2B1FBFEF00EFB10112E
:1003A00043EA014408FB00F8A04507D93C1900F1D5
:1003B000FF3302D2A04500F2D9801846A4EB08040E
:1003C00040EA0C40BFE78B4209D9002D00F0B18014
:1003D0000026C5E9000130463146BDE8F087B3FA92
:1003E00083F6002E4AD18B4202D3824200F2B880BB
:1003F000841A61EB030101208C46002DA8D0C5E9C9
:10040000004CA5E7C2F1200320FA03F6974001FA59
:1004100002F04FEA174ED9403043030CB1FBFEF611
:100420001FFA87F80EFB161143EA014306FB08F199
:10043000994204FA02F409D9FB1806F1FF3C80F056
:100440008D80994240F28A80023E3B445B1A81B221
:10045000B3FBFEF00EFB103341EA034100FB08F34F
:100460008B4207D9791800F1FF3C73D28B4271D9C6
:1004700002383944CB1A40EA064678E7C6F1200C28
:1004800003FA06F422FA0CF31C4320FA0CF701FAE3
:1004900006F34FEA144E21FA0CF11F433B0CB1FB5B
:1004A000FEF91FFA84F80EFB191143EA014109FB1A
:1004B00008FA8A4502FA06F200FA06F308D961182A
:1004C00009F1FF3048D28A4546D9A9F102092144F1
:1004D000A1EB0A01BFB2B1FBFEF00EFB101147EA1F
:1004E000014700FB08F8B84507D9E71900F1FF31CB
:1004F0002ED2B8452CD90238274440EA0940A7EB50
:100500000807A0FB02894F45C64649461AD317D0B3
:100510005DB1B3EB0E0267EB010707FA0CFCF2408A
:100520004CEA0202F740C5E9002700263146BDE843
:10053000F0872E4628460BE70646E9E61846FDE614
:100540004345E5D2B8EB020E69EB04010138DFE761
:100550000846D2E760468DE78146B9E7664675E70B
:1005600030464AE7ACF1020C394413E702383C4408
:1005700024E700BF704700BF72B6FEE700B595B034
:100580003022002108A802F041FA002303930493CB
:1005900005930693079301931E4A116C41F0805115
:1005A0001164126C02F080520192019A02931A4A6D
:1005B000116841F440411160126802F44042029215
:1005C000029A0222089201210B9110210C910E92A5
:1005D0000F931091C023119312920423139308A830
:1005E00001F0DCFC88B90F2303930223049300235A
:1005F00005934FF4805206920793032103A801F05C
:1006000019FF20B915B05DF804FBFFF7B5FFFFF740
:10061000B3FF00BF003802400070004030B591B019
:1006200002F05CF9FFF7AAFF00F04CF800F07EF84A
:1006300000F054F908AC214D0FCD0FC495E80F0020
:1006400084E80F00002304E010AA1A4402F8403C9A
:1006500001331F2BF8DD002414E002F0DFF9C4F1B0
:10066000200290FBF2F302FB130010AB234413F8BB
:10067000402C10A9084410F8401C03F8401C00F856
:10068000402C01341E2CE8DD00241F2CE3DC10ABD1
:100690001D1915F8400C00F00F01000900F00CF9CD
:1006A00015F8200C00F003F94FF4FA7002F042F94B
:1006B0002021034802F062F80134E6E7D83A000846
:1006C0000000024030B589B00024039404940594DE
:1006D000069407940194134B1A6B42F001021A63BB
:1006E0001A6B02F001020192019A02941A6B42F015
:1006F00002021A631B6B03F002030293029B0A4D72
:1007000022462021284602F033F8202303930123B8
:1007100004930594069403A9284601F051FF09B0FB
:1007200030BD00BF003802400000024008B50B4851
:100730000B4B03600B4B436000238360C3604FF49B
:100740008042026143618361C361036200F022FC65
:1007500000B908BDFFF710FFFBE700BF98000020BD
:1007600000540040A086010030B589B000230393F7
:10077000049305930693079302681D4B9A4201D098
:1007800009B030BD002401941A4D2B6B43F00203D5
:100790002B632B6B03F002030193019B4FF4407317
:1007A0000393122304930123059303230693042345
:1007B000079303A9104801F003FF02942B6C43F444
:1007C00000132B642B6C03F400130293029B22464C
:1007D00021461F2002F004F81F2002F035F82246BF
:1007E0002146202001F0FCFF202002F02DF8C7E771
:1007F00000540040003802400004024000B585B0BB
:1008000000F0F0020301DBB20A4342F00C008DF865
:100810000C0042F008028DF80D200B4343F00C024F
:100820008DF80E2043F008038DF80F304FF0FF33A2
:100830000093042303AA7E21034800F089FC00B141
:10084000FEE705B05DF804FB9800002000B583B01A
:1008500000F0F0020301DBB20A4342F00C008DF815
:10086000040042F008028DF805200B4343F00C020F
:100870008DF8062043F008038DF8073004230DEBB4
:1008800003027E21064800F01FFD00B1FEE7044888
:1008900001F081FB2028FAD103B05DF804FB00BF12
:1008A0009800002008B50021FFF7A8FF08BD08B593
:1008B0000121FFF7CBFF08BD08B528B1C0200843D0
:1008C000C0B2FFF7EFFF08BD8020F8E708B50120B0
:1008D000FFF7E8FF052002F02DF808BD08B530202D
:1008E000FFF7E0FF0220FFF7DDFF0C20FFF7DAFF44
:1008F000FFF7ECFF08BDFEE7FEE7FEE7FEE7FEE7D9
:1009000070477047704708B502F002F808BD000054
:1009100008B5024801F010FA08BD00BF9800002099
:1009200008B5024801F0D5FA08BD00BF98000020C4
:1009300082B0002100910B4B5A6C42F480425A6401
:100940005A6C02F480420092009A01911A6C42F0B3
:1009500080521A641B6C03F080530193019B02B018
:10096000704700BF0038024090F83E30DBB2402BA9
:1009700010D00369B3F5804F1BD0036D002B39D124
:10098000436CC3F3C813026803F0060343F0F0039B
:1009900013617047036D2BB9436C026803F0FE03CB
:1009A00013617047436C026843F00103DBB21361CB
:1009B000704790F83D30DBB2212B0FD0436C0268BA
:1009C00043F00103DBB21361436B6BB1DB6B5BB1D3
:1009D0000268536843F4006353607047436C0268D5
:1009E00003F0FE031361EFE7836B33B1DB6B002B86
:1009F000EED102E0036D012B00D07047436CC3F3CE
:100A0000C813026803F0060343F0F1031361F4E72F
:100A1000436C0268DBB21361436B3BB1DB6B2BB100
:100A20000268536843F4006353607047836B002B84
:100A3000FBD0DB6B002BF3D1F7E710B48BB090F851
:100A40003E30DAB2C16A046B90F83D30DBB2222B43
:100A50000BD00023099303685A6909929B69099393
:100A6000099B0BB05DF8044B7047036D0BB9402A2E
:100A700017D0036D1BB90369B3F5404F19D0438DEF
:100A80009BB2002B25D1029303685A6902929A699E
:100A90000292029A1A6842F400721A6000230365F7
:100AA000DFE7009303685A6900929B690093009BFB
:100AB000D7E70023019303685A6901929A6901926A
:100AC000019A1A6842F480721A60036D013303655B
:100AD000C7E7438D9BB2012B25D0438D9BB2022BE0
:100AE0007BD00268136843F48063136003685A681C
:100AF00012F4006F0ED011F5803F07D0012905D008
:100B0000082903D0102901D0202903D15A6842F4C2
:100B100080525A600023089303685A6908929B69BF
:100B20000893089BBAE711F5803F11D0082934D00B
:100B3000202932D0122C2ED0042940D002293ED0B8
:100B400010293CD00268136823F4806313603BE0F3
:100B50000268136823F48063136003685A6812F410
:100B6000006F0CD01A6822F480621A60002303938D
:100B700003685A6903929B690393039B8EE70022E3
:100B800004925A6904929A690492049A1A6842F487
:100B900000721A6082E70129CED00268136823F43C
:100BA000806313600023069303685A6906929A696A
:100BB0000692069A1A6842F400721A606EE702689A
:100BC000136843F4806313600023059303685A6934
:100BD00005929B690593059B60E704290ED00229C5
:100BE0000CD010290AD00268136823F480631360C4
:100BF0000268136843F40063136004E0026813683A
:100C000043F48063136003685A6812F4006F0ED0D7
:100C100011F5803F07D0012905D0082903D01029FC
:100C200001D0202903D15A6842F480525A6000232F
:100C3000079303685A6907929B690793079B2DE7FF
:100C4000438D9BB25BB1426A036812781A61436AB2
:100C500001334362438D9BB2013B9BB24385704796
:100C6000438D9BB25BB103681A69436A1A70436A89
:100C700001334362438D9BB2013B9BB24385704776
:100C800082B0002301930E4B1B68DB080D4AA2FBC8
:100C900003231B0A03EB83030193019B013B019395
:100CA000019B33B103681B6813F4007FF5D100206A
:100CB00004E0036C43F020030364012002B070479A
:100CC0000800002089B5F81403685A6912F4806F8F
:100CD00001D1002070476FF480625A6100230363E2
:100CE000202280F83D2080F83E30026C42F0040261
:100CF000026480F83C3001207047C36AB3F52A0FC4
:100D000004D0C36AB3F12A4F03D070470123C362F2
:100D100070470823C362F8E72DE9F04107460D4606
:100D200090461E4622E001F0FFFD069BC01AB0422D
:100D300000D8DEB900233B63202287F83D2087F8E6
:100D40003E303A6C42F020023A6487F83C30012091
:100D50001AE03B689C6925EA0404A4B2B4FA84F45E
:100D60006409A0450FD1B6F1FF3FDCD1C5F30743BD
:100D7000012BEED13B685C6925EA0404A4B2B4FA05
:100D800084F46409EDE70020BDE8F0812DE9F0412D
:100D900005460E46174698463DE01A6842F4007232
:100DA0001A602B686FF480625A6100232B63202243
:100DB00085F83D2085F83E302A6C42F004022A6412
:100DC00085F83C30012034E001F0AEFDA0EB0800D6
:100DD000B84200D8FFB900232B63202285F83D20BC
:100DE00085F83E302A6C42F020022A6485F83C30B7
:100DF00001201EE02B689C6926EA0404A4B2003C92
:100E000018BF0124A4B12B685A6912F4806FC4D1B1
:100E1000B7F1FF3FD8D1C6F30743012BEAD12B68C6
:100E20005C6926EA0404A4B2003C18BF0124E9E787
:100E30000020BDE8F0810000F0B583B004460D4607
:100E400016461F46C36A082B0DD0012B0BD013F595
:100E5000803F08D0036B122B0AD10268136843F459
:100E60008073136004E02268136843F48073136096
:100E70000097334600224FF001112046FFF74CFF48
:100E800080B92369B3F5804F16D1236805F0FE05BC
:100E90001D613B46324613492046FFF777FFF8B9FC
:100EA00003B0F0BD23681B6813F4807F02D04FF4B9
:100EB000007323640320F3E7EB11226803F00603B9
:100EC00043F0F00313613B46324607492046FFF7E3
:100ED0005DFF18B92368EDB21D61DAE70120DFE795
:100EE0000120DDE7020001000800010070B50446A2
:100EF0000D46164623685B6913F0800F1CD120460F
:100F0000FFF7E2FED0B9B5F1FF3FF3D001F00CFDE1
:100F1000801BA84201D8002DECD10023236320229E
:100F200084F83D2084F83E30226C42F02002226496
:100F300084F83C30012000E0002070BD0120FCE777
:100F400070B504460D46164623685B6913F0040F1E
:100F50001CD12046FFF7B8FED0B9B5F1FF3FF3D062
:100F600001F0E2FC801BA84201D8002DECD1002347
:100F70002363202284F83D2084F83E30226C42F026
:100F80002002226484F83C30012000E0002070BD83
:100F90000120FCE7002800F0CC80F8B5044690F86A
:100FA0003D30002B77D0242384F83D30226813682D
:100FB00023F0010313602268136843F400431360B5
:100FC0002268136823F40043136001F0E9FA6268B1
:100FD0005A4B9A4264D85A4B98428CBF0023012343
:100FE000002B40F0A880574DA5FB0035AF0C2668BC
:100FF000716821F03F0141EA9541716021680B6AF7
:1010000023F03F0365684D4A95424FD87A1C13433D
:101010000B622568E96921F44F4121F0FF01636803
:10102000464A93424CD801385B00B0FBF3F00130E4
:1010300040F6FC73184278D0C0F30B030B43EB610E
:1010400021680B6823F0C003E269206A024313435E
:101050000B6021688B6823F4034323F0FF032269AC
:10106000E068024313438B602168CB6823F0FF03E1
:101070006269A06902431343CB602268136843F09E
:101080000103136000202064202384F83D30206396
:1010900084F83E00F8BD80F83C30FFF765FB82E73E
:1010A000294B98428CBF0023012399E74FF4967295
:1010B00002FB07F2254DA5FB025292090132A6E779
:1010C000A268BAB9461E03EB4307B6FBF7F6013632
:1010D000C6F30B06B6FA86F6760946BBC2B9421EBF
:1010E00003EB4303B2FBF3F20132C2F30B0242F40F
:1010F0000043A3E7461E03EB830707EB8707B6FB16
:10110000F7F60136C6F30B06B6FA86F67609E4E77B
:10111000421E03EB830303EB8303B2FBF3F20132C2
:10112000C2F30B0242F4404388E7042386E701231D
:1011300084E7012070470120ACE700BFA0860100D2
:101140007F841E0083DE1B43FF083D00D34D6210E9
:101150002DE9F04385B004460F46914698460C9E13
:1011600001F0E2FB054694F83D00C0B2202804D00F
:101170000227384605B0BDE8F08300951923012207
:101180004F492046FFF7C8FD002840F0928094F8B0
:101190003C30012B00F08F80012384F83C30236821
:1011A0001A6812F0010F03D11A6842F001021A60A6
:1011B0002268136823F400631360212384F83D3010
:1011C000102384F83E3000232364C4F82490A4F84C
:1011D0002A80638D23853B4BE3622B46324639469A
:1011E0002046FFF729FE0746002866D10023039317
:1011F00023685A6903929B690393039B11E0236C54
:10120000042B01D00127B4E72268136843F400736C
:101210001360F7E72A4631462046FFF791FE002883
:101220002ED1238D002B36D02A4631462046FFF79B
:101230005DFE0028E3D1626A236812781A61616A50
:101240004B1C6362638D9BB2013B9BB26385238D14
:10125000013B9BB223852268506910F0040FD9D05E
:10126000002BD7D04B781361636A01336362638DBF
:101270009BB2013B9BB26385238D013B2385C9E76C
:10128000236C042B01D0012773E72268136843F411
:1012900000731360F7E72268136843F40073136068
:1012A000202384F83D30002384F83E3084F83C301D
:1012B0005FE702275DE702275BE7012759E700BFE9
:1012C000020010000000FFFF30B482B0002401943F
:1012D00090F83D40E4B2202C56D12E4C2468E4080E
:1012E0002D4DA5FB0454240A04EB840404EB840470
:1012F0000194019C013C0194019C002C35D00468B0
:10130000A56915F0020FF4D190F83C50012D3FD0A3
:10131000012580F83C50256815F0010F03D12568A0
:1013200045F00105256005682C6824F400642C60F4
:10133000212480F83D40102480F83E4000240464BD
:1013400042624385438D0385144BC3624164026846
:10135000136843F48073136080F83C40026853685C
:1013600043F4E063536020460FE000230363202230
:1013700080F83D2080F83E30026C42F0200202648A
:1013800080F83C30012000E0022002B030BC704701
:101390000220FAE70800002089B5F8140000FFFFDA
:1013A000704708B5C26A90F83D30DBB2212B00D0FF
:1013B00008BD438D9BB263B1426A036812781A611B
:1013C000436A01334362438D9BB2013B9BB2438529
:1013D000EEE7082A04D0202A02D012F5803F13D16C
:1013E0000268536823F4E06353600268136843F4AF
:1013F0000073136000230363202280F83D2080F8EF
:101400003E30FFF7CDFFD3E70268536823F4E06373
:10141000536011230363002380F83E30202380F8BB
:101420003D30FFF7BDFFC3E77047704708B590F840
:101430003D30DAB2438D9BB283B1416A03680978CB
:101440001961436A01334362438D9BB2013B9BB2F6
:101450004385438D9BB20BB9292A00D008BD026891
:10146000536823F48063536021230363282380F8A7
:101470003D30FFF7DAFFF1E7704708B590F83D30EF
:10148000DAB2438D9BB283B103681969436A19705C
:10149000436A01334362438D9BB2013B9BB2438558
:1014A000438D9BB20BB92A2A00D008BD026853684D
:1014B00023F48063536022230363282380F83D30A4
:1014C000FFF7DAFFF1E7704708B590F83D3003F019
:1014D0002803282B07D003686FF002025A6100230B
:1014E00080F83C3008BD0268536823F48063536081
:1014F00011F0040F0BD0002311F0800F09D1828965
:10150000002180F83C101946FFF7DDFFEAE70123D0
:10151000F2E7028BF4E7704708B590F83D30DBB294
:10152000C26A082A01D0202A01D1282B06D0212BFB
:101530001ED003686FF480625A6108BD1A4BC36203
:101540000268536823F4E063536003686FF48062B9
:101550005A610268136823F48063136000230363F5
:10156000202280F83D2080F83E30FFF7D4FFE4E7EA
:101570000D4BC36221230363202380F83D300023F9
:1015800080F83E300268536823F4E06353600368D8
:101590006FF480625A610268136823F480631360F9
:1015A000FFF743FFC9E700BF0000FFFF704708B522
:1015B00090F83D30026D9AB9C36C012B08D0836C52
:1015C000C3F3072302681361036D0133036508BD8C
:1015D000836C0268DBB21361036D02330365F6E7C7
:1015E000DBB2026D012A23D0026D022AEFD1222B39
:1015F00026D0428D92B20AB1212B27D0428D92B2D1
:10160000002AE4D1212BE2D10268536823F4E0637D
:1016100053600268136843F400731360002303638C
:10162000202280F83D2080F83E30FFF7BFFFCEE754
:10163000836C0268DBB21361036D01330365C6E797
:101640000268136843F480731360C0E7426A03685A
:1016500012781A61436A01334362438D9BB2013BA6
:101660009BB24385B3E710B590F83D30DBB290F8FC
:101670003E20D2B2C46A018D09B9212B04D0212B9E
:101680003BD0402A37D010BD082C04D0202C02D0EB
:1016900014F5803F19D10268536823F4E063536066
:1016A0000268136843F4007313600023036320236C
:1016B00080F83D3090F83E30DBB2402B15D000234F
:1016C00080F83E30FFF76CFEDDE70268536823F4D4
:1016D000E063536011230363002380F83E3020232E
:1016E00080F83D30FFF75CFECDE7002380F83E3008
:1016F000FFF75CFFC7E7222BC5D1438D9BB22BB907
:101700000268536823F480635360BCE790F83E306E
:10171000DBB2402B0CD0426A036812781A61436A2C
:1017200001334362438D9BB2013B9BB24385AAE7E1
:10173000FFF73DFFA7E7704708B5C26A438D9BB22C
:10174000042B14D0438D9BB2032B22D0438D9BB22C
:10175000022B39D003681A69436A1A70436A01334D
:101760004362438D9BB2013B9BB2438510E002680C
:10177000536823F48063536003681A69436A1A70DC
:10178000436A01334362438D9BB2013B9BB2438565
:1017900008BD01684B6823F480634B60042A06D0BF
:1017A000022A04D00268136823F48063136003687C
:1017B0001A69436A1A70436A01334362438D9BB2CC
:1017C000013B9BB24385E3E7012A0BD0102A09D0E5
:1017D000042A38D0022A36D00268136843F4007312
:1017E000136004E00268136823F4806313600368E5
:1017F0001A69436A1A70426A531C4362438D9BB252
:10180000013B9BB2438503681B695370436A0133F4
:101810004362438D9BB2013B9BB243850268536890
:1018200023F440735360202380F83D3090F83E301D
:10183000DBB2402B0DD0002380F83E30122303632F
:10184000FFF7F2FDA4E70268136843F480631360B6
:10185000CDE7002380F83E300363FFF76CFF97E786
:10186000704790F83D30DBB2222B00D0704710B5A6
:101870000446438D9BB2032B16D903681A69436A49
:101880001A70436A01334362438D9BB2013B9BB2A2
:101890004385438D9BB2032B00D010BD0268536873
:1018A00023F480635360F8E7C26A022AF5D0012B63
:1018B000F3D8FFF7E5F900282ED12268136823F446
:1018C000806313602268536823F4E06353602368E5
:1018D0001A69636A1A70636A01336362638D9BB22B
:1018E000013B9BB26385202384F83D3094F83E3061
:1018F000DBB2402B08D0002384F83E301223236350
:101900002046FFF791FDC8E7002384F83E302363AB
:101910002046FFF710FFC0E72268536823F4E06316
:10192000536023681A69636A1A70636A01336362D9
:10193000638D9BB2013B9BB26385202384F83D30CD
:10194000002384F83E302046FFF78AFFA5E7704762
:1019500000B583B000230193806B90F83D20D2B294
:10196000324B1B68DB083249A1FB03131B0A03EB54
:101970008303C3EBC3030193019B43B1019B013B71
:10198000019303681B6813F4007FF5D103E0036C37
:1019900043F020030364436B0BB10021D963836BD5
:1019A0000BB10021D96301680B6823F480630B60DD
:1019B00000234385436B0BB100211965836B0BB189
:1019C0000021196501680B6823F001030B6090F892
:1019D0003D30DBB2602B0ED002F02802282A14D052
:1019E000202380F83D30002380F83E30FFF738FF99
:1019F00003B05DF804FB202380F83D30002380F81D
:101A00003E300364FFF7A3FFF2E70268136843F078
:101A1000010313600268136843F4806313600023BA
:101A20000363282380F83D30E0E700BF0800002072
:101A300089B5F81410B5044690F83D30DBB290F843
:101A40003E20D2B2102A36D0402A34D003F02802E9
:101A5000282A38D02268526812F4006F07D1602B10
:101A600005D0202384F83D30002384F83E30002345
:101A7000236323685A6812F4006F48D05A6822F42E
:101A800000625A60626B92F83530DBB2012B20D0D5
:101A9000444B1365606B00F07AFE002849D0226841
:101AA000136823F001031360202384F83D30606B3A
:101AB000036D98473DE0222BC8D121680A6822F4C3
:101AC00000620A60C2E700232363282384F83D30C4
:101AD000CFE7A36B334A1A65A06B00F058FE40B302
:101AE00023685A6912F0400F05D01A69636A1A70A8
:101AF000636A013363622268136823F00103136091
:101B0000202384F83D30A06B036D984711E094F8D2
:101B10003D20D2B2602A1FD05A6912F0400F05D082
:101B20001A69636A1A70636A013363622046FFF7B9
:101B300097FE236C13F00F0F04D02268536823F430
:101B4000E063536094F83D30DBB2226C12F0040F76
:101B500001D0282B18D010BD202284F83D2000226F
:101B600022645A6912F0400F05D01A69636A1A702C
:101B7000636A013363622268136823F00103136010
:101B80002046FFF7E4FED4E7074BE362002323631C
:101B9000202284F83D2084F83E302046FFF7BBFC2D
:101BA000D9E700BF511900080000FFFF30B583B02E
:101BB000044690F83D50EDB20268536823F4E063A8
:101BC00053600023019303685A6901921A6842F036
:101BD00001021A60019B0268136823F4806313609A
:101BE00003685A6812F4006F38D0222D21D02A2DB4
:101BF0001FD0426B1268526892B24285428D92B2F7
:101C00001AB1026C42F0040202645A6822F40062C3
:101C10005A60606B00F0CEFD01281FD0636B444A10
:101C20001A65606B00F0B3FDC0B1606B036D98473F
:101C300014E0A26B1268526892B26285628D92B211
:101C40001AB1226C42F0040222645A6822F4006243
:101C50005A60A06B00F0AEFD012842D1638D9BB2AB
:101C600033B323685A6912F0040F0AD01A69636A01
:101C70001A70636A01336362638D9BB2013B9BB24E
:101C8000638523685A6912F0400F0AD01A69636AA3
:101C90001A70636A01336362638D9BB2013B9BB22E
:101CA0006385638D9BB21BB1236C43F004032364F3
:101CB000236C13BB2A2D25D094F83D30DBB2282BA2
:101CC00029D0236B222B01D0222D19D1002323638D
:101CD000202284F83D2084F83E302046FFF7CCFBDC
:101CE0000EE0A36B124A1A65A06B00F050FD0028AD
:101CF000B4D0A06B036D9847B0E72046FFF79AFE7B
:101D000003B030BD00232363282384F83D302046F0
:101D1000FFF7B2FBD0E7074BE362002323632022E7
:101D200084F83D2084F83E302046FFF7F4FBE7E7D7
:101D3000511900080000FFFFF8B504460268556815
:101D4000C66A90F83E30DBB290F83D10102B14D0EC
:101D5000C8B2402B11D0236C002B77D053690021DF
:101D600013F0020F75D015F4007F72D0236C03B10D
:101D700091692046FFF7A8FBF8BD9769516911F0FA
:101D8000010005D1B6F52A0FF6D0B6F12A4FF3D0EF
:101D900010B115F4007F27D111F0080F02D015F40F
:101DA000007F28D111F0020F02D015F4007F26D158
:101DB00017F0040F2FD0526812F4006FDCD111F02D
:101DC000800F05D015F4806F02D011F0040F1AD0E7
:101DD00011F0040FD0D015F4007FCDD0102B16D009
:101DE0002046FFF7E4FBC7E72046FEF786FF2046C4
:101DF000FEF7BAFDC0E72046FEF70AFEBCE7204624
:101E0000FEF71BFEB8E72046FFF72DFCB4E720469F
:101E1000FFF7C7FAB0E7536813F4006FACD111F0C5
:101E2000400F05D015F4806F02D011F0040F09D0D7
:101E300011F0040FA0D015F4007F9DD02046FFF7CD
:101E40007BFC99E72046FFF70CFD95E79169536904
:101E500086E713F0100F02D015F4007F18D1212867
:101E60001AD0292818D013F0400F05D015F4806F30
:101E700002D013F0040F28D013F0040F3FF47CAF0E
:101E800015F4007F3FF478AF2046FEF7E9FE73E7D4
:101E90002046FFF78BFE6FE713F0800F05D015F497
:101EA000806F02D013F0040F0BD013F0040F3FF437
:101EB00063AF15F4007F3FF45FAF2046FEF7C0FE2E
:101EC0005AE72046FFF7B2FA56E72046FFF7D5FA61
:101ED00052E7F8B5044603685D695F6890F83E20F4
:101EE000D2B215F4807F07D017F4807F3CD06FF416
:101EF00080715961012600E0002615F4007F08D0AA
:101F000017F4807F05D046F0020623686FF4007155
:101F1000596115F4806F19D017F4807F16D0638D46
:101F200099B294F83D30DBB2206B202A1ED0236892
:101F30006FF48061596146F00406102A01D0402AEE
:101F400004D12268136843F40073136015F4006F22
:101F500008D017F4807F05D046F0080623686FF498
:101F600000625A6186B9F8BD0026C6E70029DED1B5
:101F7000212B05D0292B03D0282BD8D12128D6D12D
:101F80002046FFF7C9FAE1E7236C1E43266420468A
:101F9000FFF750FDE7E790F83D007047002800F09C
:101FA000DF8170B582B00446036813F0010F3BD0A7
:101FB000A64B9B6803F00C03042B2CD0A34B9B680F
:101FC00003F00C03082B21D06368B3F5803F4FD09A
:101FD000B3F5A02F52D09D4B1A6822F480321A60BC
:101FE0001A6822F480221A606368002B50D000F037
:101FF0009BFC0546954B1B6813F4003F14D100F081
:1020000093FC401B6428F5D90320B0E18F4B5B683B
:1020100013F4800FD8D08D4B1B6813F4003F03D00E
:102020006368002B00F09E81236813F0020F54D0E8
:10203000864B9B6813F00C0F3ED0844B9B6803F0DB
:102040000C03082B33D0E368002B67D0804B0122B0
:102050001A6000F069FC05467C4B1B6813F0020F08
:1020600053D100F061FC401B0228F5D903207EE12A
:10207000764A136843F480331360B5E7734B1A68EC
:1020800042F480221A601A6842F480321A60ABE788
:1020900000F04AFC05466D4B1B6813F4003FC3D0AB
:1020A00000F042FC401B6428F5D903205FE1674B38
:1020B0005B6813F4800FC6D1644B1B6813F0020FEA
:1020C00003D0E368012B40F04F81604A136823F08E
:1020D000F803216943EAC1031360236813F0080F72
:1020E00040D0636963B35B4B01221A6000F01CFCB3
:1020F0000546564B5B6F13F0020F33D100F014FC12
:10210000401B0228F5D9032031E1504A136823F01F
:10211000F803216943EAC1031360DEE74C4B002258
:102120001A6000F001FC0546484B1B6813F0020FD3
:10213000D3D000F0F9FB401B0228F5D9032016E1AB
:10214000444B00221A6000F0EFFB05463F4B5B6FEB
:1021500013F0020F06D000F0E7FB401B0228F5D970
:10216000032004E1236813F0040F78D0374B1B6C75
:1021700013F0805F0DD100230193344B1A6C42F0B1
:1021800080521A641B6C03F080530193019B01255C
:1021900000E00025304B1B6813F4807F21D0A3683A
:1021A000012B32D0052B36D0284B1A6F22F00102BA
:1021B0001A671A6F22F004021A67A368002B34D042
:1021C00000F0B2FB0646214B1B6F13F0020F45D106
:1021D00000F0AAFB801B41F288339842F3D9032018
:1021E000C5E01D4A136843F48073136000F09CFB44
:1021F0000646194B1B6813F4807FD0D100F094FB86
:10220000801B0228F5D90320B1E0104A136F43F078
:1022100001031367D1E70D4B1A6F42F004021A67EE
:102220001A6F42F001021A67C7E700F07DFB06460D
:10223000064B1B6F13F0020F10D000F075FB801BD4
:1022400041F288339842F3D9032090E000380240ED
:1022500000004742800E474200700040EDB9A3697C
:10226000002B00F08380494A926802F00C02082A91
:1022700051D0022B17D0464B00221A6000F054FBBD
:102280000446424B1B6813F0007F42D000F04CFB29
:10229000001B0228F5D9032069E03C4A136C23F0A7
:1022A00080531364DBE73A4B00221A6000F03CFBDA
:1022B0000546364B1B6813F0007F06D000F034FB58
:1022C000401B0228F5D9032051E0E369226A134339
:1022D000626A43EA8213A26A5208013A43EA02435D
:1022E000E26A43EA0263294A5360294B01221A60D9
:1022F00000F01AFB0446254B1B6813F0007F06D143
:1023000000F012FB001B0228F5D903202FE000206B
:102310002DE000202BE0012B2BD01C4B5B6803F43D
:102320008001E269914226D103F03F02216A8A428C
:1023300023D1616A47F6C0721A40B2EB811F1ED1E9
:1023400003F44031A26A5208013AB1EB024F18D1AE
:1023500003F07063E26AB3EB026F14D1002006E071
:1023600001207047012002E0012000E0002002B0BF
:1023700070BD0120FBE70120F9E70120F7E701200C
:10238000F5E70120F3E70120F1E700BF0038024044
:1023900060004742F8B5244B9B6803F00C03042B04
:1023A0003DD0082B3DD1204B5A6802F03F025B68BC
:1023B00013F4800F12D01C4B5968C1F3881100230D
:1023C0001A48A1FB0001FDF75BFF174B5B68C3F3E5
:1023D000014301335B00B0FBF3F023E0124B5B6879
:1023E000C3F388135C010025E41A65F10005AE0112
:1023F00046EA9466A701381B66EB0501CC0044EA67
:102400005074C500E81844F100018B0243EA905370
:102410008402204619460023FDF732FFD5E7034822
:1024200000E00348F8BD00BF0038024040787D015D
:102430000024F400002800F09B8070B50D4604468F
:102440004F4B1B6803F007038B4208D2CBB24C4AB8
:102450001370136803F007038B4240F08B802368EE
:1024600013F0020F17D013F0040F04D0454A9368FD
:1024700043F4E0539360236813F0080F04D0414AFB
:10248000936843F4604393603E4A936823F0F003FB
:10249000A1680B439360236813F0010F32D0636887
:1024A000012B21D09A1E012A25D9364A126812F032
:1024B000020F61D033498A6822F0030213438B6014
:1024C00000F032FA06462F4B9B6803F00C0362685B
:1024D000B3EB820F16D000F027FA801B41F288334D
:1024E0009842F0D9032042E0264A126812F4003FD5
:1024F000E0D101203BE0234A126812F0007FD9D1DD
:10250000012034E01E4B1B6803F00703AB4207D9E0
:10251000EAB21B4B1A701B6803F00703AB422DD1C4
:10252000236813F0040F06D0164A936823F4E0538F
:10253000E1680B439360236813F0080F07D0114A3A
:10254000936823F46043216943EAC1039360FFF772
:1025500021FF0C4B9B68C3F303130B4AD35CD84099
:102560000A4B18600A4B186800F092F9002070BD01
:10257000012070470120FAE70120F8E70120F6E783
:10258000003C024000380240FC3A000808000020ED
:1025900004000020014B1868704700BF08000020AD
:1025A00008B5FFF7F7FF044B9B68C3F38223034A88
:1025B000D35CD84008BD00BF003802400C3B000887
:1025C00000230F2B00F2CB80F0B482B05DE0866870
:1025D0005F000324BC4026EA0406CC68BC403443B8
:1025E0008460466826EA02064C68C4F300129A40EA
:1025F0003243426057E0DC08083450F8247003F09E
:10260000070296000F22B24027EA02070A69B24089
:102610003A4340F824205AE0042200E00022B2406D
:102620003A4302344E4E46F824204E4A1468EA4398
:1026300024EA05064F6817F4803F01D045EA0406F6
:10264000484C2660646802EA04064F6817F4003FAD
:1026500001D045EA0406434C6660A46802EA040619
:102660004F6817F4801F01D045EA04063D4CA66070
:10267000E46822404E6816F4001F01D045EA0402C7
:10268000384CE26001330F2B66D801229A400C6867
:1026900004EA020532EA0404F4D14C6804F00304AD
:1026A000013C012C93D94A6802F00302032A09D0A5
:1026B000C4685E000322B24024EA02048A68B24081
:1026C0002243C2604A6802F00302022A93D00468DF
:1026D0005E000322B24024EA02044A6802F00302C8
:1026E000B240224302604A6812F0805FCAD00022E2
:1026F00001921D4A546C44F480445464526C02F4B8
:1027000080420192019A9C08A61C154A52F8267034
:1027100003F0030296000F22B24027EA0207134A91
:1027200090423FF47BAF02F5806290420ED002F5FA
:10273000806290420CD002F5806290420AD002F58D
:10274000806290423FF468AF072268E7012266E7A3
:10275000022264E7032262E702B0F0BC70477047D0
:1027600000380140003C01400038024000000240B7
:102770000AB181617047090481617047436901EAC8
:10278000030221EA030141EA02418161704790F8A6
:102790003530DBB2022B03D0802343650120704724
:1027A000052380F835300268136823F001031360B5
:1027B0000020704790F8350070470000074AD36842
:1027C00023F4E0631B041B0C000200F4E0600343ED
:1027D00043F0BF6343F40033D360704700ED00E083
:1027E00030B4174BDB68C3F30223C3F10704042C96
:1027F00028BF04241D1D062D18D9033B4FF0FF35BB
:1028000005FA04F421EA0401994005FA03F322EAE7
:102810000303194300280BDB0901C9B200F1604032
:1028200000F5614080F8001330BC70470023E5E7F5
:1028300000F00F000901C9B2024B1954F4E700BFC0
:1028400000ED00E014ED00E0002807DB00F01F02BF
:10285000400901239340024A42F82030704700BFEC
:1028600000E100E00138B0F1807F0AD2064B5860E9
:10287000064AF02182F823100020986007221A608F
:1028800070470120704700BF10E000E000ED00E05D
:1028900010B504460E4B18784FF47A73B3FBF0F37F
:1028A0000C4A1068B0FBF3F0FFF7DCFF68B90F2C9F
:1028B00001D901200AE0002221464FF0FF30FFF746
:1028C0008FFF054B1C60002000E0012010BD00BF01
:1028D00000000020080000200400002008B50B4B79
:1028E0001A6842F400721A601A6842F480621A6030
:1028F0001A6842F480721A600320FFF75FFF00201D
:10290000FFF7C6FFFEF714F8002008BD003C0240A8
:10291000034A1168034B1B780B441360704700BFD8
:10292000EC00002000000020014B1868704700BF39
:10293000EC00002038B50446FFF7F6FF0546B4F179
:10294000FF3F02D0044B1B781C44FFF7EDFF401BF8
:10295000A042FAD338BD00BF00000020034AD2F8DD
:10296000883043F47003C2F88830704700ED00E00F
:10297000DFF834D00D480E490E4A002302E0D45847
:10298000C4500433C4188C42F9D30B4A0B4C0023B7
:1029900001E013600432A242FBD3FFF7DFFF00F037
:1029A00011F8FDF73BFE70470000022000000020F8
:1029B000700000208C3C0008700000200001002006
:1029C000FEE7000070B50D4D0D4C641BA4100026F1
:1029D000A64209D10B4D0C4C01F072F8641BA410F7
:1029E0000026A64205D170BD55F8043B9847013634
:1029F000EEE755F8043B98470136F2E7843C0008BF
:102A0000843C0008843C0008883C000802440346DB
:102A1000934200D1704703F8011BF9E7174B10B53B
:102A20001C68A36BB3B9182000F068F8A06328B93C
:102A30000246134B13484E2100F030F8124A134B54
:102A4000C0E90023124B83600B2383810122002302
:102A5000C0E90423A16B0F480A694B690E4C50432F
:102A600004FB0300A2FB04345A1C044444F100009C
:102A7000C1E9042020F0004010BD00BF0C00002080
:102A8000183B00082F3B00080E33CDAB34126DE627
:102A9000ECDE05002DF451582D7F954C1FB51446E2
:102AA0001A46094B1B680546D8684CB1074B009184
:102AB000CDE9013406492B4600F00EF800F08EFCFB
:102AC000044B1C46F3E700BF0C000020AB3B0008A2
:102AD000B83B0008E63B00080EB403B5014603AB63
:102AE000054853F8042B0068019300F0E3F802B0A6
:102AF0005DF804EB03B070470C000020024B014668
:102B0000186800F053B800BF0C00002037B500294A
:102B100048D051F8043C0190002BA1F10404B8BF47
:102B2000E41800F081FE204A01981368154633B975
:102B30006360146003B0BDE8304000F07BBEA34288
:102B40000BD921686218934204BF1A685B686360FE
:102B500004BF521822602C60ECE71A465B680BB188
:102B6000A342FAD911685518A5420BD12468214413
:102B70005418A3421160DDD11C685B685360214486
:102B80001160D7E702D90C230360D3E725686119E8
:102B90008B4204BF19685B68636004BF49192160F8
:102BA0005460C7E703B030BD8C000020F8B5CD1CE1
:102BB00025F0030508350C2D38BF0C25002D0646E1
:102BC00001DBA94203D90C2333600020F8BD00F0DB
:102BD0002BFE21490A6814469CB9204F3B6823B953
:102BE0002146304600F02AFB38602946304600F086
:102BF00025FB431C23D10C233360304600F01AFE22
:102C0000E3E723685B1B17D40B2B03D923601C4419
:102C1000256004E06368A2420CBF0B60536030463D
:102C200000F008FE04F10B00231D20F00700C21A7B
:102C3000CCD01B1AA350C9E722466468CCE7C41C59
:102C400024F00304A042E3D0211A304600F0F6FA43
:102C50000130DDD1CFE700BF8C00002090000020C4
:102C60009368013B002B10B4936008DA9469A34287
:102C700001DB0A2903D15DF8044B00F0EFBA1368B9
:102C8000581C1060197008465DF8044B7047F8B581
:102C900006460F461446D518AC4201D1002007E085
:102CA00014F8011B3A463046FFF7DAFF431CF3D114
:102CB000F8BD00002DE9F04F0D469DB01446984632
:102CC000064618B183690BB900F0AAFC894B9D42F6
:102CD0001BD175686B6ED90705D4AB899A0502D4F0
:102CE000A86D00F03BFDAB891B0701D52B69EBB943
:102CF0002946304600F004FBC0B16B6EDC070ED5F0
:102D00004FF0FF301DB0BDE8F08F7B4B9D4201D1ED
:102D1000B568DFE7794B9D4208BFF568DAE7AB8914
:102D20009805EDD4A86D00F01AFDE9E7002309939A
:102D300020238DF82930CDF80C803023DFF8C081B6
:102D40008DF82A304FF0010923469A4613F8012BDB
:102D50000AB1252AF9D1BAEB040B0BD05B46224607
:102D600029463046FFF793FF013000F0AA80099A08
:102D70005A4409929AF80030002B00F0A2800023F8
:102D80004FF0FF32CDE905230AF1010A04930793BE
:102D90008DF853301A935446052214F8011B5848F5
:102DA000FDF71EFA049AD8B9D10644BF20238DF846
:102DB0005330130744BF2B238DF853309AF800305B
:102DC0002A2B15D0079A544600204FF00A0C2146B2
:102DD00011F8013B303B092B4ED9B0B1079214E0FA
:102DE000A0EB080309FA03F313430493A246D2E7C6
:102DF000039B191D1B680391002BBBBF5B4242F074
:102E0000020207930793B8BF049223782E2B0CD1AC
:102E100063782A2B35D1039B1A1D1B680392002B64
:102E2000B8BF4FF0FF3302340593DFF8E4A02178F8
:102E300003225046FDF7D4F940B14023A0EB0A002D
:102E400003FA00F0049B03430134049314F8011BBC
:102E50002C488DF828100622FDF7C2F900283FD033
:102E6000294B1BBB039B073323F007030833039352
:102E7000099B3B44099367E70CFB02320C46012097
:102E8000A5E700230134059319464FF00A0C2046AC
:102E900010F8012B303A092A03D9002BC5D005912F
:102EA000C3E70CFB012104460123F0E703AB0093C9
:102EB0002A46164B04A93046AFF300800746781C1B
:102EC000D6D16B6ED90705D4AB899A0502D4A86D0B
:102ED00000F045FCAB895B063FF512AF099811E79E
:102EE00003AB00932A46094B04A9304600F080F852
:102EF000E4E700BF3C3C00085C3C00081C3C0008C8
:102F0000E73B0008F13B0008000000008F2C0008A0
:102F1000ED3B00082DE9F047164699468A680B6993
:102F2000DDF820809342B8BF1346336091F8432008
:102F300007460C460AB1013333602368990642BF45
:102F4000336802333360256815F0060506D104F1B5
:102F5000190AE36832689B1AAB4226DC94F84320D6
:102F6000131E226818BF012392062BD404F14302DA
:102F700049463846C04701301ED02368E5683268AC
:102F800003F00603042B08BFAD1AA36822690CBF27
:102F900025EAE57500259342C4BF9B1AED1800266B
:102FA0001A34B5421AD1002008E00123524649469E
:102FB0003846C047013003D14FF0FF30BDE8F087FD
:102FC0000135C6E7E1185A1C302081F8430022443D
:102FD00094F8451082F843100233C7E701232246D4
:102FE00049463846C0470130E6D00136D9E70000EF
:102FF0002DE9FF470C469146277E0C99782F804695
:103000009A4604F1430207D8622F0AD8002F00F035
:10301000D880582F00F0A38004F1420684F8427053
:103020003AE0A7F16303152BF6D801A050F823F07E
:10303000893000089D300008193000081930000858
:1030400019300008193000089D30000819300008B8
:10305000193000081930000819300008A93100089B
:10306000CD3000088B3100081930000819300008F5
:10307000CB31000819300008CD30000819300008A5
:1030800019300008933100080B681A1D1B680A608C
:1030900004F1420684F842300123A3E02568086861
:1030A0002E0600F104030AD505680B60002D03DA33
:1030B0002D236D4284F843305E480A2319E015F051
:1030C000400F05680B6018BF2DB2EFE70B6825684D
:1030D000181D0860280601D51D6802E06906FBD5A9
:1030E0001D8854486F2F0CBF08230A23002184F841
:1030F00043106668A660002EA2BF216821F004017B
:1031000021600DB9002E4DD01646B5FBF3F103FB3F
:103110001157C75D06F8017D2F46BB420D46F4D915
:10312000082B0BD12368DF0708D523696168994212
:10313000DEBF302306F8013C06F1FF36921B226108
:10314000CDF800A04B4603AA21464046FFF7E2FE19
:1031500001304CD14FF0FF3004B0BDE8F087354866
:1031600084F8457023680E681F0656F8045B0E60ED
:1031700014D5D90744BF43F0200323601DB9236849
:1031800023F0200323601023B0E7236843F02003DB
:1031900023607823284884F84530E3E75E0648BF7B
:1031A000ADB2E6E71646BBE70B68266860691D1DF1
:1031B0000D6035061B6801D5186002E07106FBD56D
:1031C0001880002323611646BAE70B681A1D0A60AF
:1031D0001E68626800213046FDF702F808B1801BC6
:1031E000606063682361002384F84330A8E72369A3
:1031F000324649464046D0470130ABD023689B0752
:1032000013D4E068039B9842B8BF1846A4E7012393
:10321000324649464046D04701309BD00135E368ED
:1032200003995B1AAB42F2DCEBE7002504F11906C7
:10323000F5E700BFF83B0008093C000838B5064D2B
:103240000023044608462B6000F022FC431C02D1F8
:103250002B6803B1236038BDFC000020F8B50E4692
:103260001446054618B183690BB900F0D9F9214B12
:103270009C422BD16C68A369A360A3891A072FD540
:1032800023696BB323692068C01A6369F6B283426D
:10329000374604DC2146284600F02EF930BBA368EF
:1032A000013BA36023685A1C22601E7063690130D1
:1032B000834204D0A389DB0706D50A2E04D1214618
:1032C000284600F019F988B93846F8BD0A4B9C42E7
:1032D00001D1AC68CFE7094B9C4208BFEC68CAE754
:1032E0002146284600F00CF80028CBD04FF0FF37DD
:1032F000EAE700BF3C3C00085C3C00081C3C0008BE
:10330000324B70B51D6806460C4625B1AB6913B942
:10331000284600F085F92E4B9C420FD16C68A3899A
:10332000B4F90C2019072CD4DD0611D4092333601D
:1033300042F04003A3814FF0FF303EE0254B9C421A
:1033400001D1AC68EBE7244B9C4208BFEC68E6E790
:10335000580712D5616B41B104F14403994202D080
:103360003046FFF7D3FB00236363A38923F02403D4
:10337000A3810023636023692360A38943F00803CA
:10338000A38123694BB9A38903F42073B3F5007FAC
:1033900003D02146304600F007FAA089B4F90C208A
:1033A00010F001030AD00023A36063695B42A361AC
:1033B000236943B910F08000BAD170BD810758BFAE
:1033C0006369A360F4E70020F7E700BF0C0000206A
:1033D0003C3C00085C3C00081C3C000808B506208A
:1033E00000F056FA012000F069FB00008A892DE9FF
:1033F000F041054610070C4658D44B68002B05DCFD
:103400000B6C002B02DC0020BDE8F081E66A002E88
:10341000F9D0002312F480522F682B6032D0606DF7
:10342000A3895A0705D56368C01A636B0BB1236C77
:10343000C01A00230246E66A216A2846B047431CA8
:10344000A38906D129681D292CD82A4ACA40D60743
:1034500028D500226260D9042269226004D5421C6A
:1034600001D12B6803B96065616B2F600029CAD058
:1034700004F14403994202D02846FFF747FB00209D
:103480006063C1E7216A01232846B047411CC7D1C8
:103490002B68002BC4D01D2B01D0162B01D12F601F
:1034A000B1E7A38943F04003A381ADE70F69002F83
:1034B000A9D093070E6808BF4B690F6018BF00239F
:1034C000A6EB07088B60B8F1000F9CDD216AA66AA5
:1034D00043463A462846B047002806DCA38943F015
:1034E0004003A3814FF0FF308EE70744A8EB0008AC
:1034F000E9E700BF0100402038B50B6905460C46DE
:1035000013B90025284638BD18B183690BB900F0FE
:1035100087F8144B9C421BD16C68B4F90C30002B1B
:10352000EFD0626ED00704D4990502D4A06D00F0EC
:1035300015F928462146FFF759FF636EDA0705465D
:10354000E0D4A3899B05DDD4A06D00F008F9D9E78C
:10355000054B9C4201D1AC68DFE7044B9C4208BF9D
:10356000EC68DAE73C3C00085C3C00081C3C0008C6
:10357000002310B50446C0E90033C0E9043383607A
:1035800081814366C2818361194608225C30FFF75E
:103590003DFA054B6362054BA362054BE362054BA5
:1035A0002462236310BD00BFC9380008EB3800084F
:1035B0002339000847390008014900F0AFB800BFBF
:1035C000F934000870B54A1E682555430E4605F1CA
:1035D0007401FFF7EBFA044640B10021C0E9001680
:1035E0000C30A06005F16802FFF710FA204670BDAC
:1035F000014800F0B3B800BFF8000020014800F017
:10360000AEB800BFF8000020014800F0A7B800BF26
:10361000F3000020014800F0A2B800BFF300002032
:1036200010B50446FFF7F0FFA3691BB1BDE81040D9
:10363000FFF7F0BFC4E912332365134B134A1B682D
:10364000A262A34204BF0123A361204600F020F838
:103650006060204600F01CF8A060204600F018F8DA
:103660000022E06004216068FFF782FFA068012269
:103670000921FFF77DFFE06802221221FFF778FFA2
:103680000123A361D2E700BF143B0008B93500084D
:10369000F8B50746FFF7ACFF1E4B1E68B36913B9B8
:1036A0003046FFF7BDFF4836D6E90134013B03D56C
:1036B00033680BB33668F7E7B4F90C50D5B9164B3D
:1036C000E36004F15800656600F047F8FFF796FFE5
:1036D000C4E90155C4E904552560A56108222946BD
:1036E00004F15C00FFF792F9C4E90D55C4E91255E5
:1036F0002046F8BD6834D9E704213846FFF762FF59
:10370000044630600028D5D1FFF778FF0C233B60DA
:10371000EEE700BF143B00080100FFFF2DE9F8436E
:103720000646884600F148040027D4E90195B9F11E
:10373000010905D52468002CF7D13846BDE8F88387
:10374000AB89012B07D9B5F90E30013303D02946D7
:103750003046C04707436835E9E770477047704710
:1037600070B50E46B1F90E10002996B014461D46EC
:1037700007DA00232B60B3891A0610D44FF4806354
:103780000EE06A4600F006F90028F2DB019A02F426
:103790007042A2F500535A425A412A60EEE7402394
:1037A0000020236016B070BD8B8973B59D07064657
:1037B0000C4607D504F147032360236101236361AD
:1037C00002B070BD01AB6A46FFF7CAFF009905461B
:1037D0003046FFF7EBF948B9B4F90C309A05EFD44D
:1037E00023F0030343F00203A381E3E70D4BB3622D
:1037F000A389206043F08003A381009B6361019B48
:1038000020615BB1B4F90E10304600F0D5F828B154
:10381000A38923F0030343F00103A381A089054397
:10382000A581CDE7B93500080148FFF797BF00BF74
:10383000F40000200148FFF792BF00BFF400002011
:103840001F2938B504460D4604D9162303604FF0EE
:10385000FF3038BD426C12B152F821304BB92046CE
:1038600000F030F82A4601462046BDE8384000F016
:1038700017B8012B0AD0591C03D11623036001206D
:10388000E7E7002442F82540284698470020E0E773
:10389000024B01461868FFF7D3BF00BF0C000020A1
:1038A00038B5074D00230446084611462B6000F04A
:1038B000D7F8431C02D12B6803B1236038BD00BF89
:1038C000FC00002000F0BCB810B50C46B1F90E1099
:1038D00000F094F80028ABBF636DA3891B1823F494
:1038E0008053ACBF6365A38110BD2DE9F0411F4635
:1038F0008B89DB0505460C46164605D5B1F90E1039
:103900000223002200F068F8A389B4F90E1023F412
:103910008053A38132463B462846BDE8F04100F083
:1039200017B810B50C46B1F90E1000F055F8431C4D
:10393000A38915BF606523F4805343F48053A381AA
:1039400018BFA38110BDB1F90E1000F013B800002C
:1039500038B5074D04460846114600222A601A462B
:1039600000F0A4F8431C02D12B6803B1236038BDDA
:10397000FC00002038B5064D0023044608462B60A5
:1039800000F04EF8431C02D12B6803B1236038BD10
:10399000FC00002038B5074D0023044608461146B8
:1039A0002B6000F045F8431C02D12B6803B1236063
:1039B00038BD00BFFC00002038B5064D002304468A
:1039C00008462B6000F044F8431C02D12B6803B179
:1039D000236038BDFC00002038B5074D044608467A
:1039E000114600222A601A4600F042F8431C02D118
:1039F0002B6803B1236038BDFC00002038B5074DAB
:103A000004460846114600222A601A4600F038F89B
:103A1000431C02D12B6803B1236038BDFC00002099
:103A2000024B58221A604FF0FF307047FC00002014
:103A3000024B58221A604FF0FF307047FC00002004
:103A4000024B58221A604FF0FF307047FC000020F4
:103A5000024B58221A600020704700BFFC00002073
:103A6000024B58221A604FF0FF307047FC000020D4
:103A7000024B58221A604FF0FF307047FC000020C4
:103A8000024B58221A604FF0FF307047FC000020B4
:103A9000044A05491368002B08BF0B461844106000
:103AA000184670479400002000010020024B582265
:103AB0001A604FF0FF307047FC000020FEE700BFA7
:103AC000F8B500BFF8BC08BC9E467047F8B500BF0B
:083AD000F8BC08BC9E467047DB
:103AD80061626364414243442140232431323334D8
:103AE800454849507B2E2C3E303938376667686A1E
:103AF80000000000000000000000000001020304B4
:103B08000607080900000000010203041000002055
:103B18005245454E54206D616C6C6F63207375631C
:103B2800636565646564002F6D6E742F776F726BC3
:103B380073706163652F776F726B73706163652F44
:103B48004743432D392D706970656C696E652F6A1E
:103B5800656E6B696E732D4743432D392D706970FF
:103B6800656C696E652D3230305F323032303035F9
:103B780032315F313539303035333337342F737262
:103B8800632F6E65776C69622F6E65776C69622F3B
:103B98006C6962632F7374646C69622F72616E64FE
:103BA8002E63002C2066756E6374696F6E3A200070
:103BB800617373657274696F6E20222573222066A3
:103BC80061696C65643A2066696C652022257322F8
:103BD8002C206C696E65202564257325730A0023E3
:103BE8002D302B2000686C4C006566674546470001
:103BF800303132333435363738394142434445461B
:103C080000303132333435363738396162636465B0
:103C18006600000000000000000000000000000036
:103C2800000000000000000000000000000000008C
:103C3800000000000000000000000000000000007C
:103C4800000000000000000000000000000000006C
:103C5800000000000000000000000000000000005C
:103C6800000000000000000000000000000000004C
:043C78000000000048
:083C7C0034C6FF7F01000000C7
:043C8400C50100086E
:043C8800A10100088E
:103C8C0001000000100000000024F40010000020CF
:103C9C00000000003C3C00085C3C00081C3C000898
:103CAC000000000000000000000000000000000008
:103CBC0000000000000000000000000000000000F8
:103CCC0000000000000000000000000000000000E8
:103CDC0000000000000000000000000000000000D8
:103CEC0000000000000000000000000000000000C8
:040000050800297155
:00000001FF
