:020000040800F2
:1000000000000220851700083D0700083F07000890
:1000100041070008430700084507000800000000EA
:10002000000000000000000000000000470700087A
:1000300049070008000000004B0700084D070008B2
:10004000D5170008D5170008D5170008D5170008E0
:10005000D5170008D5170008D5170008D5170008D0
:10006000D5170008D5170008D5170008D5170008C0
:10007000D5170008D5170008D5170008D5170008B0
:10008000D5170008D5170008D51700080000000094
:10009000000000000000000000000000D51700086C
:1000A000D5170008D5170008D5170008D517000880
:1000B000D5170008D5170008D5170008D517000870
:1000C000D5170008D5170008D5170008D517000860
:1000D000D5170008D5170008D51700080000000044
:1000E000D5170008D5170008D51700080000000034
:1000F000000000000000000000000000D51700080C
:1001000000000000D5170008D5170008D517000813
:1001100000000000000000000000000000000000DF
:10012000D5170008D5170008D5170008D5170008FF
:10013000D5170008000000000000000000000000CB
:10014000000000000000000000000000D5170008BB
:10015000D5170008D5170008D5170008D5170008CF
:10016000D5170008D51700080000000000000000A7
:10017000000000000000000000000000000000007F
:1001800000000000D517000800000000000000007B
:08019000D5170008D51700087F
:1001980010B5054C237833B9044B13B10448AFF3B9
:1001A80000800123237010BD5800002000000000CB
:1001B8003018000808B5034B1BB103490348AFF3D7
:1001C800008008BD000000005C0000203018000816
:1001D80053B94AB9002908BF00281CBF4FF0FF31A6
:1001E8004FF0FF3000F06EB9ADF1080C6DE904CEA8
:1001F80000F006F8DDF804E0DDE9022304B07047FA
:100208002DE9F047089D04468C46002B40F083807A
:100218008A42174647D9B2FA82F242B1C2F12000A7
:1002280024FA00F09140974040EA010C94404FEACC
:100238001748230CBCFBF8F61FFA87FE08FB16C10B
:1002480043EA014306FB0EF1994209D9FB1806F16E
:10025800FF3080F01981994240F21681023E3B44FA
:100268005B1AA4B2B3FBF8F008FB103344EA03446A
:1002780000FB0EFEA64509D93C1900F1FF3380F0BA
:100288000581A64540F2028102383C4440EA064016
:10029800A4EB0E0400261DB1D4400023C5E9004399
:1002A8003146BDE8F08702B9FFDEB2FA82F2002AD1
:1002B80050D1CB1B4FEA174E1FFA87F80126B3FB24
:1002C800FEFC210C0EFB1C3341EA034108FB0CF336
:1002D8008B4207D979180CF1FF3002D28B4200F219
:1002E800E9808446C91AA3B2B1FBFEF00EFB1011D7
:1002F80043EA014408FB00F8A04507D93C1900F17E
:10030800FF3302D2A04500F2D9801846A4EB0804B6
:1003180040EA0C40BFE78B4209D9002D00F0B180BC
:100328000026C5E9000130463146BDE8F087B3FA3A
:1003380083F6002E4AD18B4202D3824200F2B88063
:10034800841A61EB030101208C46002DA8D0C5E971
:10035800004CA5E7C2F1200320FA03F6974001FA02
:1003680002F04FEA174ED9403043030CB1FBFEF6BA
:100378001FFA87F80EFB161143EA014306FB08F142
:10038800994204FA02F409D9FB1806F1FF3C80F0FF
:100398008D80994240F28A80023E3B445B1A81B2CA
:1003A800B3FBFEF00EFB103341EA034100FB08F3F8
:1003B8008B4207D9791800F1FF3C73D28B4271D96F
:1003C80002383944CB1A40EA064678E7C6F1200CD1
:1003D80003FA06F422FA0CF31C4320FA0CF701FA8C
:1003E80006F34FEA144E21FA0CF11F433B0CB1FB04
:1003F800FEF91FFA84F80EFB191143EA014109FBC3
:1004080008FA8A4502FA06F200FA06F308D96118D2
:1004180009F1FF3048D28A4546D9A9F10209214499
:10042800A1EB0A01BFB2B1FBFEF00EFB101147EAC7
:10043800014700FB08F8B84507D9E71900F1FF3173
:100448002ED2B8452CD90238274440EA0940A7EBF8
:100458000807A0FB02894F45C64649461AD317D05C
:100468005DB1B3EB0E0267EB010707FA0CFCF24033
:100478004CEA0202F740C5E9002700263146BDE8EC
:10048800F0872E4628460BE70646E9E61846FDE6BD
:100498004345E5D2B8EB020E69EB04010138DFE70A
:1004A8000846D2E760468DE78146B9E7664675E7B4
:1004B80030464AE7ACF1020C394413E702383C44B1
:1004C80024E700BF704700BF00B585B000F0F00218
:1004D8000301DBB20A4342F00C008DF80C0042F035
:1004E80008028DF80D200B4343F00C028DF80E2006
:1004F80043F008038DF80F304FF0FF3300930423C7
:1005080003AA7E21034800F0ABFB00B1FEE705B06B
:100518005DF804FB7400002008B50021FFF7D4FF44
:1005280008BD08B50121FFF7CFFF08BD38B504465F
:100538000023207838B15D1C0F2B04DC0134FFF751
:10054800F0FF2B46F5E738BD08B528B1C0200843B1
:10055800C0B2FFF7E1FF08BD8020F8E708B5012029
:10056800FFF7DAFF052001F0EBF808BD08B53020E9
:10057800FFF7D2FF0220FFF7CFFF0C20FFF7CCFFD9
:10058800FFF7ECFF08BD000030B589B000240394E4
:1005980004940594069407940194134B1A6B42F043
:1005A80001021A631A6B02F001020192019A029485
:1005B8001A6B42F002021A631B6B03F002030293E8
:1005C800029B0A4D22462021284601F005F82023E7
:1005D8000393012304930594069403A9284600F085
:1005E80023FF09B030BD00BF0038024000000240C0
:1005F80010B404780123C25C1AB1591E4254013365
:10060800F9E7591E44545DF8044B704772B6FEE78B
:1006180008B50A480A4B03600A4B4360002383600D
:10062800C3604FF48042026143618361C361036226
:1006380000F038FA00B908BDFFF7E8FF74000020A1
:1006480000540040A086010000B595B0302200217A
:1006580008A801F0E1F80023039304930593069397
:10066800079301931E4A116C41F080511164126C7A
:1006780002F080520192019A02931A4A116841F4D9
:1006880040411160126802F440420292029A02212B
:10069800089101220B9210220C920E910F93109246
:1006A8004FF4A873119304231293139308A800F02E
:1006B80093FB80B90F230393022104910023059330
:1006C8004FF480520692079303A800F0E7FD20B983
:1006D80015B05DF804FBFFF799FFFFF797FF00BF20
:1006E800003802400070004008B500F0FDFFFFF739
:1006F800ABFFFFF749FFFFF78BFFFFF737FF00213D
:100708000846FFF721FF094D2846FFF70FFF002194
:100718000120FFF719FF064C2046FFF707FF284680
:10072800FFF766FF2046FFF763FFE8E700000020B9
:1007380028000020FEE7FEE7FEE7FEE7FEE7704739
:100748007047704708B500F0E9FF08BD82B0002186
:1007580000910B4B5A6C42F480425A645A6C02F472
:1007680080420092009A01911A6C42F080521A64F9
:100778001B6C03F080530193019B02B0704700BFCC
:100788000038024030B589B00023039304930593E1
:10079800069307930268154B9A4201D009B030BD01
:1007A80000250195124C236B43F002032363236B4E
:1007B80003F002030193019B4FF440730393122348
:1007C800049301230593032306930423079303A9A2
:1007D800084800F029FE0295236C43F400132364B3
:1007E800236C03F400130293029BD7E700540040E4
:1007F800003802400004024003685A6912F4806F0E
:1008080001D1002070476FF480625A6100230363AE
:10081800202280F83D2080F83E30026C42F004022D
:10082800026480F83C30012070472DE9F04107460A
:100838000D4690461E4622E000F07CFF069BC01A3B
:10084800B04200D8DEB900233B63202287F83D2060
:1008580087F83E303A6C42F020023A6487F83C3020
:1008680001201AE03B689C6925EA0404A4B2B4FAA2
:1008780084F46409A0450FD1B6F1FF3FDCD1C5F37C
:100888000743012BEED13B685C6925EA0404A4B256
:10089800B4FA84F46409EDE70020BDE8F0812DE99D
:1008A800F04105460E46174698463DE01A6842F460
:1008B80000721A602B686FF480625A6100232B6300
:1008C800202285F83D2085F83E302A6C42F004024B
:1008D8002A6485F83C30012034E000F02BFFA0EBBF
:1008E8000800B84200D8FFB900232B63202285F8FE
:1008F8003D2085F83E302A6C42F020022A6485F8B3
:100908003C3001201EE02B689C6926EA0404A4B24E
:10091800003C18BF0124A4B12B685A6912F4806FF7
:10092800C4D1B7F1FF3FD8D1C6F30743012BEAD1B1
:100938002B685C6926EA0404A4B2003C18BF0124B1
:10094800E9E70020BDE8F081F0B583B004460D4624
:1009580016461F46C36A082B0DD0012B0BD013F582
:10096800803F08D0036B122B0AD10268136843F446
:100978008073136004E02268136843F48073136083
:100988000097334600224FF001112046FFF74DFF34
:1009980080B92369B3F5804F16D1236805F0FE05A9
:1009A8001D613B46324613492046FFF778FFF8B9E8
:1009B80003B0F0BD23681B6813F4807F02D04FF4A6
:1009C800007323640320F3E7EB11226803F00603A6
:1009D80043F0F00313613B46324607492046FFF7D0
:1009E8005EFF18B92368EDB21D61DAE70120DFE781
:1009F8000120DDE7020001000800010070B504468F
:100A08000D46164623685B6913F0800F1CD12046FB
:100A1800FFF7F2FED0B9B5F1FF3FF3D000F08AFE40
:100A2800801BA84201D8002DECD10023236320228B
:100A380084F83D2084F83E30226C42F02002226483
:100A480084F83C30012000E0002070BD0120FCE764
:100A580070B504460D46164623685B6913F0040F0B
:100A68001CD12046FFF7C8FED0B9B5F1FF3FF3D03F
:100A780000F060FE801BA84201D8002DECD10023B5
:100A88002363202284F83D2084F83E30226C42F013
:100A98002002226484F83C30012000E0002070BD70
:100AA8000120FCE7002800F0CC80F8B5044690F857
:100AB8003D30002B77D0242384F83D30226813681A
:100AC80023F0010313602268136843F400431360A2
:100AD8002268136823F40043136000F095FC6268F1
:100AE8005A4B9A4264D85A4B98428CBF0023012330
:100AF800002B40F0A880574DA5FB0035AF0C2668A9
:100B0800716821F03F0141EA9541716021680B6AE3
:100B180023F03F0365684D4A95424FD87A1C13432A
:100B28000B622568E96921F44F4121F0FF016368F0
:100B3800464A93424CD801385B00B0FBF3F00130D1
:100B480040F6FC73184278D0C0F30B030B43EB61FB
:100B580021680B6823F0C003E269206A024313434B
:100B68000B6021688B6823F4034323F0FF03226999
:100B7800E068024313438B602168CB6823F0FF03CE
:100B88006269A06902431343CB602268136843F08B
:100B98000103136000202064202384F83D30206383
:100BA80084F83E00F8BD80F83C30FFF7EBFD82E7A3
:100BB800294B98428CBF0023012399E74FF4967282
:100BC80002FB07F2254DA5FB025292090132A6E766
:100BD800A268BAB9461E03EB4307B6FBF7F601361F
:100BE800C6F30B06B6FA86F6760946BBC2B9421EAC
:100BF80003EB4303B2FBF3F20132C2F30B0242F4FC
:100C08000043A3E7461E03EB830707EB8707B6FB02
:100C1800F7F60136C6F30B06B6FA86F67609E4E768
:100C2800421E03EB830303EB8303B2FBF3F20132AF
:100C3800C2F30B0242F4404388E7042386E701230A
:100C480084E7012070470120ACE700BFA0860100BF
:100C58007F841E0083DE1B43FF083D00D34D6210D6
:100C68002DE9F04385B004460F46914698460C9E00
:100C780000F060FD054694F83D00C0B2202804D07D
:100C88000227384605B0BDE8F083009519230122F4
:100C98004F492046FFF7C9FD002840F0928094F89C
:100CA8003C30012B00F08F80012384F83C3023680E
:100CB8001A6812F0010F03D11A6842F001021A6093
:100CC8002268136823F400631360212384F83D30FD
:100CD800102384F83E3000232364C4F82490A4F839
:100CE8002A80638D23853B4BE3622B463246394687
:100CF8002046FFF729FE0746002866D10023039304
:100D080023685A6903929B690393039B11E0236C40
:100D1800042B01D00127B4E72268136843F4007359
:100D28001360F7E72A4631462046FFF791FE002870
:100D38002ED1238D002B36D02A4631462046FFF788
:100D48005DFE0028E3D1626A236812781A61616A3D
:100D58004B1C6362638D9BB2013B9BB26385238D01
:100D6800013B9BB223852268506910F0040FD9D04B
:100D7800002BD7D04B781361636A01336362638DAC
:100D88009BB2013B9BB26385238D013B2385C9E759
:100D9800236C042B01D0012773E72268136843F4FE
:100DA80000731360F7E72268136843F40073136055
:100DB800202384F83D30002384F83E3084F83C300A
:100DC8005FE702275DE702275BE7012759E700BFD6
:100DD800020010000000FFFF002800F0DF8170B55E
:100DE80082B00446036813F0010F3BD0A64B9B6802
:100DF80003F00C03042B2CD0A34B9B6803F00C03CB
:100E0800082B21D06368B3F5803F4FD0B3F5A02FEE
:100E180052D09D4B1A6822F480321A601A6822F464
:100E280080221A606368002B50D000F083FC0546CE
:100E3800954B1B6813F4003F14D100F07BFC401B5A
:100E48006428F5D90320B0E18F4B5B6813F4800F59
:100E5800D8D08D4B1B6813F4003F03D06368002B78
:100E680000F09E81236813F0020F54D0864B9B68D4
:100E780013F00C0F3ED0844B9B6803F00C03082B37
:100E880033D0E368002B67D0804B01221A6000F052
:100E980051FC05467C4B1B6813F0020F53D100F040
:100EA80049FC401B0228F5D903207EE1764A1368E5
:100EB80043F480331360B5E7734B1A6842F4802219
:100EC8001A601A6842F480321A60ABE700F032FC0C
:100ED80005466D4B1B6813F4003FC3D000F02AFC95
:100EE800401B6428F5D903205FE1674B5B6813F466
:100EF800800FC6D1644B1B6813F0020F03D0E36860
:100F0800012B40F04F81604A136823F0F8032169F0
:100F180043EAC1031360236813F0080F40D06369E4
:100F280063B35B4B01221A6000F004FC0546564B84
:100F38005B6F13F0020F33D100F0FCFB401B02285B
:100F4800F5D9032031E1504A136823F0F8032169E9
:100F580043EAC1031360DEE74C4B00221A6000F03D
:100F6800E9FB0546484B1B6813F0020FD3D000F08D
:100F7800E1FB401B0228F5D9032016E1444B00226F
:100F88001A6000F0D7FB05463F4B5B6F13F0020F6A
:100F980006D000F0CFFB401B0228F5D9032004E15E
:100FA800236813F0040F78D0374B1B6C13F0805F65
:100FB8000DD100230193344B1A6C42F080521A640D
:100FC8001B6C03F080530193019B012500E0002571
:100FD800304B1B6813F4807F21D0A368012B32D0DB
:100FE800052B36D0284B1A6F22F001021A671A6FA8
:100FF80022F004021A67A368002B34D000F09AFB91
:101008000646214B1B6F13F0020F45D100F092FBEF
:10101800801B41F288339842F3D90320C5E01D4A6A
:10102800136843F48073136000F084FB0646194B81
:101038001B6813F4807FD0D100F07CFB801B022852
:10104800F5D90320B1E0104A136F43F00103136789
:10105800D1E70D4B1A6F42F004021A671A6F42F07B
:1010680001021A67C7E700F065FB0646064B1B6FCF
:1010780013F0020F10D000F05DFB801B41F28833A3
:101088009842F3D9032090E000380240000047421C
:10109800800E474200700040EDB9A369002B00F0B4
:1010A8008380494A926802F00C02082A51D0022B28
:1010B80017D0464B00221A6000F03CFB0446424B16
:1010C8001B6813F0007F42D000F034FB001B02289D
:1010D800F5D9032069E03C4A136C23F0805313646C
:1010E800DBE73A4B00221A6000F024FB0546364B3A
:1010F8001B6813F0007F06D000F01CFB401B022881
:10110800F5D9032051E0E369226A1343626A43EA8E
:101118008213A26A5208013A43EA0243E26A43EAA6
:101128000263294A5360294B01221A6000F002FB2E
:101138000446254B1B6813F0007F06D100F0FAFA2D
:10114800001B0228F5D903202FE000202DE0002005
:101158002BE0012B2BD01C4B5B6803F48001E26968
:10116800914226D103F03F02216A8A4223D1616A63
:1011780047F6C0721A40B2EB811F1ED103F440310A
:10118800A26A5208013AB1EB024F18D103F070631A
:10119800E26AB3EB026F14D1002006E00120704729
:1011A800012002E0012000E0002002B070BD012013
:1011B800FBE70120F9E70120F7E70120F5E7012027
:1011C800F3E70120F1E700BF003802406000474222
:1011D800F8B52F4B9B6803F00C03042B53D0082B56
:1011E80053D12B4B5A6802F03F025B6813F4800F0F
:1011F80028D0274B5B68C3F3881358010021C01A15
:1012080061F100018E0146EA906687013C1A66EB9F
:101218000105E90041EA5471E000C01841F10001FC
:101228004B0243EAD0534402204619460023FEF7F6
:10123800CFFF174B5B68C3F3014301335B00B0FB7F
:10124800F3F023E0124B5B68C3F388135C010025BD
:10125800E41A65F10005AE0146EA9466A701381B59
:1012680066EB0501CC0044EA5074C500E81844F167
:1012780000018B0243EA905384022046194600235A
:10128800FEF7A6FFD5E7034800E00348F8BD00BF16
:101298000038024000127A000024F400002800F010
:1012A8009B8070B50D4604464F4B1B6803F007033F
:1012B8008B4208D2CBB24C4A1370136803F0070371
:1012C8008B4240F08B80236813F0020F17D013F085
:1012D800040F04D0454A936843F4E05393602368AD
:1012E80013F0080F04D0414A936843F460439360B5
:1012F8003E4A936823F0F003A1680B439360236888
:1013080013F0010F32D06368012B21D09A1E012AF5
:1013180025D9364A126812F0020F61D033498A681B
:1013280022F0030213438B6000F004FA06462F4BA9
:101338009B6803F00C036268B3EB820F16D000F0D1
:10134800F9F9801B41F288339842F0D9032042E032
:10135800264A126812F4003FE0D101203BE0234AFC
:10136800126812F0007FD9D1012034E01E4B1B68AF
:1013780003F00703AB4207D9EAB21B4B1A701B688C
:1013880003F00703AB422DD1236813F0040F06D0F6
:10139800164A936823F4E053E1680B43936023688B
:1013A80013F0080F07D0114A936823F460432169AA
:1013B80043EAC1039360FFF70BFF0C4B9B68C3F331
:1013C80003130B4AD35CD8400A4B18600A4B1868C1
:1013D80000F064F9002070BD012070470120FAE791
:1013E8000120F8E70120F6E7003C024000380240FF
:1013F800481800085400002050000020014B1868CD
:10140800704700BF5400002008B5FFF7F7FF044BF2
:101418009B68C3F38223034AD35CD84008BD00BF4E
:10142800003802405818000800230F2B00F2CB8028
:10143800F0B482B05DE086685F000324BC4026EA11
:101448000406CC68BC4034438460466826EA020639
:101458004C68C4F300129A403243426057E0DC08FB
:10146800083450F8247003F0070296000F22B240A7
:1014780027EA02070A69B2403A4340F824205AE0B2
:10148800042200E00022B2403A4302344E4E46F8AD
:1014980024204E4A1468EA4324EA05064F6817F4E4
:1014A800803F01D045EA0406484C2660646802EA99
:1014B80004064F6817F4003F01D045EA0406434C80
:1014C8006660A46802EA04064F6817F4801F01D01A
:1014D80045EA04063D4CA660E46822404E6816F4CE
:1014E800001F01D045EA0402384CE26001330F2B9B
:1014F80066D801229A400C6804EA020532EA04041C
:10150800F4D14C6804F00304013C012C93D94A68D7
:1015180002F00302032A09D0C4685E000322B24025
:1015280024EA02048A68B2402243C2604A6802F090
:101538000302022A93D004685E000322B24024EA20
:1015480002044A6802F00302B240224302604A6879
:1015580012F0805FCAD0002201921D4A546C44F4F4
:1015680080445464526C02F480420192019A9C08AF
:10157800A61C154A52F8267003F0030296000F22A3
:10158800B24027EA0207134A90423FF47BAF02F5C4
:10159800806290420ED002F5806290420CD002F533
:1015A800806290420AD002F5806290423FF468AFB0
:1015B800072268E7012266E7022264E7032262E75E
:1015C80002B0F0BC7047704700380140003C014051
:1015D80000380240000002400AB1816170470904E6
:1015E80081617047074AD36823F4E0631B041B0C2E
:1015F800000200F4E060034343F0BF6343F40033A8
:10160800D360704700ED00E030B4174BDB68C3F3DC
:101618000223C3F10704042C28BF04241D1D062D32
:1016280018D9033B4FF0FF3505FA04F421EA040109
:10163800994005FA03F322EA0303194300280BDB58
:101648000901C9B200F1604000F5614080F800135B
:1016580030BC70470023E5E700F00F000901C9B26C
:10166800024B1954F4E700BF00ED00E014ED00E070
:101678000138B0F1807F0AD2064B5860064AF02143
:1016880082F823100020986007221A607047012012
:10169800704700BF10E000E000ED00E010B5044620
:1016A8000E4B18784FF47A73B3FBF0F30C4A1068BA
:1016B800B0FBF3F0FFF7DCFF68B90F2C01D901206C
:1016C8000AE0002221464FF0FF30FFF79DFF054B4F
:1016D8001C60002000E0012010BD00BF4D0000206C
:1016E800540000205000002008B50B4B1A6842F443
:1016F80000721A601A6842F480621A601A6842F42A
:1017080080721A600320FFF76DFF0020FFF7C6FF05
:10171800FFF71CF8002008BD003C0240034A11688E
:10172800034B1B780B441360704700BFC8000020B0
:101738004D000020014B1868704700BFC80000200A
:1017480038B50446FFF7F6FF0546B4F1FF3F02D06F
:10175800044B1B781C44FFF7EDFF401BA042FAD353
:1017680038BD00BF4D000020034AD2F8883043F44A
:101778007003C2F88830704700ED00E0DFF834D01D
:101788000D480E490E4A002302E0D458C4500433D1
:10179800C4188C42F9D30B4A0B4C002301E01360A8
:1017A8000432A242FBD3FFF7DFFF00F011F8FEF787
:1017B8009BFF704700000220000000205800002016
:1017C8007018000858000020CC000020FEE7000038
:1017D80070B50D4D0D4C641BA4100026A64209D10E
:1017E8000B4D0C4C00F020F8641BA4100026A642F8
:1017F80005D170BD55F8043B98470136EEE755F81A
:10180800043B98470136F2E7681800086818000892
:10181800681800086C18000802440346934200D177
:10182800704703F8011BF9E7F8B500BFF8BC08BC1E
:101838009E467047F8B500BFF8BC08BC9E46704786
:101848000000000000000000010203040607080968
:0818580000000000010203047E
:08186000A8E9FF7F0100000070
:04186800BD010008B6
:04186C0099010008D6
:101870006162636465666768696A6B6C6D6F7071DD
:1018800072737475767778797A214023245E262ADC
:1018900028292D3D00000000414243444546474869
:1018A000494A4B4C4D4F5051525354555657585925
:1018B0005A5B5D7B7D7C3F2F3C3E2C2E000100005F
:0818C000100000000024F400F8
:040000050800178553
:00000001FF
