:020000040800F2
:10000000000002209901000883140008DB19000891
:100010008314000883140008831400080000000003
:100020000000000000000000000000008314000831
:1000300083140008000000008314000883140008E3
:100040008314000883140008831400088314000834
:100050008314000883140008831400088314000824
:100060008314000883140008831400088314000814
:100070008314000883140008831400088314000804
:100080008314000883140008831400080000000093
:1000900000000000000000000000000083140008C1
:1000A00083140008831400088314000883140008D4
:1000B00083140008831400088314000883140008C4
:1000C00083140008831400088314000883140008B4
:1000D0008314000883140008831400080000000043
:1000E0008314000883140008831400080000000033
:1000F0000000000000000000000000008314000861
:100100000000000083140008831400088314000812
:1001100000000000000000000000000000000000DF
:100120008314000883140008831400088314000853
:100130008314000800000000000000000000000020
:100140000000000000000000000000008314000810
:100150008314000883140008831400088314000823
:100160008314000883140008000000000000000051
:10017000000000000000000000000000000000007F
:1001800000000000831400080000000000000000D0
:08019000831400088314000829
:1001980080B56F4601F072F940F2040040F20001A8
:1001A800C2F20000C2F20001814213D240F2000103
:1001B8000022C2F2000141F8042B81423FBF41F8FE
:1001C800042B814241F8042B814203D241F8042BCD
:1001D8008142F0D340F2000140F20000C2F2000177
:1001E800C2F2000088420ED2021D8A4238BF0A4677
:1001F800C143114421F003010A1D41F6A071C0F664
:10020800000101F064FB4EF68850CEF20000016850
:1002180041F47001016001F02BF9FEDE80B56F46F4
:1002280000F001F8FEDE80B56F46B0B001F01CF9B1
:10023800044601F00CF901F01AF940F2000004F04C
:100248000101C2F200000578002D04BF01220270EE
:10025800002908BF01F0FDF801F006F9044601F095
:10026800F6F801F004F940F2010004F00101C2F2CD
:1002780000000678002E04BF01220270002908BF82
:1002880001F0E7F856EA050000D0FEE701F089F82A
:1002980040F200094FF00108C4F202096D46D9F88E
:1002A8000C0020F44060C9F80C00D9F8040020F0D4
:1002B8002000C9F80400D9F8000068F38B20C9F8B9
:1002C8000000284601F063F828460DF1600A5CC872
:1002D80051465CC190E85C0005F128005CC10AF158
:1002E800280190E87C0030207CC100F026F800F05E
:1002F80025F80FADCDE920805146284600F024F8B6
:100308004ECD50464EC095E85E0027AD5EC02846EB
:10031800514601F04EF820244FF4001628464FF4B9
:100328007A71C9F8184001F057F828464FF47A71E5
:10033800C9F8186001F050F8F0E7704744F240211E
:10034800C0F20F0148437047F0B503AF4DF804BD44
:1003580090B00DF1040CB1E874406346A3E8744012
:10036800B1E87440A3E8744091E87440614683E8BA
:100378007440002200F004F810B05DF804BBF0BD32
:10038800F0B503AF2DE9000F9FB00F928846D1E971
:1003980000240DF1300C096A002AD8F8243004BF73
:1003A80042F20044C0F2F404002908BF2346214663
:1003B800A3428CE819000ED1D8F83060D8F82890FC
:1003C800012E08BFB9F1010F14D00020D8F82CA0D5
:1003D800D8F834401DE0D8F83060D8F828A0012EAD
:1003E80008BFBAF1010F35D00020D8F82C90D8F802
:1003F80034B03EE0D8F82CA04FF00109D8F83440CA
:10040800A4EB0A00B4EB0A06B0FA80F018BF012684
:100418004009109098F8390000238B46CDE9001068
:1004280011A800F0DAFC1AA859463246234600F013
:100438004FFEDDF840C09DF86400DDE91C23BCF1E7
:10044800000FDDE913459DF878600B901CBF4A4604
:10045800534641E0D8F82C904FF0010AD8F834B050
:10046800ABEB0900BBEB0906B0FA80F018BF012618
:100478004009109098F839000C46CDE9003011A8D1
:10048800012300F0AAFC1AA8214632465B4600F078
:100498001FFE1198002800F01882DDE912B44AF610
:1004A80001319DF86400C0F28741DDF840C00B902F
:1004B800ABF1B770149DBCF1000F9DF87860A0F502
:1004C8005850DDE91C231CBF4B465246884203D3D3
:1004D8000F98002800F00582D8E90210002908BF0B
:1004E8005846002800F0B281ABF101090A9200EBEE
:1004F8000901CDE90863B1FBF0F001280BD002280F
:100508000CD0002800F0F981C11E03294AD24FF00F
:10051800900E042005E04FF0000E02E04FF0800E30
:1005280002204FF28002D8E90413BBFBF0FAC0F2B4
:10053800FA229245104638BF5046002918BF18467F
:10054800002800F08C81AAF10101CDF840C04318C1
:10055800B3FBF0F005AB012883E8300810D002287F
:1005680017D0002800F0D281C31E032B22D24FF4EB
:10057800A05C0426BAFBF6F5501C854229D22CE073
:100588004FF0000C0126BAFBF6F5501C854220D22C
:1005980023E04FF4805C0226BAFBF6F5501C854236
:1005A80017D21AE0811F052900F22B814FF0A00E07
:1005B8000820B6E706384FF4E05C1026062838BF56
:1005C8004FF4C05C38BF0826BAFBF6F5501C8542CC
:1005D80003D30F98002800F063814EF20010D8E989
:1005E8000634C0F2F5508245024638BF5246002B09
:1005F80018BF2246002A00F03B811144CDE903567A
:10060800B1FBF2F1012912D002291AD0002900F019
:1006180086810E9CCA1E032A1ED24FF0040B4FF48B
:100628002041BAFBFBF50130854226D229E00E9C19
:100638004FF0010B0021BAFBFBF5013085421CD2BB
:100648001FE00E9C4FF0020B4FF40041BAFBFBF584
:100658000130854211D214E08A1F4FF460414FF0F7
:10066800100B062A38BF4FF4404138BF4FF0080B33
:10067800BAFBFBF50130854203D30F98002800F040
:10068800188145F2C7424FEAD910C0F21E1243F64C
:100698000009A0FB0202C4F20209D9F80004C0084C
:1006A800920A60F3DF0242F4E060C9F80004D8F867
:1006B800000001281CD1D9F8000098F83820002A39
:1006C80018BF40F4802040F48030C9F80000D9F801
:1006D800000080035FBFD9F800005FEA8030D9F8D6
:1006E80000005FEA803003D4D9F800008003EED51B
:1006F8000B98B0B1D9F8000040F08070C9F800003C
:10070800D9F8000080015FBFD9F800005FEA8010C7
:10071800D9F800005FEA801003D4D9F800008001FE
:10072800EED50898B0B1D9F8000040F08060C9F85B
:100738000000D9F8000000015FBFD9F800005FEAA7
:100748000010D9F800005FEA001003D4D9F80000BF
:100758000001EED5D9F80800109A20F4000062F3E1
:10076800D750C9F808004CEA0E00D9F80820084309
:100778004FF6F04122EA01010843C9F808001020A9
:1007880000F069FED8F800000222D9F808100138F4
:100798000D9BB0FA80F0A34208BF420921F0030084
:1007A8001044C9F808000C9E0A9B049886F821B0EA
:1007B800002B86F8200018BF01230399C6E901150C
:1007C800079998F83900F160059A0699C6E9051362
:1007D800099BC6F800A03261F36170B1002A53D0BA
:1007E80046F60040C0F2DC20401A4DF2C14148BF35
:1007F8004042C0F20101884246DA1FB0BDE8000F4E
:10080800F0BDA0F10C011C2903D24FF0B00E10204E
:1008180087E6A0F12801382903D24FF0C00E402006
:100828007FE6A0F16001602903D24FF0D00E80204E
:1008380077E6C0384FF0F00EC0284FF4007038BF8C
:100848004FF0E00E38BF4FF480706AE641F6802022
:1008580041F61C32C0F60000C0F6000210E041F676
:10086800802041F62C32C0F60000C0F6000207E0F6
:1008780041F6802041F68032C0F60000C0F6000242
:10088800192100F024FEFEDE41F6D43041F6004284
:10089800C0F60000C0F600022C2100F018FEFEDEB3
:1008A80041F63C3041F67032C0F60000C0F6000256
:1008B80007E041F6903041F6C432C0F60000C0F6B9
:1008C8000002312100F003FEFEDE41F6F01041F691
:1008D8009C22C0F60000C0F600022B2100F0F7FDB4
:1008E800FEDE41F6AC2041F60C32C0F60000C0F640
:1008F80000025D2100F0EBFDFEDE41F6104041F6FE
:100908005842C0F60000C0F6000210E041F6104060
:1009180041F64842C0F60000C0F6000207E041F682
:10092800104041F63842C0F60000C0F60002282107
:1009380000F0CDFDFEDEF0B503AF2DE90007D0E9EC
:10094800003E734535D8067A9EBBD0E903C8734587
:100958001AD2D8F800A003F10109DCF80060CE45EE
:1009680088BFF14653B39E4231D3B6FBF3F4581C0B
:10097800BAFBF4F505FB14A48C423CBF1A46214689
:1009880086450346EED14B46734512D1BEF1000FA2
:1009980014D0DCF80030734519D3D8F80000B3FB45
:1009A800FEF3B0FBF3F606FB130088423CBF724629
:1009B800014608461146BDE80007F0BD41F6D040A3
:1009C80041F6B842C0F60000C0F6000207E041F662
:1009D800D04041F64852C0F60000C0F60002192186
:1009E80000F075FDFEDEF0B503AF2DE9000F97B0FE
:1009F800136802F1040E0393D1E900A3D2F81CB0E6
:100A08009A4541D80A7A002A3ED101900DF1100981
:100A18000293D1E903684B469EE8371083E8371004
:100A2800029A924539D2D8F800303168DDF80C8046
:100A380010AC5246CDF80CB08B462046994600F0D3
:100A4800DDFBDDF858C00DF1100E0AAA0AF1010A03
:100A5800E04588BFA6469EE87B000DF1100E7BC2DC
:100A68000AA991E87D0059468EE87D004B46029A16
:100A7800DDF80CB084BFE346E0465245D8D1CDF846
:100A88000C800DF110090CE09EE87E000DF1400C81
:100A98008CE87E00DDF80C8026E01ED1D8F8003006
:100AA80031680DF1400A504600F0A8FBDDF858C047
:100AB8000DF1280EDDF80C807246E04598BFCA4655
:100AC8009AE87B007BC248469EE87E007EC088BFCD
:100AD800E346E04588BFE04601E0DDF80C8099E890
:100AE8007E0010A87EC0019810A9C0F8008000F10F
:100AF800040C91E87C408CE87C40C0F81CB017B02E
:100B0800BDE8000FF0BDF0B503AF2DE9000F87B0C9
:100B1800D1E90065D2E900CBD2E90298AE42D2F819
:100B280010E068D80A7A002A65D1D1E90332AE42CA
:100B38003CD21168002974D0CDE9058E0DF1080E5C
:100B48008EE80C024EF6003941F6007A1A684B0816
:100B5800C1F2C939CFF60A2A06FB0238731C9D4236
:100B680088BF2B46019303E001369044B54217D065
:100B7800B8FBF1F303FB01A44C45F5D8002E44D093
:100B880003FB01F4B4FBF6FEBEEB020448BF64426B
:100B9800A44581BF0694CDE9046E9B46A446E3E7CD
:100BA800DDE9058EDDE90339DDE90162AE4222D1D6
:100BB8001268B2B31E6841F60073CFF60A234EF6E8
:100BC8000034C1F2C93406FB05F101EB5201B1FB57
:100BD800F2F101FB0233A3420DD8B5B14A43B2FB8F
:100BE800F5F39A1B48BF5242944504D99646984655
:100BF800A9468B469446C0E900CBC0E90298C0F8E4
:100C080010E007B0BDE8000FF0BD41F6D04041F656
:100C18008852C0F60000C0F60002192100F057FC07
:100C2800FEDE41F6D04041F67852C0F60000C0F62C
:100C38000002192100F04BFCFEDEF0B503AF2DE9F0
:100C4800000F87B0D1E90065D2E9003C9268AE4256
:100C5800069500F297800D7A002D40F09380D1E937
:100C6800034549690591069904958E424FD2D4F8F7
:100C780000E0BEF1000F00F0A48046F6004BCDE97D
:100C88000240C0F2DC2B069806FB0BF1741CA04254
:100C980088BF04460194002E7BD005980068002880
:100CA80000F08380B1FBFEF4594404FB0EF4B4FB5E
:100CB800F6F5B4FBF0F0ABEB0508049DB3EB0809BF
:100CC8002D6818BF4FF00109434538BF4FF0FF3971
:100CD800B5EB000A06F1010048BFCAF1000ABCEBF7
:100CE8000A0418BF0124D445B8BF4FF0FF34B9F146
:100CF800000F18BF4C46012C02BF3246D44643466B
:100D0800069C06468442C6D10398DDE9016406992B
:100D18008E4237D12168002953D0069ECEB3059E56
:100D28003568002D41D0069C46F6004EC0F2DC2EF8
:100D380004FB0EF6B6FBF1F64E43B6FBF4F1049C49
:100D4800AEEB0101B6FBF5F6D4F800E05C1A18BF6B
:100D580001248B4238BF4FF0FF34BEEB060548BF75
:100D68006D42BCEB050618BF0126AC45B8BF4FF075
:100D7800FF36002C18BF2646012E069E02BF3246BB
:100D8800AC460B46C0E9003C826007B0BDE8000FE6
:100D9800F0BD41F6D04041F6B842C0F60000C0F6BA
:100DA8000002192100F093FBFEDE41F6D04041F627
:100DB8006852C0F60000C0F60002192100F087FB57
:100DC800FEDE41F6D04041F65852C0F60000C0F6AB
:100DD8000002192100F07BFBFEDEF0B503AF2DE920
:100DE800000F93B0D7E90264002B019108BF0E46AB
:100DF8008146012B02961AD0CCB943F2100043F673
:100E08000401C2F20040C4F2020162F39650086085
:100E18000020C9F81800C9F81000C9F80800C9F876
:100E2800000089F8200013B0BDE8000FF0BD002EC7
:100E380000F0E2804CF6004048F27F4CC1F6BF104B
:100E4800C0F21E0CB0FBF6F001EB0C0E20F0010B0B
:100E58004DF683600092BBF1080F28BF4FF0080BD6
:100E6800C4F21B300BFB06F8002CAEFB0025A1FBDF
:100E7800000340461CBF46F60040C0F2DC20CDE926
:100E880003B0EA0CB2EB934F00F20A814FEA934A9F
:100E98000023524515460CF101042CBF01230135EE
:100EA800A645C0F0B2808A4200F2B880B1FBF2F1E8
:100EB8008DF83030B0FBF1F4CDE90A5A04FB11018A
:100EC80004A80E9001A80D900AA8FFF734FD002988
:100ED80000F0AD808A46019944F24023B1FBFAF054
:100EE800C0F20F03A0F574220590A2F510729A4281
:100EF80000F2E280FC6846F60045C0F2DC259CB3AF
:100F0800BBF1000F00F0AE804BF2000110AAC0F652
:100F18007131B1FBF0F1484303A90F9102A90E9179
:100F280005A90D9100218DF8301009210B9105219B
:100F38000A9104211291B0FBFBF1711AA5EB900004
:100F480048BF4942109006A8119104300AA9FFF73A
:100F580074FE0598002800F097800999DDF80CB018
:100F68006943B1FBF0F104E08A4500F28480B8FBE4
:100F7800F0F101FB0052531E49F68172C1F25E6224
:100F8800AB42A3FB02625BD3009D4FF0005647F6CD
:100F9800C073920D002D18BF4FF001560AF03F059F
:100FA80003EA81132E44BBF1000F33444FF440365B
:100FB80006EBCB3606F44036334402F00F0643EA1C
:100FC800066343F60406C4F20206336041D0484380
:100FD80001230021B0FBF2F2B0FBFBF0C9E90030BD
:100FE800C9E90242C9E9043AC9F8181089F8203059
:100FF80013B0BDE8000FF0BD41F6306041F6206245
:10100800C0F60000C0F6000246E041F6D04041F6C6
:10101800B842C0F60000C0F600023DE041F6D040FC
:1010280041F64852C0F60000C0F6000234E041F62E
:10103800306041F65C62C0F60000C0F600022BE0AA
:1010480041F6306041F6D862C0F60000C0F60002F2
:1010580022E041F6306041F6E862C0F60000C0F6D2
:10106800000219E041F6D04041F66852C0F600008F
:10107800C0F6000210E041F6306041F6C862C0F6E2
:101088000000C0F6000207E041F6306041F6B862A1
:10109800C0F60000C0F60002192100F018FAFEDEC2
:1010A80041F6985041F64C62C0F60000C0F60002C6
:1010B8002B2100F00CFAFEDE41F66C6041F6A862C6
:1010C800C0F60000C0F600023C2100F000FAFEDE87
:1010D800F0B503AF2DE9000F9DB00446012A019138
:1010E80049D14DF683600293C4F21B30A1FB002561
:1010F80048F27F42C0F21E020A44A2FB00024FEAF5
:10110800D24BBBEB954F0AD80DF154085A464046CE
:1011180000F074F8DDF85490B9F1020F33D10020D3
:10112800CDE90300CDE90500CDE90700CDE90900C7
:101138000220022856D005AE04F1040C099D4ECEBB
:101148008CE84E0043F68401C4F2020148F2000321
:101158000A68C8F6FF7305F0E0661A40C5F3054350
:1011680065F38E1343EA06131A440A6020601DB023
:10117800BDE8000FF0BD0020A060206020741DB005
:10118800BDE8000FF0BD08F1040A4FEA954C0DF1D7
:101198002C0EE3459AE86700734667C302A91491C9
:1011A80001A913914FF00001DDF86CA028BF0121BF
:1011B8008DF8481008F10801CDF844C038BF0BF18C
:1011C800010BCDF840B0CDE915A99EE86D006DC1C1
:1011D80003A810A94246CDF870A0FFF704FC0498B4
:1011E8000228A8D141F6F86041F62072C0F6000046
:1011F800C0F60002272100F04CF9FEDEF0B503AF7F
:101208002DE9000B92B0002A009300F0A8809146C7
:10121800B1FBF2F28945019200F2988041F6007C18
:101228000446550805EB4300B0FBF2F0CFF60A2C54
:1012380000FB02C64EF6003EC1F2C93E76453ED9D5
:1012480003EB430808EB0500B0FBF2F000FB02C615
:10125800764539D905EB8300B0FBF2F000FB02C6F6
:10126800764536D903EB83002844B0FBF2F000FB47
:1012780002C6764532D905EB4800B0FBF2F000FB18
:1012880002C676452FD9894560D8C3EBC3002844E8
:10129800B0FBF2F000FB02C171456CD800FB02F113
:1012A80044F62512C2F2924201254FF0070CA1FB29
:1012B8000226891B06EB51018A0807211AE04243DE
:1012C80002214FF0030C12E0424303214FF0040CBB
:1012D8000DE0424304214FF0050C08E0424305218C
:1012E8004FF0060C03E0424306214FF0070CB2FB17
:1012F800F1F2002501AE0C966E46D31A0B964FF00C
:101308000706CDE908C60DF13C0C8DF8285048BFFA
:101318005B42CDE90D3002A88CE80E00043008A924
:101328000DAAFFF7F0FB04AB84F816900FCBE1751C
:101338005FFA89F1A0820120A3612074C4E9000149
:10134800C4E9020212B0BDE8000BF0BD41F63060FE
:1013580041F67872C0F60000C0F6000207E041F6D8
:10136800306041F66872C0F60000C0F6000219212C
:1013780000F0ADF8FEDE41F6307041F65872C0F666
:101388000000C0F60002252100F083F8FEDE0021EF
:10139800018701638162016281610161816001608D
:1013A800704740F200600121C4F24720016000F05C
:1013B80058B8D0B502AF4EF21002CEF20002136850
:1013C80023F004031360B1E80C50A0E80C5091E836
:1013D8001C5080E81C50D0BD80B56F4600684DF6A3
:1013E8008362C4F21B32A0FB0202500D48434FF443
:1013F8007A714843002808BF80BD4EF210016FF093
:101408007F4CCEF200014FF0000E05E00B68801A09
:1014180023F001030B6019D06FF07F42604538BF9D
:1014280002464A60C1F808E00B6843F001030B600C
:101438000B68DB035FBF0B685FEAC3330B685FEAC7
:10144800C333E3D40B68DB03F2D5DFE780BD72B6A4
:10145800704762B67047012101EB50000138FDD199
:101468007047BFF34F8F7047EFF310807047704796
:1014780080B56F46FEF7D2FEFEDEFEE77047704786
:1014880045F2F37048F61711C5F6A610C6F6BC016A
:10149800704780B56F468AB0CDE9000108A90120E0
:1014A800069100210790CDE9030141F68870C0F646
:1014B80000000591029041F6C500C0F600001146F3
:1014C80009906846089002A800F019F8FEDE80B579
:1014D8006F4688B0944641F68872C0F60002002331
:1014E800CDE906016846049201226146019206AAE6
:1014F8000593CDE90233009200F001F8FEDE80B5D5
:101508006F4684B0CDE9020141F69070C0F6000044
:10151800019041F68870C0F600000090684600F01F
:10152800D3F9FEDEF0B503AF2DE9000F83B00C460A
:10153800D0F808E001699146BEF1010F13D10129E5
:1015480014D0B9F1000F00F02F81A9F1010E09F0B4
:10155800030CBEF1030F7BD200262246BCF1000F1C
:1015680040F09E80B4E0012940F03481466904EBE4
:10157800090B00220294002E4BD001905C4560D0EC
:101588002546234615F9011BB1F1FF3F06DD2C4620
:10159800D11A013E01EB0402F0D13BE05D4507D0D2
:1015A8005C789D1C04F03F0AC9B2E029EFD305E03E
:1015B8004FF0000A5D46C9B2E029E8D35D4506D080
:1015C80015F8014B04F03F0CF029E0D304E04FF08C
:1015D800000C5D46F029DAD37046CE465D4505D04D
:1015E80015F8014B04F03F082C4602E04FF00008C4
:1015F8005C464FF4E01909EA814141EA0A31F146B3
:1016080041EA8C11864601984144B1F5881FBFD143
:1016180017E025465D4514D02946029C11F9013B87
:10162800B3F1FF3F61DD002A00F0B0804A4580F049
:10163800AA80A15611F1400F80F2A8800021002253
:10164800A5E04A46029CBEF1010F40F02C81A6E0BD
:1016580029F0030200265542A246224612F8044BFE
:1016680012F8031C04F0C00412F8023C802C12F893
:10167800018C01F0C00118BF0136802903F0C001B8
:1016880018BF0136802908F0C00118BF013680292B
:1016980018BF01360435E1D15446BCF1000F17D00C
:1016A800117801F0C001802918BF0136BCF1010F83
:1016B8000ED0517801F0C001802918BF0136BCF165
:1016C800020F05D0917801F0C001802918BF0136BA
:1016D800D0F80C8046457DD2BEF1030F12D200230C
:1016E8002646BCF1000F35D164E0DBB2594500F065
:1016F800A7806978AE1C01F03F010903E02B80F058
:10170800A48090E729F0030100234D42A246264613
:1017180016F8041B16F8034C01F0C00116F8022C49
:10172800802916F801EC04F0C00118BF01338029A4
:1017380002F0C00118BF013380290EF0C00118BFA4
:101748000133802918BF01330435E1D15446BCF177
:10175800000F2FD0317801F0C001802918BF013364
:10176800BCF1010F26D0717801F0C001802918BFA3
:101778000133BCF1020F1DD0B17801F0C0018029FE
:1017880018BF013316E04A457FF458AF21460029B7
:101798000CBF4A460C46BEF1010F40F084809146CA
:1017A800B9F1000F7FF4D1AED0F80C80B8F1000F7A
:1017B80010D0002390F82020D11E18BF11468A07A8
:1017C800A8EB0302029409D001290AD14FF0000BBB
:1017D80011460AE081694A46C06966E000219346DD
:1017E80003E0510801324FEA520B46684C1CD0E91D
:1017F8000685013C06D02A694046314690470028B4
:10180800F7D00CE0B6F5881A18BFDA46B6F5881F87
:1018180005D0EB68404602994A46984720B1012016
:1018280003B0BDE8000FF0BD0024A24518D02A6916
:1018380040463146904701340028F6D0611E10E03A
:1018480000215E46E02BFFF4EEAE5E4511D016F89F
:10185800015B05F03F05AD01F02BFFF4E4AE0DE0B0
:1018680051460020514538BF012003B0BDE8000FA4
:10187800F0BD00255E46F02BFFF4D5AE03F007035C
:101888005E451ABF367806F03F06002641EA8341D6
:1018980029433143B1F5881F7FF4C5AE4A46BEF1EE
:1018A800010F3FF47CAFD0E90610C3680846214613
:1018B80003B0BDE8000FBDE8F04018470B46D0E97B
:1018C80000121846FFF72EBEFEE700F043B8B0B589
:1018D80002AF042A31D3A2F1040C012303EB9C03C9
:1018E80013F0030E17D00B46044653F8045BBEF101
:1018F800010F44F8045B06D1624620461946BCF144
:101908000C0F0BD219E04B68BEF1020F436018D1DF
:10191800083A08310830BCF10C0F0ED30B68103AA6
:101928000360032A4B6843608B688360CB6801F1CE
:101938001001C36000F11000F0D8BDE8B040FFF717
:10194800C4BF8B680C3A83600C310C30BCF10C0FAF
:10195800E4D2F2E7F0B503AF4DF8048D42B1531E5F
:1019680002F0030C032B06D20022BCF1000F1FD19A
:101978005DF8048BF0BD22F0030200F1010E544221
:1019880001F101086FF0030208EB02050EEB0203F8
:101998000432EE78DE702E791E716E795E71AD7943
:1019A8009D71A3180433EFD10432BCF1000FDFD0CE
:1019B8008B5CBCF1010F8354DAD0531CBCF1020FCD
:1019C800CE5CC654D4D00232895C81545DF8048B55
:1019D800F0BD70460421084202D1EFF3088002E00E
:0819E800EFF30980FFE7FEE7C1
:1019F00063616C6C656420604F7074696F6E3A3A15
:101A0000756E77726170282960206F6E206120608A
:101A10004E6F6E65602076616C75652F686F6D65C1
:101A20002F6D6F652F2E636172676F2F7265676907
:101A3000737472792F7372632F6769746875622E7D
:101A4000636F6D2D31656363363239396462396590
:101A5000633832332F73746D3332663478782D687F
:101A6000616C2D302E392E302F7372632F726363A9
:101A70002F6D6F642E7273000000000000000000E4
:101A8000617474656D707420746F20646976696424
:101A900065206279207A65726F0000001B1A0008C9
:101AA0005C000000200300001C00000061737365EF
:101AB0007274696F6E206661696C65643A20756E38
:101AC000636865636B6564207C7C20217379736334
:101AD0006C6B5F6F6E5F706C6C207C7C20737973B5
:101AE000636C6B203C3D20535953434C4B5F4D413D
:101AF0005820262620737973636C6B203E3D20535B
:101B00005953434C4B5F4D494E0000001B1A0008CF
:101B10005C00000025030000090000001B1A0008FB
:101B20005C000000280300002B0000001B1A0008C6
:101B30005C0000003B030000290000006173736536
:101B40007274696F6E206661696C65643A20756EA7
:101B5000636865636B6564207C7C2070636C6B31AB
:101B6000203C3D2050434C4B315F4D41580000001C
:101B70001B1A00085C000000470300000900000079
:101B80001B1A00085C0000004C0300002900000044
:101B9000617373657274696F6E206661696C6564E8
:101BA0003A20756E636865636B6564207C7C207089
:101BB000636C6B32203C3D2050434C4B325F4D41B7
:101BC000580000001B1A00085C00000058030000C9
:101BD00009000000617373657274696F6E2066613D
:101BE000696C65643A20636C6F636B732E69735F15
:101BF000706C6C3438636C6B5F76616C6964282937
:101C00001B1A00085C000000050400000D00000025
:101C1000696E7465726E616C206572726F723A20C3
:101C2000656E746572656420756E72656163686166
:101C3000626C6520636F64651B1A00085C0000001D
:101C40004D030000120000001B1A00085C00000099
:101C50003C030000120000001B1A00085C0000009A
:101C600029030000120000002F72757374632F6344
:101C700038646663666530343661373638303535FA
:101C8000346266346562363132626164383430659C
:101C9000373633316334622F6C6962726172792F27
:101CA000636F72652F7372632F6F70732F61726928
:101CB00074682E7273000000681C00084D0000005C
:101CC000DE01000001000000000000000000000034
:101CD000617474656D707420746F206469766964D2
:101CE00065206279207A65726F2F686F6D652F6D40
:101CF0006F652F2E636172676F2F726567697374EA
:101D000072792F7372632F6769746875622E636FBF
:101D10006D2D3165636336323939646239656338F4
:101D200032332F73746D3332663478782D68616C7A
:101D30002D302E392E302F7372632F7263632F7004
:101D40006C6C2E7273000000E91C00085C0000003F
:101D5000370000001C000000E91C00085C000000C7
:101D60004600000020000000E91C00085C000000A4
:101D70004800000038000000E91C00085C0000007A
:101D8000EE01000019000000E91C00085C000000E2
:101D9000F30100001E00000063616C6C656420604C
:101DA0004F7074696F6E3A3A756E77726170282958
:101DB00060206F6E206120604E6F6E6560207661DE
:101DC0006C75652F686F6D652F6D6F652F2E636164
:101DD00072676F2F72656769737472792F7372639C
:101DE0002F6769746875622E636F6D2D316563634B
:101DF0003632393964623965633832332F73746D22
:101E00003332663478782D68616C2D302E392E305F
:101E10002F7372632F7263632F706C6C2E7273005A
:101E2000C31D00085C0000002A0000002C00000018
:101E3000617474656D707420746F20646976696470
:101E400065206279207A65726F000000C31D00086A
:101E50005C0000003A0000000E000000C31D0008F6
:101E60005C0000003C000000160000006173736518
:101E70007274696F6E206661696C65643A2076637E
:101E80006F5F696E203E3D20315F3030305F303013
:101E9000302026262076636F5F696E203C3D20321D
:101EA0005F3030305F303030C31D00085C00000010
:101EB0003D00000009000000C31D00085C00000098
:101EC0004C0000000D000000C31D00085C00000075
:101ED0004E0000000D000000C31D00085C00000063
:101EE000530000001D000000C31D00085C0000003E
:101EF0005D0000001E0000006E6F20737569746144
:101F0000626C652049325320504C4C20636F6E66E2
:101F1000696775726174696F6E20666F756E6400B3
:101F2000C31D00085C000000010100000E0000005D
:101F3000646964206E6F742066696E6420616E79D6
:101F40002076616C69642049325320504C4C2063E8
:101F50006F6E666967000000C31D00085C0000002A
:101F60002701000012000000C31D00085C000000F3
:101F7000E701000016000000C31D00085C0000001F
:101F8000EE01000019000000881F0008000000009A
:101F900087140008000000000100000089140008F8
:040000050800019955
:00000001FF
