:020000040800F2
:10000000000002208D180008AB0A0008AD0A0008A5
:10001000AF0A0008B10A0008B30A00080000000097
:10002000000000000000000000000000B50A000809
:10003000B70A000800000000B90A0008BB0A00085F
:10004000DD180008DD180008DD180008DD180008BC
:10005000DD180008DD180008DD180008DD180008AC
:10006000DD180008DD180008DD180008DD1800089C
:10007000DD180008DD180008DD180008DD1800088C
:10008000DD180008DD180008DD1800080000000079
:10009000000000000000000000000000DD18000863
:1000A000DD180008DD180008DD180008DD1800085C
:1000B000DD180008DD180008DD180008DD1800084C
:1000C000DD180008DD180008DD180008DD1800083C
:1000D000DD180008DD180008DD1800080000000029
:1000E000DD180008DD180008DD1800080000000019
:1000F000000000000000000000000000DD18000803
:1001000000000000DD180008DD180008DD180008F8
:1001100000000000000000000000000000000000DF
:10012000DD180008DD180008DD180008DD180008DB
:10013000DD180008000000000000000000000000C2
:10014000000000000000000000000000DD180008B2
:10015000DD180008DD180008DD180008DD180008AB
:10016000DD180008DD180008000000000000000095
:10017000000000000000000000000000000000007F
:1001800000000000DD180008000000000000000072
:08019000DD180008DD1800086D
:1001A00010B5054C237833B9044B13B10448AFF3B1
:1001B00000800123237010BDB0000020000000006B
:1001C000C436000808B5034B1BB103490348AFF31D
:1001D000008008BD00000000B4000020C436000804
:1001E000034613F8012B002AFBD1181A0138704777
:1001F00001F0FF01102A2BDB10F0070F08D010F8D8
:10020000013B013A8B422DD010F0070F42B3F6D1DB
:10021000F0B441EA012141EA014122F007047FF0F4
:1002200000070023F0E80256083C85EA010586EA4B
:10023000010685FA47F5A3FA87F586FA47F6A5FA87
:1002400087F68EB9EED1F0BC01F0FF0102F0070293
:1002500032B110F8013B013A83EA010313B1F8D13E
:100260000020704701387047002D06BF354603381F
:10027000073815F0010F07D1013015F4807F02BF58
:10028000013015F4C03F0130F0BC0138704700BFA9
:1002900053B94AB9002908BF00281CBF4FF0FF31ED
:1002A0004FF0FF3000F074B9ADF1080C6DE904CEE9
:1002B00000F006F8DDF804E0DDE9022304B0704741
:1002C0002DE9F047089D04468E46002B4DD18A4209
:1002D000944669D9B2FA82F252B101FA02F3C2F13C
:1002E000200120FA01F10CFA02FC41EA030E9440CD
:1002F0004FEA1C48210CBEFBF8F61FFA8CF708FBEE
:1003000016E341EA034306FB07F199420AD91CEBC5
:10031000030306F1FF3080F01F81994240F21C81F7
:10032000023E63445B1AA4B2B3FBF8F008FB10333F
:1003300044EA034400FB07F7A7420AD91CEB040474
:1003400000F1FF3380F00A81A74240F20781644444
:10035000023840EA0640E41B00261DB1D4400023C9
:10036000C5E900433146BDE8F0878B4209D9002D2D
:1003700000F0EF800026C5E9000130463146BDE8B7
:10038000F087B3FA83F6002E4AD18B4202D3824221
:1003900000F2F980841A61EB030301209E46002DD0
:1003A000E0D0C5E9004EDDE702B9FFDEB2FA82F225
:1003B000002A40F09280A1EB0C014FEA1C471FFA83
:1003C0008CFE0126200CB1FBF7F307FB131140EA6A
:1003D00001410EFB03F0884208D91CEB010103F137
:1003E000FF3802D2884200F2CB804346091AA4B2F9
:1003F000B1FBF7F007FB101144EA01440EFB00FECD
:10040000A64508D91CEB040400F1FF3102D2A64531
:1004100000F2BB800846A4EB0E0440EA03409CE7D0
:10042000C6F12007B34022FA07FC4CEA030C20FA7D
:1004300007F401FA06F31C43F9404FEA1C4900FA9D
:1004400006F3B1FBF9F8200C1FFA8CFE09FB18111A
:1004500040EA014108FB0EF0884202FA06F20BD98D
:100460001CEB010108F1FF3A80F08880884240F2DD
:100470008580A8F102086144091AA4B2B1FBF9F021
:1004800009FB101144EA014100FB0EFE8E4508D91C
:100490001CEB010100F1FF346CD28E456AD90238A1
:1004A000614440EA0840A0FB0294A1EB0E01A14286
:1004B000C846A64656D353D05DB1B3EB080261EBF4
:1004C0000E0101FA07F722FA06F3F1401F43C5E9CE
:1004D000007100263146BDE8F087C2F12003D84004
:1004E0000CFA02FC21FA03F3914001434FEA1C4746
:1004F0001FFA8CFEB3FBF7F007FB10360B0C43EA38
:10050000064300FB0EF69E4204FA02F408D91CEBE7
:10051000030300F1FF382FD29E422DD902386344E5
:100520009B1B89B2B3FBF7F607FB163341EA034185
:1005300006FB0EF38B4208D91CEB010106F1FF38D4
:1005400016D28B4214D9023E6144C91A46EA0046CB
:1005500038E72E46284605E70646E3E61846F8E65D
:100560004B45A9D2B9EB020864EB0C0E0138A3E7A6
:100570004646EAE7204694E74046D1E7D0467BE787
:10058000023B614432E7304609E76444023842E7FF
:10059000704700BF30B589B00024039404940594DB
:1005A000069407940194134B1A6B42F080021A636D
:1005B0001A6B02F080020192019A02941A6B42F0C7
:1005C00001021A631B6B03F001030293029B0A4DA5
:1005D00022462021284601F099F820230393012385
:1005E00004930594069403A9284600F0AFFF09B0D0
:1005F00030BD00BF003802400000024072B6FEE786
:1006000008B50A480A4B03604FF4E1334360002306
:100610008360C36003610C2242618361C36100F0A7
:1006200063FB00B908BDFFF7E9FF00BFCC00002065
:100630000044004000B595B03022002108A801F028
:1006400079F9002303930493059306930793019389
:10065000184A116C41F080511164126C02F0805202
:100660000192019A0293144A116841F440411160C9
:10067000126802F440420292029A02220892012277
:100680000B9210220C920E9308A800F03BFC68B964
:100690000F2303930021049105910691079103A86C
:1006A00000F07EFE20B915B05DF804FBFFF7A6FF51
:1006B000FFF7A4FF003802400070004000B5C5B04D
:1006C00001F0AEF8FFF7B6FFFFF764FFFFF798FF02
:1006D000094800F07BF904A9084801F061F904A871
:1006E000FFF77EFD01466A4604A800F043F968461C
:1006F00000F05AF9EFE700BFCC000020E836000810
:1007000000220023C0E90023074B836003F18833F4
:10071000C36003F12943A3F59613A3F68B6303612A
:10072000A3F1883343617047012345675140084076
:100730005040704748401040484070474840504043
:10074000704760EA020048407047C1F12001C8418B
:10075000704700002DE9F04F85B082468946D0F8F9
:1007600000B04668019683680293C26803921746F8
:1007700098465C46002517E03A4641463046FFF76A
:10078000D5FF2B462044264A52F82520104459F81C
:100790002330244A52F825101844FFF7D6FF0135BC
:1007A0003C464746B04606443F2D26D82B09012B30
:1007B0000DD0022B16D0002BDED03A4641463046F3
:1007C000FFF7BFFFC5EBC50303F00F03DAE73A46B7
:1007D00041463046FFF7AEFF05EB8503013303F0DA
:1007E0000F03CFE73A4641463046FFF7A7FF05EB38
:1007F0004503053303F00F03C4E75C44CAF8004027
:10080000019B1E44CAF80460029B4344CAF80830A6
:10081000039B1F44CAF80C7005B0BDE8F08F00BF01
:10082000F4360008F43700082DE9F04190B0044692
:10083000884616460268416802F03F03921941F16A
:10084000000102604160002521E08A00D31C23449E
:1008500093F818C0901C2044037E1B0443EA0C63E9
:10086000501C2044007E43EA0023A018007E03436E
:1008700010A8024442F8403C01310F29E5D96946ED
:1008800004F10800FFF766FF3A4601351346B5420A
:1008900009D25A1C18F805102344197612F03F07A4
:1008A000F3D13946E9E710B0BDE8F08130B591B039
:1008B0000446056805F03F05372D0FD8C5F138050A
:1008C0002A462B492046FFF7AFFF236862685B1B6F
:1008D00062F100022360626000211AE0C5F1780530
:1008E000EEE78A00D31C234493F818C0901C2044E0
:1008F000037E1B0443EA0C63501C2044007E43EA41
:100900000023A018007E034310A8024442F8403C94
:1009100001310D29E5D92268D3000E936368DB000D
:1009200043EA52730F93694604F10800FFF712FF80
:10093000002119E08B1C54F823208B0004EB81006C
:1009400080F85820581CC2F30725204480F85850DE
:10095000981CC2F30745204480F858500333120E08
:10096000234483F8582001310329E3D911B030BD65
:100970000000002070B59AB005460E461446684641
:10098000FFF7BEFE324629466846FFF74DFF684630
:10099000FFF78CFF0DF1580CBCE80F002060616080
:1009A000A260E3601AB070BD38B50546002404E0CB
:1009B000295D054800F0C6FF01340F2CF8D90A2044
:1009C00000F0D8FF38BD00BFEC36000808B5054B75
:1009D0001860054B1868002302221946806800F051
:1009E000F7FF08BD100100204C000020022801D8AC
:1009F0000120704708B500F073FF09230360002051
:100A000008BD000010B5013801280AD814464FF07F
:100A1000FF3392B20748006800F095F940B92046CC
:100A200010BD00F05DFF092303604FF0FF30F7E7D2
:100A30000520F5E710010020022801D800207047AA
:100A400008B500F04DFF092303604FF0FF3008BDEB
:100A500008B500F045FF092303604FF0FF3008BDE3
:100A600008B548B94FF0FF3301220848006800F08C
:100A7000D6F940B9012008BD00F032FF0923036018
:100A80004FF0FF30F7E70520F5E700BF1001002029
:100A900008B5022804D84FF400534B60002008BD6D
:100AA00000F01EFF09230360F8E7FEE7FEE7FEE71C
:100AB000FEE7FEE770477047704708B500F0CAFED2
:100AC00008BD000082B0002100910B4B5A6C42F42B
:100AD00080425A645A6C02F480420092009A01915A
:100AE0001A6C42F080521A641B6C03F0805301931D
:100AF000019B02B0704700BF0038024000B589B0CA
:100B00000023039304930593069307930268154B00
:100B10009A4202D009B05DF804FB0021019103F56F
:100B2000FA331A6C42F400321A641A6C02F400327E
:100B30000192019A02911A6B42F001021A631B6B37
:100B400003F001030293029B0C23039302230493FB
:100B5000032306930723079303A9034800F0F6FC39
:100B6000D8E700BF004400400000024038B504460A
:100B70000268136923F44053C1680B43136183680F
:100B80000269134342691343C2691A430168CB687F
:100B900023F4164323F00C031343CB60026853691C
:100BA00023F4407381690B4353610368314A9342D4
:100BB00006D002F58062934202D000F0A7FC01E06B
:100BC00000F0B4FCE369B3F5004F29D0002103180D
:100BD00049411B1841F10001C90041EA5371DB0092
:100BE000181863684FEA83024FEA937341F10001DA
:100BF000FFF74EFB204DA5FB00325109642303FB98
:100C000011031B013233A5FB03235B0903F0F00240
:100C100002EB011203F00F03216813448B6038BD0F
:100C20000023021843EB0301121841F10001C9002F
:100C300041EA5271D200101841F100016268921825
:100C40005B41FFF725FB0C4DA5FB003251096423E6
:100C500003FB1103DB003233A5FB03235B095A00BE
:100C600002F4F87202EB011203F007032168134447
:100C70008B60D4E7001001401F85EB512DE9F8434C
:100C800005460F4616469946DDF820802C682468F4
:100C900037EA04030CBF4FF0010C4FF0000CB445D1
:100CA0001FD1B8F1FF3FF1D0B8F1000F05D000F02F
:100CB000DDFDA0EB09004045E8D92A68D36823F49C
:100CC000D073D3602A68536923F001035361202352
:100CD00085F83D3085F83E30002385F83C30032010
:100CE00000E00020BDE8F88358B310B5044690F842
:100CF0003D300BB3242384F83D302268D36823F4BD
:100D00000053D3602046FFF731FF2268136923F4B4
:100D1000904313612268536923F02A0353612268C8
:100D2000D36843F40053D36000202064202384F868
:100D30003D3084F83E3010BD80F83C30FFF7DEFED9
:100D4000D8E7012070472DE9F04182B01E4690F8A7
:100D50003D30DBB2202B54D104460D46904600298D
:100D600053D0002A53D090F83C30012B51D00123AE
:100D700080F83C3000230364212380F83D3000F0EC
:100D800075FD0746A4F82480A4F82680A368B3F56F
:100D9000805F05D04FF00008002384F83C3012E05B
:100DA000236913B14FF00008F6E7A8460025F3E7E2
:100DB00038F8023B2268C3F308035360E28C92B216
:100DC000013A92B2E284E38C9BB273B100963B4647
:100DD000002280212046FFF751FFE0B9002DE7D027
:100DE00015F8012B23685A60E8E700963B4600227D
:100DF00040212046FFF742FF78B9202384F83D3098
:100E000000E0022002B0BDE8F0810120FAE70120F5
:100E1000F8E70220F6E70320F4E70320F2E72DE9E4
:100E2000F04182B01E4690F83E30DBB2202B5CD100
:100E300004460D46904600295BD0002A5BD090F80E
:100E40003C30012B59D0012380F83C30002303644F
:100E5000222280F83E20036300F008FD0746A4F834
:100E60002C80A4F82E80A368B3F5805F05D04FF0E6
:100E70000008002384F83C3017E0236913B14FF0D9
:100E80000008F6E7A8460025F3E723685B68C3F38C
:100E9000080328F8023B03E023685B682B700135E8
:100EA000E28D92B2013A92B2E285E38D9BB2BBB180
:100EB00000963B46002220212046FFF7DFFEF0B9D6
:100EC000002DE2D0A368B3F5805FE5D013B92369A4
:100ED000002BE1D023685B6803F07F032B70DEE713
:100EE000202384F83E30002000E0022002B0BDE85C
:100EF000F0810120FAE70120F8E70220F6E703205D
:100F0000F4E70000002800F0E08170B582B00446EC
:100F1000036813F0010F3BD09F4B9B6803F00C0359
:100F2000042B2CD09C4B9B6803F00C03082B21D086
:100F30006368B3F5803F4FD0B3F5A02F52D0964BE6
:100F40001A6822F480321A601A6822F480221A6029
:100F50006368002B50D000F089FC05468E4B1B685F
:100F600013F4003F14D100F081FC401B6428F5D934
:100F70000320B1E1884B5B6813F4800FD8D0864B17
:100F80001B6813F4003F03D06368002B00F09F81BF
:100F9000236813F0020F54D07F4B9B6813F00C0FA3
:100FA0003ED07D4B9B6803F00C03082B33D0E368E5
:100FB000002B68D0794B01221A6000F057FC0546DF
:100FC000754B1B6813F0020F54D100F04FFC401B0F
:100FD0000228F5D903207FE16F4A136843F4803378
:100FE0001360B5E76C4B1A6842F480221A601A68E5
:100FF00042F480321A60ABE700F038FC0546664BDD
:101000001B6813F4003FC3D000F030FC401B642881
:10101000F5D9032060E1604B5B6813F4800FC6D103
:101020005D4B1B6813F0020F03D0E368012B40F007
:101030005081594A136823F0F803216943EAC10338
:101040001360236813F0080F42D063696BB3534BEE
:101050000122C3F8802E00F009FC05464E4B5B6F61
:1010600013F0020F34D100F001FC401B0228F5D927
:10107000032031E1484A136823F0F803216943EA69
:10108000C1031360DDE7454B00221A6000F0EEFB60
:101090000546414B1B6813F0020FD2D000F0E6FB6F
:1010A000401B0228F5D9032016E13C4B0022C3F86F
:1010B000802E00F0DBFB0546374B5B6F13F0020F11
:1010C00006D000F0D3FB401B0228F5D9032003E132
:1010D000236813F0040F77D02F4B1B6C13F0805F45
:1010E00033D1002301932C4B1A6C42F080521A64C6
:1010F0001B6C03F080530193019B0125284B1B6857
:1011000013F4807F23D0A368012B34D0052B38D073
:10111000214B1A6F22F001021A671A6F22F00402A3
:101120001A67A368002B3DD000F0A0FB06461A4BBF
:101130001B6F13F0020F46D100F098FB801B41F2A9
:1011400088339842F3D90320C6E00025D6E7144A35
:10115000136843F48073136000F088FB0646104B5D
:101160001B6813F4807FCED100F080FB801B022827
:10117000F5D90320B0E0084A136F43F00103136769
:10118000CFE7054B1A6F42F004021A671A6F42F05C
:1011900001021A67C5E700BF00380240000047425D
:1011A0000070004000F062FB0646524B1B6F13F0CC
:1011B000020F08D000F05AFB801B41F2883398429E
:1011C000F3D9032088E0EDB9A369002B00F08380F8
:1011D000484A926802F00C02082A51D0022B17D01C
:1011E000454B00221A6600F041FB0446414B1B6848
:1011F00013F0007F42D000F039FB001B0228F5D924
:10120000032069E03B4A136C23F080531364DBE74F
:10121000394B00221A6600F029FB0546354B1B6846
:1012200013F0007F06D000F021FB401B0228F5D907
:10123000032051E0E369226A1343626A43EA82139E
:10124000A26A5208013A43EA0243E26A43EA0263AD
:10125000284A5360284B01221A6600F007FB044617
:10126000244B1B6813F0007F06D100F0FFFA001B2F
:101270000228F5D903202FE000202DE000202BE0EC
:10128000012B2BD01B4B5B6803F48001E269914278
:1012900026D103F03F02216A8A4223D1616A47F6D0
:1012A000C0721A40B2EB811F1ED103F44031A26A12
:1012B0005208013AB1EB024F18D103F07063E26AB1
:1012C000B3EB026F14D1002006E00120704701202B
:1012D00002E0012000E0002002B070BD0120FBE729
:1012E0000120F9E70120F7E70120F5E70120F3E706
:1012F0000120F1E7003802400000474208B5254BC5
:101300009B6803F00C03042B3FD0082B3FD1214BEB
:101310005A6802F03F025B6813F4800F12D01D4B35
:101320005968C1F388111C480023A1FB0001FEF796
:10133000AFFF184B5B68C3F3014301335B00B0FBA5
:10134000F3F025E0134B5968C1F3881C4FEA4C11A8
:10135000B1EB0C006EEB0E0E4FEA8E1343EA906376
:101360008101091A63EB0E03DB0043EA5173C900E4
:1013700011EB0C0C43F10003990200234FEA8C207F
:1013800041EA9C51FEF784FFD3E7034800E003489D
:1013900008BD00BF0038024040787D010024F40001
:1013A000002800F09B8070B50D4604464F4B1B682B
:1013B00003F007038B4208D2CBB24C4A1370136878
:1013C00003F007038B4240F08B80236813F0020F79
:1013D00017D013F0040F04D0454A936843F4E05348
:1013E0009360236813F0080F04D0414A936843F4D4
:1013F000604393603E4A936823F0F003A1680B4377
:101400009360236813F0010F32D06368012B21D061
:101410009A1E012A25D9364A126812F0020F61D0AD
:1014200033498A6822F0030213438B6000F01EFAEE
:1014300006462F4B9B6803F00C036268B3EB820FE8
:1014400016D000F013FA801B41F288339842F0D98D
:10145000032042E0264A126812F4003FE0D1012046
:101460003BE0234A126812F0007FD9D1012034E01A
:101470001E4B1B6803F00703AB4207D9EAB21B4BB4
:101480001A701B6803F00703AB422DD1236813F0D9
:10149000040F06D0164A936823F4E053E1680B4327
:1014A0009360236813F0080F07D0114A936823F460
:1014B0006043216943EAC1039360FFF71FFF0C4BB0
:1014C0009B68C3F303130B4AD35CD8400A4B1860E4
:1014D0000A4B186800F07EF9002070BD01207047AB
:1014E0000120FAE70120F8E70120F6E7003C02407E
:1014F00000380240F4380008480000204400002072
:10150000014B1868704700BF4800002008B5FFF77E
:10151000F7FF044B9B68C3F38223034AD35CD84094
:1015200008BD00BF003802400439000808B5FFF7C5
:10153000E7FF044B9B68C3F34233034AD35CD840B4
:1015400008BD00BF003802400439000800230F2BFB
:1015500000F2D28070B582B060E085685E0003243E
:10156000B44025EA0405CC68B4402C438460456847
:1015700025EA02054C68C4F300129A402A434260EF
:101580005AE0DC08083450F8246003F007029500A4
:101590000F22AA4026EA020E0A69AA4042EA0E0277
:1015A00040F824205CE0042200E0002202FA0EF25F
:1015B0002A430234514D45F82420514A14686FEAF9
:1015C0000C0224EA0C054E6816F4803F01D04CEA68
:1015D00004054B4C2560646802EA04054E6816F465
:1015E000003F01D04CEA0405454C6560A46802EA5E
:1015F00004054E6816F4801F01D04CEA0405404CE7
:10160000A560E46822404D6815F4001F01D04CEA43
:1016100004023B4CE26001330F2B6BD801229A404D
:101620000C6804EA020C32EA0404F4D14C6804F0B9
:101630000304013C012C90D94A6802F00302032AFA
:1016400009D0C4685D000322AA4024EA02048A6823
:10165000AA402243C2604A6802F00302022A90D0E4
:1016600004684FEA430E032202FA0EF224EA02044F
:101670004A6802F0030202FA0EF2224302604A684C
:1016800012F0805FC7D0002201921E4A546C44F4CD
:1016900080445464526C02F480420192019A9C0886
:1016A000A51C164A52F8255003F003024FEA820E99
:1016B0000F2202FA0EF225EA0205134A90423FF485
:1016C00074AF02F5806290420ED002F580629042C3
:1016D0000CD002F5806290420AD002F580629042FE
:1016E0003FF461AF072261E701225FE702225DE775
:1016F00003225BE702B070BD704700BF00380140B5
:10170000003C014000380240000002400AB1816103
:101710007047090481617047074AD36823F4E06386
:101720001B041B0C000200F4E060034343F0BF63A2
:1017300043F40033D360704700ED00E000B5194B6F
:10174000DB68C3F30223C3F1070CBCF1040F28BF0D
:101750004FF0040C03F1040EBEF1060F18D9033B41
:101760004FF0FF3E0EFA0CFC21EA0C0199400EFAF4
:1017700003F322EA0303194300280BDB0901C9B272
:1017800000F1604000F5614080F800135DF804FB53
:101790000023E5E700F00F000901C9B2024B19541C
:1017A000F4E700BF00ED00E014ED00E00138B0F117
:1017B000807F0BD24FF0E0235861054AF02182F878
:1017C00023100020986107221A617047012070479A
:1017D00000ED00E010B504460E4B18784FF47A7314
:1017E000B3FBF0F30C4A1068B0FBF3F0FFF7DEFF39
:1017F00068B90F2C01D901200AE0002221464FF0E0
:10180000FF30FFF79BFF054B1C60002000E001202C
:1018100010BD00BF40000020480000204400002010
:1018200008B50B4B1A6842F400721A601A6842F449
:1018300080621A601A6842F480721A600320FFF70F
:101840006BFF0020FFF7C6FFFFF73CF9002008BD43
:10185000003C0240034A1168034B1B780B441360A1
:10186000704700BF1401002040000020014B1868A1
:10187000704700BF14010020034AD2F8883043F4B7
:101880007003C2F88830704700ED00E0DFF834D014
:101890000D480E490E4A002302E0D458C4500433C8
:1018A000C4188C42F9D30B4A0B4C002301E013609F
:1018B0000432A242FBD3FFF7DFFF00F017F8FEF778
:1018C000FDFE70470000022000000020B000002054
:1018D000D03A0008B00000202C010020FEE70000F4
:1018E000014B1868704700BF4C00002070B50D4DCB
:1018F0000D4C641BA4100026A64209D10B4D0C4CC4
:1019000001F0E0FE641BA4100026A64205D170BDC4
:1019100055F8043B98470136EEE755F8043B9847E5
:101920000136F2E7C83A0008C83A0008C83A000889
:10193000CC3A000802440346934200D1704703F8B2
:10194000011BF9E70FB40A4B13B51C6824B1A36956
:1019500013B9204600F02EFA05AB049AA168019352
:10196000204600F021FC02B0BDE8104004B07047F2
:101970004C000020094B13B51C68014634B1A36923
:1019800023B90190204600F015FA0199A26820467B
:1019900002B0BDE8104001F0E5B900BF4C000020E6
:1019A0000FB40A4B13B51C6824B1A36913B92046C0
:1019B00000F000FA05AB049A61680193204601F03B
:1019C0005BF802B0BDE8104004B070474C00002046
:1019D0002DE9F7431D465D4B1F6804460E469046B1
:1019E00027B1BB6913B9384600F0E4F9584B9C4263
:1019F00067D17C68B8F1020F06D0B8F1010F00F290
:101A00009F80002DC0F29C80636EDB0705D4A38904
:101A1000980502D4A06D00F088FA2146384600F0FF
:101A200023F9616B41B104F14403994202D0384675
:101A300000F0EAFA002363630023A3616360A389D3
:101A4000190603D52169384600F0DEFAA38923F48C
:101A50004A6323F00303B8F1020FA3816CD001ABFA
:101A60006A462146384600F062FAA3891843A081ED
:101A7000002D30D1009D284600F0BEFA0646002811
:101A800055D1DDF80090A9454AD14FF0FF3500222D
:101A9000A26004F14702226022610122B4F90C30F5
:101AA0006261626E43F00203D207A38105D413F48E
:101AB000007F02D1A06D00F039FA284603B0BDE8DE
:101AC000F083244B9C4201D1BC6893E7224B9C429B
:101AD00008BFFC688EE7002ECDD0BB6913B938462D
:101AE00000F068F9B8F1010F08BFA389266004BFB0
:101AF00043F00103A381A28912F00803C4E904653D
:101B00001CD0D30741BF00236D42A360A56158BF1D
:101B1000A560656E15F0010515D112F4007FC8E7C8
:101B2000484600F069FA06460028AED04D46A38923
:101B300043F08003A381D0E70025A8E7A360E8E78E
:101B40004FF0FF35B9E70025B7E700BF4C00002094
:101B50003039000850390008103900088A892DE909
:101B6000F041054610070C4658D44B68002B05DCA5
:101B70000B6C002B02DC0020BDE8F081E66A002E31
:101B8000F9D0002312F480522F682B6032D0606DA0
:101B9000A3895A0705D56368C01A636B0BB1236C20
:101BA000C01A00230246E66A216A2846B047431C51
:101BB000A38906D129681D292CD82A4ACA40D607EC
:101BC00028D500226260D9042269226004D5421C13
:101BD00001D12B6803B96065616B2F600029CAD001
:101BE00004F14403994202D0284600F00DFA002087
:101BF0006063C1E7216A01232846B047411CC7D171
:101C00002B68002BC4D01D2B01D0162B01D12F60C7
:101C1000B1E7A38943F04003A381ADE70F69002F2B
:101C2000A9D093070E6808BF4B690F6018BF002347
:101C3000A6EB07088B60B8F1000F9CDD216AA66A4D
:101C400043463A462846B047002806DCA38943F0BD
:101C50004003A3814FF0FF308EE70744A8EB000854
:101C6000E9E700BF0100402038B50B6905460C4686
:101C700013B90025284638BD18B183690BB900F0A7
:101C800099F8144B9C421BD16C68B4F90C30002BB2
:101C9000EFD0626ED00704D4990502D4A06D00F095
:101CA00044F928462146FFF759FF636EDA070546D7
:101CB000E0D4A3899B05DDD4A06D00F037F9D9E706
:101CC000054B9C4201D1AC68DFE7044B9C4208BF46
:101CD000EC68DAE73039000850390008103900089C
:101CE000014620B9044B0549186800F0FEB8044BC2
:101CF0001868FFF7B9BF00BF0C390008691C00085D
:101D00004C000020002310B50446C0E90033C0E9B0
:101D10000433836081814366C2818361194608224E
:101D20005C30FFF707FE054B6362054BA362054B72
:101D3000E362054B2462236310BD00BFAD2F000892
:101D4000CF2F0008073000082B300008014900F0B1
:101D5000CCB800BF691C000870B568224D1E554301
:101D60000E4605F1740100F09BF9044640B10021D4
:101D7000C0E900160C30A06005F16802FFF7DAFD3B
:101D8000204670BD014800F0D0B800BF1901002006
:101D9000014800F0CBB800BF19010020014800F055
:101DA000C4B800BF1A010020014800F0BFB800BF4E
:101DB0001A01002010B50446FFF7F0FFA3691BB11C
:101DC000BDE81040FFF7F0BFC4E912332365134BA1
:101DD000134A1B68A262A34204BF0123A3612046E9
:101DE00000F020F86060204600F01CF8A06020465B
:101DF00000F018F80022E06004216068FFF782FF1D
:101E0000A06801220921FFF77DFFE068022212216C
:101E1000FFF778FF0123A361D2E700BF0C39000868
:101E20004D1D0008F8B50746FFF7ACFF1E4B1E68B6
:101E3000B36913B93046FFF7BDFF4836D6E9013420
:101E4000013B03D533680BB33668F7E7B4F90C50A0
:101E5000D5B9164BE36004F15800656600F064F8EC
:101E6000FFF796FFC4E90155C4E904552560A56153
:101E70000822294604F15C00FFF75CFDC4E90D551A
:101E8000C4E912552046F8BD6834D9E70421384624
:101E9000FFF762FF044630600028D5D1FFF778FFD6
:101EA0000C233B60EEE700BF0C3900080100FFFF88
:101EB0002DE9F0410F4600F148040026D4E90185E0
:101EC000B8F1010805D52468002CF7D13046BDE8EB
:101ED000F081AB89012B06D9B5F90E30013302D060
:101EE0002846B84706436835EAE72DE9F843064631
:101EF000884600F148040027D4E90195B9F10109A9
:101F000005D52468002CF7D13846BDE8F883AB89A5
:101F1000012B07D9B5F90E30013303D029463046DD
:101F2000C04707436835E9E770477047704770B5A9
:101F30000E46B1F90E10002996B014461D4608DA77
:101F4000B6F90C3000222A601A0610D44FF48063D0
:101F50000EE06A4601F01AFB0028F1DB019A02F458
:101F60007042A2F500535A425A412A60EEE74023DC
:101F70000020236016B070BD8B8973B59D0706469F
:101F80000C4607D504F147032360236101236361F5
:101F900002B070BD01AB6A46FFF7C9FF0099054664
:101FA000304600F07DF848B9B4F90C309A05EFD40A
:101FB00023F0030343F00203A381E3E70D4BB36275
:101FC000A389206043F08003A381009B6361019B90
:101FD00020615BB1B4F90E10304601F0E9FA28B186
:101FE000A38923F0030343F00103A381A0890543E0
:101FF000A581CDE74D1D0008024B0146186800F091
:102000004FB800BF4C00002037B5002944D051F82C
:10201000043C0190002BA1F10404B8BFE41801F0C6
:10202000F7FA1E4A0198136833B96360146003B06D
:10203000BDE8304001F0F2BAA34208D92568611921
:102040008B4201BF19685B6849192160EDE71A46A8
:102050005B680BB1A342FAD911685518A5420BD1A0
:10206000246821445418A3421160E0D11C685B68C5
:10207000536021441160DAE702D90C230360D6E7EC
:10208000256861198B4204BF19685B68636004BFEF
:10209000491921605460CAE703B030BD1C0100201B
:1020A000F8B5CD1C25F0030508350C2D38BF0C25DF
:1020B000002D064601DBA94203D90C233360002022
:1020C000F8BD01F0A5FA21490A6814469CB9204FD1
:1020D0003B6823B92146304600F020FF386029468E
:1020E000304600F01BFF431C23D10C2333603046E5
:1020F00001F094FAE3E723685B1B17D40B2B03D999
:1021000023601C44256004E06368A2420CBF0B609E
:102110005360304601F082FA04F10B00231D20F0D9
:102120000700C21ACCD01B1AA350C9E72246646824
:10213000CCE7C41C24F00304A042E3D0211A3046AB
:1021400000F0ECFE0130DDD1CFE700BF1C01002024
:10215000200100209368013B002B10B4936008DA43
:102160009469A34201DB0A2903D15DF8044B01F015
:102170002BB91368581C1060197008465DF8044BA1
:102180007047F8B506460F461446D518AC4201D143
:10219000002007E014F8011B3A463046FFF7DAFF4B
:1021A000431CF3D1F8BD00002DE9F04F0D469DB062
:1021B00014469846064618B183690BB9FFF7FAFD35
:1021C000894B9D421BD175686B6ED90705D4AB89CD
:1021D0009A0502D4A86DFFF7A8FEAB891B0701D5AD
:1021E0002B69EBB92946304601F052F9C0B16B6E4C
:1021F000DC070ED54FF0FF301DB0BDE8F08F7B4BF4
:102200009D4201D1B568DFE7794B9D4208BFF56873
:10221000DAE7AB899805EDD4A86DFFF787FEE9E70B
:102220000023099320238DF82930CDF80C8030232A
:10223000DFF8C0818DF82A304FF0010923469A4615
:1022400013F8012B0AB1252AF9D1BAEB040B0BD0F4
:102250005B46224629463046FFF793FF013000F0E7
:10226000AA80099A5A4409929AF80030002B00F08B
:10227000A28000234FF0FF32CDE905230AF1010AC5
:10228000049307938DF853301A935446052214F89B
:10229000011B5848FDF7ACFF049AD8B9D10644BFDA
:1022A00020238DF85330130744BF2B238DF8533070
:1022B0009AF800302A2B15D0079A544600204FF088
:1022C0000A0C214611F8013B303B092B4ED9B0B125
:1022D000079214E0A0EB080309FA03F313430493F5
:1022E000A246D2E7039B191D1B680391002BBBBFBD
:1022F0005B4242F0020207930793B8BF049223782F
:102300002E2B0CD163782A2B35D1039B1A1D1B6809
:102310000392002BB8BF4FF0FF3302340593DFF870
:10232000E4A0217803225046FDF762FF40B140232C
:10233000A0EB0A0003FA00F0049B0343013404936A
:1023400014F8011B2C488DF828100622FDF750FFC9
:1023500000283FD0294B1BBB039B073323F0070307
:1023600008330393099B3B44099367E70CFB023254
:102370000C460120A5E700230134059319464FF0D0
:102380000A0C204610F8012B303A092A03D9002BF9
:10239000C5D00591C3E70CFB012104460123F0E7FA
:1023A00003AB00932A46164B04A93046AFF30080D6
:1023B0000746781CD6D16B6ED90705D4AB899A0530
:1023C00002D4A86DFFF7B2FDAB895B063FF512AFF3
:1023D000099811E703AB00932A46094B04A930463C
:1023E00000F080F8E4E700BF3039000850390008F9
:1023F00010390008703900087A3900080000000020
:1024000083210008763900082DE9F04716469946E1
:102410008A680B69DDF820809342B8BF13463360A9
:1024200091F8432007460C460AB101333360236814
:10243000990642BF336802333360256815F00605FC
:1024400006D104F1190AE36832689B1AAB4226DC14
:1024500094F84320131E226818BF012392062BD440
:1024600004F1430249463846C04701301ED0236874
:10247000E568326803F00603042B08BFAD1AA368B1
:1024800022690CBF25EAE57500259342C4BF9B1A5B
:10249000ED1800261A34B5421AD1002008E00123B5
:1024A000524649463846C047013003D14FF0FF300D
:1024B000BDE8F0870135C6E7E1185A1C302081F8E5
:1024C0004300224494F8451082F843100233C7E7D2
:1024D0000123224649463846C0470130E6D001363E
:1024E000D9E700002DE9FF470F7E0C9D782F91461C
:1024F00080460C469A4601F1430207D8622F0AD85B
:10250000002F00F0D880582F00F0A38004F142057E
:1025100084F842703AE0A7F16303152BF6D801A1C5
:1025200051F823F07D250008912500080D250008AD
:102530000D2500080D2500080D250008912500082F
:102540000D2500080D2500080D2500080D250008A3
:102550009D260008C12500087F2600080D250008DB
:102560000D250008BF2600080D250008C12500081C
:102570000D2500080D250008872600082B681A1D68
:102580001B682A6004F1420584F842300123A3E06D
:1025900020682968060601F104030AD50E682B603D
:1025A000002E03DA2D23764284F843305E480A2356
:1025B00019E00E682B6010F0400F18BF36B2EFE73D
:1025C0002B682068191D2960010601D51E6802E0EC
:1025D0004606FBD51E8854486F2F0CBF08230A23DC
:1025E000002184F843106568A560002DA2BF216812
:1025F00021F0040121600EB9002D4DD01546B6FB27
:10260000F3F103FB1167C75D05F8017D3746BB4257
:102610000E46F4D9082B0BD12368DE0708D52369B1
:1026200061689942DEBF302305F8013C05F1FF35B2
:10263000521B2261CDF800A04B4603AA214640461A
:10264000FFF7E2FE01304CD14FF0FF3004B0BDE89F
:10265000F087354881F845702968236851F8046B84
:1026600029601D0614D5DF0744BF43F02003236013
:102670001EB9236823F0200323601023B0E72368EA
:1026800043F0200323607823284884F84530E3E7AB
:10269000590648BFB6B2E6E71546BBE72B68266881
:1026A0006169181D286035061B6801D5196002E0B4
:1026B0007006FBD51980002323611546BAE72B6805
:1026C0001A1D2A601D68626800212846FDF790FDEA
:1026D00008B1401B606063682361002384F84330C5
:1026E000A8E723692A4649464046D0470130ABD087
:1026F00023689B0713D4E068039B9842B8BF184631
:10270000A4E70123324649464046D04701309BD0DA
:102710000135E36803995B1AAB42F2DCEBE7002575
:1027200004F11906F5E700BF813900089239000865
:102730002DE9F0471D464B6EDF07ADF5227D0646BD
:102740000C46924605D48B89980502D4886DFFF714
:10275000ECFB0023CDE94433A54BA0930DF1040815
:10276000A44BA54FDFF89492CDF81881A193009562
:102770009AF80030002B00F07181D95D11F008014A
:102780000AF1010519D06368002B0FDD23681A7860
:10279000BA5C110701D4AA46EAE7459A013245928C
:1027A00062680133013A62602360ECE7A19B214635
:1027B000304698470028E9D0EDE7252B12D09A46FD
:1027C0006368002B40F3958022681378534540F0EE
:1027D00045816368013B6360459B013201332260A0
:1027E0004593D8E7419143919AF801302A2B02BFD3
:1027F000102341930AF102050A22AA461AF8011B86
:10280000A1F13003092B1ED97C480322FDF7F0FC0F
:1028100040B10123A0EB090003FA00F0419B1843EB
:102820004190554615F8013B782B07D8572B11D806
:10283000252BC4D058D8002B00F0C7800323479322
:102840000A2342937CE0439B02FB031130394391FE
:102850005546D2E7A3F15802202AEFD801A151F83A
:1028600022F000BF2B2900083D2800083D28000861
:10287000892900083D2800083D2800083D28000857
:102880003D2800083D2800083D2800083D28000894
:102890009F29000875290008EF280008EF28000884
:1028A000EF2800083D280008792900083D28000885
:1028B0003D2800083D2800083D280008AF290008F1
:1028C00081290008232900083D2800083D28000828
:1028D000AB2900083D280008752900083D2800089C
:1028E0003D2800082B290008453B022BA6D80523CC
:1028F00025E0A19B21463046984700283FF464AF6D
:10290000636EDA0740F1A2804498002866D0A3895C
:1029100013F0400F18BF4FF0FF300DF5227DBDE8DA
:10292000F087419A42F020024192419A42F40072AB
:10293000419210226F2B429234BF0323042347930A
:102940006368002B4DDD419B5B0604D423681A7835
:10295000BA5C100754D4479B022B63DC6B462246BB
:1029600041A9304600F0B0F8012877D002287FF462
:1029700012AFC5E70A22DDE7002342930323DEE717
:10298000082342930423DAE72946404600F0D6FAAA
:10299000419B43F04003419305460123CFE7419B10
:1029A00043F0400341930023C9E70223C7E741985E
:1029B000C3063FF5F0AE009B459A191D00911B68B8
:1029C000C0074CBF1A801A60E5E6636ED80705D4CD
:1029D000A389990502D4A06DFFF7A8FA4FF0FF3044
:1029E0009BE7A19B2146304698470028ABD087E75C
:1029F00099320008092E0008BF390008763900080E
:102A0000459A013245926268013A002A626002DD0D
:102A1000013323609AE7A19B21463046984700285E
:102A200094D06DE7042B06DC6B46224641A9304664
:102A300000F0A4F898E70F4B002B3FF4ACAE6B46C8
:102A4000224641A93046AFF300808DE7A38999055E
:102A50003FF55AAFA06DFFF769FA55E7636EDA07E5
:102A600005D4A3899B0502D4A06DFFF75FFA4498B3
:102A700053E700BF0000000037B50C46054638B1EB
:102A8000816929B9CDE90023FFF794F9DDE9002335
:102A90000A498C4207D16C682146284603B0BDE83C
:102AA0003040FFF745BE06498C4201D1AC68F3E7E0
:102AB00004498C4208BFEC68EEE700BF30390008DB
:102AC00050390008103900082DE9F84315468A6886
:102AD00080460C4632B98A69002A0CBF01224FF0A9
:102AE000FF328A602268DFF89090D1065FBF1A68D3
:102AF000111D196016680027A06988B1012807D147
:102B00002A6811786269525C52B9002F31D022E0F4
:102B1000022820D12B681B7813F809301B071AD420
:102B20002368DA065EBF2B681B7806F8013B2A682B
:102B30006B6801322A60A268013B013A6B60013781
:102B4000A26042B1002BD7DCD4F880312946404640
:102B500098470028D0D0236813F0100305D1E2680D
:102B60000132E260A26902B1337023693B44236100
:102B70000020BDE8F88300BFBF3900082DE9F04F01
:102B80009846744B0C468246164693E8070087B079
:102B900003AB83E80700704BA169704A032918BF93
:102BA0001A46A36801925A1EB2F5AE7F88BF6FF431
:102BB000AE75274682BF03EB050940F25D13A360A3
:102BC00057F81C3B43F4506398BF4FF00009236053
:102BD0003D464FF0000B316803AB097853F82B00EA
:102BE0000222FDF705FB28B3BBF1010F59D1626842
:102BF0002AB92268082342F40072636022602268C6
:102C000022F4A0622260A268511EA16092B13268D3
:102C1000511C3160127805F8012B7268013A002AC4
:102C2000726007DCD4F88021314650469047002876
:102C300040F085800BF1010BBBF1030FCBD1636832
:102C40000BB90A236360636845496069C91A00F0DB
:102C500075F94FF0000BA3682268002B3DD0316856
:102C6000606991F800C010F80C00002835D0BCF164
:102C7000300F24D1100522D50BF1010BB9F1000F53
:102C800003D0013309F1FF39A3607368013B002BC6
:102C900073601BDD336801333360A368013BA360BD
:102CA000D9E7BBF1020FAED1226802F4C061B1F5E1
:102CB000007FBFD11023636042F48072A2E722F448
:102CC000106222600B7805F8013BDEE7D4F8803112
:102CD0003146504698470028DFD02368D9050DD5E6
:102CE000BD4209D915F8011CD4F87C313246504652
:102CF000984705F1FF394D46BD4228D0226812F0B1
:102D0000100213D12A706368019E39465046B047BD
:102D1000D8F8003021681A1DC8F8002011F0200FE3
:102D20001B680FD01860E3680133E360ED1BAB4410
:102D300025695D442561002007B0BDE8F08F4FF0A4
:102D4000000BCAE7CA074CBF18801860EBE70120E8
:102D5000F2E700BFDC3600082132000839310008F4
:102D6000BC39000870B50D461446064618B1836993
:102D70000BB9FFF71FF81C4B9C4224D17468636E9B
:102D8000D80705D4A389990502D4A06DFFF7CDF823
:102D9000A368013B002BA36005DAA26993421CDB08
:102DA000EBB20A2B19D023685A1C22601D70EDB2B9
:102DB000636EDA0705D4A3899B0502D4A06DFFF7E3
:102DC000B5F8284670BD094B9C4201D1B468D6E7DE
:102DD000074B9C4208BFF468D1E72946224630469B
:102DE00000F0F2FA0546E3E73039000850390008F0
:102DF00010390008838903F00903092B01D1FEF77C
:102E00006FBF002070470000F8B50C46054618B1AA
:102E100083690BB9FEF7CEFF3B4B9C420AD16C682D
:102E2000B4F90C2000236360A3899E060CD54FF0F3
:102E3000FF3066E0354B9C4201D1AC68F0E7344B83
:102E40009C4208BFEC68EBE7580748D4D90605D484
:102E500009232B6042F04003A381E8E71A070BD552
:102E600021462846FEF700FF0028E0D1A389A06094
:102E700023F00803A381A061A38943F00403A38185
:102E800023691BB921462846FFF776F8A689B4F9CD
:102E90000C70B3070FD00123A3811E4B1E49186885
:102EA00006F00906FFF704F8092EA78103D1214691
:102EB0002846FEF753FE2269666A6369216A22602A
:102EC0002846B047002860601CDCB4F90C3017BFFE
:102ED000002243F02003626043F04003BCE7616BD3
:102EE0000029CDD004F14403994202D02846FFF7CF
:102EF0008BF8236C636000206063002BC0D0E36B11
:102F00002360F8BD0020FCE7303900085039000884
:102F1000103900080C390008F52D000838B5064DA9
:102F20000023044608462B6000F0BEFB431C02D180
:102F30002B6803B1236038BD2401002070B50B78E5
:102F400004465E2B0BBF4B78481C881C002208BF30
:102F50000122611E04F1FF0501F8012FA942FBD1F6
:102F60000BB9013870BD82F00102E25405462846D3
:102F700010F8011B2D2906D05D29F3D009B9284688
:102F8000F0E70B46F1E76E785D2EFAD0B342F8DC3D
:102F90000235194601318E426254FBDCF11A0139C7
:102FA000581CB342A8BF00214318E0E710B50C46F7
:102FB000B1F90E1000F05EFB0028ABBF636DA38972
:102FC0001B1823F48053ACBF6365A38110BD2DE9AA
:102FD000F0411F468B89DB0505460C46164605D594
:102FE000B1F90E100223002200F0F2FAA389B4F91D
:102FF0000E1023F48053A38132463B462846BDE899
:10300000F04100F033BA10B50C46B1F90E1000F0E3
:10301000DFFA431CA38915BF606523F4805343F492
:103020008053A38118BFA38110BDB1F90E1000F029
:103030009DBA0000012B2DE9F04701D0242B06D9C1
:10304000FEF74EFC162303600020BDE8F087DFF892
:10305000E4C00D462E4615F8014B14F80C7017F01D
:103060000807F7D12D2C32D12C780127B51C002B65
:103070005BD0102B09D1302C07D12C7804F0DF0461
:10308000582C4DD16C781023023507F1004808F117
:10309000FF384FF0000CB8FBF3F9664603FB198AC2
:1030A000A4F1300EBEF1090F16D87446A34224DDF8
:1030B000BCF1000F1EDBB1451CD301D1A24519DBC9
:1030C00006FB03464FF0010C15F8014BE8E72B2CEB
:1030D00004BF2C78B51CCAE7A4F1410EBEF1190F4C
:1030E00001D8373CE2E7A4F1610EBEF1190F04D814
:1030F000573CDBE74FF0FF3CE6E7BCF1000F05DA99
:1031000022230360464642B930469EE707B1764225
:10311000002AF9D0BCF1000F00D0691E1160F3E75E
:103120003024002BB1D10823AFE7302CA5D00A23DF
:10313000ABE700BFBF390008FFF77CBF2DE9F043C4
:10314000364F86460D46284615F8014BE65D16F0CB
:103150000806F8D12D2C2FD12C780126851C002BA8
:1031600057D0102B09D1302C07D1287800F0DF0080
:10317000582849D16C78102302354FF0FF380027CA
:10318000B8FBF3F803FB08F96FEA09093846A4F124
:10319000300CBCF1090F14D86446A34222DD002F85
:1031A0001DDB80451BD301D1A14518DB00FB03408B
:1031B000012715F8014BEAE72B2C04BF2C78851C5E
:1031C000CDE7A4F1410CBCF1190F01D8373CE4E77D
:1031D000A4F1610CBCF1190F04D8573CDDE74FF0A6
:1031E000FF37E6E7002F07DA2223CEF800304FF052
:1031F000FF3032B9BDE8F08306B14042002AF9D071
:1032000007B1691E1160F5E73024002BB5D1082302
:10321000B3E7302CA9D00A23AFE700BFBF390008BD
:10322000FFF78CBF2DE9F0410C46496B04F14403D4
:1032300099421DD14FF48061FEF732FF18B94FF06B
:10324000FF30BDE8F0814FF48063A36394F846300B
:10325000606380F8FF3394F8453080F8FE3394F8CB
:10326000443080F8FD3300F2FD3020600020E8E7B4
:10327000A66B77003A4600F0D7F905460028DED065
:1032800000EB060801463246404600F0B3F9C4E9B7
:103290000D57C4F80080E9E770B514464A1C06468D
:1032A0000D4603D14FF0FF35284670BD18B1836934
:1032B0000BB9FEF77FFD414B9C421DD17468636ED4
:1032C000DB0705D4A389980502D4A06DFEF72DFE77
:1032D000B4F90C3023F020035907A3819AB22DD4FE
:1032E000D30613D4636EDD07DCD412F4007FD9D18A
:1032F000A06DFEF71BFED5E7314B9C4201D1B468AF
:10330000DDE7304B9C4208BFF468D8E7100711D5C1
:1033100021463046FEF7A8FC30B1636ED907C1D410
:10332000A38913F4007FE2E7A389A06023F00803D8
:10333000A381A061A38943F00403A381636B626846
:10334000EDB2D3B1A36B934205DC21463046FFF7C3
:1033500069FF0028E1D123685A1E226003F8015C4E
:10336000636801336360636EDA079DD4A3899B05AC
:103370009AD4A06DFEF7DAFD96E7616E20692368A6
:1033800001F0010160B198420AD213F8010CA84281
:1033900006D1013B013223606260002984D1E5E758
:1033A000C4E90F3204F1440363630323A363234698
:1033B00003F8465F236001236360EEE730390008BD
:1033C0005039000810390008F8B50E461446054675
:1033D00018B183690BB9FEF7EDFC214B9C422BD150
:1033E0006C68A369A360A3891A072FD523696BB3FF
:1033F00023692068C01A6369F6B28342374604DC49
:1034000021462846FEF730FC30BBA368013BA36091
:1034100023685A1C22601E7063690130834204D005
:10342000A389DB0706D50A2E04D121462846FEF7DC
:103430001BFC88B93846F8BD0A4B9C4201D1AC68E8
:10344000CFE7094B9C4208BFEC68CAE721462846F3
:1034500000F01EF80028CBD04FF0FF37EAE700BF9E
:1034600030390008503900081039000838B5074DC8
:1034700004460846114600222A601A46FDF7C2FAA1
:10348000431C02D12B6803B1236038BD2401002006
:10349000324B70B51D6806460C4625B1AB6913B9B1
:1034A0002846FEF787FC2E4B9C420FD16C68A389FF
:1034B000B4F90C2019072CD4DD0611D4092333608C
:1034C00042F04003A3814FF0FF303EE0254B9C4289
:1034D00001D1AC68EBE7244B9C4208BFEC68E6E7FF
:1034E000580712D5616B41B104F14403994202D0EF
:1034F0003046FEF789FD00236363A38923F024038C
:10350000A3810023636023692360A38943F0080338
:10351000A38123694BB9A38903F42073B3F5007F1A
:1035200003D021463046FEF727FDA089B4F90C20D0
:1035300010F001030AD00023A36063695B42A3611A
:10354000236943B910F08000BAD170BD810758BF1C
:103550006369A360F4E70020F7E700BF4C00002098
:1035600030390008503900081039000838B5064DC8
:103570000023044608462B60FDF75EFA431C02D187
:103580002B6803B1236038BD2401002038B5074DF6
:1035900000230446084611462B60FDF779FA431CC8
:1035A00002D12B6803B1236038BD00BF2401002085
:1035B00038B5064D0023044608462B60FDF716FA81
:1035C000431C02D12B6803B1236038BD24010020C5
:1035D00038B5074D04460846114600222A601A46AF
:1035E000FDF736FA431C02D12B6803B1236038BDC6
:1035F000240100200A44914200F1FF3300D17047BA
:1036000010B511F8014B03F8014F9142F9D110BDEB
:103610000148FEF78ABC00BF180100200148FEF7F0
:1036200085BC00BF18010020F8B5074614460E46B9
:1036300021B9BDE8F8401146FEF732BD22B9FEF7C8
:10364000E3FC25462846F8BD00F026F8A0420FD23C
:1036500021463846FEF724FD05460028F2D03146C3
:103660002246FFF7C7FF31463846FEF7CDFCE9E7B3
:103670003546E7E738B5074D0446084611460022AF
:103680002A601A46FDF7ECF9431C02D12B6803B1FE
:10369000236038BD2401002051F8043C181F002B82
:1036A000BCBF0B58C0187047044A05491368002B6B
:1036B00008BF0B46184410601846704728010020C8
:1036C00030010020F8B500BFF8BC08BC9E4670472A
:0C36D000F8B500BFF8BC08BC9E4670476F
:1036DC00A3390008A6390008A93900082573000091
:1036EC00253032780000000078A46AD756B7C7E8B6
:1036FC00DB702024EECEBDC1AF0F7CF52AC6874708
:10370C00134630A8019546FDD8988069AFF7448BD5
:10371C00B15BFFFFBED75C892211906B937198FD52
:10372C008E4379A62108B44962251EF640B340C0E9
:10373C00515A5E26AAC7B6E95D102FD6531444021F
:10374C0081E6A1D8C8FBD3E7E6CDE121D60737C384
:10375C00870DD5F4ED145A4505E9E3A9F8A3EFFC60
:10376C00D9026F678A4C2A8D4239FAFF81F671872C
:10377C0022619D6D0C38E5FD44EABEA4A9CFDE4B59
:10378C00604BBBF670BCBFBEC67E9B28FA27A1EA75
:10379C008530EFD4051D880439D0D4D9E599DBE602
:1037AC00F87CA21F6556ACC4442229F497FF2A4327
:1037BC00A72394AB39A093FCC3595B6592CC0C8FB7
:1037CC007DF4EFFFD15D84854F7EA86FE0E62CFE83
:1037DC00144301A3A111084E827E53F735F23ABD72
:1037EC00BBD2D72A91D386EB070000000C00000057
:1037FC001100000016000000070000000C00000083
:10380C001100000016000000070000000C00000072
:10381C001100000016000000070000000C00000062
:10382C001100000016000000050000000900000057
:10383C000E0000001400000005000000090000004C
:10384C000E0000001400000005000000090000003C
:10385C000E0000001400000005000000090000002C
:10386C000E00000014000000040000000B0000001B
:10387C001000000017000000040000000B00000006
:10388C001000000017000000040000000B000000F6
:10389C001000000017000000040000000B000000E6
:1038AC001000000017000000060000000A000000D5
:1038BC000F00000015000000060000000A000000C8
:1038CC000F00000015000000060000000A000000B8
:1038DC000F00000015000000060000000A000000A8
:1038EC000F000000150000000000000000000000A8
:1038FC00010203040607080900000000010203048A
:10390C00500000200000000000000000000000003B
:10391C00000000000000000000000000000000009B
:10392C00000000000000000000000000000000008B
:10393C00000000000000000000000000000000007B
:10394C00000000000000000000000000000000006B
:10395C00000000000000000000000000000000005B
:10396C0000000000232D302B2000686C4C00656695
:10397C0067454647003031323334353637383941B4
:10398C0042434445460030313233343536373839CA
:10399C00616263646566002B2D003030007858003E
:1039AC00412D46612D663839303132333435363756
:1039BC005D000020202020202020202028282828DE
:1039CC0028202020202020202020202020202020E3
:1039DC002020208810101010101010101010101033
:1039EC001010100404040404040404040410101043
:1039FC0010101010414141414141010101010101EF
:103A0C00010101010101010101010101010110107C
:103A1C0010101010424242424242020202020202C2
:103A2C00020202020202020202020202020210104E
:103A3C00101020000000000000000000000000003A
:103A4C00000000000000000000000000000000006A
:103A5C00000000000000000000000000000000005A
:103A6C00000000000000000000000000000000004A
:103A7C00000000000000000000000000000000003A
:103A8C00000000000000000000000000000000002A
:103A9C00000000000000000000000000000000001A
:103AAC00000000000000000000000000000000000A
:043ABC000000000006
:083AC00000C8FF7F01000000B7
:043AC800C50100082C
:043ACC00A10100084C
:103AD0008000000000000000000000000000000066
:103AE00000000000000000000000000000000000D6
:103AF00000000000000000000000000000000000C6
:103B000000000000000000000000000000000000B5
:103B100001000000100000000024F400500000200C
:103B20000000000030390008503900081039000842
:103B30000000000000000000000000000000000085
:103B40000000000000000000000000000000000075
:103B50000000000000000000000000000000000065
:103B60000000000000000000000000000000000055
:103B70000000000000000000000000000000000045
:040000050800188D4A
:00000001FF
