:020000040800F2
:1000000000000220992100089106000893060008CC
:1000100095060008970600089906000800000000F1
:10002000000000000000000000000000211F000888
:100030009B06000800000000C11F00089D06000884
:10004000E9210008E9210008E9210008E921000868
:10005000E9210008E9210008E9210008E921000858
:10006000E9210008E9210008E9210008E921000848
:10007000E9210008E9210008E9210008E921000838
:10008000E9210008E9210008E9210008000000003A
:10009000000000000000000000000000E92100084E
:1000A000E9210008E9210008E9210008E921000808
:1000B000E9210008E9210008E9210008E9210008F8
:1000C000E9210008E9210008E9210008E9210008E8
:1000D000E9210008E9210008E921000800000000EA
:1000E000E9210008E9210008E921000800000000DA
:1000F000000000000000000000000000E9210008EE
:1001000000000000E9210008E9210008E9210008B9
:1001100000000000000000000000000000000000DF
:10012000E9210008E9210008E9210008E921000887
:10013000E9210008000000000000000000000000AD
:10014000000000000000000000000000E92100089D
:10015000E9210008E9210008E9210008E921000857
:10016000E9210008E921000800000000000000006B
:10017000000000000000000000000000000000007F
:1001800000000000E921000800000000000000005D
:08019000E9210008E921000843
:1001A00010B5054C237833B9044B13B10448AFF3B1
:1001B00000800123237010BD10000020000000000B
:1001C0004422000808B5034B1BB103490348AFF3B1
:1001D000008008BD00000000140000204422000838
:1001E00053B94AB9002908BF00281CBF4FF0FF319E
:1001F0004FF0FF3000F06EB9ADF1080C6DE904CEA0
:1002000000F006F8DDF804E0DDE9022304B07047F1
:100210002DE9F047089D04468C46002B40F0838072
:100220008A42174647D9B2FA82F242B1C2F120009F
:1002300024FA00F09140974040EA010C94404FEAC4
:100240001748230CBCFBF8F61FFA87FE08FB16C103
:1002500043EA014306FB0EF1994209D9FB1806F166
:10026000FF3080F01981994240F21681023E3B44F2
:100270005B1AA4B2B3FBF8F008FB103344EA034462
:1002800000FB0EFEA64509D93C1900F1FF3380F0B2
:100290000581A64540F2028102383C4440EA06400E
:1002A000A4EB0E0400261DB1D4400023C5E9004391
:1002B0003146BDE8F08702B9FFDEB2FA82F2002AC9
:1002C00050D1CB1B4FEA174E1FFA87F80126B3FB1C
:1002D000FEFC210C0EFB1C3341EA034108FB0CF32E
:1002E0008B4207D979180CF1FF3002D28B4200F211
:1002F000E9808446C91AA3B2B1FBFEF00EFB1011CF
:1003000043EA014408FB00F8A04507D93C1900F175
:10031000FF3302D2A04500F2D9801846A4EB0804AE
:1003200040EA0C40BFE78B4209D9002D00F0B180B4
:100330000026C5E9000130463146BDE8F087B3FA32
:1003400083F6002E4AD18B4202D3824200F2B8805B
:10035000841A61EB030101208C46002DA8D0C5E969
:10036000004CA5E7C2F1200320FA03F6974001FAFA
:1003700002F04FEA174ED9403043030CB1FBFEF6B2
:100380001FFA87F80EFB161143EA014306FB08F13A
:10039000994204FA02F409D9FB1806F1FF3C80F0F7
:1003A0008D80994240F28A80023E3B445B1A81B2C2
:1003B000B3FBFEF00EFB103341EA034100FB08F3F0
:1003C0008B4207D9791800F1FF3C73D28B4271D967
:1003D00002383944CB1A40EA064678E7C6F1200CC9
:1003E00003FA06F422FA0CF31C4320FA0CF701FA84
:1003F00006F34FEA144E21FA0CF11F433B0CB1FBFC
:10040000FEF91FFA84F80EFB191143EA014109FBBA
:1004100008FA8A4502FA06F200FA06F308D96118CA
:1004200009F1FF3048D28A4546D9A9F10209214491
:10043000A1EB0A01BFB2B1FBFEF00EFB101147EABF
:10044000014700FB08F8B84507D9E71900F1FF316B
:100450002ED2B8452CD90238274440EA0940A7EBF0
:100460000807A0FB02894F45C64649461AD317D054
:100470005DB1B3EB0E0267EB010707FA0CFCF2402B
:100480004CEA0202F740C5E9002700263146BDE8E4
:10049000F0872E4628460BE70646E9E61846FDE6B5
:1004A0004345E5D2B8EB020E69EB04010138DFE702
:1004B0000846D2E760468DE78146B9E7664675E7AC
:1004C00030464AE7ACF1020C394413E702383C44A9
:1004D00024E700BF704700BF30B587B00024019407
:1004E000029403940494059400940E4B1A6B42F00A
:1004F00001021A631B6B03F001030093009B0A4D7A
:1005000022462021284600F029FD202301930123C3
:1005100002930394049401A9284600F047FC07B015
:1005200030BD00BF003802400000024008B5094C51
:1005300001222021204600F011FD012001F078FB6E
:1005400000222021204600F009FD012001F070FB6F
:10055000EDE700BF0000024008B564230A2202490B
:10056000024800F0B6FEF8E7A4220008D83F0020B9
:1005700072B6FEE708B50A480A4B03604FF4E13350
:10058000436000238360C36003610C224261836186
:10059000C36100F06FFE00B908BDFFF7E9FF00BFBF
:1005A000D83F00200044004000B595B03022002123
:1005B00008A801F03FFE00230393049305930693DC
:1005C00007930193184A116C41F080511164126C29
:1005D00002F080520192019A0293144A116841F488
:1005E00040411160126802F440420292029A0222D3
:1005F000089201220B9210220C920E9308A800F090
:10060000B3F868B90F230393002104910591069173
:10061000079103A800F0F4FA20B915B05DF804FBC7
:10062000FFF7A6FFFFF7A4FF00380240007000406C
:1006300000B58FB000F01AFDFFF7B6FFFFF74CFFD3
:10064000FFF798FF0F4C07AD26460FCE0FC596E873
:10065000070085E80700002107A801F0B4FA0A4B5B
:1006600018606D461C340FCC0FC594E8070085E870
:1006700007000021684601F0A6FA044B186001F05B
:100680009DFAFEE75C220008D03F0020D43F002006
:10069000FEE7FEE7FEE7FEE7FEE7704708B500F07D
:1006A000FFFC01F075FA012800D108BD01F0BAFC89
:1006B000FBE7000000B583B0002200920D4B596C9F
:1006C00041F480415964596C01F4804100910099D2
:1006D0000192196C41F0805119641B6C03F0805336
:1006E0000193019B0F216FF0010000F04FFC03B05C
:1006F0005DF804FB0038024000B589B00023039385
:1007000004930593069307930268154B9A4202D00F
:1007100009B05DF804FB0022019203F5FA33196C6D
:1007200041F400311964196C01F40031019101990F
:100730000292196B41F0010119631B6B03F0010375
:100740000293029B0C230393022304930592032339
:1007500006930723079303A9024800F027FBD7E776
:100760000044004000000240002800F0DF8170B526
:1007700082B00446036813F0010F3BD0A64B9B6880
:1007800003F00C03042B2CD0A34B9B6803F00C0349
:10079000082B21D06368B3F5803F4FD0B3F5A02F6D
:1007A00052D09D4B1A6822F480321A601A6822F4E3
:1007B00080221A606368002B50D000F07DFC054653
:1007C000954B1B6813F4003F14D100F075FC401BDF
:1007D0006428F5D90320B0E18F4B5B6813F4800FD8
:1007E000D8D08D4B1B6813F4003F03D06368002BF7
:1007F00000F09E81236813F0020F54D0864B9B6853
:1008000013F00C0F3ED0844B9B6803F00C03082BB5
:1008100033D0E368002B67D0804B01221A6000F0D0
:100820004BFC05467C4B1B6813F0020F53D100F0C4
:1008300043FC401B0228F5D903207EE1764A136869
:1008400043F480331360B5E7734B1A6842F4802297
:100850001A601A6842F480321A60ABE700F02CFC90
:1008600005466D4B1B6813F4003FC3D000F024FC19
:10087000401B6428F5D903205FE1674B5B6813F4E4
:10088000800FC6D1644B1B6813F0020F03D0E368DE
:10089000012B40F04F81604A136823F0F80321696F
:1008A00043EAC1031360236813F0080F40D0636963
:1008B00063B35B4B01221A6000F0FEFB0546564B0A
:1008C0005B6F13F0020F33D100F0F6FB401B0228E0
:1008D000F5D9032031E1504A136823F0F803216968
:1008E00043EAC1031360DEE74C4B00221A6000F0BC
:1008F000E3FB0546484B1B6813F0020FD3D000F012
:10090000DBFB401B0228F5D9032016E1444B0022F3
:100910001A6000F0D1FB05463F4B5B6F13F0020FEE
:1009200006D000F0C9FB401B0228F5D9032004E1E2
:10093000236813F0040F78D0374B1B6C13F0805FE3
:100940000DD100230193344B1A6C42F080521A648B
:100950001B6C03F080530193019B012500E00025EF
:10096000304B1B6813F4807F21D0A368012B32D059
:10097000052B36D0284B1A6F22F001021A671A6F26
:1009800022F004021A67A368002B34D000F094FB15
:100990000646214B1B6F13F0020F45D100F08CFB74
:1009A000801B41F288339842F3D90320C5E01D4AE9
:1009B000136843F48073136000F07EFB0646194B06
:1009C0001B6813F4807FD0D100F076FB801B0228D7
:1009D000F5D90320B1E0104A136F43F00103136708
:1009E000D1E70D4B1A6F42F004021A671A6F42F0FA
:1009F00001021A67C7E700F05FFB0646064B1B6F54
:100A000013F0020F10D000F057FB801B41F2883327
:100A10009842F3D9032090E000380240000047429A
:100A2000800E474200700040EDB9A369002B00F032
:100A30008380494A926802F00C02082A51D0022BA6
:100A400017D0464B00221A6000F036FB0446424B9A
:100A50001B6813F0007F42D000F02EFB001B022821
:100A6000F5D9032069E03C4A136C23F080531364EA
:100A7000DBE73A4B00221A6000F01EFB0546364BBE
:100A80001B6813F0007F06D000F016FB401B022805
:100A9000F5D9032051E0E369226A1343626A43EA0D
:100AA0008213A26A5208013A43EA0243E26A43EA25
:100AB0000263294A5360294B01221A6000F0FCFAB4
:100AC0000446254B1B6813F0007F06D100F0F4FAB2
:100AD000001B0228F5D903202FE000202DE0002084
:100AE0002BE0012B2BD01C4B5B6803F48001E269E7
:100AF000914226D103F03F02216A8A4223D1616AE2
:100B000047F6C0721A40B2EB811F1ED103F4403188
:100B1000A26A5208013AB1EB024F18D103F0706398
:100B2000E26AB3EB026F14D1002006E001207047A7
:100B3000012002E0012000E0002002B070BD012091
:100B4000FBE70120F9E70120F7E70120F5E70120A5
:100B5000F3E70120F1E700BF0038024060004742A0
:100B6000F8B5244B9B6803F00C03042B3DD0082BF5
:100B70003DD1204B5A6802F03F025B6813F4800FAE
:100B800012D01C4B5968C1F3881100231A48A1FBED
:100B90000001FFF725FB174B5B68C3F301430133EB
:100BA0005B00B0FBF3F023E0124B5B68C3F38813E8
:100BB0005C010025E41A65F10005AE0146EA946681
:100BC000A701381B66EB0501CC0044EA5074C50050
:100BD000E81844F100018B0243EA90538402204656
:100BE00019460023FFF7FCFAD5E7034800E0034865
:100BF000F8BD00BF0038024040787D010024F400B9
:100C0000002800F09B8070B50D4604464F4B1B68D2
:100C100003F007038B4208D2CBB24C4A137013681F
:100C200003F007038B4240F08B80236813F0020F20
:100C300017D013F0040F04D0454A936843F4E053EF
:100C40009360236813F0080F04D0414A936843F47B
:100C5000604393603E4A936823F0F003A1680B431E
:100C60009360236813F0010F32D06368012B21D009
:100C70009A1E012A25D9364A126812F0020F61D055
:100C800033498A6822F0030213438B6000F014FAA0
:100C900006462F4B9B6803F00C036268B3EB820F90
:100CA00016D000F009FA801B41F288339842F0D93F
:100CB000032042E0264A126812F4003FE0D10120EE
:100CC0003BE0234A126812F0007FD9D1012034E0C2
:100CD0001E4B1B6803F00703AB4207D9EAB21B4B5C
:100CE0001A701B6803F00703AB422DD1236813F081
:100CF000040F06D0164A936823F4E053E1680B43CF
:100D00009360236813F0080F07D0114A936823F407
:100D10006043216943EAC1039360FFF721FF0C4B55
:100D20009B68C3F303130B4AD35CD8400A4B18608B
:100D30000A4B186800F074F9002070BD012070475C
:100D40000120FAE70120F8E70120F6E7003C024025
:100D500000380240B02200080800002004000020F3
:100D6000014B1868704700BF0800002008B5FFF766
:100D7000F7FF044B9B68C3F38223034AD35CD8403C
:100D800008BD00BF00380240C022000808B5FFF7C8
:100D9000E7FF044B9B68C3F34233034AD35CD8405C
:100DA00008BD00BF00380240C022000800230F2BFE
:100DB00000F2CB80F0B482B05DE086685F0003246F
:100DC000BC4026EA0406CC68BC40344384604668D4
:100DD00026EA02064C68C4F300129A40324342608D
:100DE00057E0DC08083450F8247003F0070296003E
:100DF0000F22B24027EA02070A69B2403A4340F89C
:100E000024205AE0042200E00022B2403A43023497
:100E10004E4E46F824204E4A1468EA4324EA05065A
:100E20004F6817F4803F01D045EA0406484C26601D
:100E3000646802EA04064F6817F4003F01D045EAEF
:100E40000406434C6660A46802EA04064F6817F47F
:100E5000801F01D045EA04063D4CA660E4682240AC
:100E60004E6816F4001F01D045EA0402384CE260D7
:100E700001330F2B66D801229A400C6804EA020560
:100E800032EA0404F4D14C6804F00304013C012C60
:100E900093D94A6802F00302032A09D0C4685E00AD
:100EA0000322B24024EA02048A68B2402243C260AC
:100EB0004A6802F00302022A93D004685E0003220B
:100EC000B24024EA02044A6802F00302B24022431C
:100ED00002604A6812F0805FCAD0002201921D4A67
:100EE000546C44F480445464526C02F48042019285
:100EF000019A9C08A61C154A52F8267003F00302BA
:100F000096000F22B24027EA0207134A90423FF4AC
:100F10007BAF02F5806290420ED002F58062904273
:100F20000CD002F5806290420AD002F580629042B5
:100F30003FF468AF072268E7012266E7022264E710
:100F4000032262E702B0F0BC7047704700380140EE
:100F5000003C014000380240000002400AB18161BB
:100F60007047090481617047074AD36823F4E0633E
:100F70001B041B0C000200F4E060034343F0BF635A
:100F800043F40033D360704700ED00E030B4174BFA
:100F9000DB68C3F30223C3F10704042C28BF042435
:100FA0001D1D062D18D9033B4FF0FF3505FA04F43B
:100FB00021EA0401994005FA03F322EA03031943E5
:100FC00000280BDB0901C9B200F1604000F5614067
:100FD00080F8001330BC70470023E5E700F00F00F5
:100FE0000901C9B2024B1954F4E700BF00ED00E05B
:100FF00014ED00E00138B0F1807F0AD2064B586052
:10100000064AF02182F823100020986007221A6017
:1010100070470120704700BF10E000E000ED00E0E5
:1010200010B504460E4B18784FF47A73B3FBF0F307
:101030000C4A1068B0FBF3F0FFF7DCFF68B90F2C27
:1010400001D901200AE0002221464FF0FF30FFF7CE
:101050009DFF054B1C60002000E0012010BD00BF7B
:1010600000000020080000200400002008B50B4B01
:101070001A6842F400721A601A6842F480621A60B8
:101080001A6842F480721A600320FFF76DFF0F2088
:10109000FFF7C6FFFFF70EFB002008BD003C024033
:1010A000034A1168034B1B780B441360704700BF61
:1010B0001C40002000000020014B1868704700BF52
:1010C0001C400020034AD2F8883043F47003C2F871
:1010D0008830704700ED00E0034B0360034B0B606A
:1010E00080231360704700BF2C0200202C000020DA
:1010F00070B504460268136923F44053C1680B437A
:10110000136183680269134342691343C2691A4336
:101110000168CB6823F4164323F00C031343CB6020
:101120000268536923F4407381690B435361036878
:10113000344A934206D002F58062934202D0FFF710
:1011400015FE01E0FFF722FEE369B3F5004F2AD058
:101150000026051846EB06012D1846EB0101CB00D1
:1011600043EA5573EA001546194663689A009B0FD7
:10117000281846EB0101FFF733F8234DA5FB003299
:101180005109642303FB11031B013233A5FB032325
:101190005B0903F0F00202EB011203F00F03216878
:1011A00013448B6070BD0026051846EB06012D1810
:1011B00046EB0101CB0043EA5573EA001546194698
:1011C00062683346921846EB0303281846EB010188
:1011D000FFF706F80C4DA5FB00325109642303FB11
:1011E0001103DB003233A5FB03235B095A0002F431
:1011F000F87202EB011203F00703216813448B60BD
:10120000D0E700BF001001401F85EB512DE9F843E6
:1012100005460F4616469946DDF820802C6824685E
:1012200037EA04030CBF01240024B4421FD1B8F1F3
:10123000FF3FF3D0B8F1000F05D0FFF73DFFA0EB63
:1012400009004045EAD92A68D36823F4D073D360F3
:101250002A68536923F001035361202385F83D3048
:1012600085F83E30002385F83C30032000E0002064
:10127000BDE8F88358B310B5044690F83D300BB381
:10128000242384F83D302268D36823F40053D360CC
:101290002046FFF72DFF2268136923F49043136162
:1012A0002268536923F02A0353612268D36843F408
:1012B0000053D36000202064202384F83D3084F85C
:1012C0003E3010BD80F83C30FFF716FAD8E7012019
:1012D00070472DE9F04182B01E4690F83D30DBB2F8
:1012E000202B54D104460D469046002953D0002AA5
:1012F00053D090F83C30012B51D0012380F83C3082
:1013000000230364212380F83D30FFF7D5FE074614
:10131000A4F82480A4F82680A368B3F5805F05D0E4
:101320004FF00008002384F83C3012E0236913B129
:101330004FF00008F6E7A8460025F3E738F8023B2F
:101340002268C3F308035360E28C92B2013A92B26E
:10135000E284E38C9BB273B100963B46002280216D
:101360002046FFF753FFE0B9002DE7D015F8012B19
:1013700023685A60E8E700963B4600224021204659
:10138000FFF744FF78B9202384F83D3000E00220C5
:1013900002B0BDE8F0810120FAE70120F8E7022061
:1013A000F6E70320F4E70320F2E700F108034360C7
:1013B0004FF0FF328260C360036100230360704717
:1013C00000230361704743684B609A688A605160EC
:1013D00099600861036801330360704730B40D6899
:1013E000B5F1FF3F11D000F108031C465B681A6895
:1013F000AA42FAD963684B6099608C6061600861A9
:1014000003680133036030BC70470469F2E7036985
:10141000416882688A60416851605A68824206D099
:10142000002202611A68013A1A60186870478268DF
:101430005A60F5E7084B1B681B6823B9074B4FF050
:10144000FF321A607047044B1B68DB68DB685A6820
:10145000024B1A60704700BF840200205403002032
:101460002DE9F04780469946089EDDF824A00A9CA5
:10147000276B02F18042013A07EB820727F007074A
:1014800089B30D4600220F2A07D8A95CA31883F858
:101490003410AB5C0BB10132F5E7002384F8433024
:1014A000062E00D90626E66266640025A564201D86
:1014B000FFF786FF04F11800FFF782FF2461C6F1F1
:1014C0000706A6616462E56484F850504A464146C6
:1014D000384600F00DFD2060BAF1000F01D0CAF8C7
:1014E0000040BDE8F087002384F83430D8E70000DE
:1014F00038B5002407E004EB840293000E4818443A
:10150000FFF753FF0134062CF5D90C4D2846FFF7A1
:101510004CFF0B4C2046FFF748FF0A48FFF745FFFA
:101520000948FFF742FF0948FFF73FFF084B1D60DE
:10153000084B1C6038BD00BF8C0200202C0300202B
:1015400040030020600300208C030020780300206B
:10155000840200208802002010B5044600F0F2FC4E
:10156000204A1368013313601F4B1B685BB11F4B8C
:101570001B686BB91C4B1B68DA6AE36A9A4207D88E
:10158000194B1C6004E0184B1C601368012B26D01B
:10159000174A136801331360E06A01238340154A38
:1015A00011680B43136000EB8000211D124B03EB0D
:1015B0008000FFF708FF00F0E7FC0C4B1B686BB1E5
:1015C000094B1B68DA6AE36A9A4207D20B4B4FF069
:1015D00080521A60BFF34F8FBFF36F8F10BDFFF7BC
:1015E00087FFD5E718030020800200207403002045
:1015F00024030020280300208C02002004ED00E0DA
:1016000010B5044690F8513063B1012B11D0022B74
:101610000ED04FF0500383F31188BFF36F8FBFF3E9
:101620004F8FFEE7006B00F0E7FB204600F0E4FB85
:1016300010BD00F0E1FBFBE70F4B1B68D3B110B509
:1016400000F080FC0D4BDB68DC68201DFFF7DFFE3F
:101650000B4A1368013B1360074A1368013B136090
:1016600000F092FC2046FFF7CBFF034B1B68002BDA
:10167000E6D110BD704700BF1C0300208C03002082
:101680001803002008B5FFF7D7FF064B1B68012B96
:10169000F9D9054B4FF080521A60BFF34F8FBFF35B
:1016A0006F8FF0E78C02002004ED00E070B5044677
:1016B0000D461D4B1E681D4B18680430FFF7A7FE32
:1016C00050B91A4B1B68DA6A012303FA02F218496F
:1016D0000B6823EA02030B60B4F1FF3F0DD03444E2
:1016E000124B1B685C60A64210D9124B18680F4B56
:1016F00019680431FFF772FE70BD002DEFD00B4B5F
:10170000196804310C48FFF75EFEF5E70B4B1868CB
:10171000064B19680431FFF761FE094B1B68A342B1
:10172000EAD9074B1C60E7E7A003002080020020F5
:101730002803002088020020780300208402002073
:101740005403002070B586B00B9D0C9C75B1B4B1EC
:1017500054260496049E542E1AD04FF0500383F35F
:101760001188BFF36F8FBFF34F8FFEE74FF0500329
:1017700083F31188BFF36F8FBFF34F8FFEE74FF0F6
:10178000500383F31188BFF36F8FBFF34F8FFEE7D2
:10179000049E2563022584F8515000250395029488
:1017A00005AD01950A9D0095FFF75AFE2046FFF70B
:1017B000D3FE059806B070BD2DE9F04385B007460D
:1017C000884614461E46900000F098FA00B3814601
:1017D000542000F093FA0546B0B1C0F83090E5B15E
:1017E000002385F85130039302950D9B01930C9BC8
:1017F00000933346224641463846FFF731FE2846DD
:10180000FFF7AAFE012005E0484600F0F5FAE6E7FA
:101810004FF0FF3005B0BDE8F0834FF0FF30F9E73F
:1018200010B588B000240594069407AA06A905A857
:10183000FFF752FC059B0293069B019300942346FD
:10184000079A0D490D48FFF77DFF90B14FF0500307
:1018500083F31188BFF36F8FBFF34F8F084B4FF0A7
:10186000FF321A60074B01221A60074B1C6000F020
:101870000BFC08B010BD00BFC82200088516000888
:101880005403002074030020A0030020024A1368C0
:1018900001331360704700BF20030020F8B53A4BB6
:1018A0001B68002B69D1394B1D6801351D60C5B916
:1018B000374B1B681B6843B14FF0500383F311880B
:1018C000BFF36F8FBFF34F8FFEE7314A1168314B83
:1018D000186810601960304A136801331360FFF70D
:1018E000A9FD2E4B1B68AB423DD900242C4B1B6835
:1018F000DB6A03EB83039A002A4B9B58012B00D928
:101900000124294B1B68002B3CD001243AE0012420
:101910001F4B1B681B6843B31D4B1B68DB68DE68ED
:1019200073689D4226D3371D3846FFF770FDB36AB2
:101930001BB106F11800FFF76AFDF36A01229A4015
:101940001A49086802430A6003EB83039A00394688
:1019500014481044FFF737FDF26A114B1B68DB6A2D
:101960009A42D4D2D4E70024D2E70C4B4FF0FF3296
:101970001A60BBE7094A1360B8E70D4A13680133E0
:10198000136000242046F8BD20030020A00300209F
:101990008402002088020020580300205403002005
:1019A000800200208C020020A403002028030020D5
:1019B0005C03002038B5344B1B6843B94FF050032B
:1019C00083F31188BFF36F8FBFF34F8FFEE700F0F3
:1019D000B9FA2D4B1A68013A1A601B68002B4DD1D9
:1019E0002A4B1B680BB9002449E00024284B1B68D4
:1019F0001BB3274BDB68DC6804F11800FFF707FD19
:101A0000251D2846FFF703FDE06A01238340214A94
:101A100011680B43136000EB800029461E4B03EB5B
:101A20008000FFF7D0FCE26A1C4B1B68DB6A9A421D
:101A3000DCD31B4B01221A60D8E70CB1FFF7FAFC8C
:101A4000184B1C6874B9164B1C68C4B1164B4FF088
:101A500080521A60BFF34F8FBFF36F8F01240EE0E7
:101A6000013C07D0FFF71AFF0028F9D00C4B0122E8
:101A70001A60F5E70B4B00221A60E4E7002400F03F
:101A800083FA204638BD00BF200300201803002041
:101A900060030020280300208C0200208002002028
:101AA000A40300205C03002004ED00E010B5A8B101
:101AB00004460F4B1B6843B14FF0500383F311886A
:101AC000BFF36F8FBFF34F8FFEE7FFF7DFFE0021FD
:101AD0002046FFF7EBFDFFF76DFF38B9054B4FF0E0
:101AE00080521A60BFF34F8FBFF36F8F10BD00BFDE
:101AF0002003002004ED00E0204B1B681BB1204BAD
:101B000001221A6070471E4B00221A601D4B1B6891
:101B1000B3FA83F3DBB2C3F11F0303EB83018A0043
:101B200019498A5842B94FF0500383F31188BFF323
:101B30006F8FBFF34F8FFEE710B4134903EB8300A1
:101B400082000A4450684068506003EB8304A2009E
:101B500014460832114488420BD003EB83039A00E9
:101B6000094B13445B68DA68084B1A605DF8044B54
:101B700070474068044A22445060EEE7200300208A
:101B8000A4030020280300208C02002080020020F3
:101B9000054B1B6833B1054B1B680BB10020704728
:101BA00002207047012070477403002020030020AA
:101BB000842801D0033070470020704708B5FFF734
:101BC0002FFE002008BD2DE9F04387B004460F46E4
:101BD0004569BDB18669AEB1D0F80480D0F80090F7
:101BE000B0F90800FFF7E4FF0296019500903B462C
:101BF000226949464046FFF7A5FD0590059807B0C4
:101C0000BDE8F08365682668D4F81080B4F9080050
:101C1000FFF7CEFF05AB019300903B461FFA88F219
:101C200031462846FFF7C8FD0128E7D00020E6E747
:101C300008B500B90120FFF739FF002008BD0000FA
:101C4000124A12F0070F1ED0D11D21F00701C1F575
:101C5000705313440A460E48026000214160134449
:101C6000083B23F007030B48036059601960991A79
:101C700051601360084B1960084B1960084B4FF016
:101C800000421A6070474FF47053E4E7AC03002041
:101C9000C03F0020A8030020B43F0020B03F002038
:101CA000AC3F002010B4134B1A461B688342FBD391
:101CB0005168541884420AD041684418A3420BD09A
:101CC0000360904200D010605DF8044B704740689C
:101CD000014451601046EFE7074C2468A34206D048
:101CE0005B681944416013681B680360E9E704609E
:101CF000E7E700BFC03F0020A803002070B50446FE
:101D0000FFF7C4FD364B1B68A3B1364B1B681C4262
:101D10004ED134B1083414F0070F02D024F0070478
:101D20000834002C46D0304B1B68A34251D32F4BB4
:101D30001D6804E0FFF784FFE7E72B4615466A6855
:101D4000A24202D22A68002AF7D1254A1268AA4282
:101D500041D01E6808362A681A606B681B1B102B5E
:101D600010D9281910F0070F08D04FF0500383F353
:101D70001188BFF36F8FBFF34F8FFEE743606C6036
:101D8000FFF790FF6A6818490B689B1A0B601849A7
:101D900009688B4201D216490B60124B1B68134332
:101DA0006B6000232B60134A13680133136002E059
:101DB000002600E00026FFF7FDFD16F0070F0CD00F
:101DC0004FF0500383F31188BFF36F8FBFF34F8F32
:101DD000FEE70026EFE70026EDE7304670BD00BFC6
:101DE000A8030020AC3F0020B03F0020C03F0020EF
:101DF000B43F0020B83F0020002834D038B5044656
:101E0000A0F1080550F8043C174A1268134208D1A3
:101E10004FF0500383F31188BFF36F8FBFF34F8FE1
:101E2000FEE750F8081C41B14FF0500383F31188CE
:101E3000BFF36F8FBFF34F8FFEE723EA020340F833
:101E4000043CFFF723FD54F8041C084A13680B44B4
:101E500013602846FFF726FF054A13680133136015
:101E6000FFF7A8FD38BD7047AC3F0020B03F002011
:101E7000BC3F002082B0002301930D4B1B68B3F1DF
:101E8000FF3F08D04FF0500383F31188BFF36F8FEB
:101E9000BFF34F8FFEE74FF0500383F31188BFF37A
:101EA0006F8FBFF34F8F019B002BFCD002B07047A8
:101EB0000C00002008480068006880F308884FF094
:101EC000000080F3148862B661B6BFF34F8FBFF392
:101ED0006F8F00DF00BF000008ED00E0DFF80C00AE
:101EE000016841F4700101607047000088ED00E076
:101EF0004FF0807340F8043C21F0010140F8081CC9
:101F0000054B40F80C3C40F8202C6FF0020340F8E1
:101F1000243C4438704700BF751E000800000000D4
:101F2000074B19680868B0E8F04F80F30988BFF3E1
:101F30006F8F4FF0000080F311887047AFF300807F
:101F4000800200204FF0500383F31188BFF36F8F9E
:101F5000BFF34F8F0A4A136801331360012B00D07F
:101F60007047084B1B6813F0FF0FF9D04FF0500378
:101F700083F31188BFF36F8FBFF34F8FFEE700BF6E
:101F80000C00002004ED00E0094B1B6843B94FF042
:101F9000500383F31188BFF36F8FBFF34F8FFEE7BA
:101FA000013B034A13600BB983F31188704700BFEC
:101FB0000C000020000000000000000000000000F5
:101FC000EFF30980BFF36F8F154B1A681EF0100FE7
:101FD00008BF20ED108A20E9F04F10602DE90900BC
:101FE0004FF0500080F31188BFF34F8FBFF36F8F16
:101FF000FFF782FD4FF0000080F3118809BC1968DB
:102000000868B0E8F04F1EF0100F08BFB0EC108A5F
:1020100080F30988BFF36F8F704700BFAFF3008074
:102020008002002008B54FF0500383F31188BFF3FE
:102030006F8FBFF34F8FFFF731FC18B1034B4FF099
:1020400080521A60002383F3118808BD04ED00E07C
:10205000084A0023136008490B60084B1B680849B5
:10206000A1FB03139B09013B06490B600723136087
:10207000704700BF10E000E018E000E0080000201A
:10208000D34D621014E000E03A4B1A683A4B9A4282
:1020900029D0384B1A68394B9A422DD010B582B0EE
:1020A000374B1A78D2B20192FF221A701B78DBB23A
:1020B0008DF803309DF8033003F05003314A13705C
:1020C000314B07221A609DF8033013F0800F1CD0AB
:1020D0002D4A1368013B13609DF803305B00DBB2AF
:1020E0008DF80330EFE74FF0500383F31188BFF30F
:1020F0006F8FBFF34F8FFEE74FF0500383F31188CC
:10210000BFF36F8FBFF34F8FFEE71F4B1B68032B8F
:1021100008D04FF0500383F31188BFF36F8FBFF3E4
:102120004F8FFEE71B0203F4E063174A1360019B25
:10213000DBB2134A1370154B1A6842F470021A602E
:102140001A6842F070421A60FFF782FF0024104BB9
:102150001C60FFF7C3FE0F4A136843F0404313604F
:10216000FFF7A8FEFFF7C8FCFFF784FE204602B089
:1021700010BD00BF00ED00E071C20F4170C20F4101
:1021800000E400E0C83F0020CC3F002020ED00E04C
:102190000C00002034EF00E0DFF834D00D480E4989
:1021A0000E4A002302E0D458C4500433C4188C42B1
:1021B000F9D30B4A0B4C002301E013600432A24216
:1021C000FBD3FEF77FFF00F011F8FEF731FA7047FE
:1021D000000002200000002010000020E022000883
:1021E0001000002020400020FEE7000070B50D4DDB
:1021F0000D4C641BA4100026A64209D10B4D0C4CBB
:1022000000F020F8641BA4100026A64205D170BD82
:1022100055F8043B98470136EEE755F8043B9847DC
:102220000136F2E7D8220008D8220008D822000898
:10223000DC22000802440346934200D1704703F8B1
:10224000011BF9E7F8B500BFF8BC08BC9E46704713
:0C225000F8B500BFF8BC08BC9E46704703
:10225C00942200082D05000800000000000000007A
:10226C008000000000000000000000009C2200081C
:10227C00590500080000000000000000800000006C
:10228C0000000000000000005461736B310000007E
:10229C005461736B32000000467265652052544FD6
:1022AC00530A0000000000000000000001020304BB
:1022BC0006070809000000000102030449444C45CC
:0422CC00000000000E
:0822D00040DFFF7F0100000068
:0422D800C501000834
:0422DC00A101000854
:1022E00001000000100000000024F400AAAAAAAA1D
:040000050800219935
:00000001FF
