:020000040800F2
:1000000000000220990700083D060008430600088A
:10001000490600084F0600085506000800000000C9
:100020000000000000000000000000005B06000867
:100030006906000800000000770600088506000831
:10004000E9070008E9070008E9070008E9070008D0
:10005000E9070008E9070008E9070008E9070008C0
:10006000E9070008E9070008E9070008E9070008B0
:10007000E9070008E9070008E9070008E9070008A0
:10008000E9070008E9070008E90700080000000088
:10009000000000000000000000000000E907000868
:1000A000E9070008E9070008E9070008E907000870
:1000B000E9070008E9070008E9070008E907000860
:1000C000E9070008E9070008E9070008E907000850
:1000D000E9070008E9070008E90700080000000038
:1000E000E9070008E9070008E90700080000000028
:1000F000000000000000000000000000E907000808
:1001000000000000E9070008E9070008E907000807
:1001100000000000000000000000000000000000DF
:10012000E9070008E9070008E9070008E9070008EF
:10013000E9070008000000000000000000000000C7
:10014000000000000000000000000000E9070008B7
:10015000E9070008E9070008E9070008E9070008BF
:10016000E9070008E907000800000000000000009F
:10017000000000000000000000000000000000007F
:1001800000000000E9070008000000000000000077
:08019000E9070008E907000877
:1001980010B5054C237833B9044B13B10448AFF3B9
:1001A80000800123237010BD0C0000200000000017
:1001B800D012000808B5034B1BB103490348AFF33D
:1001C800008008BD0000000010000020D0120008C8
:1001D80053B94AB9002908BF00281CBF4FF0FF31A6
:1001E8004FF0FF3000F06EB9ADF1080C6DE904CEA8
:1001F80000F006F8DDF804E0DDE9022304B07047FA
:100208002DE9F047089D04468C46002B40F083807A
:100218008A42174647D9B2FA82F242B1C2F12000A7
:1002280024FA00F09140974040EA010C94404FEACC
:100238001748230CBCFBF8F61FFA87FE08FB16C10B
:1002480043EA014306FB0EF1994209D9FB1806F16E
:10025800FF3080F01981994240F21681023E3B44FA
:100268005B1AA4B2B3FBF8F008FB103344EA03446A
:1002780000FB0EFEA64509D93C1900F1FF3380F0BA
:100288000581A64540F2028102383C4440EA064016
:10029800A4EB0E0400261DB1D4400023C5E9004399
:1002A8003146BDE8F08702B9FFDEB2FA82F2002AD1
:1002B80050D1CB1B4FEA174E1FFA87F80126B3FB24
:1002C800FEFC210C0EFB1C3341EA034108FB0CF336
:1002D8008B4207D979180CF1FF3002D28B4200F219
:1002E800E9808446C91AA3B2B1FBFEF00EFB1011D7
:1002F80043EA014408FB00F8A04507D93C1900F17E
:10030800FF3302D2A04500F2D9801846A4EB0804B6
:1003180040EA0C40BFE78B4209D9002D00F0B180BC
:100328000026C5E9000130463146BDE8F087B3FA3A
:1003380083F6002E4AD18B4202D3824200F2B88063
:10034800841A61EB030101208C46002DA8D0C5E971
:10035800004CA5E7C2F1200320FA03F6974001FA02
:1003680002F04FEA174ED9403043030CB1FBFEF6BA
:100378001FFA87F80EFB161143EA014306FB08F142
:10038800994204FA02F409D9FB1806F1FF3C80F0FF
:100398008D80994240F28A80023E3B445B1A81B2CA
:1003A800B3FBFEF00EFB103341EA034100FB08F3F8
:1003B8008B4207D9791800F1FF3C73D28B4271D96F
:1003C80002383944CB1A40EA064678E7C6F1200CD1
:1003D80003FA06F422FA0CF31C4320FA0CF701FA8C
:1003E80006F34FEA144E21FA0CF11F433B0CB1FB04
:1003F800FEF91FFA84F80EFB191143EA014109FBC3
:1004080008FA8A4502FA06F200FA06F308D96118D2
:1004180009F1FF3048D28A4546D9A9F10209214499
:10042800A1EB0A01BFB2B1FBFEF00EFB101147EAC7
:10043800014700FB08F8B84507D9E71900F1FF3173
:100448002ED2B8452CD90238274440EA0940A7EBF8
:100458000807A0FB02894F45C64649461AD317D05C
:100468005DB1B3EB0E0267EB010707FA0CFCF24033
:100478004CEA0202F740C5E9002700263146BDE8EC
:10048800F0872E4628460BE70646E9E61846FDE6BD
:100498004345E5D2B8EB020E69EB04010138DFE70A
:1004A8000846D2E760468DE78146B9E7664675E7B4
:1004B80030464AE7ACF1020C394413E702383C44B1
:1004C80024E700BF704700BF80B58AB000AF07F1CE
:1004D800140300221A605A609A60DA601A610023D5
:1004E8003B612D4B1B6B2C4A43F0040313632A4BCF
:1004F8001B6B03F004033B613B690023FB60264B45
:100508001B6B254A43F080031363234B1B6B03F0DB
:100518008003FB60FB680023BB601F4B1B6B1E4AFC
:1005280043F0010313631C4B1B6B03F00103BB6017
:10053800BB6800237B60184B1B6B174A43F0020310
:100548001363154B1B6B03F002037B607B6800226F
:100558002021124800F016FC4FF400537B61104B29
:10056800BB610023FB6107F1140319460D4800F035
:1005780085FA20237B610123BB610023FB610023F3
:100588003B6207F114031946044800F077FA00BFEC
:100598002837BD4680BD00BF003802400000024039
:1005A800000021100008024080B582B000AF00F0C2
:1005B80019F9FFF789FF00F079F8054B7B607B6834
:1005C80061221A702021034800F0F5FBF5E700BF0F
:1005D800EFBEADDE0000024080B400AF72B600BFCF
:1005E800FEE7000080B582B000AF00237B60104BAF
:1005F8005B6C0F4A43F4804353640D4B5B6C03F40C
:1006080080437B607B6800233B60094B1B6C084A76
:1006180043F080531364064B1B6C03F080533B601C
:100628003B68072000F0F6F900BF0837BD4680BDDB
:100638000038024080B400AFFEE780B400AFFEE7A8
:1006480080B400AFFEE780B400AFFEE780B400AF2F
:10065800FEE780B400AF00BFBD465DF8047B70477D
:1006680080B400AF00BFBD465DF8047B704780B41E
:1006780000AF00BFBD465DF8047B704780B500AF92
:1006880000F002F900BF80BD80B400AF064BD3F87C
:100698008830054A43F47003C2F8883000BFBD466D
:1006A8005DF8047B704700BF00ED00E080B500AF47
:1006B800114B124A1A60104B4FF4E1325A600E4B3C
:1006C80000229A600C4B0022DA600B4B00221A6160
:1006D800094B0C225A61084B00229A61064B0022F2
:1006E800DA61054800F0B6FB0346002B01D0FFF79E
:1006F80073FF00BF80BD00BF2800002000440040F9
:1007080080B58AB000AF786007F1140300221A6040
:100718005A609A60DA601A617B681B68194A9342CA
:100728002BD100233B61184B1B6C174A43F4003351
:100738001364154B1B6C03F400333B613B690023C6
:10074800FB60114B1B6B104A43F0010313630E4B04
:100758001B6B03F00103FB60FB680C237B61022326
:10076800BB610023FB6103233B6207237B6207F124
:1007780014031946054800F081F900BF2837BD4623
:1007880080BD00BF00440040003802400000024025
:10079800DFF834D00D480E490E4A002302E0D45841
:1007A800C4500433C4188C42F9D30B4A0B4C0023B1
:1007B80001E013600432A242FBD3FFF765FF00F0AB
:1007C8005FFDFFF7F1FE70470000022000000020E7
:1007D8000C000020001300080C000020700000200E
:1007E800FEE7000080B500AF0E4B1B680D4A43F4CE
:1007F800007313600B4B1B680A4A43F48063136051
:10080800084B1B68074A43F480731360032000F009
:1008180001F9002000F008F8FFF7E4FE002318466D
:1008280080BD00BF003C024080B582B000AF786058
:10083800124B1A68124B1B7819464FF47A73B3FBA4
:10084800F1F3B2FBF3F3184600F00BF90346002B63
:1008580001D001230EE07B680F2B0AD800227968AB
:100868004FF0FF3000F0E1F8064A7B681360002380
:1008780000E0012318460837BD4680BD000000206F
:10088800080000200400002080B400AF064B1B784D
:100898001A46064B1B681344044A136000BFBD4642
:1008A8005DF8047B704700BF080000206C00002042
:1008B80080B485B000AF78607B6803F00703FB6005
:1008C8000C4BDB68BB60BA684FF6FF031340BB6094
:1008D800FB681A02BB68134343F0BF6343F4003359
:1008E800BB60044ABB68D36000BF1437BD465DF8DF
:1008F800047B704700ED00E080B400AF044BDB6878
:100908001B0A03F007031846BD465DF8047B7047D1
:1009180000ED00E080B483B000AF03463960FB719E
:1009280097F90730002B0ADB3B68DAB20C4997F9D4
:1009380007301201D2B20B4483F800230AE03B6867
:10094800DAB20849FB7903F00F03043B1201D2B273
:100958000B441A7600BF0C37BD465DF8047B704720
:1009680000E100E000ED00E080B489B000AFF8607D
:10097800B9607A60FB6803F00703FB61FB69C3F1A8
:100988000703042B28BF0423BB61FB690433062B30
:1009980002D9FB69033B00E000237B614FF0FF3283
:1009A800BB6902FA03F3DA43BB681A407B699A40D1
:1009B8004FF0FF317B6901FA03F3D9437B680B40A1
:1009C800134318462437BD465DF8047B7047000082
:1009D80080B582B000AF78607B68013BB3F1807F5F
:1009E80001D301230FE00A4A7B68013B53600F21C2
:1009F8004FF0FF30FFF78EFF054B00229A60044B43
:100A080007221A60002318460837BD4680BD00BF7C
:100A180010E000E080B582B000AF78607868FFF73A
:100A280047FF00BF0837BD4680BD80B586B000AF20
:100A38000346B9607A60FB7300237B61FFF75CFFB4
:100A480078617A68B9687869FFF78EFF024697F986
:100A58000F3011461846FFF75DFF00BF1837BD4637
:100A680080BD80B582B000AF78607868FFF7B0FFCE
:100A7800034618460837BD4680BD000080B489B0DB
:100A880000AF7860396000237B6100233B6100235D
:100A9800BB610023FB6159E10122FB6902FA03F300
:100AA8007B613B681B687A6913403B613A697B69E3
:100AB8009A4240F048813B685B6803F00303012BCE
:100AC80005D03B685B6803F00303022B30D17B68D9
:100AD8009B68BB61FB695B00032202FA03F3DB43FB
:100AE800BA691340BB613B68DA68FB695B0002FACC
:100AF80003F3BA691343BB617B68BA699A607B6880
:100B08005B68BB610122FB6902FA03F3DB43BA6944
:100B18001340BB613B685B681B0903F00102FB697A
:100B280002FA03F3BA691343BB617B68BA695A6076
:100B38003B685B6803F00303032B17D07B68DB6813
:100B4800BB61FB695B00032202FA03F3DB43BA696A
:100B58001340BB613B689A68FB695B0002FA03F3C8
:100B6800BA691343BB617B68BA69DA603B685B6842
:100B780003F00303022B23D1FB69DA087B680832F0
:100B880053F82230BB61FB6903F007039B000F2277
:100B980002FA03F3DB43BA691340BB613B681A6985
:100BA800FB6903F007039B0002FA03F3BA691343D6
:100BB800BB61FB69DA087B680832B96943F822101F
:100BC8007B681B68BB61FB695B00032202FA03F3C5
:100BD800DB43BA691340BB613B685B6803F00302FF
:100BE800FB695B0002FA03F3BA691343BB617B68D4
:100BF800BA691A603B685B6803F08053002B00F009
:100C0800A2800023FB60574B5B6C564A43F4804339
:100C18005364544B5B6C03F48043FB60FB68524A9B
:100C2800FB699B08023352F82330BB61FB6903F070
:100C380003039B000F2202FA03F3DB43BA69134054
:100C4800BB617B68494A934219D07B68484A934202
:100C580013D07B68474A93420DD07B68464A93423B
:100C680007D07B68454A934201D1042308E0072353
:100C780006E0032304E0022302E0012300E000234E
:100C8800FA6902F0030292009340BA691343BB6108
:100C98003549FB699B080233BA6941F82320384B70
:100CA8001B68BB613B69DB43BA691340BB613B68A6
:100CB8005B6803F48033002B03D0BA693B691343A4
:100CC800BB612F4ABB6913602D4B5B68BB613B69F5
:100CD800DB43BA691340BB613B685B6803F40033CC
:100CE800002B03D0BA693B691343BB61244ABB6933
:100CF8005360234B9B68BB613B69DB43BA69134074
:100D0800BB613B685B6803F48013002B03D0BA69AE
:100D18003B691343BB611A4ABB699360184BDB6894
:100D2800BB613B69DB43BA691340BB613B685B68E5
:100D380003F40013002B03D0BA693B691343BB616A
:100D48000F4ABB69D360FB690133FB61FB690F2B59
:100D58007FF6A2AE00BF00BF2437BD465DF8047B16
:100D6800704700BF003802400038014000000240D0
:100D78000004024000080240000C0240001002403B
:100D8800003C014080B483B000AF78600B467B80A4
:100D980013467B707B78002B03D07A887B689A6136
:100DA80003E07B881A047B689A6100BF0C37BD4654
:100DB8005DF8047B704780B485B000AF78600B465F
:100DC8007B807B685B69FB607A88FB6813401A0448
:100DD800FB68D9437B880B401A437B689A6100BF44
:100DE8001437BD465DF8047B7047000080B400AF3F
:100DF800034B1B681846BD465DF8047B704700BF6F
:100E08000000002080B500AFFFF7F0FF0246054B59
:100E18009B689B0A03F007030349CB5C22FA03F3A0
:100E2800184680BD00380240E812000880B500AFBF
:100E3800FFF7DCFF0246054B9B685B0B03F00703DB
:100E48000349CB5C22FA03F3184680BD0038024000
:100E5800E812000880B582B000AF78607B68002B8C
:100E680001D101233FE07B6893F83D30DBB2002BD2
:100E780006D17B68002283F83C207868FFF740FCA5
:100E88007B68242283F83D207B681B68DA687B68CE
:100E98001B6822F40052DA60786800F029F87B6851
:100EA8001B681A697B681B6822F490421A617B6888
:100EB8001B685A697B681B6822F02A025A617B68A2
:100EC8001B68DA687B681B6842F40052DA607B684A
:100ED80000221A647B68202283F83D207B68202248
:100EE80083F83E20002318460837BD4680BD000021
:100EF8002DE9F04F9FB000AFF866FB6E1B681B69C9
:100F080023F44050FB6ED968FB6E1A6840EA01036F
:100F18001361FB6E9A68FB6E1B691A43FB6E5B6973
:100F28001A43FB6EDB6913433B67FB6E1B68DB6888
:100F380023F4164121F00C01FB6E1A683B6F0B433A
:100F4800D360FB6E1B685B6923F44070FB6E996984
:100F5800FB6E1A6840EA01035361FB6E1A68C54BC1
:100F68009A4204D0FB6E1A68C34B9A4203D1FFF72A
:100F78005DFF786702E0FFF745FF7867FB6EDB6986
:100F8800B3F5004F40F0B6807B6F1C464FF000056C
:100F980022462B46911839645B417B64D7E91023BC
:100FA800121945EB03034FF000004FF00001D90080
:100FB80041EA5271D00002460B46111939666B415D
:100FC8007B66FB6E5B681A464FF000039118B963A5
:100FD8005B41FB63D7E90E23D7E91801FFF7F8F85F
:100FE80002460B46A54BA3FB02235B091E017B6F40
:100FF8001C464FF0000522462B46911839635B4189
:101008007B63D7E90C23121945EB03034FF000006B
:101018004FF00001D90041EA5271D00002460B4658
:101028001119B9656B41FB65FB6E5B681A464FF099
:1010380000039118B9625B41FB62D7E90A23D7E93B
:101048001601FFF7C5F802460B468C4BA3FB0213AB
:101058005B09642101FB03F3D31ADB003233874AAF
:10106800A2FB03235B095B0003F4F8731E447B6F48
:1010780018464FF0000102460B4694183C625B414B
:101088007B62D7E90823121841EB03034FF00004F1
:101098004FF00005DD0045EA5275D40022462B4684
:1010A80014183C654B417B65FB6E5B681A464FF034
:1010B80000039118B9615B41FB61D7E90623D7E9C1
:1010C8001401FFF785F802460B466C4BA3FB02138D
:1010D8005B09642101FB03F3D31ADB003233674A4F
:1010E800A2FB03235B0903F00702FB6E1B68324473
:1010F8009A60B9E07B6F1C464FF0000522462B46EC
:10110800911839615B417B61D7E90423121945EBDA
:1011180003034FF000004FF00001D90041EA52717B
:10112800D00002460B4612EB040843EB0509FB6EA0
:101138005B6818464FF000014FF000024FF00003C3
:101148008B0043EA9073820040464946FFF740F817
:1011580002460B46494BA3FB02235B091E017B6F2A
:1011680018464FF0000102460B469418BC605B41DC
:10117800FB60D7E90223121841EB03034FF0000488
:101188004FF00005DD0045EA5275D40022462B4693
:101198001418BC644B41FB64FB6E5B6818464FF047
:1011A80000014FF000024FF000038B0043EA9073F8
:1011B8008200D7E91201FFF70BF802460B462F4BC6
:1011C800A3FB02135B09642101FB03F3D31A1B0180
:1011D80032332A4AA2FB03235B0903F0F0031E44BF
:1011E8007B6F18464FF0000102460B4694183C608E
:1011F8005B417B60D7E90023121841EB03034FF0F2
:1012080000044FF00005DD0045EA5275D40022467F
:101218002B4612EB000A43EB010BFB6E5B6818468A
:101228004FF000014FF000024FF000038B0043EA3B
:101238009073820050465946FEF7CAFF02460B4695
:101248000E4BA3FB02135B09642101FB03F3D31AC2
:101258001B013233094AA2FB03235B0903F00F0287
:10126800FB6E1B6832449A6000BF7C37BD46BDE800
:10127800F08F00BF00100140001401401F85EB51A2
:1012880070B50D4D0D4C641BA4100026A64209D163
:101298000B4D0C4C00F018F8641BA4100026A64255
:1012A80005D170BD55F8043B98470136EEE755F86F
:1012B800043B98470136F2E7F8120008F8120008D4
:1012C800F8120008FC120008F8B500BFF8BC08BC0A
:1012D8009E467047F8B500BFF8BC08BC9E467047EC
:0812E8000000000001020304F4
:0812F00018EFFF7F0100000070
:0412F800BD0100082C
:0412FC00990100084C
:0C1300000024F4001000000001000000B8
:04000005080007994F
:00000001FF
