:020000040800F2
:10000000000002209D170008A9060008AB060008A2
:10001000AD060008AF060008B106000800000000A9
:10002000000000000000000000000000B30600080F
:10003000B506000800000000B7060008B906000871
:10004000ED170008ED170008ED170008ED17000880
:10005000ED170008ED170008ED170008ED17000870
:10006000ED170008ED170008ED170008ED17000860
:10007000ED170008ED170008ED170008ED17000850
:10008000ED170008ED170008ED170008000000004C
:10009000000000000000000000000000ED17000854
:1000A000ED170008ED170008ED170008ED17000820
:1000B000ED170008ED170008ED170008ED17000810
:1000C000ED170008ED170008ED170008ED17000800
:1000D000ED170008ED170008ED17000800000000FC
:1000E000ED170008ED170008ED17000800000000EC
:1000F000000000000000000000000000ED170008F4
:1001000000000000ED170008ED170008ED170008CB
:1001100000000000000000000000000000000000DF
:10012000ED170008ED170008ED170008ED1700089F
:10013000ED170008000000000000000000000000B3
:10014000000000000000000000000000ED170008A3
:10015000ED170008ED170008ED170008ED1700086F
:10016000ED170008ED170008000000000000000077
:10017000000000000000000000000000000000007F
:1001800000000000ED170008000000000000000063
:08019000ED170008ED1700084F
:1001980010B5054C237833B9044B13B10448AFF3B9
:1001A80000800123237010BD0C0000200000000017
:1001B8004818000808B5034B1BB103490348AFF3BF
:1001C800008008BD0000000010000020481800084A
:1001D80053B94AB9002908BF00281CBF4FF0FF31A6
:1001E8004FF0FF3000F06EB9ADF1080C6DE904CEA8
:1001F80000F006F8DDF804E0DDE9022304B07047FA
:100208002DE9F047089D04468C46002B40F083807A
:100218008A42174647D9B2FA82F242B1C2F12000A7
:1002280024FA00F09140974040EA010C94404FEACC
:100238001748230CBCFBF8F61FFA87FE08FB16C10B
:1002480043EA014306FB0EF1994209D9FB1806F16E
:10025800FF3080F01981994240F21681023E3B44FA
:100268005B1AA4B2B3FBF8F008FB103344EA03446A
:1002780000FB0EFEA64509D93C1900F1FF3380F0BA
:100288000581A64540F2028102383C4440EA064016
:10029800A4EB0E0400261DB1D4400023C5E9004399
:1002A8003146BDE8F08702B9FFDEB2FA82F2002AD1
:1002B80050D1CB1B4FEA174E1FFA87F80126B3FB24
:1002C800FEFC210C0EFB1C3341EA034108FB0CF336
:1002D8008B4207D979180CF1FF3002D28B4200F219
:1002E800E9808446C91AA3B2B1FBFEF00EFB1011D7
:1002F80043EA014408FB00F8A04507D93C1900F17E
:10030800FF3302D2A04500F2D9801846A4EB0804B6
:1003180040EA0C40BFE78B4209D9002D00F0B180BC
:100328000026C5E9000130463146BDE8F087B3FA3A
:1003380083F6002E4AD18B4202D3824200F2B88063
:10034800841A61EB030101208C46002DA8D0C5E971
:10035800004CA5E7C2F1200320FA03F6974001FA02
:1003680002F04FEA174ED9403043030CB1FBFEF6BA
:100378001FFA87F80EFB161143EA014306FB08F142
:10038800994204FA02F409D9FB1806F1FF3C80F0FF
:100398008D80994240F28A80023E3B445B1A81B2CA
:1003A800B3FBFEF00EFB103341EA034100FB08F3F8
:1003B8008B4207D9791800F1FF3C73D28B4271D96F
:1003C80002383944CB1A40EA064678E7C6F1200CD1
:1003D80003FA06F422FA0CF31C4320FA0CF701FA8C
:1003E80006F34FEA144E21FA0CF11F433B0CB1FB04
:1003F800FEF91FFA84F80EFB191143EA014109FBC3
:1004080008FA8A4502FA06F200FA06F308D96118D2
:1004180009F1FF3048D28A4546D9A9F10209214499
:10042800A1EB0A01BFB2B1FBFEF00EFB101147EAC7
:10043800014700FB08F8B84507D9E71900F1FF3173
:100448002ED2B8452CD90238274440EA0940A7EBF8
:100458000807A0FB02894F45C64649461AD317D05C
:100468005DB1B3EB0E0267EB010707FA0CFCF24033
:100478004CEA0202F740C5E9002700263146BDE8EC
:10048800F0872E4628460BE70646E9E61846FDE6BD
:100498004345E5D2B8EB020E69EB04010138DFE70A
:1004A8000846D2E760468DE78146B9E7664675E7B4
:1004B80030464AE7ACF1020C394413E702383C44B1
:1004C80024E700BF704700BF82B000230193064BAA
:1004D8001A6B42F001021A631B6B03F001030193CC
:1004E800019B02B0704700BF0038024072B6FEE7B9
:1004F80008B50D480D4B03604FF482734360002329
:100508008360C360036143614FF400728261C36119
:100518000362436283620A23C36200F0F5F900B9FB
:1005280008BDFFF7E3FF00BF2800002000300140AE
:1005380008B50A480A4B03604FF4E13343600023CF
:100548008360C36003610C2242618361C36101F06F
:100558007BF800B908BDFFF7C9FF00BF8000002085
:100568000044004000B595B03022002108A801F0F1
:100578005FF900230393049305930693079301936C
:10058800184A116C41F080511164126C02F08052CB
:100598000192019A0293144A116841F44041116092
:1005A800126802F440420292029A02220892012240
:1005B8000B9210220C920E9308A800F0DBFA68B98F
:1005C8000F2303930021049105910691079103A835
:1005D80000F01CFD20B915B05DF804FBFFF786FF9D
:1005E800FFF784FF003802400070004070B58CB0FF
:1005F80000F03CFFFFF7B6FFFFF766FFFFF778FF55
:10060800FFF796FF0A238DF820304FF0FF33292299
:100618001E491F4801F047F84FF4807300252C4607
:1006280010E0C5EBC50303EB031305EBC353194DEA
:100638001D440134634204F01F0403F01F0358BF34
:100648005C4233465E1ECBB1C5F3832361330CAAEB
:10065800224402F8303C1F2CE3D14FF0FF33202214
:1006680069460D4800F0AFF90028DAD14FF0FF33A2
:1006780021226946064801F016F8D2E74FF0FF3309
:1006880029220649024801F00EF8FEE76018000822
:100698008000002091E52501280000208C18000822
:1006A800FEE7FEE7FEE7FEE7FEE7704770477047A4
:1006B80008B500F0F5FE08BD82B0002100910B4B93
:1006C8005A6C42F480425A645A6C02F48042009296
:1006D800009A01911A6C42F080521A641B6C03F064
:1006E80080530193019B02B0704700BF003802405D
:1006F80000B589B0002303930493059306930793E9
:100708000268154B9A4202D009B05DF804FB00223A
:10071800019203F58433596C41F480515964596C42
:1007280001F48051019101990292196B41F0010184
:1007380019631B6B03F001030293029BE0230393ED
:10074800022304930592032306930523079303A921
:10075800024800F031FDD7E70030014000000240B8
:1007680000B589B000230393049305930693079378
:100778000268154B9A4202D009B05DF804FB0022CA
:10078800019203F5FA33196C41F400311964196CBC
:1007980001F40031019101990292196B41F00101B4
:1007A80019631B6B03F001030293029B0C23039351
:1007B800022304930592032306930723079303A9AF
:1007C800024800F0F9FCD7E700440040000002406E
:1007D8002DE9F04782B00546884617461E4600F0C8
:1007E8006BFE0A9B1B1A03EB060900F065FE8246A6
:1007F8002A4B1B68C3F3CB3309FB03F301932B6824
:100808009C6838EA04030CBF01240024BC4240D091
:10081800B6F1FF3FF3D000F04FFEA0EB0A004845C9
:100828000AD2B9F1000F07D0019A02B14A46019BDA
:10083800013B01939146E2E72A68536823F0E003FD
:1008480053606B68B3F5827F0BD0AB6AB3F5005F7A
:1008580014D0012385F85130002385F85030032047
:1008680018E0AB68B3F5004F02D0B3F5806FECD158
:100878002A68136823F040031360E6E72A681368C0
:1008880023F4005313602A68136843F40053136079
:10089800DFE7002002B0BDE8F08700BF08000020B5
:1008A80030B585B00446164B1868164BA3FB0030CC
:1008B800400D4FF47A7505FB00F003906368B3F5BB
:1008C800827F0BD0039BBBB1039B013B039323683F
:1008D8009B6813F0800FF5D100200EE000920B46C4
:1008E800002280212046FFF773FF30B1636D43F08B
:1008F80020036365032000E0002005B030BD00BF81
:1009080008000020819F5E1600285AD010B50446C2
:10091800436A33B94368B3F5827F05D00023C361C6
:1009280002E00023036143610023A36294F851307D
:10093800002B40D0022384F851302268136823F03A
:1009480040031360636803F48273A26802F40442EC
:100958001343E26802F400621343226902F00202C0
:100968001343626902F001021343A26902F40072A0
:100978001343E26902F038021343226A02F080024C
:100988001343A26A02F40052216813430B60638B7D
:1009980003F00403626A02F01002216813434B60FB
:1009A8002268D36923F40063D361002060650123C2
:1009B80084F8513010BD84F850302046FFF798FE77
:1009C800B8E7012070472DE9F04383B01D4690F841
:1009D8005030012B00F0CC80044688469146012314
:1009E80080F8503000F068FD074694F85160F6B280
:1009F800012E40F0AA80B8F1000F00F0A780B9F1ED
:100A0800000F00F0A380032384F8513000236365AE
:100A1800C4F83080A4F83490A4F83690A363A38770
:100A2800E38763642364A368B3F5004F1ED023688B
:100A38001A6812F0400F03D11A6842F040021A6097
:100A4800E368B3F5006F1CD0636813B1B9F1010F07
:100A580052D1226B236812781A73236B01332363F4
:100A6800E38E9BB2013B9BB2E38645E022681368A4
:100A780023F0400313602268136843F48043136033
:100A8800D5E7636813B1B9F1010F16D1226B23685A
:100A98001288DA60236B02332363E38E9BB2013B37
:100AA8009BB2E38609E000F007FDC01BA84202D311
:100AB800B5F1FF3F54D1002D54D0E38E9BB2002BEB
:100AC8002ED023689A6812F0020FECD0226B12889D
:100AD800DA60236B02332363E38E9BB2013B9BB244
:100AE800E386EAE700F0E8FCC01BA84202D3B5F1B0
:100AF800FF3F39D1002D39D0E38E9BB283B12368F3
:100B08009A6812F0020FEDD0226B12781A73236BD9
:100B180001332363E28E92B2013A92B2E286EBE7A6
:100B28003A4629462046FFF7BBFE08B120236365F5
:100B3800A36833B901932368DA6801929B6801932B
:100B4800019B636D13B9002600E00226012384F897
:100B58005130002384F85030304603B0BDE8F083AC
:100B68000326F3E70326F1E70326EFE70326EDE77D
:100B78000226F1E7002800F0DF8170B582B0044654
:100B8800036813F0010F3BD0A64B9B6803F00C03DE
:100B9800042B2CD0A34B9B6803F00C03082B21D00B
:100BA8006368B3F5803F4FD0B3F5A02F52D09D4B6B
:100BB8001A6822F480321A601A6822F480221A60B5
:100BC8006368002B50D000F077FC0546954B1B68F6
:100BD80013F4003F14D100F06FFC401B6428F5D9D2
:100BE8000320B0E18F4B5B6813F4800FD8D08D4B96
:100BF8001B6813F4003F03D06368002B00F09E814C
:100C0800236813F0020F54D0864B9B6813F00C0F27
:100C18003ED0844B9B6803F00C03082B33D0E36869
:100C2800002B67D0804B01221A6000F045FC054676
:100C38007C4B1B6813F0020F53D100F03DFC401BA6
:100C48000228F5D903207EE1764A136843F48033FD
:100C58001360B5E7734B1A6842F480221A601A6869
:100C680042F480321A60ABE700F026FC05466D4B73
:100C78001B6813F4003FC3D000F01EFC401B64281F
:100C8800F5D903205FE1674B5B6813F4800FC6D189
:100C9800644B1B6813F0020F03D0E368012B40F08C
:100CA8004F81604A136823F0F803216943EAC103BE
:100CB8001360236813F0080F40D0636963B35B4B7C
:100CC80001221A6000F0F8FB0546564B5B6F13F0E3
:100CD800020F33D100F0F0FB401B0228F5D90320A6
:100CE80031E1504A136823F0F803216943EAC1034C
:100CF8001360DEE74C4B00221A6000F0DDFB05466E
:100D0800484B1B6813F0020FD3D000F0D5FB401BF3
:100D18000228F5D9032016E1444B00221A6000F09E
:100D2800CBFB05463F4B5B6F13F0020F06D000F07C
:100D3800C3FB401B0228F5D9032004E1236813F004
:100D4800040F78D0374B1B6C13F0805F0DD1002354
:100D58000193344B1A6C42F080521A641B6C03F0F6
:100D680080530193019B012500E00025304B1B684F
:100D780013F4807F21D0A368012B32D0052B36D005
:100D8800284B1A6F22F001021A671A6F22F0040228
:100D98001A67A368002B34D000F08EFB0646214B5F
:100DA8001B6F13F0020F45D100F086FB801B41F248
:100DB80088339842F3D90320C5E01D4A136843F4E9
:100DC8008073136000F078FB0646194B1B6813F418
:100DD800807FD0D100F070FB801B0228F5D903205A
:100DE800B1E0104A136F43F001031367D1E70D4BCD
:100DF8001A6F42F004021A671A6F42F001021A676A
:100E0800C7E700F059FB0646064B1B6F13F0020FAD
:100E180010D000F051FB801B41F288339842F3D97F
:100E2800032090E00038024000004742800E47420D
:100E380000700040EDB9A369002B00F08380494A97
:100E4800926802F00C02082A51D0022B17D0464BA8
:100E580000221A6000F030FB0446424B1B6813F076
:100E6800007F42D000F028FB001B0228F5D90320A0
:100E780069E03C4A136C23F080531364DBE73A4B78
:100E880000221A6000F018FB0546364B1B6813F069
:100E9800007F06D000F010FB401B0228F5D9032084
:100EA80051E0E369226A1343626A43EA8213A26A41
:100EB8005208013A43EA0243E26A43EA0263294AD2
:100EC8005360294B01221A6000F0F6FA0446254BBC
:100ED8001B6813F0007F06D100F0EEFA001B022811
:100EE800F5D903202FE000202DE000202BE0012B76
:100EF8002BD01C4B5B6803F48001E269914226D138
:100F080003F03F02216A8A4223D1616A47F6C07220
:100F18001A40B2EB811F1ED103F44031A26A520875
:100F2800013AB1EB024F18D103F07063E26AB3EBF8
:100F3800026F14D1002006E001207047012002E072
:100F4800012000E0002002B070BD0120FBE7012075
:100F5800F9E70120F7E70120F5E70120F3E7012091
:100F6800F1E700BF0038024060004742F8B5244B63
:100F78009B6803F00C03042B3DD0082B3DD1204B7C
:100F88005A6802F03F025B6813F4800F12D01C4BC2
:100F98005968C1F3881100231A48A1FB0001FFF723
:100FA80017F9174B5B68C3F3014301335B00B0FBD0
:100FB800F3F023E0124B5B68C3F388135C01002550
:100FC800E41A65F10005AE0146EA9466A701381BEC
:100FD80066EB0501CC0044EA5074C500E81844F1FA
:100FE80000018B0243EA90538402204619460023ED
:100FF800FFF7EEF8D5E7034800E00348F8BD00BF67
:101008000038024040787D010024F400002800F0F8
:101018009B8070B50D4604464F4B1B6803F00703D1
:101028008B4208D2CBB24C4A1370136803F0070303
:101038008B4240F08B80236813F0020F17D013F017
:10104800040F04D0454A936843F4E053936023683F
:1010580013F0080F04D0414A936843F46043936047
:101068003E4A936823F0F003A1680B43936023681A
:1010780013F0010F32D06368012B21D09A1E012A88
:1010880025D9364A126812F0020F61D033498A68AE
:1010980022F0030213438B6000F00EFA06462F4B32
:1010A8009B6803F00C036268B3EB820F16D000F064
:1010B80003FA801B41F288339842F0D9032042E0BA
:1010C800264A126812F4003FE0D101203BE0234A8F
:1010D800126812F0007FD9D1012034E01E4B1B6842
:1010E80003F00703AB4207D9EAB21B4B1A701B681F
:1010F80003F00703AB422DD1236813F0040F06D089
:10110800164A936823F4E053E1680B43936023681D
:1011180013F0080F07D0114A936823F4604321693C
:1011280043EAC1039360FFF721FF0C4B9B68C3F3AD
:1011380003130B4AD35CD8400A4B18600A4B186853
:1011480000F06EF9002070BD012070470120FAE719
:101158000120F8E70120F6E7003C02400038024091
:10116800B81800080800002004000020014B186887
:10117800704700BF0800002008B5FFF7F7FF044BD1
:101188009B68C3F38223034AD35CD84008BD00BFE1
:1011980000380240C818000808B5FFF7E7FF044BFD
:1011A8009B68C3F34233034AD35CD84008BD00BFF1
:1011B80000380240C818000800230F2B00F2CB802B
:1011C800F0B482B05DE086685F000324BC4026EA84
:1011D8000406CC68BC4034438460466826EA0206AC
:1011E8004C68C4F300129A403243426057E0DC086E
:1011F800083450F8247003F0070296000F22B2401A
:1012080027EA02070A69B2403A4340F824205AE024
:10121800042200E00022B2403A4302344E4E46F81F
:1012280024204E4A1468EA4324EA05064F6817F456
:10123800803F01D045EA0406484C2660646802EA0B
:1012480004064F6817F4003F01D045EA0406434CF2
:101258006660A46802EA04064F6817F4801F01D08C
:1012680045EA04063D4CA660E46822404E6816F440
:10127800001F01D045EA0402384CE26001330F2B0D
:1012880066D801229A400C6804EA020532EA04048E
:10129800F4D14C6804F00304013C012C93D94A684A
:1012A80002F00302032A09D0C4685E000322B24098
:1012B80024EA02048A68B2402243C2604A6802F003
:1012C8000302022A93D004685E000322B24024EA93
:1012D80002044A6802F00302B240224302604A68EC
:1012E80012F0805FCAD0002201921D4A546C44F467
:1012F80080445464526C02F480420192019A9C0822
:10130800A61C154A52F8267003F0030296000F2215
:10131800B24027EA0207134A90423FF47BAF02F536
:10132800806290420ED002F5806290420CD002F5A5
:10133800806290420AD002F5806290423FF468AF22
:10134800072268E7012266E7022264E7032262E7D0
:1013580002B0F0BC7047704700380140003C0140C3
:101368000038024000000240074AD36823F4E063D3
:101378001B041B0C000200F4E060034343F0BF634E
:1013880043F40033D360704700ED00E030B4174BEE
:10139800DB68C3F30223C3F10704042C28BF042429
:1013A8001D1D062D18D9033B4FF0FF3505FA04F42F
:1013B80021EA0401994005FA03F322EA03031943D9
:1013C80000280BDB0901C9B200F1604000F561405B
:1013D80080F8001330BC70470023E5E700F00F00E9
:1013E8000901C9B2024B1954F4E700BF00ED00E04F
:1013F80014ED00E00138B0F1807F0AD2064B586046
:10140800064AF02182F823100020986007221A600B
:1014180070470120704700BF10E000E000ED00E0D9
:1014280010B504460E4B18784FF47A73B3FBF0F3FB
:101438000C4A1068B0FBF3F0FFF7DCFF68B90F2C1B
:1014480001D901200AE0002221464FF0FF30FFF7C2
:101458009DFF054B1C60002000E0012010BD00BF6F
:1014680000000020080000200400002008B50B4BF5
:101478001A6842F400721A601A6842F480621A60AC
:101488001A6842F480721A600320FFF76DFF00208B
:10149800FFF7C6FFFFF710F9002008BD003C024027
:1014A800034A1168034B1B780B441360704700BF55
:1014B800C400002000000020014B1868704700BFDE
:1014C800C400002070B504460268136923F4405331
:1014D800C1680B431361836802691343426913436C
:1014E800C2691A430168CB6823F4164323F00C033E
:1014F8001343CB600268536923F4407381690B433B
:1015080053610368344A934206D002F580629342DD
:1015180002D0FFF731FE01E0FFF73EFEE369B3F5C5
:10152800004F2AD00026051846EB06012D1846EB79
:101538000101CB0043EA5573EA0015461946636872
:101548009A009B0F281846EB0101FEF741FE234D38
:10155800A5FB00325109642303FB11031B0132333D
:10156800A5FB03235B0903F0F00202EB011203F071
:101578000F03216813448B6070BD0026051846EBE5
:1015880006012D1846EB0101CB0043EA5573EA002A
:101598001546194662683346921846EB0303281825
:1015A80046EB0101FEF714FE0C4DA5FB0032510974
:1015B800642303FB1103DB003233A5FB03235B0920
:1015C8005A0002F4F87202EB011203F007032168D3
:1015D80013448B60D0E700BF001001401F85EB511A
:1015E8002DE9F84305460F4616469946DDF8208052
:1015F8002C68246837EA04030CBF01240024B44291
:101608001FD1B8F1FF3FF3D0B8F1000F05D0FFF7B5
:1016180053FFA0EB09004045EAD92A68D36823F4B0
:10162800D073D3602A68536923F0010353612023E0
:1016380085F83D3085F83E30002385F83C3003209E
:1016480000E00020BDE8F88358B310B5044690F8D0
:101658003D300BB3242384F83D302268D36823F44B
:101668000053D3602046FFF72DFF2268136923F447
:10167800904313612268536923F02A035361226857
:10168800D36843F40053D36000202064202384F8F7
:101698003D3084F83E3010BD80F83C30FFF760F8EC
:1016A800D8E7012070472DE9F04182B01E4690F836
:1016B8003D30DBB2202B54D104460D46904600291C
:1016C80053D0002A53D090F83C30012B51D001233D
:1016D80080F83C3000230364212380F83D30FFF775
:1016E800EBFE0746A4F82480A4F82680A368B3F587
:1016F800805F05D04FF00008002384F83C3012E0EA
:10170800236913B14FF00008F6E7A8460025F3E770
:1017180038F8023B2268C3F308035360E28C92B2A4
:10172800013A92B2E284E38C9BB273B100963B46D5
:10173800002280212046FFF753FFE0B9002DE7D0B3
:1017480015F8012B23685A60E8E700963B4600220B
:1017580040212046FFF744FF78B9202384F83D3024
:1017680000E0022002B0BDE8F0810120FAE7012084
:10177800F8E70220F6E70320F4E70320F2E7000089
:10178800034AD2F8883043F47003C2F888307047AF
:1017980000ED00E0DFF834D00D480E490E4A002372
:1017A80002E0D458C4500433C4188C42F9D30B4A0D
:1017B8000B4C002301E013600432A242FBD3FFF775
:1017C800DFFF00F011F8FEF711FF7047000002205C
:1017D800000000200C000020E01800080C00002089
:1017E800C8000020FEE7000070B50D4D0D4C641BCD
:1017F800A4100026A64209D10B4D0C4C00F020F88D
:10180800641BA4100026A64205D170BD55F8043B00
:1018180098470136EEE755F8043B98470136F2E75A
:10182800D8180008D8180008D8180008DC180008CC
:1018380002440346934200D1704703F8011BF9E7BD
:10184800F8B500BFF8BC08BC9E467047F8B500BFA5
:08185800F8BC08BC9E46704775
:101860002D2D2D2D2D2D2D2D2D2D2D2D2D2D2D2DA8
:1018700053504920544553542D2D2D2D2D2D2D2DB4
:101880002D2D2D2D2D2D2D2D0A0000002D2D2D2D32
:101890002D2D2D2D2D2D2D2D2D2D2D2D54455354EC
:1018A00020454E442D2D2D2D2D2D2D2D2D2D2D2D25
:1018B0002D2D2D2D0A00000000000000000000006A
:1018C00001020304060708090000000001020304E6
:0818D00038E9FF7F0100000070
:0418D800BD01000846
:0418DC009901000866
:0C18E00001000000100000000024F400D3
:040000050800179D3B
:00000001FF
