:020000040800F2
:100000000000022099010008F7180008711F00087D
:10001000F7180008F7180008F7180008000000009B
:10002000000000000000000000000000F7180008B9
:10003000F718000800000000F7180008F71800087B
:10004000F7180008F7180008F7180008F718000854
:10005000F7180008F7180008F7180008F718000844
:10006000F7180008F7180008F7180008F718000834
:10007000F7180008F7180008F7180008F718000824
:10008000F7180008F7180008F7180008000000002B
:10009000000000000000000000000000F718000849
:1000A000F7180008F7180008F7180008F7180008F4
:1000B000F7180008F7180008F7180008F7180008E4
:1000C000F7180008F7180008F7180008F7180008D4
:1000D000F7180008F71800080505000800000000E0
:1000E000F7180008F7180008F718000800000000CB
:1000F000000000000000000000000000F7180008E9
:1001000000000000F7180008F7180008F7180008AA
:1001100000000000000000000000000000000000DF
:10012000F7180008F7180008F7180008F718000873
:10013000F7180008000000000000000000000000A8
:10014000000000000000000000000000F718000898
:10015000F7180008F7180008F7180008F718000843
:10016000F7180008F7180008000000000000000061
:10017000000000000000000000000000000000007F
:1001800000000000F7180008000000000000000058
:08019000F7180008F718000839
:1001980080B56F4601F0ACFB40F2100040F2000160
:1001A800C2F20000C2F20001814213D240F2000103
:1001B8000022C2F2000141F8042B81423FBF41F8FE
:1001C800042B814241F8042B814203D241F8042BCD
:1001D8008142F0D340F2000140F20000C2F2000177
:1001E800C2F2000088420ED2021D8A4238BF0A4677
:1001F800C143114421F003010A1D42F2E871C0F61F
:10020800000101F02FFE4EF68850CEF20000016882
:1002180041F47001016001F065FBFEDEF0B503AF4B
:100228002DE9000B82B0054643F60000C4F2020037
:100238001646894601F0E1FA304601F0DCFAB5EBE2
:10024800101F07D9B5EBD00F0DD9012002B0BDE8BA
:10025800000BF0BD002D4DD000EB550042F20C080C
:10026800B0FBF5F50BE040004AF20C0800EB550036
:10027800B0FBF5F020F00F01C0F3420045184FEA3B
:100288001966C9F3072401F0B1FA856001F0AEFAE6
:100298000025056101F0AAFA45615FFA89F080F04E
:1002A8000100002CB0FA80F04FEA50104FEA0031FC
:1002B80001F5806108BF0103022C08BF01F5007138
:1002C80041EA080401F092FAC4608025DFE806F0EC
:1002D80008050204402500E0C02501F087FA4561C1
:1002E80001A84FEA194101F0A7FA002002B0BDE8C1
:1002F800000BF0BD42F2000041F6E472C0F60000C7
:10030800C0F60002192101F036FBFEDE704780B509
:100318006F4600F001F8FEDE80B56F46B2B001F01E
:10032800F5FA044601F0E5FA01F0F3FA40F20C00A0
:1003380004F00101C2F200000578002D04BF01227B
:100348000270002908BF01F0D6FA01F0DFFA04466E
:1003580001F0CFFA01F0DDFA40F20D0004F00101DE
:10036800C2F200000678002E04BF012202700029A4
:1003780008BF01F0C0FA56EA050000D0FEE701F018
:100388002DFA40F2000A4FF00109C4F2020A02AD48
:10039800DAF80C0020F44060CAF80C00DAF804001F
:1003A80020F02000CAF80400DAF8000069F38B2076
:1003B800CAF80000284601F007FA29460DF1680836
:1003C8005CC940465CC091E85C0008F128015CC04B
:1003D80005F1280090E87C0030207CC100F059F934
:1003E80000F058F90DF1440BCDE9229041465846EA
:1003F80000F098F9594640465CC95CC091E87C0019
:1004080041467CC029A801F01FFA0220072101F00B
:10041800ACF90320072101F0A8F900F036F981466C
:100428004FF416500C4600F034F90246484621466F
:1004380000F029F9BBE87800424678C29BE87810BA
:1004480082E878104246FFF7E9FE98BB01F0CEF942
:10045800C16841F02001C16001F058FA044601F07A
:1004680048FA01F056FA40F20000C2F20000416872
:1004780091BB0021416001210172E00708BF01F032
:100488003AFA4EF2041029ACCEF2000040212025A1
:100498004FF40016016020464FF4FA7101F0E7F9B5
:1004A80020464FF4FA71CAF8185001F0E0F9CAF87A
:1004B8001860F0E742F2BC0042F29003C0F6000078
:1004C8001AAA009042F26400C0F60000C0F60003C9
:1004D8002B2101F07BFAFEDE42F2CC0042F25403FB
:1004E800C0F600001AAA009042F21900C0F60000F7
:1004F800C0F60003102101F069FAFEDEB0B502AFC4
:1005080084B040F20005C2F200052878A8B901F0CD
:10051800FDF9044601F0EDF901F0FBF96868C8BB84
:10052800287A002169602972C00745D014F00100BB
:1005380008BF01F0E0F90120287001F057F90068C0
:10054800800625D501F052F90468E00740D114F07F
:100558000E0F02D001F04AF94068A0073DD46007A9
:100568003DD420073DD4A0063DD501F03FF90479DC
:1005780001F03CF9006800064BD501F037F9047129
:1005880001F034F90068000659D501F02FF904711B
:1005980004B0B0BD42F20C1042F25403C0F60000A1
:1005A80003AA009042F21900C0F60000C0F600034A
:1005B800102101F00BFAFEDE42F2290042F21C1271
:1005C800C0F60000C0F600022B2101F0D4F9FEDECF
:1005D80001F00CF90321406806E0002104E0012144
:1005E80002E0022100E0052142F2DC0042F2A00311
:1005F800C0F60000A7F10F02009042F26400C0F6B6
:100608000000C0F6000307F80F1C2B2101F0DEF9EB
:10061800FEDE052042F2A00307F80E0C42F2EC00C1
:10062800C0F60000C0F60003009042F26400C0F675
:100638000000A7F10E022B2101F0C8F9FEDE05200B
:1006480042F2A00307F80D0C42F2FC00C0F60000CD
:10065800C0F60003009042F26400C0F60000A7F163
:100668000D022B2101F0B2F9FEDE0278052A18BF2F
:1006780000F016B842F22C120846C0F600021146E5
:100688000A2201F0C3BB104670474FF49640002180
:100698007047704744F24021C0F20F014843704749
:1006A800D0B502AF84B00078DFE800F003080F1679
:1006B8001D0042F25312C0F600020AE001AC42F2F9
:1006C8004E12C0F60002052313E042F24712C0F6AC
:1006D800000201AC07230CE001AC42F24112C0F663
:1006E8000002062305E001AC42F23612C0F6000211
:1006F8000B23204601F090FB204601F08EF904B050
:10070800D0BDD0B502AF84B001AC42F25A12C0F6E7
:1007180000020D23204601F07FFB204601F07DF901
:1007280004B0D0BDF0B503AF4DF804BD90B00DF1E5
:10073800040CB1E874406346A3E87440B1E874401F
:10074800A3E8744091E87440614683E8744000224D
:1007580000F004F810B05DF804BBF0BDF0B503AFCD
:100768002DE9000F9FB00F928846D1E900240DF1C2
:10077800300C096A002AD8F8243004BF42F2004439
:10078800C0F2F404002908BF23462146A3428CE89E
:1007980019000ED1D8F83060D8F82890012E08BF7B
:1007A800B9F1010F14D00020D8F82CA0D8F83440A3
:1007B8001DE0D8F83060D8F828A0012E08BFBAF19B
:1007C800010F35D00020D8F82C90D8F834B03EE08E
:1007D800D8F82CA04FF00109D8F83440A4EB0A004F
:1007E800B4EB0A06B0FA80F018BF01264009109051
:1007F80098F8390000238B46CDE9001011A800F0C5
:10080800DAFC1AA859463246234600F04FFEDDF8B6
:1008180040C09DF86400DDE91C23BCF1000FDDE950
:1008280013459DF878600B901CBF4A46534641E03B
:10083800D8F82C904FF0010AD8F834B0ABEB090087
:10084800BBEB0906B0FA80F018BF012640091090EA
:1008580098F839000C46CDE9003011A8012300F0C2
:10086800AAFC1AA8214632465B4600F01FFE1198E2
:10087800002800F01882DDE912B44AF601319DF82B
:100888006400C0F28741DDF840C00B90ABF1B7704F
:10089800149DBCF1000F9DF87860A0F55850DDE973
:1008A8001C231CBF4B465246884203D30F9800288E
:1008B80000F00582D8E90210002908BF5846002830
:1008C80000F0B281ABF101090A9200EB0901CDE910
:1008D8000863B1FBF0F001280BD002280CD00028E7
:1008E80000F0F981C11E03294AD24FF0900E04206E
:1008F80005E04FF0000E02E04FF0800E02204FF2AC
:100908008002D8E90413BBFBF0FAC0F2FA22924540
:10091800104638BF5046002918BF1846002800F076
:100928008C81AAF10101CDF840C04318B3FBF0F067
:1009380005AB012883E8300810D0022817D000281A
:1009480000F0D281C31E032B22D24FF4A05C0426F0
:10095800BAFBF6F5501C854229D22CE04FF0000C6A
:100968000126BAFBF6F5501C854220D223E04FF44D
:10097800805C0226BAFBF6F5501C854217D21AE0B5
:10098800811F052900F22B814FF0A00E0820B6E741
:1009980006384FF4E05C1026062838BF4FF4C05CD8
:1009A80038BF0826BAFBF6F5501C854203D30F98CA
:1009B800002800F063814EF20010D8E90634C0F236
:1009C800F5508245024638BF5246002B18BF2246D2
:1009D800002A00F03B811144CDE90356B1FBF2F146
:1009E800012912D002291AD0002900F086810E9C14
:1009F800CA1E032A1ED24FF0040B4FF42041BAFB43
:100A0800FBF50130854226D229E00E9C4FF0010B00
:100A18000021BAFBFBF5013085421CD21FE00E9C79
:100A28004FF0020B4FF40041BAFBFBF50130854251
:100A380011D214E08A1F4FF460414FF0100B062AC0
:100A480038BF4FF4404138BF4FF0080BBAFBFBF5F5
:100A58000130854203D30F98002800F0188145F231
:100A6800C7424FEAD910C0F21E1243F60009A0FB94
:100A78000202C4F20209D9F80004C008920A60F31D
:100A8800DF0242F4E060C9F80004D8F80000012849
:100A98001CD1D9F8000098F83820002A18BF40F473
:100AA800802040F48030C9F80000D9F800008003A5
:100AB8005FBFD9F800005FEA8030D9F800005FEA2C
:100AC800803003D4D9F800008003EED50B98B0B17C
:100AD800D9F8000040F08070C9F80000D9F800008B
:100AE80080015FBFD9F800005FEA8010D9F80000E4
:100AF8005FEA801003D4D9F800008001EED5089889
:100B0800B0B1D9F8000040F08060C9F80000D9F809
:100B1800000000015FBFD9F800005FEA0010D9F8B3
:100B280000005FEA001003D4D9F800000001EED5F8
:100B3800D9F80800109A20F4000062F3D750C9F8D9
:100B480008004CEA0E00D9F8082008434FF6F04197
:100B580022EA01010843C9F80800102000F0CDFE80
:100B6800D8F800000222D9F8081001380D9BB0FA15
:100B780080F0A34208BF420921F003001044C9F8DD
:100B880008000C9E0A9B049886F821B0002B86F872
:100B9800200018BF01230399C6E90115079998F8A1
:100BA8003900F160059A0699C6E90513099BC6F84C
:100BB80000A03261F36170B1002A53D046F60040BC
:100BC800C0F2DC20401A4DF2C14148BF4042C0F299
:100BD8000101884246DA1FB0BDE8000FF0BDA0F160
:100BE8000C011C2903D24FF0B00E102087E6A0F1AB
:100BF8002801382903D24FF0C00E40207FE6A0F12B
:100C08006001602903D24FF0D00E802077E6C0380B
:100C18004FF0F00EC0284FF4007038BF4FF0E00ED0
:100C280038BF4FF480706AE642F2F01042F28C222C
:100C3800C0F60000C0F6000210E042F2F01042F2E6
:100C48009C22C0F60000C0F6000207E042F2F01055
:100C580042F2F022C0F60000C0F60002192100F0AE
:100C68008AFEFEDE42F2443042F27032C0F60000E4
:100C7800C0F600022C2100F07EFEFEDE42F2AC201F
:100C880042F2E022C0F60000C0F6000207E042F29D
:100C9800003042F23432C0F60000C0F600023121C2
:100CA80000F069FEFEDE42F2671042F20C22C0F646
:100CB8000000C0F600022B2100F05DFEFEDE42F2CD
:100CC8001C2042F27C22C0F60000C0F600025D2122
:100CD80000F051FEFEDE42F2803042F2C832C0F629
:100CE8000000C0F6000210E042F2803042F2B83252
:100CF800C0F60000C0F6000207E042F2803042F27F
:100D0800A832C0F60000C0F60002282100F033FE29
:100D1800FEDEF0B503AF2DE9000F87B0D1E900651D
:100D2800D2E900CBD2E90298AE42D2F810E068D8F6
:100D38000A7A002A65D1D1E90332AE423CD2116861
:100D4800002974D0CDE9058E0DF1080E8EE80C024D
:100D58004EF6003941F6007A1A684B08C1F2C939D3
:100D6800CFF60A2A06FB0238731C9D4288BF2B4621
:100D7800019303E001369044B54217D0B8FBF1F374
:100D880003FB01A44C45F5D8002E44D003FB01F425
:100D9800B4FBF6FEBEEB020448BF6442A44581BF23
:100DA8000694CDE9046E9B46A446E3E7DDE9058E8B
:100DB800DDE90339DDE90162AE4222D11268B2B33E
:100DC8001E6841F60073CFF60A234EF60034C1F2CE
:100DD800C93406FB05F101EB5201B1FBF2F101FB4D
:100DE8000233A3420DD8B5B14A43B2FBF5F39A1BBF
:100DF80048BF5242944504D996469846A9468B4620
:100E08009446C0E900CBC0E90298C0F810E007B0EA
:100E1800BDE8000FF0BD42F2404042F2F842C0F691
:100E28000000C0F60002192100F0A5FDFEDE42F226
:100E3800404042F2E842C0F60000C0F60002192124
:100E480000F099FDFEDEF0B503AF2DE90007D0E90B
:100E5800003E734535D8067A9EBBD0E903C8734572
:100E68001AD2D8F800A003F10109DCF80060CE45D9
:100E780088BFF14653B39E4231D3B6FBF3F4581CF6
:100E8800BAFBF4F505FB14A48C423CBF1A46214674
:100E980086450346EED14B46734512D1BEF1000F8D
:100EA80014D0DCF80030734519D3D8F80000B3FB30
:100EB800FEF3B0FBF3F606FB130088423CBF724614
:100EC800014608461146BDE80007F0BD42F2404021
:100ED80042F22842C0F60000C0F6000207E042F2E3
:100EE800404042F2B842C0F60000C0F600021921A4
:100EF80000F041FDFEDEF0B503AF2DE9000F97B01D
:100F0800136802F1040E0393D1E900A3D2F81CB0D0
:100F18009A4541D80A7A002A3ED101900DF110096C
:100F28000293D1E903684B469EE8371083E83710EF
:100F3800029A924539D2D8F800303168DDF80C8031
:100F480010AC5246CDF80CB08B462046994600F0BE
:100F580043FBDDF858C00DF1100E0AAA0AF1010A88
:100F6800E04588BFA6469EE87B000DF1100E7BC2C7
:100F78000AA991E87D0059468EE87D004B46029A01
:100F8800DDF80CB084BFE346E0465245D8D1CDF831
:100F98000C800DF110090CE09EE87E000DF1400C6C
:100FA8008CE87E00DDF80C8026E01ED1D8F80030F1
:100FB80031680DF1400A504600F00EFBDDF858C0CC
:100FC8000DF1280EDDF80C807246E04598BFCA4640
:100FD8009AE87B007BC248469EE87E007EC088BFB8
:100FE800E346E04588BFE04601E0DDF80C8099E87B
:100FF8007E0010A87EC0019810A9C0F8008000F1FA
:10100800040C91E87C408CE87C40C0F81CB017B018
:10101800BDE8000FF0BDF0B503AF2DE9000F87B0B4
:10102800D1E90065D2E9003C9268AE42069500F22B
:1010380097800D7A002D40F09380D1E903454969E6
:101048000591069904958E424FD2D4F800E0BEF17E
:10105800000F00F0A48046F6004BCDE90240C0F234
:10106800DC2B069806FB0BF1741CA04288BF0446D3
:101078000194002E7BD005980068002800F083803A
:10108800B1FBFEF4594404FB0EF4B4FBF6F5B4FBD3
:10109800F0F0ABEB0508049DB3EB08092D6818BF09
:1010A8004FF00109434538BF4FF0FF39B5EB000A4F
:1010B80006F1010048BFCAF1000ABCEB0A0418BFD8
:1010C8000124D445B8BF4FF0FF34B9F1000F18BF61
:1010D8004C46012C02BF3246D4464346069C06467F
:1010E8008442C6D10398DDE9016406998E4237D15E
:1010F8002168002953D0069ECEB3059E3568002D81
:1011080041D0069C46F6004EC0F2DC2E04FB0EF6DB
:10111800B6FBF1F64E43B6FBF4F1049CAEEB0101CD
:10112800B6FBF5F6D4F800E05C1A18BF01248B4230
:1011380038BF4FF0FF34BEEB060548BF6D42BCEB2D
:10114800050618BF0126AC45B8BF4FF0FF36002C86
:1011580018BF2646012E069E02BF3246AC460B46F5
:10116800C0E9003C826007B0BDE8000FF0BD42F264
:10117800404042F22842C0F60000C0F600021921A1
:1011880000F0F9FBFEDE42F2404042F2D842C0F6DF
:101198000000C0F60002192100F0EDFBFEDE42F26D
:1011A800404042F2C842C0F60000C0F600021921D1
:1011B80000F0E1FBFEDEF0B503AF2DE9000F93B0C0
:1011C800D7E90264002B019108BF0E468146012B26
:1011D80002961AD0CCB943F2100043F60401C2F2C9
:1011E8000040C4F2020162F3965008600020C9F87A
:1011F8001800C9F81000C9F80800C9F8000089F8F3
:10120800200013B0BDE8000FF0BD002E00F0E28012
:101218004CF6004048F27F4CC1F6BF10C0F21E0CDD
:10122800B0FBF6F001EB0C0E20F0010B4DF68360DD
:101238000092BBF1080F28BF4FF0080BC4F21B3017
:101248000BFB06F8002CAEFB0025A1FB0003404673
:101258001CBF46F60040C0F2DC20CDE903B0EA0C22
:10126800B2EB934F00F20A814FEA934A00235245AA
:1012780015460CF101042CBF01230135A645C0F029
:10128800B2808A4200F2B880B1FBF2F18DF83030BA
:10129800B0FBF1F4CDE90A5A04FB110104A80E9041
:1012A80001A80D900AA8FFF7CEFD002900F0AD8037
:1012B8008A46019944F24023B1FBFAF0C0F20F03C9
:1012C800A0F574220590A2F510729A4200F2E2800D
:1012D800FC6846F60045C0F2DC259CB3BBF1000F64
:1012E80000F0AE804BF2000110AAC0F67131B1FBDC
:1012F800F0F1484303A90F9102A90E9105A90D9198
:1013080000218DF8301009210B9105210A91042143
:101318001291B0FBFBF1711AA5EB900048BF49424E
:10132800109006A8119104300AA9FFF774FE0598D9
:10133800002800F097800999DDF80CB06943B1FBEB
:10134800F0F104E08A4500F28480B8FBF0F101FB7B
:101358000052531E49F68172C1F25E62AB42A3FB92
:1013680002625BD3009D4FF0005647F6C073920DA2
:10137800002D18BF4FF001560AF03F0503EA81130C
:101388002E44BBF1000F33444FF4403606EBCB3606
:1013980006F44036334402F00F0643EA066343F688
:1013A8000406C4F20206336041D0484301230021F9
:1013B800B0FBF2F2B0FBFBF0C9E90030C9E9024228
:1013C800C9E9043AC9F8181089F8203013B0BDE803
:1013D800000FF0BD42F2A05042F29052C0F6000059
:1013E800C0F6000246E042F2404042F22842C0F60F
:1013F8000000C0F600023DE042F2404042F2B8422E
:10140800C0F60000C0F6000234E042F2A05042F2FA
:10141800CC52C0F60000C0F600022BE042F2A05009
:1014280042F24862C0F60000C0F6000222E042F232
:10143800A05042F25862C0F60000C0F6000219E05F
:1014480042F2404042F2D842C0F60000C0F6000224
:1014580010E042F2A05042F23862C0F60000C0F636
:10146800000207E042F2A05042F22862C0F60000F3
:10147800C0F60002192100F07EFAFEDE42F20850A2
:1014880042F2BC52C0F60000C0F600022B2100F068
:1014980072FAFEDE42F2DC5042F21862C0F6000038
:1014A800C0F600023C2100F066FAFEDEF0B503AF9C
:1014B8002DE9000F9DB00446012A019149D14DF64E
:1014C80083600293C4F21B30A1FB002548F27F42DF
:1014D800C0F21E020A44A2FB00024FEAD24BBBEB49
:1014E800954F0AD80DF154085A46404600F074F852
:1014F800DDF85490B9F1020F33D10020CDE9030093
:10150800CDE90500CDE90700CDE909000220022850
:1015180056D005AE04F1040C099D4ECE8CE84E0061
:1015280043F68401C4F2020148F200030A68C8F6CF
:10153800FF7305F0E0661A40C5F3054365F38E13A3
:1015480043EA06131A440A6020601DB0BDE8000F84
:10155800F0BD0020A060206020741DB0BDE8000F21
:10156800F0BD08F1040A4FEA954C0DF12C0EE34545
:101578009AE86700734667C302A9149101A91391F9
:101588004FF00001DDF86CA028BF01218DF848104C
:1015980008F10801CDF844C038BF0BF1010BCDF8B4
:1015A80040B0CDE915A99EE86D006DC103A810A94A
:1015B8004246CDF870A0FFF79EFC04980228A8D1F7
:1015C80042F2686042F29062C0F60000C0F6000283
:1015D800272100F0B2F9FEDEF0B503AF2DE9000BCC
:1015E80092B0002A009300F0A8809146B1FBF2F275
:1015F8008945019200F2988041F6007C044655081E
:1016080005EB4300B0FBF2F0CFF60A2C00FB02C654
:101618004EF6003EC1F2C93E76453ED903EB43087B
:1016280008EB0500B0FBF2F000FB02C6764539D99D
:1016380005EB8300B0FBF2F000FB02C6764536D915
:1016480003EB83002844B0FBF2F000FB02C67645AA
:1016580032D905EB4800B0FBF2F000FB02C6764534
:101668002FD9894560D8C3EBC3002844B0FBF2F0FA
:1016780000FB02C171456CD800FB02F144F625124B
:10168800C2F2924201254FF0070CA1FB0226891BEA
:1016980006EB51018A0807211AE0424302214FF064
:1016A800030C12E0424303214FF0040C0DE04243C7
:1016B80004214FF0050C08E0424305214FF0060CC9
:1016C80003E0424306214FF0070CB2FBF1F200257C
:1016D80001AE0C966E46D31A0B964FF00706CDE96D
:1016E80008C60DF13C0C8DF8285048BF5B42CDE987
:1016F8000D3002A88CE80E00043008A90DAAFFF7E7
:1017080008FB04AB84F816900FCBE1755FFA89F1FA
:10171800A0820120A3612074C4E90001C4E9020287
:1017280012B0BDE8000BF0BD42F2A05042F2E862F0
:10173800C0F60000C0F6000207E042F2A05042F2F4
:10174800D862C0F60000C0F60002192100F013F9B3
:10175800FEDE42F2A06042F2C862C0F60000C0F6A7
:101768000002252100F0E9F8FEDED0B502AF002422
:101778008300C4F20204202B0BD201FA03FE0F21CE
:10178800D4F820C099402CEA010141EA0E012162F7
:101798000CE003F01C03D4F824C001FA03FE0F2167
:1017A80099402CEA010141EA0E0161621E2101EA19
:1017B8004000022123680322814002FA00F023EA54
:1017C800000008432060D0BD0021018701638162C9
:1017D80001628161016181600160704740F20060CF
:1017E8000121C4F24720016000F08DB844F20040A6
:1017F800C4F2000070474068704780B56F464030BB
:10180800B0F1804F0CD30021C4F2100188423FBFD1
:1018180040014421C4F2002101223CBF0A5080BD8E
:1018280042F2F86042F29872C0F60000C0F6000278
:10183800482100F0A0F8FEDEC8B244F210410003CF
:10184800C4F2000108607047D0B502AF4EF2100232
:10185800CEF20002136823F004031360B1E80C50C1
:10186800A0E80C5091E81C5080E81C50D0BD80B511
:101878006F4600684DF68362C4F21B32A0FB020279
:10188800500D48434FF47A714843002808BF80BD83
:101898004EF210016FF07F4CCEF200014FF0000EB7
:1018A80005E00B68801A23F001030B6019D06FF074
:1018B8007F42604538BF02464A60C1F808E00B68BD
:1018C80043F001030B600B68DB035FBF0B685FEA43
:1018D800C3330B685FEAC333E3D40B68DB03F2D589
:1018E800DFE780BD80B56F46FEF711FDFEDEFEE73F
:1018F800704772B6704762B67047012101EB50001D
:101908000138FDD17047BFF34F8F7047EFF3108058
:1019180070477047704745F2F37048F61711C5F6DF
:10192800A610C6F6BC017047D1E9060242F2A871BA
:10193800D368C0F600010E22184780B56F468AB0FA
:10194800CDE9000108A90120069100210790CDE901
:10195800030142F2B870C0F600000591029041F60A
:101968005B60C0F60000114609906846089002A81E
:1019780000F019F8FEDE80B56F4688B0944642F252
:10198800A872C0F600020023CDE906016846049259
:1019980001226146019206AA0593CDE9023300921D
:1019A80000F001F8FEDE80B56F4684B0CDE9020193
:1019B80042F2C070C0F60000019042F2A870C0F672
:1019C80000000090684600F04AFAFEDE80B56F46D7
:1019D8008EB08DE80F000AA9022008910021099015
:1019E800CDE9050142F2D470C0F60000D7F808C06E
:1019F800049041F65160C0F6000007910D9002A8CE
:101A08000C9041F65B60C0F6000061460B9068469A
:101A18000A9004A8FFF7C7FFFEDEB0B502AF044680
:101A2800057A406808B30DB101251DE0012810D1E1
:101A3800607A70B12168087840070AD4D1E90601B4
:101A48000122CB6842F2E471C0F6000101259847F3
:101A580050B921680122D1E90601CB6842F2E5714B
:101A6800C0F60001984705462572002D18BF0125CC
:101A78002846B0BDF0B503AF2DE9000F83B00C4682
:101A8800D0F808E001699146BEF1010F13D1012990
:101A980014D0B9F1000F00F02F81A9F1010E09F05F
:101AA800030CBEF1030F7BD200262246BCF1000FC7
:101AB80040F09E80B4E0012940F03481466904EB8F
:101AC800090B00220294002E4BD001905C4560D097
:101AD8002546234615F9011BB1F1FF3F06DD2C46CB
:101AE800D11A013E01EB0402F0D13BE05D4507D07D
:101AF8005C789D1C04F03F0AC9B2E029EFD305E0E9
:101B08004FF0000A5D46C9B2E029E8D35D4506D02A
:101B180015F8014B04F03F0CF029E0D304E04FF036
:101B2800000C5D46F029DAD37046CE465D4505D0F7
:101B380015F8014B04F03F082C4602E04FF000086E
:101B48005C464FF4E01909EA814141EA0A31F1465D
:101B580041EA8C11864601984144B1F5881FBFD1EE
:101B680017E025465D4514D02946029C11F9013B32
:101B7800B3F1FF3F61DD002A00F0B0804A4580F0F4
:101B8800AA80A15611F1400F80F2A88000210022FE
:101B9800A5E04A46029CBEF1010F40F02C81A6E068
:101BA80029F0030200265542A246224612F8044BA9
:101BB80012F8031C04F0C00412F8023C802C12F83E
:101BC800018C01F0C00118BF0136802903F0C00163
:101BD80018BF0136802908F0C00118BF01368029D6
:101BE80018BF01360435E1D15446BCF1000F17D0B7
:101BF800117801F0C001802918BF0136BCF1010F2E
:101C08000ED0517801F0C001802918BF0136BCF10F
:101C1800020F05D0917801F0C001802918BF013664
:101C2800D0F80C8046457DD2BEF1030F12D20023B6
:101C38002646BCF1000F35D164E0DBB2594500F00F
:101C4800A7806978AE1C01F03F010903E02B80F002
:101C5800A48090E729F0030100234D42A2462646BE
:101C680016F8041B16F8034C01F0C00116F8022CF4
:101C7800802916F801EC04F0C00118BF013380294F
:101C880002F0C00118BF013380290EF0C00118BF4F
:101C98000133802918BF01330435E1D15446BCF122
:101CA800000F2FD0317801F0C001802918BF01330F
:101CB800BCF1010F26D0717801F0C001802918BF4E
:101CC8000133BCF1020F1DD0B17801F0C0018029A9
:101CD80018BF013316E04A457FF458AF2146002962
:101CE8000CBF4A460C46BEF1010F40F08480914675
:101CF800B9F1000F7FF4D1AED0F80C80B8F1000F25
:101D080010D0002390F82020D11E18BF11468A0752
:101D1800A8EB0302029409D001290AD14FF0000B65
:101D280011460AE081694A46C06966E00021934687
:101D380003E0510801324FEA520B46684C1CD0E9C7
:101D48000685013C06D02A6940463146904700285E
:101D5800F7D00CE0B6F5881A18BFDA46B6F5881F32
:101D680005D0EB68404602994A46984720B10120C1
:101D780003B0BDE8000FF0BD0024A24518D02A69C1
:101D880040463146904701340028F6D0611E10E0E5
:101D980000215E46E02BFFF4EEAE5E4511D016F84A
:101DA800015B05F03F05AD01F02BFFF4E4AE0DE05B
:101DB80051460020514538BF012003B0BDE8000F4F
:101DC800F0BD00255E46F02BFFF4D5AE03F0070307
:101DD8005E451ABF367806F03F06002641EA834181
:101DE80029433143B1F5881F7FF4C5AE4A46BEF199
:101DF800010F3FF47CAFD0E90610C36808462146BE
:101E080003B0BDE8000FBDE8F0401847D0E9063040
:101E1800D0F80CC018466047F0B503AF4DF804BDC4
:101E28000D460646D1E906011C46CB6811462246F6
:101E380098473072B4FA84F0400970720020C6E9FD
:101E480000505DF804BBF0BDD0E90020C36810461F
:101E580018470B46D0E900121846FFF70BBEFEE7FD
:101E680000F043B8B0B502AF042A31D3A2F1040C94
:101E7800012303EB9C0313F0030E17D00B46044613
:101E880053F8045BBEF1010F44F8045B06D16246C7
:101E980020461946BCF10C0F0BD219E04B68BEF175
:101EA800020F436018D1083A08310830BCF10C0F12
:101EB8000ED30B68103A0360032A4B6843608B68A3
:101EC8008360CB6801F11001C36000F11000F0D805
:101ED800BDE8B040FFF7C4BF8B680C3A83600C3193
:101EE8000C30BCF10C0FE4D2F2E7F0B503AF4DF8BB
:101EF800048D42B1531E02F0030C032B06D20022BC
:101F0800BCF1000F1FD15DF8048BF0BD22F0030275
:101F180000F1010E544201F101086FF0030208EBD1
:101F280002050EEB02030432EE78DE702E791E7184
:101F38006E795E71AD799D71A3180433EFD10432C7
:101F4800BCF1000FDFD08B5CBCF1010F8354DAD0F9
:101F5800531CBCF1020FCE5CC654D4D00232895C4B
:101F680081545DF8048BF0BD70460421084202D10B
:101F7800EFF3088002E0EFF30980FFE7FEE7D4D42F
:101F88002F686F6D652F6D6F652F2E636172676F98
:101F98002F72656769737472792F7372632F67691B
:101FA800746875622E636F6D2D31656363363239DF
:101FB8003964623965633832332F73746D3332662E
:101FC8003478782D68616C2D302E392E302F73724D
:101FD800632F73657269616C2E727300881F000825
:101FE8005B000000B60500001700000000000000BC
:101FF8000000000000000000617474656D707420BA
:10200800746F20646976696465206279207A6572E4
:102018006F616C726561647920626F72726F776547
:102028006463616C6C656420604F7074696F6E3AAC
:102038003A756E77726170282960206F6E20612072
:10204800604E6F6E65602076616C756515030008DB
:1020580000000000010000003119000863616C6C89
:1020680065642060526573756C743A3A756E777260
:102078006170282960206F6E20616E206045727241
:10208800602076616C75650015030008000000008B
:10209800010000000B0700081503000801000000FC
:1020A80001000000730600087372632F6D61696E8A
:1020B8002E727300B02000080B00000032000000F0
:1020C8000A000000B02000080B00000035000000E6
:1020D8003C000000B02000080B0000004F0000008A
:1020E8001F000000B02000080B0000005000000096
:1020F80019000000B02000080B0000005300000089
:1021080019000000B02000080B0000004B00000080
:102118003B000000B02000080B0000004B0000004E
:1021280049000000576F756C64426C6F636B5F45C4
:102138007874656E7369626C655061726974794F01
:1021480076657272756E4E6F6973654672616D69F8
:102158006E67496E76616C6964436F6E6669676322
:10216800616C6C656420604F7074696F6E3A3A7583
:102178006E77726170282960206F6E206120604E32
:102188006F6E65602076616C75652F686F6D652F61
:102198006D6F652F2E636172676F2F726567697344
:1021A8007472792F7372632F6769746875622E630E
:1021B8006F6D2D3165636336323939646239656311
:1021C8003832332F73746D3332663478782D686102
:1021D8006C2D302E392E302F7372632F7263632F5C
:1021E8006D6F642E72730000617474656D70742075
:1021F800746F20646976696465206279207A6572F3
:102208006F000000922100085C000000200300001D
:102218001C000000617373657274696F6E206661DB
:10222800696C65643A20756E636865636B656420E4
:102238007C7C2021737973636C6B5F6F6E5F706C4D
:102248006C207C7C20737973636C6B203C3D20533D
:102258005953434C4B5F4D415820262620737973C0
:10226800636C6B203E3D20535953434C4B5F4D49A3
:102278004E000000922100085C00000025030000C9
:1022880009000000922100085C00000028030000FB
:102298002B000000922100085C0000003B030000B6
:1022A80029000000617373657274696F6E2066613E
:1022B800696C65643A20756E636865636B65642054
:1022C8007C7C2070636C6B31203C3D2050434C4B30
:1022D800315F4D4158000000922100085C00000069
:1022E8004703000009000000922100085C0000007C
:1022F8004C03000029000000617373657274696FF4
:102308006E206661696C65643A20756E6368656302
:102318006B6564207C7C2070636C6B32203C3D20B4
:1023280050434C4B325F4D41580000009221000849
:102338005C00000058030000090000006173736529
:102348007274696F6E206661696C65643A20636CAB
:102358006F636B732E69735F706C6C3438636C6B6E
:102368005F76616C69642829922100085C0000008E
:10237800050400000D000000696E7465726E616CE2
:10238800206572726F723A20656E7465726564209A
:10239800756E726561636861626C6520636F646500
:1023A800922100085C0000004D03000012000000AC
:1023B800922100085C0000003C03000012000000AD
:1023C800922100085C0000002903000012000000B0
:1023D8002F72757374632F6338646663666530346F
:1023E80036613736383035353462663465623631B1
:1023F8003262616438343065373633316334622F82
:102408006C6962726172792F636F72652F73726380
:102418002F6F70732F61726974682E7273000000D9
:10242800D82300084D000000DE0100000100000074
:102438000000000000000000617474656D70742075
:10244800746F20646976696465206279207A6572A0
:102458006F2F686F6D652F6D6F652F2E63617267C3
:102468006F2F72656769737472792F7372632F6740
:1024780069746875622E636F6D2D316563633632DA
:10248800393964623965633832332F73746D333286
:10249800663478782D68616C2D302E392E302F7384
:1024A80072632F7263632F706C6C2E72730000005E
:1024B800592400085C000000370000001C000000E0
:1024C800592400085C0000004600000020000000BD
:1024D800592400085C000000480000003800000093
:1024E800592400085C000000EE01000019000000FB
:1024F800592400085C000000F30100001E000000E1
:1025080063616C6C656420604F7074696F6E3A3AF1
:10251800756E77726170282960206F6E2061206067
:102528004E6F6E65602076616C75652F686F6D659E
:102538002F6D6F652F2E636172676F2F72656769E4
:10254800737472792F7372632F6769746875622E5A
:10255800636F6D2D3165636336323939646239656D
:10256800633832332F73746D3332663478782D685C
:10257800616C2D302E392E302F7372632F72636386
:102588002F706C6C2E727300332500085C000000FD
:102598002A0000002C000000617474656D707420BE
:1025A800746F20646976696465206279207A65723F
:1025B8006F000000332500085C0000003A000000AE
:1025C8000E000000332500085C0000003C000000FD
:1025D80016000000617373657274696F6E2066611E
:1025E800696C65643A2076636F5F696E203E3D20B2
:1025F800315F3030305F3030302026262076636FF0
:102608005F696E203C3D20325F3030305F303030C3
:10261800332500085C0000003D00000009000000B0
:10262800332500085C0000004C0000000D0000008D
:10263800332500085C0000004E0000000D0000007B
:10264800332500085C000000530000001D00000056
:10265800332500085C0000005D0000001E0000003B
:102668006E6F207375697461626C652049325320FE
:10267800504C4C20636F6E66696775726174696F40
:102688006E20666F756E6400332500085C000000DC
:10269800010100000E000000646964206E6F742060
:1026A80066696E6420616E792076616C6964204980
:1026B800325320504C4C20636F6E666967000000EF
:1026C800332500085C00000027010000120000000C
:1026D800332500085C000000E70100001600000038
:1026E800332500085C000000EE010000190000001E
:1026F800617373657274696F6E206661696C656475
:102708003A2061646472203E3D20504552495F4141
:102718004444524553535F53544152542026262073
:1027280061646472203C3D20504552495F414444F5
:10273800524553535F454E442F686F6D652F6D6F3B
:10274800652F2E636172676F2F7265676973747284
:10275800792F7372632F6769746875622E636F6D62
:102768002D316563633632393964623965633832CD
:10277800332F73746D3332663478782D68616C2D1D
:10278800302E392E302F7372632F62622E727300CF
:1027980040270008570000002A000000050000003C
:1027A800426F72726F774D75744572726F72000066
:1027B800A8270008000000001D19000800000000FC
:1027C800010000001F1900083A200000A82700088F
:1027D80000000000D0270008020000002C2900009B
:040000050800019955
:00000001FF
