:020000040800F2
:1000000000000320D51600083F0900084109000838
:1000100043090008450900084709000800000000DE
:100020000000000000000000000000004909000876
:100030004B090008000000004D0900084F090008A6
:1000400025170008251700082517000825170008A0
:100050002517000825170008251700082517000890
:100060002517000825170008251700082517000880
:100070002517000825170008251700082517000870
:100080002517000825170008251700082517000860
:100090002517000825170008251700082517000850
:1000A0002517000825170008251700082517000840
:1000B0002517000825170008251700082517000830
:1000C0002517000825170008251700082517000820
:1000D0002517000825170008251700082517000810
:1000E0002517000825170008251700082517000800
:1000F00025170008251700082517000825170008F0
:1001000025170008251700082517000825170008DF
:1001100025170008251700082517000825170008CF
:1001200025170008251700082517000825170008BF
:1001300025170008251700082517000825170008AF
:10014000251700082517000825170008251700089F
:10015000251700082517000825170008251700088F
:10016000251700082517000825170008251700087F
:1001700025170008251700082517000800000000B3
:10018000251700082517000825170008251700085F
:10019000251700082517000825170008251700084F
:0C01A00025170008251700082517000887
:1001B00010B5054C237833B9044B13B10448AFF3A1
:1001C00000800123237010BD740000200000000097
:1001D0003C2F000808B5034B1BB103490348AFF39C
:1001E000008008BD00000000780000203C2F0008BF
:1001F00010F8012B11F8013B012A28BF9A42F7D0D1
:10020000D01A70470000000000000000000000004D
:1002100001F0FF01102A2BDB10F0070F08D010F8B7
:10022000013B013A8B422DD010F0070F42B3F6D1BB
:10023000F0B441EA012141EA014122F007047FF0D4
:1002400000070023F0E80256083C85EA010586EA2B
:10025000010685FA47F5A3FA87F586FA47F6A5FA67
:1002600087F68EB9EED1F0BC01F0FF0102F0070273
:1002700032B110F8013B013A83EA010313B1F8D11E
:100280000020704701387047002D06BF35460338FF
:10029000073815F0010F07D1013015F4807F02BF38
:1002A000013015F4C03F0130F0BC0138704700BF89
:1002B00053B94AB9002908BF00281CBF4FF0FF31CD
:1002C0004FF0FF3000F06EB9ADF1080C6DE904CECF
:1002D00000F006F8DDF804E0DDE9022304B0704721
:1002E0002DE9F047089D04468C46002B40F08380A2
:1002F0008A42174647D9B2FA82F242B1C2F12000CF
:1003000024FA00F09140974040EA010C94404FEAF3
:100310001748230CBCFBF8F61FFA87FE08FB16C132
:1003200043EA014306FB0EF1994209D9FB1806F195
:10033000FF3080F01981994240F21681023E3B4421
:100340005B1AA4B2B3FBF8F008FB103344EA034491
:1003500000FB0EFEA64509D93C1900F1FF3380F0E1
:100360000581A64540F2028102383C4440EA06403D
:10037000A4EB0E0400261DB1D4400023C5E90043C0
:100380003146BDE8F08702B9FFDEB2FA82F2002AF8
:1003900050D1CB1B4FEA174E1FFA87F80126B3FB4B
:1003A000FEFC210C0EFB1C3341EA034108FB0CF35D
:1003B0008B4207D979180CF1FF3002D28B4200F240
:1003C000E9808446C91AA3B2B1FBFEF00EFB1011FE
:1003D00043EA014408FB00F8A04507D93C1900F1A5
:1003E000FF3302D2A04500F2D9801846A4EB0804DE
:1003F00040EA0C40BFE78B4209D9002D00F0B180E4
:100400000026C5E9000130463146BDE8F087B3FA61
:1004100083F6002E4AD18B4202D3824200F2B8808A
:10042000841A61EB030101208C46002DA8D0C5E998
:10043000004CA5E7C2F1200320FA03F6974001FA29
:1004400002F04FEA174ED9403043030CB1FBFEF6E1
:100450001FFA87F80EFB161143EA014306FB08F169
:10046000994204FA02F409D9FB1806F1FF3C80F026
:100470008D80994240F28A80023E3B445B1A81B2F1
:10048000B3FBFEF00EFB103341EA034100FB08F31F
:100490008B4207D9791800F1FF3C73D28B4271D996
:1004A00002383944CB1A40EA064678E7C6F1200CF8
:1004B00003FA06F422FA0CF31C4320FA0CF701FAB3
:1004C00006F34FEA144E21FA0CF11F433B0CB1FB2B
:1004D000FEF91FFA84F80EFB191143EA014109FBEA
:1004E00008FA8A4502FA06F200FA06F308D96118FA
:1004F00009F1FF3048D28A4546D9A9F102092144C1
:10050000A1EB0A01BFB2B1FBFEF00EFB101147EAEE
:10051000014700FB08F8B84507D9E71900F1FF319A
:100520002ED2B8452CD90238274440EA0940A7EB1F
:100530000807A0FB02894F45C64649461AD317D083
:100540005DB1B3EB0E0267EB010707FA0CFCF2405A
:100550004CEA0202F740C5E9002700263146BDE813
:10056000F0872E4628460BE70646E9E61846FDE6E4
:100570004345E5D2B8EB020E69EB04010138DFE731
:100580000846D2E760468DE78146B9E7664675E7DB
:1005900030464AE7ACF1020C394413E702383C44D8
:1005A00024E700BF704700BF08B54FF0FF330B22B0
:1005B0000249034800F0DDFAFEE700BF702F000893
:1005C000E000002000B585B06946044801F054F908
:1005D000684601F049F905B05DF804FB7C2F00087E
:1005E00072B6FEE700B595B03022002108A801F0F0
:1005F000C5F800230393049305930693079301938F
:10060000194A116C41F080511164126C02F0805251
:100610000192019A029315490A6822F4404242F479
:1006200080420A600A6802F440420292029A022260
:10063000089201220B9210220C920E9308A800F04F
:1006400077FB68B90F23039300210491059106916C
:10065000079103A800F0B8FD20B915B05DF804FBC0
:10066000FFF7BEFFFFF7BCFF0038024000700040FC
:1006700000B589B000F0F8FFFFF7B4FF00F03AF8DA
:1006800000F06EF800F052F8144800F0E9F8144B4E
:1006900093E803000090ADF80410090C8DF80610E3
:1006A0000023CDF80730CDF80B308DF80F3004A9BA
:1006B0000C4801F0E1F8694604A8FFF799FD40B93C
:1006C000094801F0D1F8094B1B682BB1FFF77AFFFD
:1006D00002E0074801F0C8F8FEE700BF9C000020D8
:1006E000542F0008802F0008882F000800000020E9
:1006F000AC2F000882B0002100910B4B1A6B42F026
:1007000001021A631A6B02F001020092009A019131
:100710001A6B42F004021A631B6B03F0040301938B
:10072000019B02B0704700BF0038024008B50A487C
:100730000A4B03604FF4E133436000238360C360DE
:1007400003610C2242618361C36100F0E3F900B9E7
:1007500008BDFFF745FFFBE7E00000200044004034
:1007600008B50A480A4B03604FF4E13343600023A5
:100770008360C36003610C2242618361C36100F046
:10078000C9F900B908BDFFF72BFFFBE79C0000206B
:100790000048004000B58BB00023059306930793F3
:1007A000089309930368294A934205D0284A934243
:1007B00026D00BB05DF804FB00220192254B196C8A
:1007C00041F400311964196C01F40031019101996F
:1007D0000292196B41F0010119631B6B03F00103D5
:1007E0000293029B0C230593022306930792032393
:1007F00008930723099305A9174800F0BBFDD8E724
:1008000000220392134B196C41F480211964196C76
:1008100001F48021039103990492196B41F00401C2
:1008200019631B6B03F004030493049B4FF44063B0
:100830000593022306930792032308930723099342
:1008400005A9064800F096FDB3E700BF004400404C
:10085000004800400038024000000240000802400A
:1008600008B5054B1860054B18680023022219468D
:10087000806801F019F808BD240100201000002054
:10088000022801D80120704708B500F04DFF092368
:100890000360002008BD000010B5013801280AD807
:1008A00014464FF0FF3392B20748006800F061F938
:1008B00040B9204610BD00F037FF092303604FF018
:1008C000FF30F7E70520F5E724010020022801D8D2
:1008D0000020704708B500F027FF092303604FF0A0
:1008E000FF3008BD08B500F01FFF092303604FF07B
:1008F000FF3008BD08B548B94FF0FF330122084862
:10090000006800F0A2F940B9012008BD00F00CFF1A
:10091000092303604FF0FF30F7E70520F5E700BF3C
:100920002401002008B5022804D84FF400534B607E
:10093000002008BD00F0F8FE09230360F8E7FEE799
:10094000FEE7FEE7FEE7FEE770477047704708B531
:1009500000F0A4FE08BD000082B0002100910B4B06
:100960005A6C42F480425A645A6C02F480420092FB
:10097000009A01911A6C42F080521A641B6C03F0C9
:1009800080530193019B02B0704700BF00380240C2
:1009900070B504460268136923F44053C1680B43E1
:1009A000136183680269134342691343C2691A439E
:1009B0000168CB6823F4164323F00C031343CB6088
:1009C0000268536923F4407381690B4353610368E0
:1009D000344A934206D002F58062934202D000F07E
:1009E000A9FC01E000F0B6FCE369B3F5004F2AD0A2
:1009F0000026051846EB06012D1846EB0101CB0039
:100A000043EA5573EA001546194663689A009B0F3E
:100A1000281846EB0101FFF74BFC234DA5FB0032E4
:100A20005109642303FB11031B013233A5FB03238C
:100A30005B0903F0F00202EB011203F00F032168DF
:100A400013448B6070BD0026051846EB06012D1877
:100A500046EB0101CB0043EA5573EA0015461946FF
:100A600062683346921846EB0303281846EB0101EF
:100A7000FFF71EFC0C4DA5FB00325109642303FB5C
:100A80001103DB003233A5FB03235B095A0002F498
:100A9000F87202EB011203F00703216813448B6024
:100AA000D0E700BF001001401F85EB512DE9F8434E
:100AB00005460F4616469946DDF820802C682468C6
:100AC00037EA04030CBF01240024B4421FD1B8F15B
:100AD000FF3FF3D0B8F1000F05D000F0EBFDA0EB25
:100AE00009004045EAD92A68D36823F4D073D3605B
:100AF0002A68536923F001035361202385F83D30B0
:100B000085F83E30002385F83C30032000E00020CB
:100B1000BDE8F88358B310B5044690F83D300BB3E8
:100B2000242384F83D302268D36823F40053D36033
:100B30002046FFF72DFF2268136923F490431361C9
:100B40002268536923F02A0353612268D36843F46F
:100B50000053D36000202064202384F83D3084F8C3
:100B60003E3010BD80F83C30FFF714FED8E701207E
:100B700070472DE9F04182B01E4690F83D30DBB25F
:100B8000202B54D104460D469046002953D0002A0C
:100B900053D090F83C30012B51D0012380F83C30E9
:100BA00000230364212380F83D3000F083FD0746D5
:100BB000A4F82480A4F82680A368B3F5805F05D04C
:100BC0004FF00008002384F83C3012E0236913B191
:100BD0004FF00008F6E7A8460025F3E738F8023B97
:100BE0002268C3F308035360E28C92B2013A92B2D6
:100BF000E284E38C9BB273B100963B4600228021D5
:100C00002046FFF753FFE0B9002DE7D015F8012B80
:100C100023685A60E8E700963B46002240212046C0
:100C2000FFF744FF78B9202384F83D3000E002202C
:100C300002B0BDE8F0810120FAE70120F8E70220C8
:100C4000F6E70320F4E70320F2E72DE9F04182B054
:100C50001E4690F83E30DBB2202B5CD104460D4698
:100C6000904600295BD0002A5BD090F83C30012BE5
:100C700059D0012380F83C3000230364222280F8FD
:100C80003E20036300F016FD0746A4F82C80A4F86C
:100C90002E80A368B3F5805F05D04FF000080023D5
:100CA00084F83C3017E0236913B14FF00008F6E7F1
:100CB000A8460025F3E723685B68C3F3080328F818
:100CC000023B03E023685B682B700135E28D92B232
:100CD000013A92B2E285E38D9BB2BBB100963B46EE
:100CE000002220212046FFF7E1FEF0B9002DE2D0DE
:100CF000A368B3F5805FE5D013B92369002BE1D079
:100D000023685B6803F07F032B70DEE7202384F801
:100D10003E30002000E0022002B0BDE8F08101205A
:100D2000FAE70120F8E70220F6E70320F4E70000E5
:100D3000002800F0DF8170B582B00446036813F02C
:100D4000010F3BD0A64B9B6803F00C03042B2CD067
:100D5000A34B9B6803F00C03082B21D06368B3F509
:100D6000803F4FD0B3F5A02F52D09D4B1A6822F48C
:100D700080321A601A6822F480221A606368002B9D
:100D800050D000F097FC0546954B1B6813F4003FCC
:100D900014D100F08FFC401B6428F5D90320B0E18A
:100DA0008F4B5B6813F4800FD8D08D4B1B6813F406
:100DB000003F03D06368002B00F09E81236813F08E
:100DC000020F54D0864B9B6813F00C0F3ED0844B1F
:100DD0009B6803F00C03082B33D0E368002B67D02B
:100DE000804B01221A6000F065FC05467C4B1B68B5
:100DF00013F0020F53D100F05DFC401B0228F5D91F
:100E000003207EE1764A136843F480331360B5E72C
:100E1000734B1A6842F480221A601A6842F48032D6
:100E20001A60ABE700F046FC05466D4B1B6813F4F7
:100E3000003FC3D000F03EFC401B6428F5D90320DE
:100E40005FE1674B5B6813F4800FC6D1644B1B688E
:100E500013F0020F03D0E368012B40F04F81604A8A
:100E6000136823F0F803216943EAC1031360236880
:100E700013F0080F40D0636963B35B4B01221A6023
:100E800000F018FC0546564B5B6F13F0020F33D190
:100E900000F010FC401B0228F5D9032031E1504A34
:100EA000136823F0F803216943EAC1031360DEE706
:100EB0004C4B00221A6000F0FDFB0546484B1B68B6
:100EC00013F0020FD3D000F0F5FB401B0228F5D938
:100ED000032016E1444B00221A6000F0EBFB0546AC
:100EE0003F4B5B6F13F0020F06D000F0E3FB401B9B
:100EF0000228F5D9032004E1236813F0040F78D009
:100F0000374B1B6C13F0805F0DD100230193344BE2
:100F10001A6C42F080521A641B6C03F080530193E8
:100F2000019B012500E00025304B1B6813F4807FF6
:100F300021D0A368012B32D0052B36D0284B1A6F55
:100F400022F001021A671A6F22F004021A67A368DE
:100F5000002B34D000F0AEFB0646214B1B6F13F084
:100F6000020F45D100F0A6FB801B41F28833984266
:100F7000F3D90320C5E01D4A136843F4807313605E
:100F800000F098FB0646194B1B6813F4807FD0D104
:100F900000F090FB801B0228F5D90320B1E0104A35
:100FA000136F43F001031367D1E70D4B1A6F42F043
:100FB00004021A671A6F42F001021A67C7E700F0CD
:100FC00079FB0646064B1B6F13F0020F10D000F0A2
:100FD00071FB801B41F288339842F3D9032090E0E3
:100FE0000038024000004742800E47420070004037
:100FF000EDB9A369002B00F08380494A926802F0A2
:101000000C02082A51D0022B17D0464B00221A603E
:1010100000F050FB0446424B1B6813F0007F42D0A7
:1010200000F048FB001B0228F5D9032069E03C4A88
:10103000136C23F080531364DBE73A4B00221A60F1
:1010400000F038FB0546364B1B6813F0007F06D0D6
:1010500000F030FB401B0228F5D9032051E0E36982
:10106000226A1343626A43EA8213A26A5208013A6F
:1010700043EA0243E26A43EA0263294A5360294B86
:1010800001221A6000F016FB0446254B1B6813F082
:10109000007F06D100F00EFB001B0228F5D90320CB
:1010A0002FE000202DE000202BE0012B2BD01C4B4B
:1010B0005B6803F48001E269914226D103F03F02AC
:1010C000216A8A4223D1616A47F6C0721A40B2EBA4
:1010D000811F1ED103F44031A26A5208013AB1EBDC
:1010E000024F18D103F07063E26AB3EB026F14D1C0
:1010F000002006E001207047012002E0012000E00E
:10110000002002B070BD0120FBE70120F9E70120BB
:10111000F7E70120F5E70120F3E70120F1E700BF41
:101120000038024060004742F8B5244B9B6803F04A
:101130000C03042B3DD0082B3DD1204B5A6802F004
:101140003F025B6813F4800F12D01C4B5968C1F347
:10115000881100231A48A1FB0001FFF7A9F8174BDB
:101160005B68C3F3014301335B00B0FBF3F023E0A2
:10117000124B5B68C3F388135C010025E41A65F128
:101180000005AE0146EA9466A701381B66EB05012F
:10119000CC0044EA5074C500E81844F100018B0209
:1011A00043EA90538402204619460023FFF780F853
:1011B000D5E7034800E00348F8BD00BF003802400F
:1011C00040787D010024F400002800F09B8070B579
:1011D0000D4604464F4B1B6803F00F038B4208D2A9
:1011E000CBB24C4A1370136803F00F038B4240F0EC
:1011F0008B80236813F0020F17D013F0040F04D074
:10120000454A936843F4E0539360236813F0080F52
:1012100004D0414A936843F4604393603E4A936824
:1012200023F0F003A1680B439360236813F0010FD0
:1012300032D06368012B21D09A1E012A25D9364A63
:10124000126812F0020F61D033498A6822F003025B
:1012500013438B6000F02EFA06462F4B9B6803F079
:101260000C036268B3EB820F16D000F023FA801BE8
:1012700041F288339842F0D9032042E0264A1268AE
:1012800012F4003FE0D101203BE0234A126812F043
:10129000007FD9D1012034E01E4B1B6803F00F03FF
:1012A000AB4207D9EAB21B4B1A701B6803F00F035D
:1012B000AB422DD1236813F0040F06D0164A936871
:1012C00023F4E053E1680B439360236813F0080FA5
:1012D00007D0114A936823F46043216943EAC103AC
:1012E0009360FFF721FF0C4B9B68C3F303130B4A7A
:1012F000D35CD8400A4B18600A4B186800F08EF98E
:10130000002070BD012070470120FAE70120F8E7B6
:101310000120F6E7003C024000380240BC2F0008E4
:101320000C00002008000020014B1868704700BF27
:101330000C00002008B5FFF7F7FF044B9B68C3F3D0
:101340008223034AD35CD84008BD00BF0038024066
:10135000CC2F000808B5FFF7E7FF044B9B68C3F3E9
:101360004233034AD35CD84008BD00BF0038024076
:10137000CC2F000800230F2B00F2EA80F0B482B0DB
:101380005EE086685F000324BC4026EA0406CC6861
:10139000BC4034438460466826EA02064C68C4F3C5
:1013A00000129A403243426058E0DC08083450F89A
:1013B000247003F0070296000F22B24027EA0207CA
:1013C0000A69B2403A4340F824205BE0092200E079
:1013D0000022B2403A4302345E4E46F824205E4A70
:1013E0001468EA4324EA05064F6817F4803F01D0E9
:1013F00045EA0406584C2660646802EA04064F6811
:1014000017F4003F01D045EA0406534C6660A46817
:1014100002EA04064F6817F4801F01D045EA04066B
:101420004D4CA660E46822404E6816F4001F01D0BF
:1014300045EA0402484CE26001330F2B00F285803C
:1014400001229A400C6804EA020532EA0404F3D14E
:101450004C6804F00304013C012C92D94A6802F064
:101460000302032A09D0C4685E000322B24024EAC2
:1014700002048A68B2402243C2604A6802F0030252
:10148000022A92D004685E000322B24024EA0204D9
:101490004A6802F00302B240224302604A6812F036
:1014A000805FC9D0002201922C4A546C44F48044DD
:1014B0005464526C02F480420192019A9C08A61C6A
:1014C000244A52F8267003F0030296000F22B2401D
:1014D00027EA0207224A90423FF47AAF02F580627F
:1014E000904222D002F58062904220D002F58062C4
:1014F00090421ED002F5806290421CD002F58062BC
:1015000090421AD002F58062904218D002F58062B3
:10151000904216D002F58062904214D002F58062AB
:1015200090423FF453AF0A2253E7012251E70222CF
:101530004FE703224DE704224BE7052249E7062245
:1015400047E7072245E7082243E702B0F0BC7047AF
:10155000704700BF00380140003C014000380240A5
:1015600000000240074AD36823F4E0631B041B0C0D
:10157000000200F4E060034343F0BF6343F4003330
:10158000D360704700ED00E030B4174BDB68C3F365
:101590000223C3F10704042C28BF04241D1D062DBB
:1015A00018D9033B4FF0FF3505FA04F421EA040192
:1015B000994005FA03F322EA0303194300280BDBE1
:1015C0000901C9B200F1604000F5614080F80013E4
:1015D00030BC70470023E5E700F00F000901C9B2F5
:1015E000024B1954F4E700BF00ED00E014ED00E0F9
:1015F0000138B0F1807F0AD2064B5860064AF021CC
:1016000082F823100020986007221A60704701209A
:10161000704700BF10E000E000ED00E010B50446A8
:101620000E4B18784FF47A73B3FBF0F30C4A106842
:10163000B0FBF3F0FFF7DCFF68B90F2C01D90120F4
:101640000AE0002221464FF0FF30FFF79DFF054BD7
:101650001C60002000E0012010BD00BF040000203D
:101660000C0000200800002008B50B4B1A6842F45B
:1016700000721A601A6842F480621A601A6842F4B2
:1016800080721A600320FFF76DFF0020FFF7C6FF8E
:10169000FFF762F9002008BD003C0240034A1168D0
:1016A000034B1B780B441360704700BF28010020D8
:1016B00004000020014B1868704700BF280100207B
:1016C000034AD2F8883043F47003C2F88830704778
:1016D00000ED00E0DFF834D00D480E490E4A00233B
:1016E00002E0D458C4500433C4188C42F9D30B4AD6
:1016F0000B4C002301E013600432A242FBD3FFF73E
:10170000DFFF00F017F8FEF7B3FF7047000003207B
:1017100000000020740000206831000874000020E0
:101720003C010020FEE70000014B1868704700BF35
:101730001000002070B50D4D0D4C641BA410002648
:10174000A64209D10B4D0C4C01F0F8FB641BA41010
:101750000026A64205D170BD55F8043B98470136D6
:10176000EEE755F8043B98470136F2E76031000890
:10177000603100086031000864310008024403460B
:10178000934200D1704703F8011BF9E770B50E468C
:10179000054618B183690BB900F038FBAB69AC683A
:1017A00013B9284600F032FB2C4B9C4220D16C68C8
:1017B000636EDB0705D4A389980502D4A06D00F001
:1017C000E0FBA38919071DD52369DBB1013EA3689E
:1017D00016F8011F013BA36039BB002B38DA224603
:1017E0000A21284600F026F9013011D00A2511E01F
:1017F0001B4B9C4201D1AC68DAE71A4B9C4208BFF4
:10180000EC68D5E72146284600F066F90028DDD0CF
:101810004FF0FF35636EDA0705D4A3899B0502D428
:10182000A06D00F0AFFB284670BD002B04DAA26962
:101830009A4206DC0A2904D023685A1C22601970D7
:10184000C5E72246284600F0F5F80130BFD1DFE7B2
:1018500023680A255A1C22601D70DBE7F82F000858
:1018600018300008D82F0008024B01461868FFF70F
:101870008DBF00BF100000200FB40A4B13B51C68C9
:1018800024B1A36913B9204600F0C0FA05AB049A4D
:1018900061680193204600F031FE02B0BDE81040BF
:1018A00004B07047100000202DE9F7431D465D4B42
:1018B0001F6804460E46904627B1BB6913B93846E7
:1018C00000F0A4FA584B9C4267D17C68B8F1020F33
:1018D00006D0B8F1010F00F29F80002DC0F29C806D
:1018E000636EDB0705D4A389980502D4A06D00F0D0
:1018F00048FB2146384600F0E3F9616B41B104F141
:101900004403994202D0384600F0AAFB00236363E7
:101910000023A3616360A389190603D521693846B2
:1019200000F09EFBA38923F44A6323F00303B8F17C
:10193000020FA3816CD001AB6A462146384600F005
:1019400022FBA3891843A081002D30D1009D284699
:1019500000F07EFB0646002855D1DDF80090A94531
:101960004AD14FF0FF350022A26004F14702226005
:1019700022610122B4F90C306261626E43F002030D
:10198000D207A38105D413F4007F02D1A06D00F02B
:10199000F9FA284603B0BDE8F083244B9C4201D1FC
:1019A000BC6893E7224B9C4208BFFC688EE7002E80
:1019B000CDD0BB6913B9384600F028FAB8F1010F51
:1019C00008BFA389266004BF43F00103A381A28955
:1019D00012F00803C4E904651CD0D30741BF0023FB
:1019E0006D42A360A56158BFA560656E15F0010545
:1019F00015D112F4007FC8E7484600F029FB0646DF
:101A00000028AED04D46A38943F08003A381D0E7E0
:101A10000025A8E7A360E8E74FF0FF35B9E7002508
:101A2000B7E700BF10000020F82F000818300008AA
:101A3000D82F0008F8B50E461446054618B183693C
:101A40000BB900F0E3F9214B9C422BD16C68A369E0
:101A5000A360A3891A072FD523696BB32369206874
:101A6000C01A6369F6B28342374604DC2146284631
:101A700000F026F930BBA368013BA36023685A1C21
:101A800022601E7063690130834204D0A389DB07A2
:101A900006D50A2E04D12146284600F011F988B94E
:101AA0003846F8BD0A4B9C4201D1AC68CFE7094BE0
:101AB0009C4208BFEC68CAE72146284600F00CF8B3
:101AC0000028CBD04FF0FF37EAE700BFF82F00081F
:101AD00018300008D82F0008324B70B51D68064634
:101AE0000C4625B1AB6913B9284600F08FF92E4B8F
:101AF0009C420FD16C68A389B4F90C2019072CD42F
:101B0000DD0611D40923336042F04003A3814FF076
:101B1000FF303EE0254B9C4201D1AC68EBE7244B03
:101B20009C4208BFEC68E6E7580712D5616B41B1EB
:101B300004F14403994202D0304600F091FA0023A8
:101B40006363A38923F02403A381002363602369D3
:101B50002360A38943F00803A38123694BB9A389B8
:101B600003F42073B3F5007F03D02146304600F024
:101B70002FFAA089B4F90C2010F001030AD0002339
:101B8000A36063695B42A361236943B910F08000DD
:101B9000BAD170BD810758BF6369A360F4E7002024
:101BA000F7E700BF10000020F82F000818300008E9
:101BB000D82F00088A892DE9F041054610070C4608
:101BC00058D44B68002B05DC0B6C002B02DC00208A
:101BD000BDE8F081E66A002EF9D0002312F48052AD
:101BE0002F682B6032D0606DA3895A0705D56368D2
:101BF000C01A636B0BB1236CC01A00230246E66A5D
:101C0000216A2846B047431CA38906D129681D29AB
:101C10002CD82A4ACA40D60728D500226260D904A7
:101C20002269226004D5421C01D12B6803B960658A
:101C3000616B2F600029CAD004F14403994202D09D
:101C4000284600F00DFA00206063C1E7216A0123F5
:101C50002846B047411CC7D12B68002BC4D01D2B90
:101C600001D0162B01D12F60B1E7A38943F04003C7
:101C7000A381ADE70F69002FA9D093070E6808BFB5
:101C80004B690F6018BF0023A6EB07088B60B8F103
:101C9000000F9CDD216AA66A43463A462846B047B3
:101CA000002806DCA38943F04003A3814FF0FF30F6
:101CB0008EE70744A8EB0008E9E700BF01004020D9
:101CC00038B50B6905460C4613B90025284638BDC2
:101CD00018B183690BB900F099F8144B9C421BD1E1
:101CE0006C68B4F90C30002BEFD0626ED00704D4CE
:101CF000990502D4A06D00F044F928462146FFF76B
:101D000059FF636EDA070546E0D4A3899B05DDD44D
:101D1000A06D00F037F9D9E7054B9C4201D1AC68C2
:101D2000DFE7044B9C4208BFEC68DAE7F82F0008B5
:101D300018300008D82F0008014620B9044B054987
:101D4000186800F0FEB8044B1868FFF7B9BF00BF71
:101D5000D42F0008C11C000810000020002310B57B
:101D60000446C0E90033C0E90433836081814366DF
:101D7000C2818361194608225C30FFF7FFFC054BE6
:101D80006362054BA362054BE362054B2462236348
:101D900010BD00BFA1290008C3290008FB290008C5
:101DA0001F2A0008014900F0CCB800BFC11C000880
:101DB00070B54A1E682555430E4605F1740100F0C2
:101DC0009FF9044640B10021C0E900160C30A06024
:101DD00005F16802FFF7D2FC204670BD014800F013
:101DE000D0B800BF34010020014800F0CBB800BFDC
:101DF00034010020014800F0C4B800BF2F010020CA
:101E0000014800F0BFB800BF2F01002010B5044604
:101E1000FFF7F0FFA3691BB1BDE81040FFF7F0BF6B
:101E2000C4E912332365134B134A1B68A262A34211
:101E300004BF0123A361204600F020F86060204623
:101E400000F01CF8A060204600F018F80022E060C6
:101E500004216068FFF782FFA06801220921FFF7D3
:101E60007DFFE06802221221FFF778FF0123A361C2
:101E7000D2E700BFD42F0008A51D0008F8B507461B
:101E8000FFF7ACFF1E4B1E68B36913B93046FFF76E
:101E9000BDFF4836D6E90134013B03D533680BB3A7
:101EA0003668F7E7B4F90C50D5B9164BE36004F186
:101EB0005800656600F064F8FFF796FFC4E9015525
:101EC000C4E904552560A5610822294604F15C0097
:101ED000FFF754FCC4E90D55C4E912552046F8BD7E
:101EE0006834D9E704213846FFF762FF04463060C2
:101EF0000028D5D1FFF778FF0C233B60EEE700BF49
:101F0000D42F00080100FFFF2DE9F0410F4600F13A
:101F100048040026D4E90185B8F1010805D52468F4
:101F2000002CF7D13046BDE8F081AB89012B06D9F2
:101F3000B5F90E30013302D02846B847064368355C
:101F4000EAE72DE9F8430646884600F148040027F1
:101F5000D4E90195B9F1010905D52468002CF7D120
:101F60003846BDE8F883AB89012B07D9B5F90E30A7
:101F7000013303D029463046C04707436835E9E7B7
:101F800070477047704770B50E46B1F90E100029C2
:101F900096B014461D4607DA00232B60B3891A0653
:101FA00010D44FF480630EE06A4600F02BFF002847
:101FB000F2DB019A02F47042A2F500535A425A41F0
:101FC0002A60EEE740230020236016B070BD0000B9
:101FD0008B8973B59D0706460C4607D504F1470368
:101FE000236023610123636102B070BD01AB6A46C7
:101FF000FFF7C9FF00990546304600F081F848B95F
:10200000B4F90C309A05EFD423F0030343F0020334
:10201000A381E3E70D4BB362A389206043F0800303
:10202000A381009B6361019B20615BB1B4F90E1039
:10203000304600F0F9FE28B1A38923F0030343F0F2
:102040000103A381A0890543A581CDE7A51D000853
:10205000024B0146186800F053B800BF1000002082
:1020600037B5002948D051F8043C0190002BA1F16C
:102070000404B8BFE41800F007FF204A0198136871
:10208000154633B96360146003B0BDE8304000F01A
:1020900001BFA3420BD921686218934204BF1A689A
:1020A0005B68636004BF521822602C60ECE71A463C
:1020B0005B680BB1A342FAD911685518A5420BD140
:1020C000246821445418A3421160DDD11C685B6868
:1020D000536021441160D7E702D90C230360D3E792
:1020E000256861198B4204BF19685B68636004BF8F
:1020F000491921605460C7E703B030BD900000204B
:10210000F8B5CD1C25F0030508350C2D38BF0C257E
:10211000002D064601DBA94203D90C2333600020C1
:10212000F8BD00F0B1FE21490A6814469CB9204F61
:102130003B6823B92146304600F0E8FB3860294669
:10214000304600F0E3FB431C23D10C2333603046C0
:1021500000F0A0FEE3E723685B1B17D40B2B03D929
:1021600023601C44256004E06368A2420CBF0B603E
:102170005360304600F08EFE04F10B00231D20F06A
:102180000700C21ACCD01B1AA350C9E722466468C4
:10219000CCE7C41C24F00304A042E3D0211A30464B
:1021A00000F0B4FB0130DDD1CFE700BF900000208C
:1021B000940000202DE9F04F1D464B6EDF07ADF572
:1021C000237D06460C46924605D48B89980502D499
:1021D000886DFFF7D6FE0023CDE94433AE4BA093C4
:1021E0000DF10408AD4BAE4FDFF8B892CDF8188171
:1021F000A19300959AF800B0BBF1000F00F0708138
:102200001BF8073013F008030AF1010519D06368C1
:10221000002B0FDD23681A78BA5C110701D4AA4697
:10222000E8E7459A0132459262680133013A6260FB
:102230002360ECE7A19B2146304698470028E9D06F
:10224000EDE7BBF1250F40F08680419343939AF868
:1022500001302A2B02BF102341930AF102050A2202
:10226000AA461AF8011BA1F13003092B1ED98D488B
:102270000322FDF7CDFF40B10123A0EB090003FAD3
:1022800000F0419B18434190554615F8013B782BCF
:1022900007D8572B11D8252B5DD057D8002B00F02D
:1022A000D680032347930A2342938BE0439B02FB90
:1022B0000313303B43935546D2E7A3F15802202A3B
:1022C000EFD801A151F822F0AF230008A3220008A3
:1022D000A32200080D240008A3220008A32200085E
:1022E000A3220008A3220008A3220008A3220008BA
:1022F000A322000823240008F92300085323000820
:102300005323000853230008A3220008FD230008DC
:10231000A3220008A3220008A3220008A322000889
:102320003324000805240008A7230008A32200087E
:10233000A32200082F240008A3220008F923000884
:10234000A3220008A3220008AF230008453B022B6C
:10235000A7D8052335E06368002B0DDD23681A78C4
:102360005A4540F0BD80013362682360459B013AC5
:1023700001336260459352E7A19B2146304698475E
:102380000028EBD0636EDA0740F1A2804498002861
:1023900066D0A38913F0400F18BF4FF0FF300DF542
:1023A000237DBDE8F08F419A42F020024192419A8C
:1023B00042F40072419210226F2B429234BF0323E9
:1023C000042347936368002B4DDD419B5B0604D4D7
:1023D00023681A78BA5C10074CD4479B022B63DC45
:1023E0006B46224641A9304600F0B0F8012877D06C
:1023F00002287FF414AFC5E70A22DDE700234293E9
:102400000323DEE7082342930423DAE72946404604
:1024100000F08CFA419B43F04003419305460123B1
:10242000CFE7419B43F0400341930023C9E70223D8
:10243000C7E74198C3063FF5F2AE009B459A191DC8
:1024400000911B68C0074CBF1A801A60E7E6636EF4
:10245000D80705D4A389990502D4A06DFFF792FD92
:102460004FF0FF309BE7A19B21463046984700285C
:10247000ABD087E7459A013245926268013A002A5B
:10248000626002DD01332360A2E7A19B2146304652
:10249000984700289CD075E7912C0008F927000880
:1024A0005830000838300008042B06DC6B46224602
:1024B00041A9304600F0A2F898E70F4B002B3FF4FB
:1024C000AEAE6B46224641A93046AFF300808DE7A1
:1024D000A38999053FF55AAFA06DFFF753FD55E766
:1024E000636EDA0705D4A3899B0502D4A06DFFF7BC
:1024F00049FD449853E700BF0000000037B50C4683
:10250000054638B1816929B9CDE90023FFF77EFC82
:10251000DDE900230A498C4207D16C682146284630
:1025200003B0BDE83040FFF745BE06498C4201D1FB
:10253000AC68F3E704498C4208BFEC68EEE700BFE3
:10254000F82F000818300008D82F00082DE9F843AC
:1025500015468A6880460C4632B98A69002A0CBF43
:1025600001224FF0FF328A602268DFF88C90D1069A
:102570005FBF1A68111D196016680027A06988B12D
:10258000012807D12B681A7863699B5C53B927BB74
:10259000BDE8F883022820D12B681B7813F8093096
:1025A0001B071AD42368DA065EBF2B681B7806F86F
:1025B000013B2A686B6801322A60A268013B013A3C
:1025C0006B600137A26042B1002BD7DCD4F88031B8
:1025D0002946404698470028D0D0236813F01003BE
:1025E00005D1E2680132E260A26902B13370236969
:1025F0001F4427610020CBE7583000082DE9F04F39
:102600009846744B0C468246164693E8070087B0FE
:1026100003AB83E80700704BA169704A032918BF18
:102620001A46A36801925A1EB2F5AE7F88BF6FF4B6
:10263000AE75274682BF03EB050940F25D13A36028
:1026400057F81C3B43F4506398BF4FF000092360D8
:102650003D464FF0000B316803AB097853F82B006F
:102660000222FDF7D5FD28B3BBF1010F59D16268F5
:102670002AB92268082342F400726360226022684B
:1026800022F4A0622260A268511EA16092B1326859
:10269000511C3160127805F8012B7268013A002A4A
:1026A000726007DCD4F880213146504690470028FC
:1026B00040F085800BF1010BBBF1030FCBD16368B8
:1026C0000BB90A236360636845496069C91A00F061
:1026D0002DF94FF0000BA3682268002B3DD0316824
:1026E000606991F800C010F80C00002835D0BCF1EA
:1026F000300F24D1100522D50BF1010BB9F1000FD9
:1027000003D0013309F1FF39A3607368013B002B4B
:1027100073601BDD336801333360A368013BA36042
:10272000D9E7BBF1020FAED1226802F4C061B1F566
:10273000007FBFD11023636042F48072A2E722F4CD
:10274000106222600B7805F8013BDEE7D4F8803197
:102750003146504698470028DFD02368D9050DD56B
:10276000BD4209D915F8011CD4F87C3132465046D7
:10277000984705F1FF394D46BD4228D0226812F036
:10278000100213D12A706368019E39465046B04743
:10279000D8F8003021681A1DC8F8002011F0200F69
:1027A0001B680FD01860E3680133E360ED1BAB4496
:1027B00025695D442561002007B0BDE8F08F4FF02A
:1027C000000BCAE7CA074CBF18801860EBE701206E
:1027D000F2E700BF642F0008192C00081D2B000829
:1027E00055300008838903F00903092B01D1FFF755
:1027F000A3BA002070470000F8B50C46054618B192
:1028000083690BB9FFF702FB3B4B9C420AD16C6812
:10281000B4F90C2000236360A3899E060CD54FF009
:10282000FF3066E0354B9C4201D1AC68F0E7344B99
:102830009C4208BFEC68EBE7580748D4D90605D49A
:1028400009232B6042F04003A381E8E71A070BD568
:1028500021462846FFF734FA0028E0D1A389A0607A
:1028600023F00803A381A061A38943F00403A3819B
:1028700023691BB921462846FFF7AAFBA689B4F9AC
:102880000C70B3070FD00123A3811E4B1E4918689B
:1028900006F00906FFF738FB092EA78103D1214670
:1028A0002846FFF787F92269666A6369216A226010
:1028B0002846B047002860601CDCB4F90C3017BF14
:1028C000002243F02003626043F04003BCE7616BE9
:1028D0000029CDD004F14403994202D02846FFF7E5
:1028E000BFFB236C636000206063002BC0D0E36BF0
:1028F0002360F8BD0020FCE7F82F0008183000081E
:10290000D82F0008D42F0008E527000838B5064D59
:102910000023044608462B6000F002FB431C02D152
:102920002B6803B1236038BD3801002070B50B78E7
:1029300004465E2B0BBF4B78481C881C002208BF46
:102940000122611E04F1FF0501F8012FA942FBD10C
:102950000BB9013870BD82F00101E154421C12F83C
:10296000015C2D2D02F1FF36104606D05D2DF1D011
:102970000DB93046EEE72B46EFE716785D2EFAD01C
:10298000B342F8DC1846013086422154FBDCD843C0
:1029900030445D1CB342A8BF00202B180232DEE792
:1029A00010B50C46B1F90E1000F0A0FA0028ABBF2C
:1029B000636DA3891B1823F48053ACBF6365A381A7
:1029C00010BD2DE9F0411F468B89DB0505460C46FD
:1029D000164605D5B1F90E100223002200F034FA94
:1029E000A389B4F90E1023F48053A38132463B46E9
:1029F0002846BDE8F04100F0E3B910B50C46B1F946
:102A00000E1000F021FA431CA38915BF606523F462
:102A1000805343F48053A38118BFA38110BDB1F943
:102A20000E1000F0DFB900002DE9F0473A4E86465F
:102A30008C4660461CF8014BA55D15F00805F8D1E1
:102A40002D2C33D19CF800404FF0010800F1020C0E
:102A5000002B5CD0102B0CD1302C0AD19CF800003C
:102A600000F0DF0058284DD19CF8014010230CF1F4
:102A7000020C08F10047013F0026B7FBF3F930468E
:102A800003FB197AA4F13005092D18D82C46A3426E
:102A900024DD751C07D081451DD301D1A2451ADB69
:102AA00000FB034001261CF8014BEBE72B2C08BF71
:102AB0009CF80040A84608BF00F1020CC8E7A4F14A
:102AC0004105192D01D8373CE1E7A4F16105192D25
:102AD00004D8573CDBE74FF0FF36E4E7731C06D120
:102AE0002223CEF80030384642B9BDE8F087B8F16D
:102AF000000F00D04042002AF7D00EB10CF1FF3198
:102B00001160F2E73024002BB3D10823B1E7302C59
:102B1000A4D00A23ADE700BF58300008FFF784BFF8
:102B20002DE9F0433B4E86468C4660461CF8014B2F
:102B3000A55D15F00805F8D12D2C34D19CF8004086
:102B40004FF0010800F1020C002B5ED0102B0CD1CD
:102B5000302C0AD19CF8000000F0DF0058284FD13B
:102B60009CF8014010230CF1020C4FF0FF370025B8
:102B7000B7FBF3F703FB07F96FEA09092846A4F14D
:102B80003006092E18D83446A34224DD002D1FDB61
:102B900087421DD301D1A1451ADB00FB034001256B
:102BA0001CF8014BEBE72B2C08BF9CF80040A84613
:102BB00008BF00F1020CC7E7A4F14106192E01D8A5
:102BC000373CE1E7A4F16106192E04D8573CDBE756
:102BD0004FF0FF35E4E7002D07DA2223CEF800306E
:102BE0004FF0FF3042B9BDE8F083B8F1000F00D0DC
:102BF0004042002AF7D00DB10CF1FF311160F2E72D
:102C00003024002BB1D10823AFE7302CA2D00A2307
:102C1000ABE700BF58300008FFF782BF2DE9F04155
:102C20000C46496B04F1440399421DD14FF4806175
:102C3000FFF766FA18B94FF0FF30BDE8F0814FF4A6
:102C40008063A36394F84630606380F8FF3394F8A0
:102C5000453080F8FE3394F8443080F8FD3300F2BC
:102C6000FD3020600020E8E7A66B77003A4600F0D0
:102C700017F905460028DED000EB0608014632466B
:102C8000404600F0F3F8C4E90D57C4F80080E9E7C6
:102C900070B514464A1C06460D4603D14FF0FF3569
:102CA000284670BD18B183690BB9FFF7AFF8414BE7
:102CB0009C421DD17468636EDB0705D4A389980517
:102CC00002D4A06DFFF75DF9B4F90C3023F02003B6
:102CD0005907A3819AB22DD4D30613D4636EDD07AE
:102CE000DCD412F4007FD9D1A06DFFF74BF9D5E702
:102CF000314B9C4201D1B468DDE7304B9C4208BFA8
:102D0000F468D8E7100711D521463046FEF7D8FF02
:102D100030B1636ED907C1D4A38913F4007FE2E711
:102D2000A389A06023F00803A381A061A38943F0D5
:102D30000403A381636B6268EDB2D3B1A36B9342CA
:102D400005DC21463046FFF769FF0028E1D1236802
:102D50005A1E226003F8015C636801336360636E8E
:102D6000DA079DD4A3899B059AD4A06DFFF70AF9D1
:102D700096E7616E2069236801F0010160B1984215
:102D80000AD213F8010CA84206D1013B013223609C
:102D90006260002984D1E5E7C4E90F3204F14403FD
:102DA00063630323A363234603F8465F2360012381
:102DB0006360EEE7F82F000818300008D82F0008ED
:102DC00038B5074D04460846114600222A601A46C7
:102DD000FDF762FD431C02D12B6803B1236038BDAF
:102DE0003801002038B5064D0023044608462B6004
:102DF000FDF76CFD431C02D12B6803B1236038BD85
:102E00003801002038B5074D002304460846114616
:102E10002B60FDF787FD431C02D12B6803B12360B3
:102E200038BD00BF3801002038B5064D00230446E8
:102E300008462B60FDF724FD431C02D12B6803B12B
:102E4000236038BD3801002038B5074D04460846D8
:102E5000114600222A601A46FDF744FD431C02D1A8
:102E60002B6803B1236038BD380100200A44914229
:102E700000F1FF3300D1704710B511F8014B03F892
:102E8000014F9142F9D110BD0148FFF77AB800BF58
:102E9000300100200148FFF775B800BF3001002065
:102EA000F8B5074614460E4621B9BDE8F84011466C
:102EB000FFF726B922B9FFF7D3F825462846F8BD13
:102EC00000F026F8A0420FD221463846FFF718F945
:102ED00005460028F2D031462246FFF7C7FF3146AB
:102EE0003846FFF7BDF8E9E73546E7E738B5074D5F
:102EF00004460846114600222A601A46FDF7FAFCED
:102F0000431C02D12B6803B1236038BD3801002077
:102F100051F8043C181F002BBCBF0B58C018704759
:102F2000044A05491368002B08BF0B46184410607B
:102F3000184670479800002040010020F8B500BFF7
:102F4000F8BC08BC9E467047F8B500BFF8BC08BC8A
:042F50009E467047E2
:102F54006861636B6D650000000000000000000004
:102F64003C3000083F300008423000084E69636579
:102F7400204861636B210A002573000025313673F4
:102F84000A00000057656C636F6D6520746F2074D0
:102F9400686520776F726C64206F66204861636B8C
:102FA400696E67210000000057726F6E67207061C0
:102FB4007373776F7264210000000000000000004A
:102FC40001020304060708090000000001020304CB
:102FD40014000020000000000000000000000000B9
:102FE40000000000000000000000000000000000DD
:102FF40000000000000000000000000000000000CD
:1030040000000000000000000000000000000000BC
:1030140000000000000000000000000000000000AC
:10302400000000000000000000000000000000009C
:1030340000000000686C4C002B2D003030007858E4
:1030440000412D46612D66383930313233343536FE
:10305400375D000020202020202020202028282840
:10306400282820202020202020202020202020204C
:103074002020202088101010101010101010101094
:1030840010101010040404040404040404041010B4
:103094001010101010414141414141010101010151
:1030A40001010101010101010101010101010110FD
:1030B4001010101010424242424242020202020226
:1030C40002020202020202020202020202020210CE
:1030D400101010200000000000000000000000009C
:1030E40000000000000000000000000000000000DC
:1030F40000000000000000000000000000000000CC
:1031040000000000000000000000000000000000BB
:1031140000000000000000000000000000000000AB
:10312400000000000000000000000000000000009B
:10313400000000000000000000000000000000008B
:10314400000000000000000000000000000000007B
:043154000000000077
:0831580088D1FF7F0100000097
:04316000D50100088D
:04316400B1010008AD
:10316800A905000801000000100000000024F40078
:103178001400002000000000F82F00081830000894
:10318800D82F000800000000000000000000000028
:103198000000000000000000000000000000000027
:1031A8000000000000000000000000000000000017
:1031B8000000000000000000000000000000000007
:1031C80000000000000000000000000000000000F7
:0431D80000000000F3
:04000005080016D504
:00000001FF
